:020000040002F8
:10600000805A0020F962020001630200036302006B
:10601000056302000763020009630200000000003C
:106020000000000000000000000000000B63020000
:106030000D630200000000000F6302001163020004
:106040002166020013630200396A020045680200FB
:106050001363020013630200096402009D660200DC
:106060001363020013630200136302001363020050
:106070001363020013630200136302001363020040
:10608000136302007966020013630200DD630200FD
:10609000556802001363020059680200136302008E
:1060A0001363020013630200136302001363020010
:1060B00013630200136302000000000000000000F0
:1060C00013630200136302001363020013630200F0
:1060D00013630200136302001363020013630200E0
:1060E0001363020013630200136302000000000048
:1060F00000000000136302000000000013630200B0
:10610000000000000000000000000000000000008F
:10611000000000000000000000000000000000007F
:10612000000000000000000000000000000000006F
:10613000000000000000000000000000000000005F
:10614000000000000000000000000000000000004F
:10615000000000000000000000000000000000003F
:10616000000000000000000000000000000000002F
:10617000000000000000000000000000000000001F
:10618000000000000000000000000000000000000F
:1061900000000000000000000000000000000000FF
:1061A00000000000000000000000000000000000EF
:1061B00000000000000000000000000000000000DF
:1061C00000000000000000000000000000000000CF
:1061D00000000000000000000000000000000000BF
:1061E00000000000000000000000000000000000AF
:1061F000000000000000000000000000000000009F
:10620000DFF80CD000F0D8F800480047658802009D
:10621000805A002030B4044654E8000F0D4644E88C
:106220000053002BF8D1156030BC704730B40446E1
:1062300054E8000F40EA010544E80053002BF7D171
:10624000156030BC704730B4044654E8000F00EAD3
:10625000010544E80053002BF7D1156030BC7047AE
:1062600030B4044654E8000F80EA010544E80053C6
:10627000002BF7D1156030BC704730B4044654E8A9
:10628000000F00EB010544E80053002BF7D1156027
:1062900030BC704730B4044654E8000FA0EB010551
:1062A00044E80053002BF7D1156030BC704770B440
:1062B00004464FF0000054E8006F0D68AE4207BF7F
:1062C00044E80023012044E800630E60002B1CBF5B
:1062D0000020F0E770BC704730B4044654E8000F6B
:1062E00088422CBF451A054644E80053002BF5D1DF
:1062F000156030BC704700000648804706480047DC
:10630000FEE7FEE7FEE7FEE7FEE7FEE7FEE7FEE765
:10631000FEE7FEE75D680200016202000048704788
:106320000CC1020040EA01039B0703D009E008C941
:10633000121F08C0042AFAD203E011F8013B00F84A
:10634000013B521EF9D27047D2B201E000F8012B96
:10635000491EFBD270470022F6E710B513460A46E5
:1063600004461946FFF7F0FF204610BD421C10F806
:10637000011B0029FBD1801A7047034611F8012B3D
:1063800000F8012B002AF9D11846704730B50B46AA
:10639000014600202022012409E021FA02F59D4255
:1063A00005D303FA02F5491B04FA02F52844151E29
:1063B000A2F10102F1DC30BD064C074D06E0E068B9
:1063C00040F0010394E8070098471034AC42F6D33C
:1063D000FFF71AFF74C8020094C8020010B501212B
:1063E000080202F025FA02214FF4827002F020FA2E
:1063F00004214FF4847002F01BFABDE8104008211C
:106400004FF4867002F014BA2DE9F04F00268DB0DB
:10641000DFF8A081B14604964FF480750124374619
:106420000596284603F0F6F938B1D8F8040320425F
:1064300003D0284603F0E4F926432D1D64007F1C99
:10644000ADB2082FEDD34FF4BE74204603F0E2F94D
:1064500048B1204603F0D4F946F0004604AA0221D0
:10646000002003F0B7F9544C16F0FF0F15D00127A8
:10647000002537420DD008EB8501D1F81005D1F881
:106480001015C0F3052054F82520C1F3014102B1D5
:1064900090477F006D1C082DEBD3002E7EDA002084
:1064A000CDF82890411E0DF1100B07AACDF82C90C5
:1064B00042F82010401C91460228F9D300252E46B0
:1064C000A11911F8607F91F9000027F0C008401C65
:1064D00040D007A9404602F0D0FD40B34FEA971ADA
:1064E000404601F01FFC54F820701FB1BAF1030FB1
:1064F00003D006E0BAF1030F2CD10AA9404602F0FE
:10650000C4FD02A8CDF8088003F028F9029900EB39
:106510008100D0F8000704A9C0F301400290404672
:1065200002F0ABFD0028029802D0022802D011E050
:1065300003280FD1BAF1030F08D10298022833D0F3
:106540000221404603F0D0F86D1CEDB217B1514660
:106550004046B847761C042EB2D3002D21D001AAA4
:106560000221002003F036F900205A460DF1040103
:1065700052F8206051F82030B34217D000200AAE04
:106580004FEA090351F8207042F8207056F8207045
:1065900043F82070401C0228F4D300E001E0002DF5
:1065A0008CD10DB0BDE8F08F0321CAE7401C022852
:1065B000DED3F6E7006000404430002000F01F0208
:1065C000012191404009800000F1E020C0F88012D4
:1065D000704700F01F02012191404009800000F146
:1065E000E020C0F80011704700F01F020121914027
:1065F0004009800000F1E020C0F800127047490710
:10660000090E002806DA00F00F0000F1E02080F803
:10661000141D704700F1E02080F80014704700005E
:1066200070B54FF48076304602F076FE114CB50519
:1066300060B1304602F077FE0120C5F808036079AA
:1066400020B9012060712168002088474FF48276CC
:10665000304602F061FE00280AD0304602F063FEA8
:106660000220C5F808032168BDE8704001200847F2
:1066700070BD0000F02A002007480021C0F840113A
:10668000C0F84411C0F84811C0F84C11C0F800110E
:10669000C0F8041104F096BF001001402DE9FE433C
:1066A0004FF48278404603F097FC4C4F00254C4C49
:1066B000012600B3404603F097FC94F82E0010B179
:1066C00094F82F10D1B18DF80050616801912189A3
:1066D000ADF80810E26832B1218B618362602181DC
:1066E000E56010B102E0257400E03E602168684674
:1066F000884784F82F5094F82E0060B34FF48077C9
:10670000384603F069FC30B3384603F06DFC628B09
:1067100094F82D108A420AD9A2EB010080B260835E
:106720002289A2EB0000626802EB400005E007D17D
:10673000E06828B184F82F60658303F03BFC04E037
:106740008A4202D184F82F606583404603F04CFCF6
:106750002248001D06604FF48877384603F03CFC61
:1067600048B1384603F040FC257402208DF8000043
:106770002168684688474FF48A77384603F02CFC36
:1067800028B1384603F030FC2574BDE8FE834FF095
:1067900000484FF48C7967691DE000BFB7FA87F0B5
:1067A00028FA00F109EB80058F43284603F014FC1A
:1067B00088B1284603F018FCA5F58C75E8088DF81B
:1067C000040045F38000401C8DF800608DF8050042
:1067D000216868468847002FE0D1D6E70070004066
:1067E000E430002000F02EB970B50E46144900EBDD
:1067F000400001EBC0051446E86A183520B10128B5
:106800000FD0022805D113E0284600F04FF9A0422E
:1068100001D2002411E022463146284600F07EF9DC
:106820000BE0284600F042F9A042F4D20446F2E719
:106830003146284600F045F90446204670BD000068
:10684000F43700200149024804F07EBFB030002038
:106850000030004004F004BE03F074BD30B54FF0CA
:10686000805000228300D0F83011C3F80C21C3F807
:106870001021624B1A60624B1B68624C2360604BB4
:106880001B1D1B68241D23605D4B08331B68241DE2
:1068900023605B4B0C331B68241D2360584B103363
:1068A0001B68241D2360564B14331B68241D236072
:1068B000534B18331B68534C20342360504B1C330C
:1068C0001B68241D23604E4B20331B68241D23604E
:1068D0004B4B24331B68241D2360494B28331B6812
:1068E000241D2360464B2C331B68241D2360444B1E
:1068F00030331B68434C40342360414B34331B68B6
:10690000241D23603E4B38331B68241D23603C4B01
:106910003C331B68241D2360394B40331B68241D06
:1069200023600123082902D1D0F8344114B1082989
:1069300004D006E0354C3449216005E0D0F83441FC
:1069400014B1082904D006E0314CFB21216005E098
:10695000D0F8344114B1082908D00EE090F858421C
:106960002C48016864F30301016002E0D0F834416F
:106970001CB929494FF40070086028480168C9070C
:1069800002D06FF0010101602548016841F47001F7
:106990000160BFF34F8FBFF36F8F4FF01021D1F81D
:1069A0000002002803DBD1F80402002822DA1D4C83
:1069B00023601D480368002BFCD01223C1F800326D
:1069C0000568002DFCD0C1F8043201680029FCD014
:1069D000226001680029FCD0BFF34F8F10487C383B
:1069E0000168124A01F4E06111430160BFF34F8F67
:1069F00000BFFDE70F490E48086030BD3805004074
:106A00000404001020C50040488103008C5600405B
:106A100018F50040E40E004040960240000400409B
:106A200088ED00E004E5014000E401400400FA05BF
:106A30000090D003942B002001480068004700001C
:106A4000F82A002010B5124C02202061606111A0CC
:106A5000A06104F17800E0614FF400702062002032
:106A6000A06260620BA1A164E06204F51E71E164A2
:106A70001021A065C4E91410E06509A1E01DFFF72D
:106A80007CFC08A12046FFF778FC2020A07110BDF7
:106A9000F43700205465726D696E616C000000006F
:106AA0005254540053454747455200000269C1689B
:106AB0008A4203D88068401A104400E0501A401EF1
:106AC00070472DE9F047C4681746894606464FF0DF
:106AD00000083069A04201D9051B02E0B168201A04
:106AE0000D1AB0686D1E001BA84200D80546BD42B5
:106AF00000D33D4670682A4620444946FFF712FC01
:106B0000B0687F1B2C44A844A944A04200D10024B3
:106B1000F460002FDDD14046BDE8F0872DE9F0415B
:106B200004468846D4E90207C51BE168606816463A
:106B30000844B54206D94146FFF7F4FBB819E060B6
:106B4000BDE8F0812A464146FFF7ECFB761B08EBD7
:106B5000050132466068FFF7E5FBE660F0E70000FC
:106B60000FB4084B10B504A902AA039800F02EF840
:106B7000044602A9002000F0D3F8204610BC5DF8BE
:106B800014FB0000216D020002E008C8121F08C1BA
:106B9000002AFAD170477047002001E001C1121F9E
:106BA000002AFBD1704700000121202803DA814030
:106BB0000548014003E0402802DA2038814009B14D
:106BC0000120704700207047FC06FFBD2DE9FF4FF4
:106BD00089B09B460446002506E025280BD05A467E
:106BE0000B999047641C6D1C20780028F5D10DB0DE
:106BF0002846BDE8F08F0027B8460122474900E04B
:106C0000074314F8013F203B02FA03F00842F7D192
:106C100020782E2819D114F8010F47F004072A28EC
:106C20000ED06FF02F022078A0F1300109290CD886
:106C300008EB880102EB410100EB0108641CF2E75C
:106C40000A98641C50F8048B0A9020780028CED053
:106C5000642808D0692806D075281ED05A460B999A
:106C600090476D1C58E00A994FF00A0901C90A9132
:106C7000002802DA40422D2102E0390504D52B21FB
:106C80008DF82010012103E0F90704D02021F7E757
:106C90008A4608AE0DE00021FAE70A994FF00A098A
:106CA00001C90A91F7E74946FFF770FB303106F852
:106CB000011D0028F7D1ADEB060000F1200978078F
:106CC00001D44FF00108C84502DDA8EB090000E03F
:106CD00000208046002706E008A85A46C05D0B99B0
:106CE00090476D1C7F1C5745F6DB04E030205A4668
:106CF0000B9990476D1CB8F10001A8F10108F5DC73
:106D000005E016F8010B5A460B9990476D1CB9F136
:106D10000001A9F10109F4DC641C65E70928010000
:106D20000A68531C0B601070704710B501220221D5
:106D3000002000F041FF08B1072810D107220221EE
:106D4000012000F039FF08B1072808D100210A22EC
:106D5000084600F031FF08B1072800D1002010BD1F
:106D6000074910B5012088700321064800F00FFB89
:106D7000002803D0BDE8104000F048B810BD000066
:106D8000A02A0020D82B002072B602F0CFFF00BF4F
:106D900002F010FE0028FBD111481249401AC40825
:106DA000012000EB044010A102F01EFF1148006812
:106DB000C00700D000BE022000EB04400EA102F08C
:106DC00013FFBFF34F8F0B48E43801680E4A01F4FC
:106DD000E06111430160BFF34F8F00BFFDE700008A
:106DE00004C90200A4C80200466174616C20657287
:106DF000726F7200F0ED00E053797374656D20726C
:106E000065736574000000000400FA050EB50021EA
:106E10000091CDE901106A4644F20100FFF7B4FF8A
:106E20000EBD0000074B9B7823B12AB120B100684A
:106E3000037C1BB1082070470720704741744261F2
:106E4000002070471431002070B504F0FDF81048A0
:106E500000240B21047044700E4D817014206C606E
:106E60002C706C70FFF7AAFB06211420FFF7C7FBFC
:106E70001420FFF7AEFB0848046006211120FFF73D
:106E8000BEFB0548001F0068A860002070BD000020
:106E900014310020182B0020081501402DE9FC4773
:106EA000DFF8789099F8023073B368B3052902D2FD
:106EB0000720BDE8FC87436933B3437C012B25D011
:106EC000002704460025884616468DF8005068467F
:106ED00000F038F801A804F0A7FEC8B10121017044
:106EE0000F4944600968C0E90218C0E904769DF8BA
:106EF000040089F801009DF8000000F047F8142014
:106F0000FFF772FB2846D4E70820D2E70F46D8E700
:106F100004259DF8000000F039F8F3E71431002053
:106F2000041501400649897839B130B1416921B170
:106F300000210174022104F021BB082070470000E9
:106F40001431002030B5EFF3108172B60D4A946809
:106F5000012324B10370002900D162B630BD9360D3
:106F60004FF0E023D3F88051074C25401560C3F85B
:106F70008041D3F8844154605A17C3F88421002219
:106F80000270E8E720320020FC06FFBD0B498A684A
:106F9000002A11D000280FD1EFF3108072B60B68D1
:106FA0004FF0E022C2F800314B68C2F804310022F1
:106FB0008A60002800D162B67047000020320020AD
:106FC00010B5002816D00C498989018003F08CFC8B
:106FD00000280FD1084801210A3003F0A3FB08B1B3
:106FE000FFF714FF03F088FC002803D0BDE8104031
:106FF000FFF70CBF10BD0000A02A002070B51500DF
:10700000044609D00020286034B1206820B1A0795E
:10701000800703D0072070BD0E2070BD084600F029
:1070200001FBC0B2142804D02179814203D8042086
:1070300070BD052070BDE288216800FB0210286049
:10704000002070BD2DE9FC470025178806461580F5
:1070500090F82D001446894630B13A4621464846FC
:1070600000F0F4FA051E09D1B0784FF00C0A18B3FD
:107070002088C846001DB84202D95046BDE8FC87AA
:10708000684679DF0028F9D12088032108F800102C
:1070900020881921401C80B2208008F80010208828
:1070A000401C80B2208000EB0801BDF8000004F015
:1070B00009FD218808442080F0780222C8B1218887
:1070C00096F9033001F1030C4846BC45D5D842542B
:1070D00021884FF0010C491C89B2218000F801C0C1
:1070E0002188491C89B2218009F801302088401C80
:1070F00020807068B8B1218890F9003001F1030C4C
:107100004846BC45B9D8425421880A22491C89B254
:10711000218042542188491C89B2218009F801301C
:107120002088401C2080308950B1CDE900474B4673
:107130000622022106F1080004F08EFD051E9DD1F5
:10714000308A50B1CDE900474B460722032106F1B2
:10715000100004F081FD051E90D1308B50B1CDE9B7
:1071600000474B461522142106F1180004F074FD67
:10717000051E83D1306A30B13B462246494600F0B5
:107180009CFF051EDBD1706A30B13B462246494662
:1071900001F0E2FC051ED2D196F82C0038B13B4636
:1071A00022464946304604F025F8051EC7D13078FE
:1071B00038B13B4622464946304601F071FE051E75
:1071C000BDD128465AE718B504460020ADF80000A6
:1071D00013466A46204600F006F8002802D0BDF8A3
:1071E0000000204418BD70B588B182B10024158814
:1071F00003E0065D641C3444A4B2A54203D806191A
:1072000076789E4201D08C42F3D38C4201D3002089
:1072100070BDA11C1180005D401E80B270BD80F861
:10722000301070472DE9F0470D00044606D02CB110
:1072300095F87A000026012803D006E00E20BDE86C
:10724000F08795F89800012821D04FF00109A67029
:107250002C2205F17801201DFFF764F884F83060D6
:10726000D5F8A4006063D5F8A800A0634FF6FF70BE
:10727000A4F8480204F50D70C4F84402C4F84A6248
:10728000A4F84E6284F85062207810B104E0072020
:10729000D5E7FF2084F8540004F15501C4F83412F6
:1072A00094F82400EE274FF01F08012833D0A4F8EB
:1072B000388200BF04F50E722846FFF7C3FE00288F
:1072C000BDD104F24311C4F83C1294F82400012803
:1072D00024D0A4F8408200BF04F5107205F13C00F0
:1072E000FFF7B0FE0028AAD184F85190208BA4F8B3
:1072F000480084F83C90266484F8506060696064BB
:107300004D4604F13C02002104F1540072DF0028D4
:1073100095D1257093E7A4F83872CBE7A4F84072B2
:10732000DAE710B50288102A1BD0112A20D0262AAD
:107330001DD1007A0C46012801D0022817D1A0786F
:107340000521401CB0FBF1F201FB1201204600F0C8
:107350001EF800280BD0A16B002908D0BDE8104012
:107360000847C27B012A02D18088A1F8480210BDDB
:107370000C46002184F852128088B4F848128842E2
:10738000F5D120790028F2D10121DFE770472DE9FE
:10739000F05F044600780F4698B1A7700025C4F846
:1073A0004A52A4F84E5284F85052A079012608B1EE
:1073B000012F09D0E07980B1012F05D0022F03D031
:1073C0000BE00820BDE8F09F616B21B184F85162A9
:1073D0000820884701E084F8515204F24B21002034
:1073E0000A5C0AB1304603E0401C0628F8D30020AE
:1073F0004FF002084FF0030B012F06D0022F0CD0E4
:10740000032F0FD0042F15D110E0A17929B194F8E2
:10741000241011B908B130460DE0E17911B108B17D
:10742000404608E0207A08B1584604E0607A08B186
:10743000042000E02846A070616B41B1032801D010
:10744000042804D1607910B194F85202A0B184F8F4
:10745000535204F13C0018210746FEF77CFF04F16B
:107460002C0084F83C60814603F092FC58B194F8FB
:107470002C0084F8510008E084F8545284F85362D8
:1074800007208847E5E784F8516094F8240050B15C
:10749000484603F07DFC20B194F8280084F852009F
:1074A00001E084F8526084F85050A27804F24A2136
:1074B00004F50D794FF0060A052A62D2DFE802F0E2
:1074C0007A030F22410084F83160C4F84452C4E9C1
:1074D000101584F83C808020A4F8480053E084F81C
:1074E000318094F82420384612B10722027001E05E
:1074F00080F800B0228A8281C4F844524160E16879
:10750000B96040E06069B860208BB88194F82400CD
:107510003D4610B184F83CA001E084F83C60204670
:1075200004F064FB50B185F814800421204600F07B
:10753000E3FE30BB052184F8311020E084F831B03F
:107540001DE0E069B860208CB88194F824003D46C5
:1075500010B184F83CA001E084F83C60204604F0BF
:1075600045FB48B185F814800421204600F0C4FE94
:1075700038B984F831A002E0042084F83100C4F85E
:107580004492A07878B13A4604F15400D4F84412F9
:1075900072DF00287FF416AF94F8301094F854008E
:1075A00073DF0028F6D1616B11B194F83100884780
:1075B000002007E784F83150F5E7000070B50400BB
:1075C00012D001461C221448FEF7ACFE1248134D9F
:1075D0000560206850B17ADF002806D12068016874
:1075E00029604068686005E00E2070BD0B487BDFB5
:1075F0000028FAD108484FF6FF711438084A20F8DD
:10760000041B0549343901600021FFF70BFC0028F9
:10761000EBD0032070BD00009C2F0020E82A002042
:1076200085BB020010B5044600F006F808B12046FC
:1076300010BD142010BD0000142801D30020704795
:107640000146014801F08ABCBC2F00207CB50546EC
:1076500008880C460930904201D90C207CBD684650
:107660006DDF0028FAD121880820685420881B216A
:10767000401C80B2208029542088401C80B2208089
:107680002844DDF801100160BDF8051081802088D4
:10769000801D80B220809DF80010490800D0012193
:1076A00029542088401C208000207CBDF8B52E4D38
:1076B00001880026AF880446212941D01ADC2B48D6
:1076C0002B4A1029A0EB02004FEAD0004FF0030232
:1076D00002EB004018D0112926D0132938D10023FD
:1076E0001A46852138467FDF002831D0BDE8F840B2
:1076F000FFF78CBB3B2932D052292AD0562927D1FB
:107700008088132176DFEFE71AA102F06DFA0520D9
:107710002881A188A9801A4801F086FD0221A9705C
:107720004FF47A712981DFE716A102F05DFA4FF676
:10773000FF70A880AE70BDE8F8400D2002F035B8AB
:107740000096808869468FDF002801D0FFF75EFB36
:10775000F8BD00231A4619463846B1DFC4E78088D1
:10776000132176DFC0E70000A02A002004C9020030
:10777000A4C80200436F6E6E656374656400000008
:10778000CC2B0020446973636F6E6E65637465640F
:107790000000000010B51A4C0188606810290ED056
:1077A00011292BD1401E606028D1FFF7BEFA0028B6
:1077B00024D02168002921D0BDE810400847D0B965
:1077C00000210122084600F0F7F908B107280FD17F
:1077D00007220221012000F0EFF908B1072807D1A4
:1077E00004220221002000F0E7F920B1072802D08E
:1077F000216801B188476068401C606010BD0000CE
:10780000E02A00202DE9F04701883B4E40F2F319B1
:107810004FF6FF7510291BD011293ED0122954D0E4
:10782000502946D1C188F289841D914241D1618994
:1078300002293ED18688304600F04CFE050038D043
:1078400004F10C0000F0B4F9A8B3294630464EE02C
:10785000C17B8788044601292BD1A846284600F021
:1078600039FE050017D02F80002028722348434698
:107870004A460168C5F80A104068C5F80E0004F1D0
:10788000100105F10A0000F09CFE6872F0890028E2
:107890000FD129462AE0042013E0808800F01AFE68
:1078A000040006D06068FFF73DFB08B103F072FCEE
:1078B0002580BDE8F087FFE76868FFF733FB002805
:1078C000F7D0BDE8F04703F065BC87880646384628
:1078D00000F000FE0400ECD02B464A4606F10801F9
:1078E00004F10A0000F06DFE607221463846BDE8E2
:1078F000F04700F029BC00009C2F0020E82A00205F
:107900002DE9F04F0746858802883D48012197B050
:107910008346102A09D0112A49D01A2A6CD1387A04
:10792000B1EB101F45D2012244E0354C083CA06861
:10793000C0430B9061680BA801F031FB0B990CA8B8
:1079400000F09CFB2C220CA96846FEF7EBFC0026FD
:10795000E946A04610E000BF09EB46005FF00004D6
:10796000B0F804A008EB84005146001D01F0EBFACA
:10797000641C1D2CF6D3761C0098B042ECD8142D54
:1079800005D317B00420BDE8F04FFFF73FBA2946F2
:10799000584601F0EEFA294608F1040001F0E9FA30
:1079A000F87B012828D016482946001D15E02946F5
:1079B0001AE000220221B1EB101F01D2012600E0E3
:1079C00000260F49083901F11000041D294682B133
:1079D00001F0CFFA36B12946204617B0BDE8F04F86
:1079E00001F0C7BA2946204617B0BDE8F04F01F0B4
:1079F000AABA01F0A8FAF5E717B0BDE8F08F0000C9
:107A0000C02F0020F0B585B016460F4604001D4675
:107A100014D004AA19466069FFF7F0FA00280BD1C8
:107A2000A5F57F40FF380BD0049848B1007848B1E5
:107A30003088F42808D9072005B0F0BD0E20FBE7F8
:107A40000520F9E70820F7E7002000900190029058
:107A50000390A088ADF8000001208DF80200CDE968
:107A6000026769462846AEDFE6E7000070B5334D91
:107A700004008EB02DCD08AE86E82D005BD0E9B3B2
:107A80000868A061214608A862DF002851D120784B
:107A900001258DF83200ADF83050A21C0CA9284603
:107AA000A8DF002845D120216846FEF754FC0220BB
:107AB000ADF8000020788DF802008DF80C509DF88C
:107AC0000D00F426ADF8046040F00C008DF8115064
:107AD000ADF806508DF80D008DF81250608804F155
:107AE0000C02694600F026F9002822D120216846C0
:107AF000FEF731FC0320ADF8000000E01BE0207829
:107B00008DF802008DF80C509DF80D008DF8115085
:107B1000ADF8046040F010008DF81250ADF806503A
:107B20008DF80D008DF813506088221D694600F015
:107B300001F90EB070BD0E20FBE70000FCBD020095
:107B400070B588B00446002924D0002C22D0084605
:107B50002188102920D0502924D057291AD1054630
:107B6000A188406906AAFFF749FA002812D1069EAB
:107B7000307800280ED018216846FEF7ECFB012073
:107B80008DF800000195A088ADF808000396A9695A
:107B90006846884708B070BD08B02146BDE870400F
:107BA00002F09EBF08B02146BDE8704003F078B8EF
:107BB000007800F00100704770B50023042810D24F
:107BC0000D4D00EB4004012A02D101290CD0002206
:107BD000094E00EB4000304461B1012906D0022972
:107BE00006D00723184670BD0E30C2B22A55F9E7F9
:107BF0004270F7E78270F5E75C2F00202DE9F8432B
:107C00000546861C00208DF8000090460F464FF078
:107C100001096846FFF796F91B4C20683860D4E9E3
:107C20000001401AA16804F21C47081A0EE0012165
:107C3000384601F0AEF900F0ADFD0146384601F0DE
:107C4000A8F9D4E90001401AA168081A401C86422C
:107C5000EDD8B8F1000F03D0052065F3891002E0DC
:107C6000062065F39F50A2682168114004EB810152
:107C7000C8602068304420609DF80000FFF786F956
:107C80004846BDE8F8830000D033002030B4826855
:107C90000468531C8360A154D0E901128A4202D3C4
:107CA00030BC01F0D2BB30BC70470000034803C8B1
:107CB000814201D10120704700207047D03300205D
:107CC00005494FF0FF32082841F8202002D308442C
:107CD00080F858207047000044300020F0B54FF085
:107CE000FF3512B10023082601E008230C260C4CB6
:107CF00005E000BF54F823707F1C04D05B1CB34226
:107D0000F8D32846F0BD26185DB286F8305044F806
:107D10002310002AF5D1E11881F85800F1E700009E
:107D2000443000200249084490F9300070470000B8
:107D3000443000202DE9F0438146887891B0904688
:107D40000C4600B901208DF83E002088ADF83C00BB
:107D500000250095607C694603F090FA6E46A07C91
:107D6000711C03F08BFAE07B00289DF8020002D022
:107D700040F0080001E020F008008DF80200217CAE
:107D800011B140F0100001E020F010008DF8020069
:107D9000217B11B140F0010001E020F001008DF8DD
:107DA0000200217D09B1022100E0012161F34200BE
:107DB0008DF802001C2102A8FEF7CDFA607BC106F7
:107DC00001D4800617D50E950EAFE07C791C03F028
:107DD00055FA9DF83800079720F00F00401C20F05E
:107DE000F00010308DF838009DF83A0020F00600C1
:107DF000801C8DF83A00607B8DF80800A07B8DF820
:107E00000900142109A8FEF7A6FA0FA8CDE9090672
:107E1000A088ADF83000A06820B1E088ADF82C0053
:107E2000A0680D90A06998B301950088ADF8100086
:107E3000A06901AD01A94088ADF81200A0694068B1
:107E400006950390A069007B03F018FAA069691CED
:107E5000407B03F013FAA069807A00289DF80600A1
:107E600002D040F0080001E020F008008DF8060084
:107E7000A169C97A11B140F0100001E020F01000B2
:107E80008DF80600A169097A19B140F0010002E0FD
:107E90000DE020F001008DF80600A169897B09B191
:107EA000022100E0012161F342008DF80600E06943
:107EB00000B10590434609AA02A94846AADF11B0BD
:107EC000BDE8F08338B5044603236A4640211448D0
:107ED00001F096FA00BB9DF801009DF8001000EB40
:107EE000012080B240F2712148434FF4004101EB80
:107EF00040006FF03B0101EB104020809DF8000036
:107F0000002100F045F901469DF8010000F040F91C
:107F10009DF80210814201D0FF2038BD002038BDFD
:107F200058BD02001CB5044603236A4640210F4891
:107F300001F066FA08B1FF201CBD9DF801009DF814
:107F4000001000EB012080B241F2291148434FF4A8
:107F5000004101EB8000064901EB20400A21401D51
:107F600090FBF1F0208000201CBD000058BD0200F5
:107F7000B3EDFFFF044801784078814201D1002031
:107F80007047012070470000A02A002070B5084CFF
:107F9000050009D010342168002907D00868206046
:107FA000496828468847F6E70834F4E770BD0000C2
:107FB00030300020054A012120B1012805D19170FF
:107FC000FFF7E4BF51700020FAE77047303000201F
:107FD0002DE9F05F26484168F1B3DFF898B00E68EC
:107FE0008146DBF8004087688078E11B21F07F45FF
:107FF000ED1CB0B9DFF880804FF48030C8F844033E
:10800000C8F804031120FEF7D9FA1120FEF7E1FAAF
:108010004FF0010AC8F800A02F2002F05FFA89F89B
:1080200002A0B54200D23546124BE8193C3320F08D
:108030007F401860DBF800105A46091B21F07F4191
:10804000001B20F07F40C91C81420FD910681860C6
:108050002F2002F043FA00E004E0BDE8F05F1120B9
:10806000FEF7C2BABDE8F05F02F0EEBFBDE8F09FD8
:10807000182B0020041501400010014073B58CB08E
:108080000646002000900D9880B100246D462146E0
:108090000DA800F063FF30B1009805EB400084802C
:1080A0000098401C0090641C142CF0D32C226946CC
:1080B0003046FEF737F90EB070BD2DE9F041178854
:1080C0000646B81D14460D46984202D90C20BDE85C
:1080D000F0813188072206290AD34FF4486C4FF605
:1080E000FF73614501D9994202D17088062801D2F7
:1080F0001046ECE7604501D99842F9D1994203D086
:10810000984201D08142F3D80520E85520881221F9
:10811000401C80B2208029542088401C80B22080DE
:108120004119308803F0CEFC2188084480B22080B9
:108130004119708803F0C6FC218808442080002083
:10814000C5E7FEF763BE000038B54A7A0F4B62B14F
:1081500000220A725969002906D001228DF80020F8
:10816000ADF802006846884738BD0A7A62B19B685C
:108170004C68024619462046FEF790FE0028F3D0D0
:10818000BDE8384003F006B85B68F1E79C2F00209B
:1081900010B5002240F2311380EA010424064FEAB0
:1081A000410100D559404006000E521CC9B2082AB0
:1081B000F2DB084610BD000070B588B0064600200E
:1081C00005900690ADF81410ADF8161001900290CD
:1081D00001AA05A9304690DF050021D002F02CF954
:1081E0000346114811493246401AC108012000EBEC
:1081F000014004460E4901F002FDBDF8042012B909
:10820000BDF8060028B1BDF80630204609A101F0EE
:10821000F6FCBDF808201AB12046164901F0E8FC2A
:1082200008B0284670BD0000A4C80200A4C802001F
:1082300010C10200546865207265717565737465BC
:10824000642054582F5258207061636B6574206C01
:10825000656E67746820697320746F6F206C6F6E31
:10826000672062792025752F2575206F63746574EA
:10827000732E00005CC1020010B5082811D16420E3
:1082800001F05AF8082002F0E7F918B1BDE81040F3
:1082900000F01EBD00F006FDBDE81040642001F0B6
:1082A0004BB810BD10B50021024800F083FE80F3EA
:1082B000100010BDEC3700200E4910B50A784C783C
:1082C0000023A24212D0521CD2B20A70022A00D15C
:1082D0000B70084A0B780C3252F823200260886831
:1082E000104420F07F408860012010BD0360002012
:1082F00010BD0000182B002070B50D460446B0F8E4
:108300003812D0F834020122FEF75DFF00B105708B
:1083100004F13C0204F50D7104F1540072DF70BDEC
:108320000C484A8883889A4213D10A88A2F52063B0
:10833000773B0ED18988C91E8AB2C2800648074998
:108340001346401AC008032101EB004004A101F0CC
:1083500056BC7047A02A002004C90200A4C802002D
:1083600044617461206C656E2069732073657420AC
:10837000746F2030782558282564290010B50949E4
:10838000094800F098FE08B1FEF740FDF7210648C5
:1083900000F085FE002803D0BDE81040FEF736BD92
:1083A00010BD000021830200B82B00204FF0805048
:1083B000416E006E00EB0120704710B501F0FAFA33
:1083C000BDE8104001F0A6BD08B50948094A694654
:1083D0000068009003208DF80100082002F0D2F818
:1083E00008B1FEF713FD0121082002F07FF808BD57
:1083F00030BD02007982020010B500F041F908B1E9
:10840000012010BD2721202000F026F90821252079
:1084100000F022F910213E2000F01EF903213F2038
:1084200000F01AF9002010BD08B50848084A69464E
:1084300080680090042002F0A5F808B1FEF7E6FC81
:108440000121042002F052F808BD000030BD0200F6
:108450003B8C02007CB50024254600232046009575
:108460001A461946019501F0E9F8641C1F2CF4DB4B
:108470007CBD000008B5FFF7BFFF0948094A6946FF
:108480004069009003208DF801002F2002F07AF857
:1084900008B1FEF7BBFC01212F2002F027F808BD30
:1084A00030BD0200ADB2020008B50848084A69466E
:1084B000406800902A2002F065F808B1FEF7A6FC9B
:1084C00001212A2002F012F808BD000030BD020090
:1084D00027BD02000146034802888A4200D00020DE
:1084E00070470000882F00202DE9FC5F0E008346B6
:1084F000DDE90C47C6F1000098469246814600D45B
:108500000846012503E000BF90FBFAF06D1C5045C2
:10851000FADAA84500D9454624B1002E01DB7807D8
:1085200000D5641EB80702D5B8F1000F0AD0F807CD
:1085300008D13CB1A54205D220215846641EFFF760
:10854000A5FBF6E7002E02DA4E462D2102E0780761
:1085500003D52B215846FFF799FB07F003000228AB
:108560000BD1B8F1000F08D13CB1A54205D23021A2
:108570005846641EFFF78AFBF6E7CDE900474346FD
:1085800052463146584603F0A3FABDE8FC9F024626
:1085900000201268530713D502F00300012802D00F
:1085A00002280CD105E0C2F383100B68801C18442C
:1085B00004E00223086803EB925210440860012093
:1085C0007047F0B58488A518944200D82246A41AB2
:1085D000C288D6189A4200D81346D21A4B88078808
:1085E000BB420CD34088834209D88888A04206D376
:1085F000A84204D8C888904201D3B04201D90020D3
:10860000F0BD0120F0BDF72101801721418000213C
:1086100001714171FB2181711B21C1717047000003
:1086200013B582B001200C460346009002AA19211E
:10863000084800F0E8FE10B1012004B010BD054864
:108640001921001D2246012302F0EEF90028F4D082
:108650000220F2E758BD02001CB502238DF8040089
:1086600000208DF80510009001AA1921034800F0A0
:10867000CAFE002800D001201CBD000058BD020029
:1086800008B569460F20FFF7CBFF18B99DF8000029
:10869000332801D0012008BD002008BD2DE9F04796
:1086A000394E002780463D46DFF8E090D6F804A01A
:1086B00057E003D00446D0F81C8035E099F800203C
:1086C00002EB4201521CD2B289F8002009EBC10131
:1086D00099F80230091D9A4201D189F80050486882
:1086E0000A780446012A12D0022A02D0032A3BD17A
:1086F00008E002F013FF00B10127257434E005748F
:10870000C06900E070680028F9D170602CE0207C1E
:1087100050BB88686060C868A0600869E06048690C
:10872000A061F07800B165606268B168184B501ABA
:1087300020F07F40984202D2A168084406E0881ADF
:10874000A16820F07F40814202D9081A206000E031
:10875000256065600120A56020742046E56102F077
:10876000BFFEB8F10000A4D199F8001099F80100FB
:108770008142A3D117B97168514502D00120BDE8EB
:10878000F0870020FBE70000182B002014310020A8
:10879000FFFF7F002DE9FF410026234800F0F6FB94
:1087A0002148001F074600F0F1FB204C6068009054
:1087B000A56800E000986946284004EB80000C3072
:1087C000FFF7E5FE0028F5D101AA009901EA0503AB
:1087D00004EB8303491CDB6842F82030401C009105
:1087E0000228F2D3019800F0030001280BD00228E0
:1087F00010D10198032101EB90500099BDF80A6057
:1088000001EB900005E00198BDF80A60C0F3831009
:1088100008440090384600F0B6FB08B1009860604C
:1088200004B03046BDE8F081E8370020D0330020A6
:1088300078B40A4BC21815680024002D0BD0D3F869
:1088400004330B4207D01460116800910449496851
:1088500001B070BC084778BC704700000030014090
:10886000002B0020B4B04FF40041002001F028FAA2
:1088700008B1FEF7CBFA01F08FF8984898494FF00D
:108880000308401AC10808EB0140074695A101F012
:10889000ABF99E4D0024AC70FFF7DCFDFEF7D4FA77
:1088A00008B1FEF7B3FA01F021FB4FF01021D1F827
:1088B0000403012601280BD0954A166095480368E9
:1088C000002BFCD0C1F80463146001680029FCD0BF
:1088D00001F00CFB08B1FEF799FA8F4806608E484C
:1088E000083006608D48046001F0F2FC08B1FEF724
:1088F0008DFA69460120009401F08AFB08B1FEF769
:1089000085FA684601F01CFC08B1FEF77FFA9DF875
:10891000080083A120F00F00401C20F0F000103070
:108920008DF808000B2202A87CDF08B1FEF76EFA72
:1089300000941020ADF800003C200194ADF8020036
:10894000ADF804404FF4C870ADF8060068467ADF11
:1089500008B1FEF75BFAFFF711FD7448019001A919
:10896000734800F06CFC08B1FEF750FA71480090B3
:10897000664869461830FFF779F808B1FEF746FAFD
:10898000AC216846FDF7E7FC02208DF800008DF869
:10899000024005208DF803005C48ADF84C601430AF
:1089A00014904020229044F2506023908DF87C6017
:1089B000614829905E4869460C30FEF733FC08B1E7
:1089C000FEF724FA5A4801210C30FEF728FC1C213E
:1089D0006846FDF7C0FC4FF42030CDE900404FF46D
:1089E000702002905548059055488DF80C800690EF
:1089F000ADF80E408DF810406846FEF7DFFD08B177
:108A0000FEF704FA01F030FEFFF7DEFCFFF74CFD45
:108A1000FFF70AFD02F04EFB02F060FEFFF72AFDB1
:108A2000FEF712FA474A01214748FEF7FBF946488C
:108A3000002218384FF420218069FEF72FFA002019
:108A400002F0F6FC2C810D2000F044FE0D2000F019
:108A5000ACFEFEF785F9364808220C3090F8541029
:108A6000012077DF08B1FEF7D1F9642000F064FC43
:108A7000FFF79CFC02462861384634A101F0B8F8A3
:108A800001F034FA08B1FEF7C1F901F02EFA042022
:108A900001F062FAFFF76EFA70B1A878022808D1E7
:108AA0002BA802F099F9010003D02BA800F0E2F8FE
:108AB000F6E7FFF782FCEDE7288900284FF00D006C
:108AC00008D000F029FE012000F036FC2889401E65
:108AD0002881DFE700F069FEEBE7000004C902002F
:108AE000A4C802003D3D3D3D3D3D3D3D3D3D3D5326
:108AF00054415254204D696E69203834303D3D3D1B
:108B00003D3D3D3D3D3D3D3D0A000000A02A002089
:108B100004E5014000E40140780500400075024092
:108B20004D696E692038343020763200959F0200FE
:108B3000CC2B0020B9AA0200BBAA0200C5AA0200E1
:108B40004381020031B4020048BD02004445564949
:108B5000442025780A00000070B5144682880E462D
:108B600005462088111D0144921C994201D8FE2A15
:108B700001D90C2070BD521C32542088FF21401CAA
:108B800080B2208031542088401C80B2208081191E
:108B9000288802F097FF2188084480B22080AA88A4
:108BA00042B1A96841B13044FDF7BCFB2088A988D7
:108BB00008442080002070BD072070BD2DE9F047DB
:108BC000C5881E1DB6FBF5F78946B6FBF5F10446D0
:108BD00005FB176C407916686843DDF820A0F7188C
:108BE000001F874200D9C61A166001E02468491E9A
:108BF0000029FBD1A5EB0C078846B74216D818E030
:108C000004EB0C00001D09EB0803BAF1000F3A4613
:108C100002D00146184600E01946FDF783FB2468A0
:108C2000F61B4FF0000CB844B54201D9374600E0BE
:108C30002F46002EE4D1BDE8F087042801D100F0D2
:108C400089B8704730B5024651B101F057F800219C
:108C5000074C08E034F821301568AB4202D11160AE
:108C6000002030BD491C8142F4D3052030BD0000F6
:108C70000000000073B50A4C05460948A38801AA04
:108C800029461830FEF7BEFE082807D01328F4D076
:108C9000052803D0002801D0FEF7B8F87CBD0000FD
:108CA000A02A00200EB506A207CA8DE807000749D2
:108CB000052008810A21684602F070F90EBD000007
:108CC000444F4F5220434C4F53450000A02A0020F0
:108CD0000EB506A207CA8DE80700074905200881DE
:108CE0000921684602F05AF90EBD0000444F4F5268
:108CF000204F50454E000000A02A002010B588B03B
:108D0000044620220D496846FDF70CFB0C4905205E
:108D100008816420B4FBF0F1B4FBF0F200FB1143D6
:108D200008A16846FDF71CFF6846FDF71FFBC1B2AE
:108D3000684602F033F908B010BD0000ACBD020077
:108D4000A02A00204C696768742025642E25646C75
:108D5000757800000EB506A207CA8DE8070007491E
:108D6000052008810821684602F018F90EBD0000B0
:108D70004B6E6F636B696E6700000000A02A0020D5
:108D80001CB506A1D1E90001CDE900010549052086
:108D900008810621684602F001F91CBD5368616B29
:108DA00065640000A02A002030B58BB00C46054653
:108DB0002022114902A8FDF7B5FA0A220F49052021
:108DC000B5FBF2F30881B4FBF2F0B4FBF2F102FB65
:108DD000104002FB1353B5FBF2F2CDE9001008A1DD
:108DE00002A8FDF7BDFE02A8FDF7C0FAC1B202A8B5
:108DF00002F0D4F80BB030BD8CBD0200A02A0020D8
:108E000054656D702F48756D2025642E25642043B0
:108E10002C2025642E2564252500000010B586B081
:108E2000044614220D496846FDF77CFA0C490520DA
:108E300008816420B4FBF0F1B4FBF0F200FB1143B5
:108E400008A16846FDF78CFE6846FDF78FFAC1B2AF
:108E5000684602F0A3F806B010BD000078BD02001D
:108E6000A02A0020566F6C746167652025642E254A
:108E7000642056000EB506A207CA8DE80700074910
:108E8000052008810921684602F088F80EBD00001F
:108E900057617465726C65616B000000A02A002048
:108EA000F8B50F46017814460546012901D16878C6
:108EB00030B12088821C9A4232D8012902D006E0C3
:108EC0000720F8BD69780144891C994228D8181AEE
:108ED000801E86B2ADF800602188B81C084469463F
:108EE0007DDF0028EDD12978022904D06878BDF80B
:108EF0000020904205D3BDF80000B04201D80920FF
:108F00000AE00820012905D16978B14202D8ADF8FC
:108F1000001001E0ADF80060BDF80010FE2901D995
:108F20000C20F8BD2288491CB9542188491C89B2FB
:108F3000218078542088401C2080BDF8001008440F
:108F400020800020F8BD01F01F0301229A40D24387
:108F5000490900EB8100114600F021B84A0950F898
:108F6000220001F01F0201219140084000D00120A1
:108F7000704701F01F0301229A40490900EB81006C
:108F8000114600F01CB8002100F00FB8012100F0DC
:108F900016B808B56A46FDF770F9009808BD08B51F
:108FA0006A46FDF750F9009808BD08B56A46FDF716
:108FB0004AF908BD08B56A46FDF72CF908BD08B5A1
:108FC0006A46FDF733F9009808BD08B56A46FDF713
:108FD00061F9009808BD38B5044600258DF80050A9
:108FE0006846FDF7AFFF21686268086890420ED9B5
:108FF000401E08600178238AE26801FB0325227A7B
:109000002168101AC0B20A79824200D208719DF814
:109010000000FDF7BBFF284638BD38B505460020E7
:109020008DF800000C466846FDF78CFFE868298A39
:10903000201AB0FBF1F12A681068431C136001701C
:109040009DF80000FDF7A2FF38BD10B530B1017AE0
:1090500042680368891AC9B21A6006E00E2010BD82
:1090600003681A68541C1C601170491EC9B2F7D2FB
:10907000006800210171084610BDC20800F0070316
:109080000120895C98400840704710B5C20800F084
:109090000703885C01249C402043885410BD28B1FC
:1090A000A1F11702E12A03D3072070470E20704771
:1090B00001800020704710B560B10161F72120F8F0
:1090C000021B20F8021BFB2100F8021BFFF79BFA92
:1090D000002010BD0E2010BDF0B5858893B00C4661
:1090E000002D39D1018800263F4F24293BD006DCD2
:1090F000102909D011290CD0232958D14FE03A2941
:109100000BD0552953D129E00146204601F01EFD20
:109110004DE0A01DFFF777FA49E02246408934F878
:10912000061F814200D808466080172800D2172009
:109130006080106970B1607960B1D7E90001CDE954
:109140000301ADF80E506088ADF81000136903A953
:10915000104698476671267113B0F0BD014620464F
:1091600001F048FD23E0011D2C2206A8FDF7DAF8E6
:10917000BDF81800BDF81C2004EBC0014A73226939
:10918000AAB1D7E90423CDE90423ADF81200487B46
:109190008DF814002269204604A9904707E0017A5F
:1091A000207B884200D201462846FFF705F8A07AC6
:1091B0000028D1D0E1882846A5DF012580B11128FB
:1091C000CAD001F039F902460848094913B0401ADB
:1091D000C00805EB0040BDE8F04006A100F008BD66
:1091E000A672E572B8E70000E4BD0200A4C8020060
:1091F000A4C8020073645F626C655F676174746326
:109200005F65786368616E67655F6D74755F7265D1
:10921000717565737428292072657475726E656442
:109220002025732E0000000020B10278DE2A03D032
:10923000082070470E20704741800020704760B1C1
:1092400059B10278DE2A0AD009684160DE21017036
:109250004FF6FF714180002070470E2070470820B4
:1092600070477FB5054600294DD0002D4BD00878BA
:109270000C46DE2847D1A8886188884202D1204662
:1092800002F0C0FC2888012825D002283BD01128F4
:109290003AD0512837D135F8040F6188884232D14D
:1092A000A978A81C02292ED1017A042903D0062905
:1092B00001D0052927D10021009102228DF800203C
:1092C00001914FF4C07202910391ADF80420007A2D
:1092D00005280FD010E0297A2046012913D1A9884A
:1092E000428891420FD10121017204B0BDE8704063
:1092F00002F088BCADF8041028886946B0DF002869
:1093000001D0616888477FBDA88861888842FAD10A
:109310004FF6FF7060807FBD00F18040006800283C
:1093200000D00120704708B500F1804000210160A5
:109330000068009008BD00002DE9F041040007D04E
:10934000044E4FF47A47751C3846A847641EFAD17C
:10935000BDE8F08150BD020070B50B4C207808B11B
:1093600085250FE00020A06060602061E060074874
:1093700001F08EF8054600F0F7FF08B901F072F829
:1093800001202070284670BD30300020B57F0200DB
:1093900038B500258DF800506846FDF7D3FD074C21
:1093A000E068401EE060E06810B901F081F8A57047
:1093B0009DF80000FDF7EAFD38BD000030300020C8
:1093C0002DE9F041064604780B4815460F4640F853
:1093D0002420083040F82430487B10B1084602F0C1
:1093E0002BF90DB1054A00E0002223463946301D15
:1093F000BDE8F04101F0A8BA082B002009B702002F
:10940000001D01F011BB38B5001D049C009401F053
:1094100023FB38BD38B5001D049C009401F01CFBF3
:1094200038BD38B5001D049C009401F015FB38BD13
:109430000FB408B50399002904D004AA00926A4623
:1094400000F00FF801B05DF814FB10B58268044617
:10945000002A05D0D4E90403216898470020A060C1
:1094600010BD2DE9FC4791460C00804676D014F8DB
:10947000011B39B125290ED04046FEF707FC2078A4
:109480000028F4D198F80C00002867D04046BDE8C9
:10949000FC47FFF7DABF0020012221782B291BD0DF
:1094A0002D2902D0302908D102E040F0010001E06E
:1094B00040F00200641C002AEFD100252A290ED0BA
:1094C0002178A1F130020A2A11D205EB850201EBC5
:1094D0004205641C303DF1E740F00400EAE7D9F8AA
:1094E00000100B1DC9F800300968641C0D44217878
:1094F00000232E290BD114F8011FA1F130020A2AF2
:1095000005D203EB830201EB4203303BF3E76C2906
:109510000DD068290BD0692921D00BDC252918D062
:10952000582931D063290ED0642915D117E014F8D9
:10953000011FECE7702969D0732932D075291BD03F
:10954000782909D120E0D9F80000011DC9F80010E0
:1095500001784046FEF79AFB641C90E76CE0D9F86E
:1095600000100A1DC9F800200968CDE900500A2240
:109570004046FEF7B9FFEFE7D9F800100A1DC9F819
:10958000002009680A2206E0D9F800100A1DC9F86F
:10959000002009681022CDE90050404602F098FAF8
:1095A000DAE7D9F8001000270A1DC9F800200E6874
:1095B000C00705D112E04046761C7F1CFEF766FB13
:1095C00031780029F7D104E0202140466D1EFEF7D6
:1095D0005DFBBD42C0D9002DF6D1BDE74EB130468E
:1095E000FCF7C4FE074604E0202140466D1EFEF74E
:1095F0004DFBBD4206D9002DF6D103E04046761C56
:10960000FEF744FB31780029F8D1A5E7D9F800002E
:10961000011DC9F80010056830214046FEF736FBF1
:1096200078214046FEF732FB08200021CDE90001F9
:10963000034610222946B0E7BDE8FC872DE9FF412B
:109640001C46DDE90A7815460E46684600F078F8B3
:1096500046EA450141EA840141EA072242EA08411B
:10966000009A00EB8200C0F80017BDE8FF812DE9E9
:10967000FF411C46DDE90A7815460E46684600F0B3
:109680006DF846EA450141EA840141EA072242EACF
:109690000841009A00EB8200C0F80017BDE8FF8186
:1096A00070B52028DDE9046502D24FF0A04402E045
:1096B000074C00F01F0041EA420141EA830141EA00
:1096C000062104EB800041EA0541C0F8001770BD97
:1096D000000300501CB5002100910B4601220191AE
:1096E0001146FFF7ABFF1CBD13B50C46684600F0F2
:1096F00035F8009900EB8101D1F8002722F44032BF
:10970000C1F80027009900EB8100D0F8001741EA6A
:109710000441C0F800171CBD01B5684600F010F800
:10972000009A01219140C0F80C1508BD01B56846AA
:1097300000F022F8009A01219140C0F80C1508BDF4
:109740000168202902D24FF0A040704701F01F01AC
:1097500001600148704700000003005001682029A3
:1097600002D24FF0A040704701F01F010160014894
:1097700070470000000300500168202902D24FF01A
:10978000A040704701F01F010160014870470000D0
:109790000003005001B56846FFF7E0FFD0F8100560
:1097A0000099C84000F0010008BD01B56846FFF708
:1097B000C7FF009A01219140C0F8081508BD01B506
:1097C0006846FFF7D9FF009A01219140C0F80815BB
:1097D00008BD00001CB5094C0144D4E90034CDE9B2
:1097E00000346C4606E000BF54F82030D3F8103542
:1097F000401C08C28142F7D81CBD00000CBE02000C
:10980000034908B50844002101600068009008BDC4
:109810000060004002494058012800D000207047F5
:109820000060004030B5154A01460020D2F81044CF
:1098300023460AE0DB681D79854205D1401C0A28D1
:10984000F6DB4FF0FF3030BD1B68002BF2D1431C1C
:10985000F9D0CB681871D2F8103443B1DB68CC680A
:109860001B682360D2F81024D268116030BDC2F8A2
:109870001014C96800220A6030BD0000D0330020F7
:109880007047FCF7AFBF704708B5034A009240230A
:10989000024A00F005F808BDA5B1020038320020E8
:1098A000F0B595B01C4615460F4608461A9E00F0C6
:1098B000F7FA182109A8FCF74EFD0E96CDE90954D8
:1098C0000023082203A9384600F0FFFA0598069005
:1098D000BDF81000ADF81C00BDF81200ADF81E0078
:1098E00000208DF821000398082600F003000128CD
:1098F00002D0022818D032E003983346850AC0F31C
:10990000C2008DF8200003980FA9C0F38314A200B1
:10991000384600F0DAFA09A8009006AB22460FA9F3
:10992000284600F019FA1AE00398840DC0F3C2002B
:109930008DF82000082C01D2254600E0082533468A
:109940002A460FA9384600F0C0FA2E44641B09AB22
:1099500006AA29460FA800F05BF9002CEAD1384688
:1099600000F0A4FA15B0F0BD0A4A012902EBC000CC
:1099700007D0022907D0032907D0042907D00020E7
:109980007047022070470420704700797047407983
:1099900070470000A4C8020010B5FFF772FF042151
:1099A0000348FFF73FFF02490120C968487110BD15
:1099B00094C802002DE9F04F8DB0FEF777F918B189
:1099C00000200DB0BDE8F08F7E4C4FF0000BC4F8C6
:1099D00018B4BFF34F8F60680290A568D84628403E
:1099E00004EB80000CE000BFD4F8180470B92168C3
:1099F0000298814201D86160E2E7284004EB8000D0
:109A00000C3002A9FEF7C3FD0028EDD1002005AA05
:109A1000029901EA050304EB8303491CDB6842F861
:109A20002030401C02910228F2D3059800F0030078
:109A3000022802D001284DD0AAE005985022810DBD
:109A40008946B2EB905F00D850210E4666F39F50D6
:109A5000059008315C4800F0DAF9070078D000F092
:109A60001FFA4346082205A9384600F036FA029943
:109A700008F1080A2940681A8000001D864222D990
:109A8000504D0C3530B1C2B204EB8101301A904612
:109A90000C3104E02946F2B2002590462846C6B2B1
:109AA0005346384600F019FA0AEB080325B132464E
:109AB0002946384600F011FA029909F1030001EB3A
:109AC000900002903BE004EB810153463246384659
:109AD0000C31EFE70598C0F38310062800D3062069
:109AE000059960F38911C1F38310801C05918100F1
:109AF000354800F08CF907004AD000F0D1F9434610
:109B0000082205A9384600F0E8F908F108080026FF
:109B10000FE00298434600EA0501401C04EB810176
:109B20000290042238460C3100F0D7F908F10408FD
:109B3000761C0598C0F38310B042EAD847B1D4F838
:109B40001054D4F8180478B1384600F0AFF934E076
:109B50001EE0E8684079012804D12A682846394681
:109B600012689047E8680568002DF2D1384600F089
:109B70009DF98DF800B06846FDF7E4F9D4F81804B3
:109B800008B9029860609DF80000FDF7FFF914E045
:109B9000D4F8104405E02168204689688847E068C9
:109BA0000468002CF7D109480949401AC00802216D
:109BB00001EB004007A100F017F8FEF777F880F0FE
:109BC0000100FEE6D033002024C9020004C90200CF
:109BD000A4C802004261636B656E647320666C7595
:109BE000736865640000000000231A4601F0DABBC8
:109BF00008B5012300926A4601F0D4FB08BD1CB5EC
:109C0000CDE9002302236A4601F0CCFB1CBD000015
:109C10002DE9F0470E4680461C469246082940D85A
:109C200094F80C90002020731946104601F05EF95C
:109C30000025B54206D218F805201BA12046FFF7E3
:109C4000F7FB03E01AA12046FFF7F2FB6D1C082D7D
:109C5000EFD318A12046FFF7EBFB0025B54212D247
:109C600018F805707E2F08D8FCF758FB0068C05D17
:109C700010F03E0F01D03A4600E02E220EA1204601
:109C8000FFF7D6FB03E00DA12046FFF7D1FB6D1CCB
:109C9000082DE3D301222146504601F0FFF884F855
:109CA0000C90BDE8F08700002025303278000000DD
:109CB000202020007C000000256300002000000020
:109CC0000B4810B5FF218160002101604160C0F8A0
:109CD0001814C0F8141480F82014064800F0E4F8B2
:109CE000002803D1044800F057F9002010BD0000FF
:109CF000D033002024C90200D8BF02000248034923
:109D0000401AC0087047000024C90200A4C802001D
:109D100013B56846FEF796FF08B100201CBD024847
:109D2000009950F831001CBDA4C8020070B5094864
:109D30000125D0F8104480F8205407E0E068457110
:109D40002168204649688847E0680468002CF5D1FE
:109D500070BD0000D03300202DE9FF4781460C9DE7
:109D600000200C462F7B2873984616462946184635
:109D700001F0BCF8072E42D2DFE806F004090F1606
:109D80001F2A360049462846FFF752FB37E049466E
:109D900028462268FFF74CFB31E0D4E9002349460E
:109DA0002846FFF745FB2AE0A0680090D4E900238D
:109DB00049462846FFF73CFB21E0D4E90201CDE902
:109DC0000001D4E9002349462846FFF731FB16E09D
:109DD00004F1080007C88DE80700D4E900234946CC
:109DE0002846FFF725FB0AE004F108000FC88DE8BC
:109DF0000F00D4E9002349462846FFF719FB00224B
:109E00002946404601F04AF82F73BDE8FF872DE947
:109E1000F041058A80462D1F4819C01CB0FBF5F0A3
:109E2000C6B24046FFF7D7F8041E19D000202071B3
:109E300001206071E58000272546761EC4F8008069
:109E40000BE04046FFF7C7F860B16179491C6171CA
:109E5000286005467F1CC0F80080B742F1D3204639
:109E6000BDE8F081204600F002F80020F8E72DE977
:109E7000F041457901466B1E002201E00968521C41
:109E80009A42FBD30F680146002605E038460C686D
:109E9000FFF7C3F82146761CAE42F7D3BDE8F08148
:109EA0000121001DFFF775B8FFF7CFB810B50446C4
:109EB0000121001DFFF789F810F0FF0F04D12046A3
:109EC000BDE81040FFF7D3BF10BD1CB501920122C1
:109ED000009201AAFEF772FE1CBD1CB50192002281
:109EE000009201AAFEF76AFE1CBD7047064910B534
:109EF00000204870091D0860BFF35F8F03490448C4
:109F000000F056FA002010BD2C2B002070BE02007D
:109F10002C32002008B500208DF800006846FDF7BF
:109F200011F8F1EE100A20F09F00E1EE100ABFF3E5
:109F30005F8F08494020C1F880029DF80000FDF7BE
:109F400025F800F011FA08B141DF08BD20BF40BF7D
:109F500020BF08BD04E000E070B504460C480121B4
:109F6000FFF728F8BFF35F8F0025002809D10120F3
:109F7000074E042C08D0311F4A781AB1BFF35F8F07
:109F8000356070BD0C70487001F096F9F6E700007E
:109F9000302B0020FCF73ABF826800219160826874
:109FA0001161826851618268D16082685160806805
:109FB00001607047024A1060101D01607047000088
:109FC0002C760040030103481844C0F81425C0F85B
:109FD000101570470070004002494058002800D01A
:109FE0000120704700700040034908B50844002272
:109FF00002600068009008BD0070004020B1034975
:10A0000009680160002070470E2070475CC00200A4
:10A010002DE9FE4307460E460846FFF7EFFF0028EE
:10A020007CD100240094019406208DF800704FF03C
:10A030000108ADF8040002948DF8028069462020E2
:10A04000326869DF3649374A891AC908012202EBAA
:10A05000014530B100F0F0F9024628463249FFF7D9
:10A06000C7FD00948DF801808DF8024001940294A0
:10A070008DF8034069464020326869DF30B100F056
:10A08000DBF9024628462949FFF7B2FD00948DF816
:10A090000070F720ADF80200019402946946232075
:10A0A000326869DF30B100F0C7F90246284620491E
:10A0B000FFF79EFD0094019402948DF8008069469C
:10A0C0000120326869DF30B100F0B6F90246284657
:10A0D0001849FFF78DFD4FF4B06000900194029491
:10A0E0006946A120326869DF30B100F0A5F9024667
:10A0F00028461149FFF77CFD0094019402948DF8E5
:10A1000000406946A020326869DF30B100F094F960
:10A11000024628460949FFF76BFD0020BDE8FE8393
:10A1200014C90200A4C80200FCC6020044C7020011
:10A1300090C702005CC60200A8C6020008C6020062
:10A140002DE9F0410546076860DF804619491A4845
:10A150002A68081AC608BA4219D9022000EB064438
:10A1600016A12046FFF740FD20463A461FA12B6866
:10A17000FFF745FD4FF08050D0F80C0129688002B0
:10A1800000F10050421A204625A1FFF731FDB8F139
:10A1900000004FF001040AD000F04EF9024604EB33
:10A1A00006402AA1FFF724FD4046BDE8F0812F4874
:10A1B0000470F9E714C90200A4C80200496E73755F
:10A1C0006666696369656E742052414D20616C6CEE
:10A1D0006F636174656420666F72207468652053D4
:10A1E0006F66744465766963652E00004368616E2E
:10A1F0006765207468652052414D207374617274E4
:10A20000206C6F636174696F6E2066726F6D2030B1
:10A2100078257820746F20307825782E0000000093
:10A220004D6178696D756D2052414D2073697A6575
:10A2300020666F72206170706C69636174696F6E03
:10A2400020697320307825782E00000073645F62E7
:10A250006C655F656E61626C652829207265747536
:10A26000726E65642025732E00000000932B002081
:10A2700030B51548ADF5017D0078002821D04FF4A8
:10A28000FA7500BFADF8005280A9684661DF38B1A9
:10A29000052816D00DF5017DBDE83040FCF7B6BDB0
:10A2A0006C460A497DA800F083F806E0D0E9002159
:10A2B000204690477DA800F092F87F980028E1D0D2
:10A2C000F4E70DF5017D30BD932B002060C0020046
:10A2D0007CB5194C207808B108207CBD0120A07005
:10A2E000002000F029FF112819D0002000F03CFFC9
:10A2F00012480026006801908DF800606846FCF75F
:10A3000021FE0F4901A810DF05000AD000202070AF
:10A310009DF80000FCF73AFE2DB128467CBD0020D8
:10A320007CBD0120F3E7A670667001F00FF80120F4
:10A3300000F01AFFF3E70000902B0020F4BF0200AA
:10A34000896D02000EB50749684600F031F805E056
:10A35000D0E900108847684600F041F802980028CC
:10A36000F6D10EBD10C00200014800787047000011
:10A37000902B00201FB568464BDF30B1052814D064
:10A3800004B0BDE81040FCF741BD084901A800F049
:10A390000FF806E0D0E900210098904701A800F0EE
:10A3A0001EF803980028E6D0F4E71FBD7CC0020029
:10A3B000016009684160AFF3008010B5D0E9002169
:10A3C0005368994201D1002104E0D1E90034A3424D
:10A3D00002D01946816010BD08314160F0E7816804
:10A3E00000290BD0026892680A44826041684B6879
:10A3F0009A4203D108314160FFF7DFBF7047000088
:10A400000C4A10B502F594730EE0991AC91001EBCD
:10A41000D171491002EBC1010C68844201D90B468D
:10A4200002E005D201F108029A42EED3002010BDED
:10A43000486810BD90BE020000B5FFF7E1FF00289C
:10A4400000D1014800BD00007CBE02004058002839
:10A4500000D00120704708B50022425040580090BB
:10A4600008BD000008480068012110F0010F06D166
:10A470004FF0E020C02280F80024C0F8001103490A
:10A48000012008607047000000E100E0180500406E
:10A490000649024600200B790BB1852070470A60FF
:10A4A00001220A7100224A7170470000F02A002040
:10A4B00004490120086004480168C1F300410029F3
:10A4C000FAD170470C00004018040040002802D068
:10A4D000014980010847704731BE0200002802D0C0
:10A4E000014980010847704741BE02002DE9F04153
:10A4F0000E46804600F058FC204D0028404616D0FD
:10A50000FDF710FC284490F858008009032802D079
:10A5100001280AD003E04046FFF73CF928B10321A7
:10A520004046BDE8F041FFF7DFB80221F8E700F050
:10A5300047FC002820D04046FDF7F4FB0446104FAE
:10A540004FF4807007EB840100EB8400D1F81025F4
:10A5500080B242F00102C1F81025FFF751F9002E38
:10A560000AD04046FDF7DEFB55F82000002803D056
:10A570000120A040C7F80403BDE8F081443000206A
:10A58000006000402DE9FC41DFF8C080044608EB84
:10A590000400002790F930001346C0170E46401CF7
:10A5A00001D008274FE0B0781946C0F3400220469A
:10A5B000FDF794FB0546401C44D0B07841071CD4FD
:10A5C000C0070DD068460094FFF7C8F8009900EB6B
:10A5D0008100D0F8001721F00201C0F8001707E051
:10A5E00000217378204600910A460191FFF73FF859
:10A5F000164920466431FEF748FDB078800718D52B
:10A600001348317800EB8500D0F81025114B1A4023
:10A61000C0F810254FF47C524FF4403302EA042274
:10A6200003EA01410A43D0F810150A43C0F8102587
:10A6300009E008EB0500327810F8581F41EA821152
:10A64000017000E004273846BDE8FC81443000205A
:10A6500000600040FFC0FCFF10B5FFF79BF800282A
:10A6600000D0012010BD000070B5184D95F86A00AB
:10A6700008B1082070BD0020411E2A18401CC0B23D
:10A6800082F830103028F8D300242046FDF718FB5C
:10A69000641CE4B20C2CF8D30C490024C0204C6696
:10A6A000A1F868400A4981F8000401264020891F6A
:10A6B000C1F800014FF4BE70FFF7A2F80549F0079A
:10A6C000C1F8040385F86A60204670BD443000205C
:10A6D00006E000E0006000400121B1EB507F01D1B5
:10A6E000012070470020704738B50D4600F04AFC45
:10A6F000040014D000208DF800006846FCF722FC0E
:10A70000207928B19DF80000FCF740FC112038BDED
:10A710000120256020719DF80000FCF737FC002027
:10A7200038BD00002DE9F041254C064612200D46AB
:10A73000C4F808032348017C022918D0027C014692
:10A740004FF4807891F82E10012A12D00222C4F81A
:10A75000042301270774466005810022C26021B3EB
:10A76000458390F82D103046FFF724FC25E0122099
:10A7700002E0C2682AB10220C4F804031120BDE837
:10A78000F081C660058361B947463846FFF724FC6F
:10A790000028FAD03846FFF727FC29463046FFF755
:10A7A00009FC0220C4F8040307E029463046FFF7FD
:10A7B00001FC4046FFF718FC27600020DFE700009F
:10A7C00000700040E4300020204A10B5137C0BB12B
:10A7D000112010BD02EB40031C7F1CB912F82D4F55
:10A7E000641C1470CA791A770A7A5A770A784B78F7
:10A7F000302402F0030204EA03131A438B784FF467
:10A80000E06404EA03231A43CB784FF4805404EA4B
:10A8100003331A430B794FF4E02404EA03431A4349
:10A820004B794FF4801404EA03531A438B792401C3
:10A8300004EA0363064C1A4304EB0013C3F818251B
:10A840000A7AC979FFF7BEFB002010BDE430002072
:10A85000007000402DE9F0411F4C054694F82C0093
:10A8600010B10820BDE8F08144F8101B1B4928787E
:10A870000860091D68780860E878A07701272777C5
:10A880000020207060776060154EE0776FF0004028
:10A89000C6F808034FF48270FFF7A6FBB015FFF768
:10A8A000A3FB4FF48A70FFF79FFBA8780D49400186
:10A8B00081F800048020C91FC1F800010220C6F8F9
:10A8C0000403A07F10B10120C6F804030348F03848
:10A8D00007600020C6E70000E4300020F07500406B
:10A8E0000070004007E000E00248007C002800D033
:10A8F00001207047E4300020084900200A7C012A2A
:10A9000001D00820704791F82E30054A01210BB183
:10A9100011607047024A121DFAE70000E43000207F
:10A92000007000400179006801EB810202EBC10177
:10A93000044A02EB81010622C0F80025022081F8BA
:10A940002D007047B03000202DE9FC41064600790B
:10A9500017460D4600EB8001314A01EBC00102EBC6
:10A960008104984694F82D1011B10820BDE8FC81AF
:10A970002C4951F820103068FFF7B6FE08B11120BD
:10A98000F4E7C4E900780027A76084F8307084F801
:10A990002F70687B84F832004FF00608CDE90087FD
:10A9A00003233A4639462868FEF77AFECDE9008748
:10A9B0000022032311466868FEF772FED5E90012F3
:10A9C0003068C0F80815C0F80C25A968C0F824152F
:10A9D00020680122F8B1306840F30731287B002954
:10A9E0004FEA401006DA01F00F0101F1E02181F891
:10A9F000140D03E001F1E02181F80004306840F318
:10AA0000073000F01F0102FA01F14009800000F157
:10AA1000E020C0F8001184F82D200020A6E70000F7
:10AA2000B030002014BE0200F0B585B015460E46C9
:10AA300007461C46142207496846FBF773FC8DF84D
:10AA400001600022694638460395019400F020F821
:10AA500005B0F0BD18BE02002DE9F04186B00E46EB
:10AA600080461C461546142168460C9FFBF773FC74
:10AA70008DF80160039501940FB1202200E00022BF
:10AA80006946404600F004F806B0BDE8F0810000D9
:10AA900030B40379006803EB830404EBC303054C73
:10AAA00004EB830413460A460146204630BC00F0FE
:10AAB000F1BE0000B03000207047002801D1FCF743
:10AAC0004FB970470078002807D104483B2180889F
:10AAD00076DF002801D0FCF799B97047A02A002042
:10AAE000F0B58BB0002601960D4604468988406972
:10AAF00001AAFCF783FA0AA8CDE908600227ADF89D
:10AB00002070ADF82260218AA88808AAADDF00284D
:10AB100019D1A069002816D00998FDF749F8002836
:10AB200011D0019E0EB101203070182102A8FBF750
:10AB300012FC8DF808700394A888ADF810000596F3
:10AB4000A16902A888470BB0F0BD000070B58D88E0
:10AB5000027900EBC5042273C97BA41D012902D030
:10AB6000022904D101E0008800E04088208021888B
:10AB70006088814211D92846A5DF0126B0B111288D
:10AB800016D0FFF759FC02460B480C49401AC00882
:10AB900006EB00400AA1FFF72BF8A179E07981428A
:10ABA00008D92846BDE87040FDF706BB6671F4E79A
:10ABB0002671F2E770BD0000A4C80200A4C802001C
:10ABC00073645F626C655F67617474635F6578630B
:10ABD00068616E67655F6D74755F726571756573C9
:10ABE0007428292072657475726E65642025732E31
:10ABF000000000007CB506468D88C88806EBC504B9
:10AC0000A41D172800D217202188814200D80846A9
:10AC100060800020207121882846B5DF60B1FFF7F1
:10AC20000BFC02460F481049401AC008012101EBF5
:10AC300000400EA1FEF7DCFF6079002810D13069DA
:10AC400000280DD01549D1E90201CDE90001ADF888
:10AC500002506088ADF8040032696946304690477A
:10AC60007CBD0000A4C80200A4C8020073645F6237
:10AC70006C655F67617474735F65786368616E6744
:10AC8000655F6D74755F7265706C792829207265D7
:10AC90007475726E65642025732E0000E4BD020099
:10ACA000F0B587B00C4605468E1D8988406906AA16
:10ACB000FCF7A4F918216846FBF74DFB0195A08825
:10ACC000069AADF80800039231882B89002704F119
:10ACD0001200994202D17389022B0DD0AA899142A8
:10ACE0001ED1A96900291BD08DF8007004907089CD
:10ACF000ADF81400A96911E0002A11D0FCF758FF43
:10AD000020B1069901200870022002E00698077021
:10AD100003208DF80000A969002901D06846884702
:10AD200007B0F0BD13B582B000200C46009001239F
:10AD300002AA44210B48FEF76DFB10B1012004B0BC
:10AD400010BD08484421001D01AA0223FFF76CFE34
:10AD500008B10220F3E7BDF8040040BA20800020CB
:10AD6000EDE7000058BD020008B569460020FFF776
:10AD7000D9FF08B1002008BDBDF80000000B00F0AD
:10AD8000ABF8BDF80010C1F30B01484380B208BD19
:10AD90000068012805D0022803D0042801D0002033
:10ADA00070470120704700000449084490F93000C2
:10ADB000082801DB01207047002070474430002044
:10ADC0000449084490F93000082801D20120704756
:10ADD00000207047443000202DE9F047002805D0BE
:10ADE0002A4D29786E78B14202D10020BDE8F08763
:10ADF000EFF3108172B6264CA768244B0122DB1CAE
:10AE00004FF000094FF0E02817B11A70A1B114E01B
:10AE1000A260D8F880C11F4F0CEA070CC4F800C02C
:10AE2000C8F88071D8F8847167604FF0FF37C8F8B0
:10AE3000847183F80090E9E762B6174FC6EB0611FC
:10AE400017F8112007EB4101491CFBF76BFA6878F2
:10AE50000A21401CB0FBF1F201FB12006870E87897
:10AE6000A16869B160B9EFF3108072B62268C8F8C2
:10AE700000216268C8F80421C4F8089000B962B6DD
:10AE8000C6EB061017F81000B0E70000A02A00205B
:10AE900020320020FC06FFBD302E002010B50C46ED
:10AEA000017A052908D0407A38B1084808A102681B
:10AEB0002046FEF7BDFA00E01AB106A12046FEF7D3
:10AEC000B7FA2046BDE81040FEF7BFBA6C2B002051
:10AED000257300000D0A000002460120002101E058
:10AEE0004000491C9142FBDB7047000038B5C38825
:10AEF0000D46044633B114A0009015A216A12846B1
:10AF0000FEF796FA217A05291CD0607A48B1A0880C
:10AF1000FEF72AFD164951F8202016A12846FEF713
:10AF200087FAA0880021FEF7F3FE03461049207A35
:10AF3000143951F8202001B02846BDE830400EA158
:10AF4000FEF776BA38BD00001B5B306D00000000D4
:10AF50001B5B313B33316D0025734C6F677320648D
:10AF6000726F70706564202825642925730D0A00AE
:10AF70006C2B0020257300003C25733E2025733A7E
:10AF8000200000000349884201D103487047002097
:10AF90007047000000200040F82A002010B503464A
:10AFA0001D2901D20A4600E01D220F4C2078C0EB7B
:10AFB00000110E4800F8112000EB41001946401C1A
:10AFC000FBF7B0F920780A21401CB0FBF1F201FB3D
:10AFD000120222706078824205D1401CB0FBF1F26F
:10AFE00001FB1200607010BDA02A0020302E00204E
:10AFF00038B50446012003460090064A4021064821
:10B00000FEF70FFA08B1FF2038BD2046BDE83840F2
:10B01000FCF758BFD82A002058BD020038B50446B6
:10B02000012003460090064A40210648FEF7F9F940
:10B0300008B1FF2038BD2046BDE83840FCF772BF9C
:10B04000D92A002058BD020070B5012670044FF0C7
:10B05000E0210025C1F88001084C4010C4F84803E5
:10B06000C4F8080366602F20FFF738FAA660044C86
:10B070002F20A560FFF732FAA57070BD00100140C7
:10B08000182B00200178002910D140684FF4B471CA
:10B09000008810FB01F0C11700EB915080120449A9
:10B0A00000EB800080B28881FDF7B8BE70470000D9
:10B0B000A02A00200EB50A4A07CA8DE807000848F2
:10B0C00008498038FFF7C6FB08B1FBF79FFE6946C9
:10B0D0000020FFF779FB002801D0FBF797FE0EBD9B
:10B0E000CCBD020085B0020038B50021012548B171
:10B0F00001280CD0032809D1FFF7B4F9BDE8384086
:10B10000FEF746B94FF0E020C0F8805138BD8DF809
:10B1100000106846FBF716FF064C207808B9FEF7CA
:10B120001BF9E068401CE060A5709DF80000FBF78B
:10B130002DFF38BD303000203EB504460949684631
:10B14000FFF736F908E000BFD0E90021204690471C
:10B1500030B16846FFF743F902980028F4D13EBDAC
:10B1600011203EBDF8BF02003EB5044608496846BE
:10B17000FFF71EF907E000BFD0E900212046904705
:10B180006846FFF72CF902980028F5D13EBD000073
:10B1900004C0020002498969002900D008477047AD
:10B1A0009C2F00202DE9F0411400884618D000257E
:10B1B0000E4F032608EB050122460020FBF714FB87
:10B1C0000544241A40B93878002809D008494FF4BA
:10B1D0007A408847761E05D001203870002CE9D1CE
:10B1E000BDE8F08100203870FAE70000342B002021
:10B1F000D1BF02002DE9F0410746806A1446884617
:10B20000C8B3002531E000BFB96A05EB450001EB8A
:10B210008006B088801CFE2802D90C20BDE8F08191
:10B220002288401C08F8020020881622401C80B2A8
:10B23000208008F800202088401C80B2208000EB8D
:10B240000801308800F03EFC2188084480B220804C
:10B25000B28842B1B16871B14044FBF763F820880D
:10B26000B188084420806D1CEDB297F82C00A842EC
:10B27000CAD80020D2E7FFE70720CFE70A780628E0
:10B2800022F0FF020A7010D2DFE800F00305070980
:10B290000B0D002008E0112006E0212004E0312001
:10B2A00002E0122000E02220087070472F2801D110
:10B2B000FDF766BD7047000070B5194D194C07E0E9
:10B2C000016820788847002829D01548FFF787F8BB
:10B2D000A8680028F4D1FEF729FD00BFFEF76AFB3D
:10B2E0000028FBD1207803280CD002280AD0FFF7D1
:10B2F0003BF800B133DF0C4901200860BFF34F8FEA
:10B3000020BFFDE7BFF34F8F08480168084A01F4EA
:10B31000E06111430160BFF34F8F00BFFDE770BDD7
:10B320002C3200202C2B0020000500400CED00E00A
:10B330000400FA05002805D10349012048700020C7
:10B34000FCF724BE704700003030002010B51620F6
:10B35000FBF72AFCA0B1114890F800044009082826
:10B3600011D20121814011F0EC0F0CD00C48826801
:10B370004FF480016AB1016841F48001016010BDA1
:10B3800042F2010001E042F20200BDE81040FBF78A
:10B390003DBD4FF0E020C0F8001110BD16E000E008
:10B3A000203200202DE9F84F204D9246894606466E
:10B3B0009846012269461846AF68FCF71FFC58B34F
:10B3C000009800210446801C09E000BF00EA070342
:10B3D0005AF8212005EB8303401C491CDA604145E3
:10B3E000F4D34FEA164AFCF75DFF4AEA0041601CBD
:10B3F000384005EB80003C4005EB8402C160D0681A
:10B4000066F3C50068F3891069F39F2020F00300FC
:10B41000401C20F00400D06095F8200402E000BF3A
:10B42000FEF7C8FA0028FBD1BDE8F88FD033002022
:10B430001CB56846FBF7C4FD6846FFF7EFFD01A8A1
:10B44000FFF7D6FDBDF80410BDF80000FDF7ACFC19
:10B45000FFF78AFCADF80000FDF750FC1CBD0000B2
:10B460002DE9F84F1D4C00256846D4E901A6FCF7EC
:10B4700023FF002738B30023009A61681CE0D1F84D
:10B4800000C00846944503D9ACEB02020A6015E0FF
:10B49000A2EB0C0263440760D0F80CC0C16981467E
:10B4A000BCF1000F08D006EB030828F07F48C0E984
:10B4B000018CC9F81C5005460029E0D1284661607E
:10B4C000FDF7ECF803E02846FDF7E8F810B1504628
:10B4D000FCF77EFDE770BDE8F88F0000182B002018
:10B4E0000D4B10B5596831B102680C68A24204D8FE
:10B4F000A21A0A60C161586010BD0B4603E00B46FA
:10B50000C969121B21B10C689442F8D3A41A0C60CB
:10B510000260C161D86110BD182B00202DE9F041F7
:10B52000144E77683D462C4603E0844204D02546FD
:10B53000E469002CF9D11BE0D4B1A5420BD1F86924
:10B54000706040B90C49012088600021B160F07042
:10B550002F20FEF7C3FF2168E069E86110B102689F
:10B56000114401607068874202D00120BDE8F0817B
:10B570000020FBE7182B0020001001407CB5064698
:10B5800000240D468DF800406846FBF7DBFC01A85F
:10B5900000F04AFB70B10570094946609DF804004F
:10B5A00048709DF80000FBF7F1FC1420FBF71CF835
:10B5B00020467CBD04249DF80000FBF7E7FCF7E77C
:10B5C000143100202DE9F041194D6C68002C2CD06D
:10B5D000184800270068A968B846401A20F07F463E
:10B5E0002068B0420CD82146361A0744E469087C2A
:10B5F00020B181F81080886949698847002CEFD113
:10B6000029786878814206D1401CC0B2687002284F
:10B6100001D185F80180064869780C3040F8217026
:10B62000BDE8F0411420FAF7DFBFBDE8F08100006B
:10B63000182B00200415014038B5044640F20C6078
:10B640002168890001F1A041C1F800076168890003
:10B6500001F1A041C1F800072068FEF7B0F860686A
:10B66000FEF7ADF8216840F20D60890001F1A041BC
:10B67000C1F800076168890001F1A041C1F8000725
:10B680000420FEF723FF0025606800906846FEF75F
:10B6900073F8D0F810050099C84010F0010F02D0DF
:10B6A000002D1AD00EE02068FEF740F80420FEF7C7
:10B6B0000DFF2068FEF783F80420FEF707FF6D1CDE
:10B6C000092DE1DB6068FEF731F80420FEF7FEFE8D
:10B6D0006068BDE83840FEF772B838BD1FB5094B49
:10B6E0000FCB8DE80F00074800231A466946103833
:10B6F000FDF766FE08B1FBF789FB02480C38FFF73F
:10B7000011F91FBD68BD02001FB50A4601788DF80A
:10B71000001001798DF8041041798DF80510017A37
:10B720008DF80610017B8DF80710016902914069C0
:10B730000390044850F82210083850F82220684638
:10B7400090471FBD102B00202DE9F04F0D464FF400
:10B75000927887B004464146FEF778FE4FF0020B20
:10B7600001264FF4827740B141462046FEF773FE32
:10B7700039462046FEF76AFEC0B34FF48271204678
:10B78000FEF764FEDFF808810100EA4605F10C09C6
:10B790004FF000073ED04FF482712046FEF75BFE6B
:10B7A000142249460AF10400FAF7BCFD95F82E0070
:10B7B00058B1287B012827D0D4F84C050290287B6B
:10B7C000022824D0D4F84C0503904FF4B0712046E1
:10B7D000FEF741FE4FF4AE712046FEF73CFE95F8B1
:10B7E0003000A8B395F82E0090BB37E0FFE7A868BB
:10B7F000C4F80803C5F808B0A868C4F804032662B2
:10B80000666107B0BDE8F08FD4F83C05D6E7D4F800
:10B810003C05D9E74FF4A4712046FEF71CFE287BB7
:10B8200068B14FF40070C4F80002801CA860C4F82E
:10B830000883A868C4F80403A6602662E1E714221E
:10B8400049460AF10400FAF76DFD95F8300028B971
:10B850000020C4F80002AF60C4F80883D4F8C40420
:10B86000C4F8C404810702D58DF8006006E04007E3
:10B8700002D58DF800B001E08DF8007095F8300029
:10B8800008B985F82F70D5E9002168469047B8E7D8
:10B8900002029C012DE9F05F06461F4615460C4644
:10B8A0004FF0000A4FF0080B4FF48279D068FEF792
:10B8B00013FF002879D08148C4F8080396F82F00B8
:10B8C00028B1B068C4F804031120BDE8F09F7807E0
:10B8D00003D4F80601D4012000E0002086F82F00F0
:10B8E0001422294606F10C00FAF71CFDC7F30010DC
:10B8F00086F830006878C4F888054FF482712046D5
:10B90000FEF7A9FD4FF492712046FEF7A4FDF8075B
:10B910004FF0010800D04046C4F85005B80701D5E3
:10B92000404600E00020C4F840052878E0B3012834
:10B930007BD002284FD0032814D04FF0070A3807D5
:10B9400004D42878032801D044F80B8030680028FC
:10B950006CD0780702D54FF40070B060B068C4F8BE
:10B960000403A8E02869FEF7B7FEF0B14FF4807039
:10B97000C4F80002E9686868C4F84415C4F84805CA
:10B980004FF4A8712046FEF766FD4FF4B0712046D3
:10B99000FEF761FD4FF4A4712046FEF75CFDC4F88C
:10B9A0002080C4F8088001E02AE027E04FF4A87165
:10B9B0002046FEF74BFD0028F5D04FF4A871204635
:10B9C000FEF749FD2969A868C4F84415C4F848057C
:10B9D0003B48B060B3E76968E868C4F84405C4F858
:10B9E00048152869FEF778FE40B12969A868C4F8AF
:10B9F0003415C4F838054FF484501AE0102064E779
:10BA0000E9686868C4F84415C4F84805B8060ED556
:10BA10004FF48070C4F800022948B0604FF4A47954
:10BA200049462046FEF717FD08E00AE019E04FF40A
:10BA30000070C4F8000240F20220B060C4F8208018
:10BA40007DE7E9686868C4F83415C4F838054FF430
:10BA50008050C4F8000240F20220B0604FF0000BAA
:10BA6000ECE745464FF482774FF492780BE041467D
:10BA70002046FEF7EBFC30B141462046FEF7EBFCDA
:10BA800025626561B94649462046FEF7DFFC00287D
:10BA9000EDD0D4F8C404C4F8C404002186F82F10F3
:10BAA00048B10321820701D548F20121400701D5A1
:10BAB00048F202218A46504607E7000002029C0134
:10BAC000000204000870000A48700220704700005D
:10BAD0002DE9F05F8346DDE90A4A994690460D4616
