:020000040002F8
:10600000605A0020F962020001630200036302008B
:10601000056302000763020009630200000000003C
:106020000000000000000000000000000B63020000
:106030000D630200000000000F6302001163020004
:106040002166020013630200396A020045680200FB
:106050001363020013630200096402009D660200DC
:106060001363020013630200136302001363020050
:106070001363020013630200136302001363020040
:10608000136302007966020013630200DD630200FD
:10609000556802001363020059680200136302008E
:1060A0001363020013630200136302001363020010
:1060B00013630200136302000000000000000000F0
:1060C00013630200136302001363020013630200F0
:1060D00013630200136302001363020013630200E0
:1060E0001363020013630200136302000000000048
:1060F00000000000136302000000000013630200B0
:10610000000000000000000000000000000000008F
:10611000000000000000000000000000000000007F
:10612000000000000000000000000000000000006F
:10613000000000000000000000000000000000005F
:10614000000000000000000000000000000000004F
:10615000000000000000000000000000000000003F
:10616000000000000000000000000000000000002F
:10617000000000000000000000000000000000001F
:10618000000000000000000000000000000000000F
:1061900000000000000000000000000000000000FF
:1061A00000000000000000000000000000000000EF
:1061B00000000000000000000000000000000000DF
:1061C00000000000000000000000000000000000CF
:1061D00000000000000000000000000000000000BF
:1061E00000000000000000000000000000000000AF
:1061F000000000000000000000000000000000009F
:10620000DFF80CD000F0D8F800480047A185020064
:10621000605A002030B4044654E8000F0D4644E8AC
:106220000053002BF8D1156030BC704730B40446E1
:1062300054E8000F40EA010544E80053002BF7D171
:10624000156030BC704730B4044654E8000F00EAD3
:10625000010544E80053002BF7D1156030BC7047AE
:1062600030B4044654E8000F80EA010544E80053C6
:10627000002BF7D1156030BC704730B4044654E8A9
:10628000000F00EB010544E80053002BF7D1156027
:1062900030BC704730B4044654E8000FA0EB010551
:1062A00044E80053002BF7D1156030BC704770B440
:1062B00004464FF0000054E8006F0D68AE4207BF7F
:1062C00044E80023012044E800630E60002B1CBF5B
:1062D0000020F0E770BC704730B4044654E8000F6B
:1062E00088422CBF451A054644E80053002BF5D1DF
:1062F000156030BC704700000648804706480047DC
:10630000FEE7FEE7FEE7FEE7FEE7FEE7FEE7FEE765
:10631000FEE7FEE75D680200016202000048704788
:106320002CB2020040EA01039B0703D009E008C930
:10633000121F08C0042AFAD203E011F8013B00F84A
:10634000013B521EF9D27047D2B201E000F8012B96
:10635000491EFBD270470022F6E710B513460A46E5
:1063600004461946FFF7F0FF204610BD421C10F806
:10637000011B0029FBD1801A7047034611F8012B3D
:1063800000F8012B002AF9D11846704730B50B46AA
:10639000014600202022012409E021FA02F59D4255
:1063A00005D303FA02F5491B04FA02F52844151E29
:1063B000A2F10102F1DC30BD064C074D06E0E068B9
:1063C00040F0010394E8070098471034AC42F6D33C
:1063D000FFF71AFF94B90200B4B9020010B5012109
:1063E000080202F0C3F802214FF4827002F0BEF8F6
:1063F00004214FF4847002F0B9F8BDE81040082180
:106400004FF4867002F0B2B82DE9F04F00268DB03F
:10641000DFF8A081B14604964FF480750124374619
:106420000596284602F0EEFE38B1D8F80403204263
:1064300003D0284602F0DCFE26432D1D64007F1C9D
:10644000ADB2082FEDD34FF4BE74204602F0DAFE51
:1064500048B1204602F0CCFE46F0004604AA0221D4
:10646000002002F0AFFE544C16F0FF0F15D00127AC
:10647000002537420DD008EB8501D1F81005D1F881
:106480001015C0F3052054F82520C1F3014102B1D5
:1064900090477F006D1C082DEBD3002E7EDA002084
:1064A000CDF82890411E0DF1100B07AACDF82C90C5
:1064B00042F82010401C91460228F9D300252E46B0
:1064C000A11911F8607F91F9000027F0C008401C65
:1064D00040D007A9404602F06AFB40B34FEA971A42
:1064E000404601F0FBFB54F820701FB1BAF1030FD6
:1064F00003D006E0BAF1030F2CD10AA9404602F0FE
:106500005EFB02A8CDF8088002F044FE029900EB81
:106510008100D0F8000704A9C0F301400290404672
:1065200002F045FB0028029802D0022802D011E0B8
:1065300003280FD1BAF1030F08D10298022833D0F3
:106540000221404602F0F5FD6D1CEDB217B1514637
:106550004046B847761C042EB2D3002D21D001AAA4
:106560000221002002F02EFE00205A460DF1040107
:1065700052F8206051F82030B34217D000200AAE04
:106580004FEA090351F8207042F8207056F8207045
:1065900043F82070401C0228F4D300E001E0002DF5
:1065A0008CD10DB0BDE8F08F0321CAE7401C022852
:1065B000DED3F6E7006000402830002000F01F0224
:1065C000012191404009800000F1E020C0F88012D4
:1065D000704700F01F02012191404009800000F146
:1065E000E020C0F80011704700F01F020121914027
:1065F0004009800000F1E020C0F800127047490710
:10660000090E002806DA00F00F0000F1E02080F803
:10661000141D704700F1E02080F80014704700005E
:1066200070B54FF48076304602F010FC114CB50581
:1066300060B1304602F011FC0120C5F80803607912
:1066400020B9012060712168002088474FF48276CC
:10665000304602F0FBFB00280AD0304602F0FDFB7A
:106660000220C5F808032168BDE8704001200847F2
:1066700070BD0000E42A002007480021C0F8401146
:10668000C0F84411C0F84811C0F84C11C0F800110E
:10669000C0F8041104F0D4B9001001402DE9FE4304
:1066A0004FF48278404603F071F94C4F00254C4C72
:1066B000012600B3404603F071F994F82E0010B1A2
:1066C00094F82F10D1B18DF80050616801912189A3
:1066D000ADF80810E26832B1218B618362602181DC
:1066E000E56010B102E0257400E03E602168684674
:1066F000884784F82F5094F82E0060B34FF48077C9
:10670000384603F043F930B3384603F047F9628B5B
:1067100094F82D108A420AD9A2EB010080B260835E
:106720002289A2EB0000626802EB400005E007D17D
:10673000E06828B184F82F60658303F015F904E060
:106740008A4202D184F82F606583404603F026F91F
:106750002248001D06604FF48877384603F016F98A
:1067600048B1384603F01AF9257402208DF800006C
:106770002168684688474FF48A77384603F006F95F
:1067800028B1384603F00AF92574BDE8FE834FF0BE
:1067900000484FF48C7967691DE000BFB7FA87F0B5
:1067A00028FA00F109EB80058F43284603F0EEF844
:1067B00088B1284603F0F2F8A5F58C75E8088DF845
:1067C000040045F38000401C8DF800608DF8050042
:1067D000216868468847002FE0D1D6E70070004066
:1067E000C830002000F02EB970B50E46144900EBF9
:1067F000400001EBC0051446E86A183520B10128B5
:106800000FD0022805D113E0284600F04FF9A0422E
:1068100001D2002411E022463146284600F07EF9DC
:106820000BE0284600F042F9A042F4D20446F2E719
:106830003146284600F045F90446204670BD000068
:10684000D83700200149024804F034B994300020C0
:106850000030004004F042B803F04EBA30B54FF0BB
:10686000805000228300D0F83011C3F80C21C3F807
:106870001021624B1A60624B1B68624C2360604BB4
:106880001B1D1B68241D23605D4B08331B68241DE2
:1068900023605B4B0C331B68241D2360584B103363
:1068A0001B68241D2360564B14331B68241D236072
:1068B000534B18331B68534C20342360504B1C330C
:1068C0001B68241D23604E4B20331B68241D23604E
:1068D0004B4B24331B68241D2360494B28331B6812
:1068E000241D2360464B2C331B68241D2360444B1E
:1068F00030331B68434C40342360414B34331B68B6
:10690000241D23603E4B38331B68241D23603C4B01
:106910003C331B68241D2360394B40331B68241D06
:1069200023600123082902D1D0F8344114B1082989
:1069300004D006E0354C3449216005E0D0F83441FC
:1069400014B1082904D006E0314CFB21216005E098
:10695000D0F8344114B1082908D00EE090F858421C
:106960002C48016864F30301016002E0D0F834416F
:106970001CB929494FF40070086028480168C9070C
:1069800002D06FF0010101602548016841F47001F7
:106990000160BFF34F8FBFF36F8F4FF01021D1F81D
:1069A0000002002803DBD1F80402002822DA1D4C83
:1069B00023601D480368002BFCD01223C1F800326D
:1069C0000568002DFCD0C1F8043201680029FCD014
:1069D000226001680029FCD0BFF34F8F10487C383B
:1069E0000168124A01F4E06111430160BFF34F8F67
:1069F00000BFFDE70F490E48086030BD3805004074
:106A00000404001020C50040488103008C5600405B
:106A100018F50040E40E004040960240000400409B
:106A200088ED00E004E5014000E401400400FA05BF
:106A30000090D003782B0020014800680047000038
:106A4000EC2A002010B5124C02202061606111A0D8
:106A5000A06104F17800E0614FF400702062002032
:106A6000A06260620BA1A164E06204F51E71E164A2
:106A70001021A065C4E91410E06509A1E01DFFF72D
:106A80007CFC08A12046FFF778FC2020A07110BDF7
:106A9000D83700205465726D696E616C000000008B
:106AA0005254540053454747455200000269C1689B
:106AB0008A4203D88068401A104400E0501A401EF1
:106AC00070472DE9F047C4681746894606464FF0DF
:106AD00000083069A04201D9051B02E0B168201A04
:106AE0000D1AB0686D1E001BA84200D80546BD42B5
:106AF00000D33D4670682A4620444946FFF712FC01
:106B0000B0687F1B2C44A844A944A04200D10024B3
:106B1000F460002FDDD14046BDE8F0872DE9F0415B
:106B200004468846D4E90207C51BE168606816463A
:106B30000844B54206D94146FFF7F4FBB819E060B6
:106B4000BDE8F0812A464146FFF7ECFB761B08EBD7
:106B5000050132466068FFF7E5FBE660F0E70000FC
:106B60000FB4084B10B504A902AA039800F02EF840
:106B7000044602A9002000F0D3F8204610BC5DF8BE
:106B800014FB0000216D020002E008C8121F08C1BA
:106B9000002AFAD170477047002001E001C1121F9E
:106BA000002AFBD1704700000121202803DA814030
:106BB0000548014003E0402802DA2038814009B14D
:106BC0000120704700207047FC06FFBD2DE9FF4FF4
:106BD00089B09B460446002506E025280BD05A467E
:106BE0000B999047641C6D1C20780028F5D10DB0DE
:106BF0002846BDE8F08F0027B8460122474900E04B
:106C0000074314F8013F203B02FA03F00842F7D192
:106C100020782E2819D114F8010F47F004072A28EC
:106C20000ED06FF02F022078A0F1300109290CD886
:106C300008EB880102EB410100EB0108641CF2E75C
:106C40000A98641C50F8048B0A9020780028CED053
:106C5000642808D0692806D075281ED05A460B999A
:106C600090476D1C58E00A994FF00A0901C90A9132
:106C7000002802DA40422D2102E0390504D52B21FB
:106C80008DF82010012103E0F90704D02021F7E757
:106C90008A4608AE0DE00021FAE70A994FF00A098A
:106CA00001C90A91F7E74946FFF770FB303106F852
:106CB000011D0028F7D1ADEB060000F1200978078F
:106CC00001D44FF00108C84502DDA8EB090000E03F
:106CD00000208046002706E008A85A46C05D0B99B0
:106CE00090476D1C7F1C5745F6DB04E030205A4668
:106CF0000B9990476D1CB8F10001A8F10108F5DC73
:106D000005E016F8010B5A460B9990476D1CB9F136
:106D10000001A9F10109F4DC641C65E70928010000
:106D20000A68531C0B601070704710B501220221D5
:106D3000002000F041FF08B1072810D107220221EE
:106D4000012000F039FF08B1072808D100210A22EC
:106D5000084600F031FF08B1072800D1002010BD1F
:106D6000074910B5012088700321064800F00FFB89
:106D7000002803D0BDE8104000F048B810BD000066
:106D8000A02A0020BC2B002072B602F0C7FC00BF76
:106D900002F008FB0028FBD111481249401AC40830
:106DA000012000EB044010A102F016FC114800681D
:106DB000C00700D000BE022000EB04400EA102F08C
:106DC0000BFCBFF34F8F0B48E43801680E4A01F407
:106DD000E06111430160BFF34F8F00BFFDE700008A
:106DE00024BA0200C4B90200466174616C20657265
:106DF000726F7200F0ED00E053797374656D20726C
:106E000065736574000000000400FA050EB50021EA
:106E10000091CDE901106A4644F20100FFF7B4FF8A
:106E20000EBD0000074B9B7823B12AB120B100684A
:106E3000037C1BB1082070470720704741744261F2
:106E400000207047F830002070B503F091FB104827
:106E500000240B21047044700E4D817014206C606E
:106E60002C706C70FFF7AAFB06211420FFF7C7FBFC
:106E70001420FFF7AEFB0848046006211120FFF73D
:106E8000BEFB0548001F0068A860002070BD000020
:106E9000F8300020FC2A0020081501402DE9FC47AD
:106EA000DFF8789099F8023073B368B3052902D2FD
:106EB0000720BDE8FC87436933B3437C012B25D011
:106EC000002704460025884616468DF8005068467F
:106ED00000F038F801A803F045FFC8B101210170A6
:106EE0000F4944600968C0E90218C0E904769DF8BA
:106EF000040089F801009DF8000000F047F8142014
:106F0000FFF772FB2846D4E70820D2E70F46D8E700
:106F100004259DF8000000F039F8F3E7F830002070
:106F2000041501400649897839B130B1416921B170
:106F300000210174022103F05FBD082070470000AA
:106F4000F830002030B5EFF3108172B60D4A946826
:106F5000012324B10370002900D162B630BD9360D3
:106F60004FF0E023D3F88051074C25401560C3F85B
:106F70008041D3F8844154605A17C3F88421002219
:106F80000270E8E704320020FC06FFBD0B498A6866
:106F9000002A11D000280FD1EFF3108072B60B68D1
:106FA0004FF0E022C2F800314B68C2F804310022F1
:106FB0008A60002800D162B67047000004320020C9
:106FC00010B5002816D00C498989018003F07AF8A1
:106FD00000280FD1084801210A3002F091FF08B1C2
:106FE000FFF714FF03F076F8002803D0BDE8104047
:106FF000FFF70CBF10BD0000A02A002070B51500DF
:10700000044609D00020286034B1206820B1A0795E
:10701000800703D0072070BD0E2070BD084600F029
:1070200001FBC0B2142804D02179814203D8042086
:1070300070BD052070BDE288216800FB0210286049
:10704000002070BD2DE9FC470025178806461580F5
:1070500090F82D001446894630B13A4621464846FC
:1070600000F0F4FA051E09D1B0784FF00C0A18B3FD
:107070002088C846001DB84202D95046BDE8FC87AA
:10708000684679DF0028F9D12088032108F800102C
:1070900020881921401C80B2208008F80010208828
:1070A000401C80B2208000EB0801BDF8000003F016
:1070B000A7FD218808442080F0780222C8B12188E9
:1070C00096F9033001F1030C4846BC45D5D842542B
:1070D00021884FF0010C491C89B2218000F801C0C1
:1070E0002188491C89B2218009F801302088401C80
:1070F00020807068B8B1218890F9003001F1030C4C
:107100004846BC45B9D8425421880A22491C89B254
:10711000218042542188491C89B2218009F801301C
:107120002088401C2080308950B1CDE900474B4673
:107130000622022106F1080003F02CFE051E9DD157
:10714000308A50B1CDE900474B460722032106F1B2
:10715000100003F01FFE051E90D1308B50B1CDE919
:1071600000474B461522142106F1180003F012FEC9
:10717000051E83D1306A30B13B462246494600F0B5
:1071800020FF051EDBD1706A30B13B4622464946DE
:1071900001F052FB051ED2D196F82C0038B13B46C7
:1071A00022464946304603F0B9FA051EC7D1307869
:1071B00038B13B4622464946304601F00BFC051EDD
:1071C000BDD128465AE718B504460020ADF80000A6
:1071D00013466A46204600F006F8002802D0BDF8A3
:1071E0000000204418BD70B588B182B10024158814
:1071F00003E0065D641C3444A4B2A54203D806191A
:1072000076789E4201D08C42F3D38C4201D3002089
:1072100070BDA11C1180005D401E80B270BD80F861
:10722000301070472DE9F0470D00044606D02CB110
:1072300095F87A000026012803D006E00E20BDE86C
:10724000F08795F89800012821D04FF00109A67029
:107250002C2205F17801201DFFF764F884F83060D6
:10726000D5F8A4006063D5F8A800A0634FF6FF70BE
:10727000A4F8480204F50D70C4F84402C4F84A6248
:10728000A4F84E6284F85062207810B104E0072020
:10729000D5E7FF2084F8540004F15501C4F83412F6
:1072A00094F82400EE274FF01F08012833D0A4F8EB
:1072B000388200BF04F50E722846FFF7C3FE00288F
:1072C000BDD104F24311C4F83C1294F82400012803
:1072D00024D0A4F8408200BF04F5107205F13C00F0
:1072E000FFF7B0FE0028AAD184F85190208BA4F8B3
:1072F000480084F83C90266484F8506060696064BB
:107300004D4604F13C02002104F1540072DF0028D4
:1073100095D1257093E7A4F83872CBE7A4F84072B2
:10732000DAE710B50288102A1BD0112A20D0262AAD
:107330001DD1007A0C46012801D0022817D1A0786F
:107340000521401CB0FBF1F201FB1201204600F0C8
:107350001EF800280BD0A16B002908D0BDE8104012
:107360000847C27B012A02D18088A1F8480210BDDB
:107370000C46002184F852128088B4F848128842E2
:10738000F5D120790028F2D10121DFE770472DE9FE
:10739000F05F044600780F4698B1A7700025C4F846
:1073A0004A52A4F84E5284F85052A079012608B1EE
:1073B000012F09D0E07980B1012F05D0022F03D031
:1073C0000BE00820BDE8F09F616B21B184F85162A9
:1073D0000820884701E084F8515204F24B21002034
:1073E0000A5C0AB1304603E0401C0628F8D30020AE
:1073F0004FF002084FF0030B012F06D0022F0CD0E4
:10740000032F0FD0042F15D110E0A17929B194F8E2
:10741000241011B908B130460DE0E17911B108B17D
:10742000404608E0207A08B1584604E0607A08B186
:10743000042000E02846A070616B41B1032801D010
:10744000042804D1607910B194F85202A0B184F8F4
:10745000535204F13C0018210746FEF77CFF04F16B
:107460002C0084F83C60814602F080FF58B194F80B
:107470002C0084F8510008E084F8545284F85362D8
:1074800007208847E5E784F8516094F8240050B15C
:10749000484602F06BFF20B194F8280084F85200AF
:1074A00001E084F8526084F85050A27804F24A2136
:1074B00004F50D794FF0060A052A62D2DFE802F0E2
:1074C0007A030F22410084F83160C4F84452C4E9C1
:1074D000101584F83C808020A4F8480053E084F81C
:1074E000318094F82420384612B10722027001E05E
:1074F00080F800B0228A8281C4F844524160E16879
:10750000B96040E06069B860208BB88194F82400CD
:107510003D4610B184F83CA001E084F83C60204670
:1075200003F002FC50B185F814800421204600F0DD
:107530003DFE30BB052184F8311020E084F831B0E5
:107540001DE0E069B860208CB88194F824003D46C5
:1075500010B184F83CA001E084F83C60204603F0C0
:10756000E3FB48B185F814800421204600F01EFE9C
:1075700038B984F831A002E0042084F83100C4F85E
:107580004492A07878B13A4604F15400D4F84412F9
:1075900072DF00287FF416AF94F8301094F854008E
:1075A00073DF0028F6D1616B11B194F83100884780
:1075B000002007E784F83150F5E7000070B50400BB
:1075C00012D001461C221448FEF7ACFE1248134D9F
:1075D0000560206850B17ADF002806D12068016874
:1075E00029604068686005E00E2070BD0B487BDFB5
:1075F0000028FAD108484FF6FF711438084A20F8DD
:10760000041B0549343901600021FFF70BFC0028F9
:10761000EBD0032070BD0000802F0020DC2A00206A
:10762000C1AC020010B5044600F006F808B12046CF
:1076300010BD142010BD0000142801D30020704795
:107640000146014801F024BAA02F00207CB5054670
:1076500008880C460930904201D90C207CBD684650
:107660006DDF0028FAD121880820685420881B216A
:10767000401C80B2208029542088401C80B2208089
:107680002844DDF801100160BDF8051081802088D4
:10769000801D80B220809DF80010490800D0012193
:1076A00029542088401C208000207CBDF8B52E4D38
:1076B00001880026AF880446212941D01ADC2B48D6
:1076C0002B4A1029A0EB02004FEAD0004FF0030232
:1076D00002EB004018D0112926D0132938D10023FD
:1076E0001A46852138467FDF002831D0BDE8F840B2
:1076F000FFF78CBB3B2932D052292AD0562927D1FB
:107700008088132176DFEFE71AA101F065FF0520DD
:107710002881A188A9801A4801F020FB0221A970C4
:107720004FF47A712981DFE716A101F055FF4FF67A
:10773000FF70A880AE70BDE8F8400D2001F038BDA4
:107740000096808869468FDF002801D0FFF75EFB36
:10775000F8BD00231A4619463846B1DFC4E78088D1
:10776000132176DFC0E70000A02A002024BA02001F
:10777000C4B90200436F6E6E6563746564000000F7
:10778000B02B0020446973636F6E6E65637465642B
:107790000000000010B51A4C0188606810290ED056
:1077A00011292BD1401E606028D1FFF7BEFA0028B6
:1077B00024D02168002921D0BDE810400847D0B965
:1077C00000210122084600F0F7F908B107280FD17F
:1077D00007220221012000F0EFF908B1072807D1A4
:1077E00004220221002000F0E7F920B1072802D08E
:1077F000216801B188476068401C606010BD0000CE
:10780000D42A00202DE9F04701883B4E40F2F319BD
:107810004FF6FF7510291BD011293ED0122954D0E4
:10782000502946D1C188F289841D914241D1618994
:1078300002293ED18688304600F028FD050038D068
:1078400004F10C0000F0B4F9A8B3294630464EE02C
:10785000C17B8788044601292BD1A846284600F021
:1078600015FD050017D02F800020287223484346BD
:107870004A460168C5F80A104068C5F80E0004F1D0
:10788000100105F10A0000F078FD6872F089002807
:107890000FD129462AE0042013E0808800F0F6FC8E
:1078A000040006D06068FFF73DFB08B102F006FF58
:1078B0002580BDE8F087FFE76868FFF733FB002805
:1078C000F7D0BDE8F04702F0F9BE87880646384693
:1078D00000F0DCFC0400ECD02B464A4606F108011F
:1078E00004F10A0000F049FD607221463846BDE807
:1078F000F04700F0ADBB0000802F0020DC2A002004
:107900002DE9F04F0746858802883D48012197B050
:107910008346102A09D0112A49D01A2A6CD1387A04
:10792000B1EB101F45D2012244E0354C083CA06861
:10793000C0430B9061680BA801F0CBF80B990CA821
:1079400000F020FB2C220CA96846FEF7EBFC002679
:10795000E946A04610E000BF09EB46005FF00004D6
:10796000B0F804A008EB84005146001D01F085F832
:10797000641C1D2CF6D3761C0098B042ECD8142D54
:1079800005D317B00420BDE8F04FFFF73FBA2946F2
:10799000584601F088F8294608F1040001F083F800
:1079A000F87B012828D016482946001D15E02946F5
:1079B0001AE000220221B1EB101F01D2012600E0E3
:1079C00000260F49083901F11000041D294682B133
:1079D00001F069F836B12946204617B0BDE8F04FEE
:1079E00001F061B82946204617B0BDE8F04F01F01C
:1079F00044B801F042F8F5E717B0BDE8F08F000099
:107A0000A42F0020F0B585B016460F4604001D4691
:107A100014D004AA19466069FFF7F0FA00280BD1C8
:107A2000A5F57F40FF380BD0049848B1007848B1E5
:107A30003088F42808D9072005B0F0BD0E20FBE7F8
:107A40000520F9E70820F7E7002000900190029058
:107A50000390A088ADF8000001208DF80200CDE968
:107A6000026769462846AEDFE6E7000070B5334D91
:107A700004008EB02DCD08AE86E82D005BD0E9B3B2
:107A80000868A061214608A862DF002851D120784B
:107A900001258DF83200ADF83050A21C0CA9284603
:107AA000A8DF002845D120216846FEF754FC0220BB
:107AB000ADF8000020788DF802008DF80C509DF88C
:107AC0000D00F426ADF8046040F00C008DF8115064
:107AD000ADF806508DF80D008DF81250608804F155
:107AE0000C02694600F002F9002822D120216846E4
:107AF000FEF731FC0320ADF8000000E01BE0207829
:107B00008DF802008DF80C509DF80D008DF8115085
:107B1000ADF8046040F010008DF81250ADF806503A
:107B20008DF80D008DF813506088221D694600F015
:107B3000DDF80EB070BD0E20FBE700003CAF020088
:107B400070B588B00446002924D0002C22D0084605
:107B50002188102920D0502924D057291AD1054630
:107B6000A188406906AAFFF749FA002812D1069EAB
:107B7000307800280ED018216846FEF7ECFB012073
:107B80008DF800000195A088ADF808000396A9695A
:107B90006846884708B070BD08B02146BDE870400F
:107BA00002F0C2BA08B02146BDE8704002F09CBBAA
:107BB000007800F00100704770B50023042810D24F
:107BC0000D4D00EB4004012A02D101290CD0002206
:107BD000094E00EB4000304461B1012906D0022972
:107BE00006D00723184670BD0E30C2B22A55F9E7F9
:107BF0004270F7E78270F5E7402F00202DE9F84347
:107C00000546861C00208DF8000090460F464FF078
:107C100001096846FFF796F91B4C20683860D4E9E3
:107C20000001401AA16804F21C47081A0EE0012165
:107C3000384600F048FF00F04BFC0146384600F0A3
:107C400042FFD4E90001401AA168081A401C86428C
:107C5000EDD8B8F1000F03D0052065F3891002E0DC
:107C6000062065F39F50A2682168114004EB810152
:107C7000C8602068304420609DF80000FFF786F956
:107C80004846BDE8F8830000B433002030B4826871
:107C90000468531C8360A154D0E901128A4202D3C4
:107CA00030BC01F034B930BC70470000034803C851
:107CB000814201D10120704700207047B433002079
:107CC00005494FF0FF32082841F8202002D308442C
:107CD00080F85820704700002830002002490844EE
:107CE00090F9300070470000283000202DE9F04363
:107CF0008146887891B090460C4600B901208DF8F5
:107D00003E002088ADF83C0000250095607C694667
:107D100002F048FD6E46A07C711C02F043FDE07B42
:107D200000289DF8020002D040F0080001E020F099
:107D300008008DF80200217C11B140F0100001E034
:107D400020F010008DF80200217B11B140F00100FD
:107D500001E020F001008DF80200217D09B102212F
:107D600000E0012161F342008DF802001C2102A80D
:107D7000FEF7F1FA607BC10601D4800617D50E9597
:107D80000EAFE07C791C02F00DFD9DF838000797DE
:107D900020F00F00401C20F0F00010308DF838006B
:107DA0009DF83A0020F00600801C8DF83A00607BB8
:107DB0008DF80800A07B8DF80900142109A8FEF7B2
:107DC000CAFA0FA8CDE90906A088ADF83000A0686E
:107DD00020B1E088ADF82C00A0680D90A06998B3A0
:107DE00001950088ADF81000A06901AD01A9408897
:107DF000ADF81200A069406806950390A069007B69
:107E000002F0D0FCA069691C407B02F0CBFCA069A9
:107E1000807A00289DF8060002D040F0080001E0BA
:107E200020F008008DF80600A169C97A11B140F070
:107E3000100001E020F010008DF80600A169097A19
:107E400019B140F0010002E00DE020F001008DF8D2
:107E50000600A169897B09B1022100E0012161F3DB
:107E600042008DF80600E06900B10590434609AA7A
:107E700002A94846AADF11B0BDE8F08304480178A2
:107E80004078814201D100207047012070470000F6
:107E9000A02A002070B5084C050009D010342168D4
:107EA000002907D008682060496828468847F6E717
:107EB0000834F4E770BD000014300020054A0121A9
:107EC00020B1012805D19170FFF7E4BF5170002067
:107ED000FAE77047143000202DE9F05F264841682A
:107EE000F1B3DFF898B00E688146DBF80040876890
:107EF0008078E11B21F07F45ED1CB0B9DFF8808070
:107F00004FF48030C8F84403C8F804031120FEF78A
:107F100055FB1120FEF75DFB4FF0010AC8F800A0E9
:107F20002F2001F0ADFF89F802A0B54200D23546FE
:107F3000124BE8193C3320F07F401860DBF800104A
:107F40005A46091B21F07F41001B20F07F40C91CCD
:107F500081420FD9106818602F2001F091FF00E0D6
:107F600004E0BDE8F05F1120FEF73EBBBDE8F05F26
:107F700002F0FEBABDE8F09FFC2A00200415014083
:107F80000010014073B58CB00646002000900D989B
:107F900080B100246D4621460DA800F079FD30B176
:107FA000009805EB400084800098401C0090641C01
:107FB000142CF0D32C2269463046FEF7B3F90EB0EC
:107FC00070BD2DE9F04117880646B81D14460D46D0
:107FD000984202D90C20BDE8F08131880722062999
:107FE0000AD34FF4486C4FF6FF73614501D99942AB
:107FF00002D17088062801D21046ECE7604501D90D
:108000009842F9D1994203D0984201D08142F3D8E5
:108010000520E85520881221401C80B22080295478
:108020002088401C80B220804119308802F0E8FD91
:108030002188084480B220804119708802F0E0FD58
:108040002188084420800020C5E7FEF7DFBE00003D
:1080500038B54A7A0F4B62B100220A725969002979
:1080600006D001228DF80020ADF80200684688474E
:1080700038BD0A7A62B19B684C68024619462046B0
:10808000FEF70CFF0028F3D0BDE8384002F016BB25
:108090005B68F1E7802F002070B588B006460020AD
:1080A00005900690ADF81410ADF8161001900290EE
:1080B00001AA05A9304690DF050021D001F096FE07
:1080C0000346114811493246401AC108012000EB0D
:1080D000014004460E4901F08AFABDF8042012B9A5
:1080E000BDF8060028B1BDF80630204609A101F010
:1080F0007EFABDF808201AB12046164901F070FA40
:1081000008B0284670BD0000C4B90200C4B902001E
:1081100030B20200546865207265717565737465CC
:10812000642054582F5258207061636B6574206C22
:10813000656E67746820697320746F6F206C6F6E52
:10814000672062792025752F2575206F637465740B
:10815000732E00007CB2020010B50021024800F02E
:10816000C3FC80F3100010BDD03700200E4910B5BD
:108170000A784C780023A24212D0521CD2B20A7064
:10818000022A00D10B70084A0B780C3252F82320D7
:1081900002608868104420F07F408860012010BD94
:1081A0000360002010BD0000FC2A002070B50D46C1
:1081B0000446B0F83812D0F834020122FFF703F871
:1081C00000B1057004F13C0204F50D7104F1540096
:1081D00072DF70BD0C484A8883889A4213D10A889E
:1081E000A2F52063773B0ED18988C91E8AB2C2806E
:1081F000064807491346401AC008032101EB004016
:1082000004A101F0F4B97047A02A002024BA0200AA
:10821000C4B9020044617461206C656E20697320EA
:1082200073657420746F20307825582825642900E0
:1082300010B50949094800F0D8FC08B1FEF7E6FD81
:10824000F721064800F0C5FC002803D0BDE8104027
:10825000FEF7DCBD10BD0000D58102009C2B002084
:1082600010B501F09FF8BDE8104001F04BBB7CB5A4
:10827000002425460023204600951A4619460195FC
:1082800000F03EFF641C1F2CF4DB7CBD014603485C
:1082900002888A4200D00020704700006C2F002026
:1082A0002DE9FC5F0E008346DDE90C47C6F10000B6
:1082B00098469246814600D40846012503E000BF57
:1082C00090FBFAF06D1C5045FADAA84500D94546F6
:1082D00024B1002E01DB780700D5641EB80702D553
:1082E000B8F1000F0AD0F80708D13CB1A54205D279
:1082F00020215846641EFFF7C9FCF6E7002E02DA7B
:108300004E462D2102E0780703D52B215846FFF772
:10831000BDFC07F0030002280BD1B8F1000F08D113
:108320003CB1A54205D230215846641EFFF7AEFC91
:10833000F6E7CDE90047434652463146584602F03B
:1083400065FCBDE8FC9F024600201268530713D568
:1083500002F00300012802D002280CD105E0C2F38C
:1083600083100B68801C184404E00223086803EBA8
:1083700092521044086001207047F0B58488A51817
:10838000944200D82246A41AC288D6189A4200D82D
:108390001346D21A4B880788BB420CD340888342CD
:1083A00009D88888A04206D3A84204D8C888904239
:1083B00001D3B04201D90020F0BD0120F0BDF7216A
:1083C000018017214180002101714171FB218171E0
:1083D0001B21C171704700002DE9F047394E00277D
:1083E00080463D46DFF8E090D6F804A057E003D081
:1083F0000446D0F81C8035E099F8002002EB4201D9
:10840000521CD2B289F8002009EBC10199F8023060
:10841000091D9A4201D189F8005048680A7804463B
:10842000012A12D0022A02D0032A3BD108E002F02E
:10843000B3FA00B10127257434E00574C06900E087
:1084400070680028F9D170602CE0207C50BB8868EF
:108450006060C868A0600869E0604869A061F07861
:1084600000B165606268B168184B501A20F07F4017
:10847000984202D2A168084406E0881AA16820F058
:108480007F40814202D9081A206000E025606560C3
:108490000120A56020742046E56102F05FFAB8F182
:1084A0000000A4D199F8001099F801008142A3D1ED
:1084B00017B97168514502D00120BDE8F08700204E
:1084C000FBE70000FC2A0020F8300020FFFF7F00BF
:1084D0002DE9FF410026234800F0F2FA2148001F51
:1084E000074600F0EDFA204C60680090A56800E0B7
:1084F00000986946284004EB80000C30FFF723FF0A
:108500000028F5D101AA009901EA050304EB8303D1
:10851000491CDB6842F82030401C00910228F2D34D
:10852000019800F0030001280BD0022810D1019817
:10853000032101EB90500099BDF80A6001EB900017
:1085400005E00198BDF80A60C0F38310084400906C
:10855000384600F0B2FA08B10098606004B03046C6
:10856000BDE8F081CC370020B433002078B40A4B4A
:10857000C21815680024002D0BD0D3F804330B4229
:1085800007D01460116800910449496801B070BCBB
:10859000084778BC7047000000300140F42A0020F2
:1085A000B4B04FF40041002001F082F808B1FEF7AA
:1085B0002DFC00F0E9FE844884490327401AC008D6
:1085C00007EB004082A101F007F88B4D0024AC704E
:1085D000FFF74DFEFEF738FC08B1FEF717FC01F07F
:1085E0007DF94FF01021D1F80403012601280BD0AA
:1085F000824A166082480368002BFCD0C1F80463ED
:10860000146001680029FCD001F068F908B1FEF798
:10861000FDFB7C4806607B48083006607A480460B1
:1086200001F030FB08B1FEF7F1FB69460120009430
:1086300001F0C8F908B1FEF7E9FB684601F05AFA03
:1086400008B1FEF7E3FB9DF8080070A120F00F00D1
:10865000401C20F0F00010308DF808000B2202A81A
:108660007CDF08B1FEF7D2FB00941020ADF80000CB
:108670003C200194ADF80200ADF804404FF4C870FE
:10868000ADF8060068467ADF08B1FEF7BFFBFFF7DA
:10869000CFFD6148019001A9604800F06AFB08B174
:1086A000FEF7B4FB5E480090534869461430FFF76C
:1086B000DDF908B1FEF7AAFBAC216846FDF74BFED9
:1086C00002208DF800008DF8024005208DF803008F
:1086D0004948ADF84C600E3014904020229044F28E
:1086E000506023908DF87C604E4829904B48694635
:1086F0000C30FEF797FD08B1FEF788FB47480121D3
:108700000C30FEF78CFD1C216846FDF724FE4FF46B
:108710002030CDE900404FF470200290424805908F
:1087200042488DF80C700690ADF80E408DF8104060
:108730006846FEF743FF08B1FEF768FB01F0A8FBAF
:1087400001F04CFFFEF780FB394A01213948FEF762
:1087500069FB3848002218384FF420218069FEF761
:108760009DFB6846FEF72CFC2C81FEF7F9FA2B489E
:1087700008220C3090F85410012077DF08B1FEF782
:1087800045FBFFF77BFB70B1A878022808D12BA826
:1087900001F0F8FD010003D02BA800F0D7F8F6E7B0
:1087A000FFF75EFDEDE7288900284FF00D0008D0A7
:1087B00000F0D7FC012000F059FB2889401E2881D9
:1087C000DFE700F0F5FCEBE724BA0200C4B90200D1
:1087D0003D3D3D3D3D3D3D3D3D3D3D53544152546C
:1087E000204D696E69203834303D3D3D3D3D3D3D75
:1087F0003D3D3D3D0A000000A02A002004E5014067
:1088000000E4014078050040007502404D696E6942
:10881000203834302076320049990200B02B0020F5
:1088200001A1020003A102000DA102004B80020081
:10883000D1A8020088AE020070B5144682880E46A8
:1088400005462088111D0144921C994201D8FE2A38
:1088500001D90C2070BD521C32542088FF21401CCD
:1088600080B2208031542088401C80B22080811941
:10887000288802F0C5F92188084480B22080AA889F
:1088800042B1A96841B13044FDF74CFD2088A98868
:1088900008442080002070BD072070BD2DE9F047FE
:1088A000C5881E1DB6FBF5F78946B6FBF5F10446F3
:1088B00005FB176C407916686843DDF820A0F718AF
:1088C000001F874200D9C61A166001E02468491EBD
:1088D0000029FBD1A5EB0C078846B74216D818E053
:1088E00004EB0C00001D09EB0803BAF1000F3A4637
:1088F00002D00146184600E01946FDF713FD246832
:10890000F61B4FF0000CB844B54201D9374600E0E1
:108910002F46002EE4D1BDE8F087000030B50246B6
:1089200051B100F0E3FE0021074C08E034F821309B
:108930001568AB4202D11160002030BD491C814254
:10894000F4D3052030BD00000000000073B50A4CD0
:1089500005460948A38801AA29461430FFF752F8B2
:10896000082807D01328F4D0052803D0002801D008
:10897000FEF74CFA7CBD0000A02A002010B586B09E
:10898000044614220D496846FDF7CCFC0C4905202D
:1089900008816420B4FBF0F1B4FBF0F200FB11435A
:1089A00008A16846FEF7DCF86846FDF7DFFCC1B2B7
:1089B000684601F0B3FD06B010BD0000B8AE02007D
:1089C000A02A0020566F6C746167652025642E25EF
:1089D00064205600F8B50F46017814460546012973
:1089E00001D1687830B12088821C9A4232D801299E
:1089F00002D006E00720F8BD69780144891C99423D
:108A000028D8181A801E86B2ADF800602188B81CDC
:108A1000084469467DDF0028EDD12978022904D079
:108A20006878BDF80020904205D3BDF80000B04240
:108A300001D809200AE00820012905D16978B1424E
:108A400002D8ADF8001001E0ADF80060BDF80010EC
:108A5000FE2901D90C20F8BD2288491CB95421886F
:108A6000491C89B2218078542088401C2080BDF8A0
:108A70000010084420800020F8BD01F01F030122EF
:108A80009A40D243490900EB8100114600F021B819
:108A90004A0950F8220001F01F02012191400840CC
:108AA00000D00120704701F01F0301229A404909BC
:108AB00000EB8100114600F01CB8002100F00FB857
:108AC000012100F016B808B56A46FDF7D6FB0098FC
:108AD00008BD08B56A46FDF7B6FB009808BD08B5A5
:108AE0006A46FDF7B0FB08BD08B56A46FDF792FB84
:108AF00008BD08B56A46FDF799FB009808BD08B5A2
:108B00006A46FDF7C7FB009808BD38B50446002546
:108B10008DF800506846FEF715FA2168626808680B
:108B200090420ED9401E08600178238AE26801FB5A
:108B30000325227A2168101AC0B20A79824200D233
:108B400008719DF80000FEF721FA284638BD38B5B7
:108B5000054600208DF800000C466846FEF7F2F945
:108B6000E868298A201AB0FBF1F12A681068431CD2
:108B7000136001709DF80000FEF708FA38BD10B5CB
:108B800030B1017A42680368891AC9B21A6006E0F6
:108B90000E2010BD03681A68541C1C601170491E19
:108BA000C9B2F7D2006800210171084610BDC208A1
:108BB00000F007030120895C98400840704710B519
:108BC000C20800F00703885C01249C4020438854BD
:108BD00010BD28B1A1F11702E12A03D30720704785
:108BE0000E20704701800020704710B560B1016110
:108BF000F72120F8021B20F8021BFB2100F8021BC2
:108C0000FFF7DDFB002010BD0E2010BDF0B58588FC
:108C100093B00C46002D39D1018800263F4F2429FE
:108C20003BD006DC102909D011290CD0232958D1BA
:108C30004FE03A290BD0552953D129E0014620466F
:108C400001F0A8FA4DE0A01DFFF7B9FB49E022466C
:108C5000408934F8061F814200D8084660801728F2
:108C600000D217206080106970B1607960B1D7E9D7
:108C70000001CDE90301ADF80E506088ADF8100099
:108C8000136903A9104698476671267113B0F0BDA9
:108C90000146204601F0D2FA23E0011D2C2206A84D
:108CA000FDF740FBBDF81800BDF81C2004EBC00127
:108CB0004A732269AAB1D7E90423CDE90423ADF8A8
:108CC0001200487B8DF814002269204604A99047C1
:108CD00007E0017A207B884200D201462846FFF750
:108CE000DBF9A07A0028D1D0E1882846A5DF01254C
:108CF00080B11128CAD001F079F802460848094924
:108D000013B0401AC00805EB0040BDE8F04006A1D2
:108D100000F066BCA672E572B8E7000024AF02005E
:108D2000C4B90200C4B9020073645F626C655F6716
:108D3000617474635F65786368616E67655F6D74A5
:108D4000755F726571756573742829207265747515
:108D5000726E65642025732E0000000020B1027839
:108D6000DE2A03D0082070470E2070474180002083
:108D7000704760B159B10278DE2A0AD009684160B3
:108D8000DE2101704FF6FF714180002070470E20F8
:108D90007047082070477FB5054600294DD0002D4B
:108DA0004BD008780C46DE2847D1A88861888842D5
:108DB00002D1204601F0C4FF2888012825D00228CE
:108DC0003BD011283AD0512837D135F8040F6188AB
:108DD000884232D1A978A81C02292ED1017A04290F
:108DE00003D0062901D0052927D1002100910222B4
:108DF0008DF8002001914FF4C07202910391ADF8FB
:108E00000420007A05280FD010E0297A2046012995
:108E100013D1A988428891420FD10121017204B077
:108E2000BDE8704001F08CBFADF804102888694699
:108E3000B0DF002801D0616888477FBDA8886188BD
:108E40008842FAD14FF6FF7060807FBD00F180400C
:108E50000068002800D00120704708B500F180406C
:108E6000002101600068009008BD00002DE9F0417C
:108E7000040007D0044E4FF47A47751C3846A847C3
:108E8000641EFAD1BDE8F08190AE020070B50B4CC3
:108E9000207808B185250FE00020A0606060206187
:108EA000E060074800F0CEFF054600F037FF08B944
:108EB00000F0B2FF01202070284670BD1430002061
:108EC000BD7E020038B500258DF800506846FEF7DB
:108ED00039F8074CE068401EE060E06810B900F027
:108EE000C1FFA5709DF80000FEF750F838BD0000E6
:108EF000143000200FB408B50399002904D004AA47
:108F000000926A4600F00FF801B05DF814FB10B54E
:108F100082680446002A05D0D4E9040321689847F2
:108F20000020A06010BD2DE9FC4791460C00804652
:108F300076D014F8011B39B125290ED04046FEF732
:108F4000A5FE20780028F4D198F80C00002867D0FE
:108F50004046BDE8FC47FFF7DABF00200122217838
:108F60002B291BD02D2902D0302908D102E040F056
:108F7000010001E040F00200641C002AEFD100254E
:108F80002A290ED02178A1F130020A2A11D205EB4C
:108F9000850201EB4205641C303DF1E740F004001E
:108FA000EAE7D9F800100B1DC9F800300968641C05
:108FB0000D44217800232E290BD114F8011FA1F1B3
:108FC00030020A2A05D203EB830201EB4203303B55
:108FD000F3E76C290DD068290BD0692921D00BDC6F
:108FE000252918D0582931D063290ED0642915D1EC
:108FF00017E014F8011FECE7702969D0732932D00B
:1090000075291BD0782909D120E0D9F80000011D6D
:10901000C9F8001001784046FEF738FE641C90E75E
:109020006CE0D9F800100A1DC9F800200968CDE9E4
:1090300000500A224046FFF733F9EFE7D9F8001055
:109040000A1DC9F8002009680A2206E0D9F80010B4
:109050000A1DC9F8002009681022CDE900504046D9
:1090600001F0D4FDDAE7D9F8001000270A1DC9F88D
:1090700000200E68C00705D112E04046761C7F1C18
:10908000FEF704FE31780029F7D104E020214046A4
:109090006D1EFEF7FBFDBD42C0D9002DF6D1BDE728
:1090A0004EB13046FDF762F9074604E02021404604
:1090B0006D1EFEF7EBFDBD4206D9002DF6D103E093
:1090C0004046761CFEF7E2FD31780029F8D1A5E78D
:1090D000D9F80000011DC9F800100568302140468C
:1090E000FEF7D4FD78214046FEF7D0FD0820002190
:1090F000CDE90001034610222946B0E7BDE8FC8710
:109100002DE9FF411C46DDE90A7815460E46684602
:1091100000F032F846EA450141EA840141EA0722BB
:1091200042EA0841009A00EB8200C0F80017BDE84F
:10913000FF8113B50C46684600F02CF8009900EB4F
:109140008101D1F8002722F44032C1F800270099AC
:1091500000EB8100D0F8001741EA0441C0F8001785
:109160001CBD01B5684600F007F8009A0121914046
:10917000C0F80C1508BD00000168202902D24FF08C
:10918000A040704701F01F010160014870470000D6
:10919000000300500168202902D24FF0A040704720
:1091A00001F01F01016001487047000000030050FA
:1091B00001B56846FFF7E0FF009A01219140C0F831
:1091C000081508BD1CB5094C0144D4E90034CDE9AB
:1091D00000346C4606E000BF54F82030D3F8103558
:1091E000401C08C28142F7D81CBD00004CAF0200F1
:1091F000034908B50844002101600068009008BDDB
:109200000060004002494058012800D0002070470B
:109210000060004030B5154A01460020D2F81044E5
:1092200023460AE0DB681D79854205D1401C0A28E7
:10923000F6DB4FF0FF3030BD1B68002BF2D1431C32
:10924000F9D0CB681871D2F8103443B1DB68CC6820
:109250001B682360D2F81024D268116030BDC2F8B8
:109260001014C96800220A6030BD0000B433002029
:109270007047FDF7B7BA704708B5034A009240231C
:10928000024A00F005F808BDCDA602001C320020FD
:10929000F0B595B01C4615460F4608461A9E00F0DC
:1092A000F7FA182109A8FDF756F80E96CDE90954EA
:1092B0000023082203A9384600F0FFFA059806901B
:1092C000BDF81000ADF81C00BDF81200ADF81E008E
:1092D00000208DF821000398082600F003000128E3
:1092E00002D0022818D032E003983346850AC0F332
:1092F000C2008DF8200003980FA9C0F38314A200C8
:10930000384600F0DAFA09A8009006AB22460FA909
:10931000284600F019FA1AE00398840DC0F3C20041
:109320008DF82000082C01D2254600E008253346A0
:109330002A460FA9384600F0C0FA2E44641B09AB38
:1093400006AA29460FA800F05BF9002CEAD138469E
:1093500000F0A4FA15B0F0BD0A4A012902EBC000E2
:1093600007D0022907D0032907D0042907D00020FD
:109370007047022070470420704700797047407999
:1093800070470000C4B9020010B5FFF772FF042156
:109390000348FFF73FFF02490120C968487110BD2B
:1093A000B4B902002DE9F04F8DB0FEF77FFC18B183
:1093B00000200DB0BDE8F08F7E4C4FF0000BC4F8DC
:1093C00018B4BFF34F8F60680290A568D846284054
:1093D00004EB80000CE000BFD4F8180470B92168D9
:1093E0000298814201D86160E2E7284004EB8000E6
:1093F0000C3002A9FEF7A7FF0028EDD1002005AA36
:10940000029901EA050304EB8303491CDB6842F877
:109410002030401C02910228F2D3059800F003008E
:10942000022802D001284DD0AAE005985022810DD3
:109430008946B2EB905F00D850210E4666F39F50EC
:10944000059008315C4800F0DAF9070078D000F0A8
:109450001FFA4346082205A9384600F036FA029959
:1094600008F1080A2940681A8000001D864222D9A6
:10947000504D0C3530B1C2B204EB8101301A904628
:109480000C3104E02946F2B2002590462846C6B2C7
:109490005346384600F019FA0AEB080325B1324664
:1094A0002946384600F011FA029909F1030001EB50
:1094B000900002903BE004EB81015346324638466F
:1094C0000C31EFE70598C0F38310062800D306207F
:1094D000059960F38911C1F38310801C0591810007
:1094E000354800F08CF907004AD000F0D1F9434626
:1094F000082205A9384600F0E8F908F10808002616
:109500000FE00298434600EA0501401C04EB81018C
:109510000290042238460C3100F0D7F908F1040813
:10952000761C0598C0F38310B042EAD847B1D4F84E
:109530001054D4F8180478B1384600F0AFF934E08C
:109540001EE0E8684079012804D12A682846394697
:1095500012689047E8680568002DF2D1384600F09F
:109560009DF98DF800B06846FDF7ECFCD4F81804BE
:1095700008B9029860609DF80000FDF707FD14E04F
:10958000D4F8104405E02168204689688847E068DF
:109590000468002CF7D109480949401AC008022183
:1095A00001EB004007A100F017F8FEF77FFB80F009
:1095B0000100FEE6B433002044BA020024BA0200DF
:1095C000C4B902004261636B656E647320666C759A
:1095D000736865640000000000231A4601F032B988
:1095E00008B5012300926A4601F02CF908BD1CB5AC
:1095F000CDE9002302236A4601F024F91CBD0000D6
:109600002DE9F0470E4680461C469246082940D870
:1096100094F80C90002020731946104600F032FF99
:109620000025B54206D218F805201BA12046FFF7F9
:1096300061FC03E01AA12046FFF75CFC6D1C082DBD
:10964000EFD318A12046FFF755FC0025B54212D2F2
:1096500018F805707E2F08D8FCF760FE0068C05D22
:1096600010F03E0F01D03A4600E02E220EA1204617
:10967000FFF740FC03E00DA12046FFF73BFC6D1C0B
:10968000082DE3D301222146504600F0DDFE84F888
:109690000C90BDE8F08700002025303278000000F3
:1096A000202020007C000000256300002000000036
:1096B0000B4810B5FF218160002101604160C0F8B6
:1096C0001814C0F8141480F82014064800F0E4F8C8
:1096D000002803D1044800F039F9002010BD000033
:1096E000B433002044BA0200F8B002000248034933
:1096F000401AC0087047000044BA0200C4B9020012
:1097000013B56846FFF70AF908B100201CBD0248EE
:10971000009950F831001CBDC4B9020070B5094869
:109720000125D0F8104480F8205407E0E068457126
:109730002168204649688847E0680468002CF5D114
:1097400070BD0000B43300202DE9FF4781460C9D19
:1097500000200C462F7B287398461646294618464B
:1097600000F090FE072E42D2DFE806F004090F1643
:109770001F2A360049462846FFF7BCFB37E049461A
:1097800028462268FFF7B6FB31E0D4E900234946BA
:109790002846FFF7AFFB2AE0A0680090D4E9002339
:1097A00049462846FFF7A6FB21E0D4E90201CDE9AE
:1097B0000001D4E9002349462846FFF79BFB16E049
:1097C00004F1080007C88DE80700D4E900234946E2
:1097D0002846FFF78FFB0AE004F108000FC88DE868
:1097E0000F00D4E9002349462846FFF783FB0022F7
:1097F0002946404600F028FE2F73BDE8FF872DE97B
:10980000F041058A80462D1F4819C01CB0FBF5F0B9
:10981000C6B24046FFF779F9041E19D00020207126
:1098200001206071E58000272546761EC4F800807F
:109830000BE04046FFF769F960B16179491C61713D
:10984000286005467F1CC0F80080B742F1D320464F
:10985000BDE8F081204600F002F80020F8E72DE98D
:10986000F041457901466B1E002201E00968521C57
:109870009A42FBD30F680146002605E038460C6883
:10988000FFF765F92146761CAE42F7D3BDE8F081BB
:109890000121001DFFF717B9FFF771B910B5044694
:1098A0000121001DFFF72BF910F0FF0F04D1204616
:1098B000BDE81040FFF7D3BF10BD1CB501920122D7
:1098C000009201AAFEF7EAFF1CBD1CB5019200221E
:1098D000009201AAFEF7E2FF1CBD0000064910B588
:1098E00000204870091D0860BFF35F8F03490448DA
:1098F00000F038FA002010BD102B002090AF0200BD
:109900001032002008B500208DF800006846FDF7F1
:1099100019FBF1EE100A20F09F00E1EE100ABFF3F0
:109920005F8F08494020C1F880029DF80000FDF7D4
:109930002DFB00F0F3F908B141DF08BD20BF40BFA7
:1099400020BF08BD04E000E0FDF760BA8268002196
:10995000916082681161826851618268D160826819
:109960005160806801607047024A1060101D0160FC
:10997000704700002C760040030103481844C0F8EB
:109980001425C0F810157047007000400249405877
:10999000002800D00120704700700040034908B53E
:1099A0000844002202600068009008BD007000407A
:1099B00020B1034909680160002070470E207047FC
:1099C0007CB102002DE9FE4307460E460846FFF72C
:1099D000EFFF00287CD100240094019406208DF82C
:1099E00000704FF00108ADF8040002948DF8028079
:1099F00069462020326869DF3649374A891AC90822
:109A0000012202EB014530B100F0F0F90246284690
:109A10003249FFF7E5FD00948DF801808DF8024092
:109A2000019402948DF8034069464020326869DF52
:109A300030B100F0DBF9024628462949FFF7D0FD96
:109A400000948DF80070F720ADF8020001940294A4
:109A500069462320326869DF30B100F0C7F9024659
:109A600028462049FFF7BCFD0094019402948DF82C
:109A7000008069460120326869DF30B100F0B6F934
:109A8000024628461849FFF7ABFD4FF4B06000903E
:109A9000019402946946A120326869DF30B100F078
:109AA000A5F9024628461149FFF79AFD0094019452
:109AB00002948DF800406946A020326869DF30B119
:109AC00000F094F9024628460949FFF789FD002075
:109AD000BDE8FE8334BA0200C4B902001CB802001B
:109AE00064B80200B0B802007CB70200C8B7020038
:109AF00028B702002DE9F0410546076860DF80467F
:109B000019491A482A68081AC608BA4219D90220FF
:109B100000EB064416A12046FFF75EFD20463A46BC
:109B20001FA12B68FFF763FD4FF08050D0F80C01A8
:109B30002968800200F10050421A204625A1FFF753
:109B40004FFDB8F100004FF001040AD000F04EF9CB
:109B5000024604EB06402AA1FFF742FD4046BDE85D
:109B6000F0812F480470F9E734BA0200C4B902004A
:109B7000496E73756666696369656E742052414DFE
:109B800020616C6C6F636174656420666F72207411
:109B9000686520536F66744465766963652E0000BE
:109BA0004368616E6765207468652052414D20737B
:109BB00074617274206C6F636174696F6E20667279
:109BC0006F6D203078257820746F20307825782EBE
:109BD000000000004D6178696D756D2052414D2087
:109BE00073697A6520666F72206170706C69636159
:109BF00074696F6E20697320307825782E0000001C
:109C000073645F626C655F656E61626C65282920B4
:109C100072657475726E65642025732E00000000F5
:109C2000772B002030B51548ADF5017D0078002870
:109C300021D04FF4FA7500BFADF8005280A96846F4
:109C400061DF38B1052816D00DF5017DBDE8304043
:109C5000FDF7DCB86C460A497DA800F083F806E001
:109C6000D0E90021204690477DA800F092F87F9827
:109C70000028E1D0F4E70DF5017D30BD772B002001
:109C800080B102007CB5194C207808B108207CBD59
:109C90000120A070002000F0E3FC112819D0002062
:109CA00000F0F6FC12480026006801908DF8006074
:109CB0006846FDF747F90F4901A810DF05000AD0F3
:109CC000002020709DF80000FDF760F92DB12846B6
:109CD0007CBD00207CBD0120F3E7A670667000F01B
:109CE00085FD012000F0D4FCF3E70000742B002078
:109CF00014B10200896D02000EB50749684600F0F4
:109D000031F805E0D0E900108847684600F041F8D6
:109D100002980028F6D10EBD30B10200014800784B
:109D200070470000742B00201FB568464BDF30B130
:109D3000052814D004B0BDE81040FDF767B8084905
:109D400001A800F00FF806E0D0E900210098904744
:109D500001A800F01EF803980028E6D0F4E71FBD24
:109D60009CB10200016009684160AFF3008010B54A
:109D7000D0E900215368994201D1002104E0D1E9E2
:109D80000034A34202D01946816010BD0831416001
:109D9000F0E7816800290BD0026892680A4482606B
:109DA00041684B689A4203D108314160FFF7DFBF39
:109DB000704700000C4A10B502F594730EE0991A32
:109DC000C91001EBD171491002EBC1010C6884424A
:109DD00001D90B4602E005D201F108029A42EED306
:109DE000002010BD486810BDB0AF020000B5FFF7FD
:109DF000E1FF002800D1014800BD00009CAF020037
:109E00004058002800D00120704708B50022425079
:109E10004058009008BD000008480068012110F07B
:109E2000010F06D14FF0E020C02280F80024C0F8D6
:109E300000110349012008607047000000E100E0C4
:109E4000180500400649024600200B790BB1852019
:109E500070470A6001220A7100224A7170470000AF
:109E6000E42A002004490120086004480168C1F385
:109E700000410029FAD170470C000040180400404E
:109E8000002802D0014980010847704761AF0200F5
:109E900070B5184D95F86A0008B1082070BD002013
:109EA000411E2A18401CC0B282F830103028F8D366
:109EB00000242046FDF704FF641CE4B20C2CF8D308
:109EC0000C490024C0204C66A1F868400A4981F87A
:109ED000000401264020891FC1F800014FF4BE7024
:109EE000FFF786F90549F007C1F8040385F86A60B1
:109EF000204670BD2830002006E000E000600040F1
:109F00002DE9F041254C064612200D46C4F8080301
:109F10002348017C022918D0027C01464FF4807846
:109F200091F82E10012A12D00222C4F8042301272E
:109F30000774466005810022C26021B3458390F812
:109F40002D103046FFF710FD25E0122002E0C26818
:109F50002AB10220C4F804031120BDE8F081C660D4
:109F6000058361B947463846FFF710FD0028FAD04F
:109F70003846FFF713FD29463046FFF7F5FC02206F
:109F8000C4F8040307E029463046FFF7EDFC4046DD
:109F9000FFF704FD27600020DFE7000000700040AD
:109FA000C8300020204A10B5137C0BB1112010BD21
:109FB00002EB40031C7F1CB912F82D4F641C147077
:109FC000CA791A770A7A5A770A784B78302402F0DD
:109FD000030204EA03131A438B784FF4E06404EAA3
:109FE00003231A43CB784FF4805404EA03331A4313
:109FF0000B794FF4E02404EA03431A434B794FF4FE
:10A00000801404EA03531A438B79240104EA03639E
:10A01000064C1A4304EB0013C3F818250A7AC979D1
:10A02000FFF7AAFC002010BDC830002000700040DF
:10A030002DE9F0411F4C054694F82C0010B1082082
:10A04000BDE8F08144F8101B1B4928780860091D01
:10A0500068780860E878A0770127277700202070CB
:10A0600060776060154EE0776FF00040C6F8080337
:10A070004FF48270FFF792FCB015FFF78FFC4FF49E
:10A080008A70FFF78BFCA8780D49400181F8000425
:10A090008020C91FC1F800010220C6F80403A07F78
:10A0A00010B10120C6F804030348F038076000200F
:10A0B000C6E70000C8300020F07500400070004086
:10A0C00007E000E00248007C002800D00120704733
:10A0D000C8300020084900200A7C012A01D008204D
:10A0E000704791F82E30054A01210BB1116070477D
:10A0F000024A121DFAE70000C8300020007000403C
:10A100007047002801D1FCF72BBE7047007800286B
:10A1100007D104483B21808876DF002801D0FCF776
:10A1200075BE7047A02A0020F0B58BB000260196BE
:10A130000D4604468988406901AAFCF75FFF0AA81A
:10A14000CDE908600227ADF82070ADF82260218AC1
:10A15000A88808AAADDF002819D1A069002816D068
:10A160000998FDF725FD002811D0019E0EB10120B0
:10A170003070182102A8FCF7EEF88DF808700394EF
:10A18000A888ADF810000596A16902A888470BB011
:10A19000F0BD000070B58D88027900EBC504227314
:10A1A000C97BA41D012902D0022904D101E0008845
:10A1B00000E04088208021886088814211D92846AB
:10A1C000A5DF0126B0B1112816D0FFF70FFE024619
:10A1D0000B480C49401AC00806EB00400AA1FFF7E3
:10A1E000FFF9A179E079814208D92846BDE870409D
:10A1F000FDF752BF6671F4E72671F2E770BD00000B
:10A20000C4B90200C4B9020073645F626C655F6721
:10A21000617474635F65786368616E67655F6D74B0
:10A22000755F726571756573742829207265747520
:10A23000726E65642025732E000000007CB5064612
:10A240008D88C88806EBC504A41D172800D21720E6
:10A250002188814200D80846608000202071218832
:10A260002846B5DF60B1FFF7C1FD02460F4810492F
:10A27000401AC008012101EB00400EA1FFF7B0F920
:10A280006079002810D1306900280DD01549D1E936
:10A290000201CDE90001ADF802506088ADF804007C
:10A2A00032696946304690477CBD0000C4B902005F
:10A2B000C4B9020073645F626C655F676174747334
:10A2C0005F65786368616E67655F6D74755F726501
:10A2D000706C7928292072657475726E656420250A
:10A2E000732E000024AF0200F0B587B00C4605467F
:10A2F0008E1D8988406906AAFCF780FE18216846F1
:10A30000FCF729F80195A088069AADF80800039299
:10A3100031882B89002704F11200994202D17389F8
:10A32000022B0DD0AA8991421ED1A96900291BD008
:10A330008DF8007004907089ADF81400A96911E0DF
:10A34000002A11D0FDF734FC20B1069901200870D5
:10A35000022002E00698077003208DF80000A9692A
:10A36000002901D06846884707B0F0BD0068012881
:10A3700005D0022803D0042801D000207047012016
:10A38000704700002DE9F047002805D02A4D2978B4
:10A390006E78B14202D10020BDE8F087EFF3108162
:10A3A00072B6264CA768244B0122DB1C4FF0000933
:10A3B0004FF0E02817B11A70A1B114E0A260D8F8EC
:10A3C00080C11F4F0CEA070CC4F800C0C8F88071A8
:10A3D000D8F8847167604FF0FF37C8F8847183F84C
:10A3E0000090E9E762B6174FC6EB061117F8112087
:10A3F00007EB4101491CFBF795FF68780A21401CD7
:10A40000B0FBF1F201FB12006870E878A16869B155
:10A4100060B9EFF3108072B62268C8F80021626854
:10A42000C8F80421C4F8089000B962B6C6EB06105B
:10A4300017F81000B0E70000A02A00200432002026
:10A44000FC06FFBD142E002010B50C46017A05292C
:10A4500008D0407A38B1084808A102682046FEF7C3
:10A4600049FD00E01AB106A12046FEF743FD204653
:10A47000BDE81040FEF74BBD502B002025730000B7
:10A480000D0A000038B5C3880D46044633B114A048
:10A49000009015A216A12846FEF72CFD217A052969
:10A4A0001CD0607A48B1A088FEF756FF164951F8D3
:10A4B000202016A12846FEF71DFDA0880021FFF7E9
:10A4C0001FF903461049207A143951F8202001B0B1
:10A4D0002846BDE830400EA1FEF70CBD38BD000097
:10A4E0001B5B306D000000001B5B313B33316D00A6
:10A4F00025734C6F67732064726F707065642028D9
:10A5000025642925730D0A00502B002025730000B7
:10A510003C25733E2025733A2000000010B5034609
:10A520001D2901D20A4600E01D220F4C2078C0EB05
:10A5300000110E4800F8112000EB41001946401CA4
:10A54000FBF7F0FE20780A21401CB0FBF1F201FB82
:10A55000120222706078824205D1401CB0FBF1F2F9
:10A5600001FB1200607010BDA02A0020142E0020F4
:10A5700070B5012670044FF0E0210025C1F880017C
:10A58000084C4010C4F84803C4F8080366602F2044
:10A59000FFF776FCA660044C2F20A560FFF770FC47
:10A5A000A57070BD00100140FC2A00200178002930
:10A5B00010D140684FF4B471008810FB01F0C1174E
:10A5C00000EB91508012044900EB800080B288813A
:10A5D000FEF7D4B970470000A02A00200EB50A4A41
:10A5E00007CA8DE80700084808498038FFF720FDB2
:10A5F00008B1FCF70BFC69460020FFF7D3FC0028EC
:10A6000001D0FCF703FC0EBD0CAF0200ADA50200AB
:10A6100038B50021012548B101280CD0032809D103
:10A62000FFF7FAFBBDE83840FEF74CBC4FF0E020E6
:10A63000C0F8805138BD8DF800106846FCF782FCE8
:10A64000064C207808B9FEF721FCE068401CE06069
:10A65000A5709DF80000FCF799FC38BD143000206F
:10A660003EB5044609496846FFF77CFB08E000BF99
:10A67000D0E900212046904730B16846FFF789FBBA
:10A6800002980028F4D13EBD11203EBD18B1020051
:10A690003EB5044608496846FFF764FB07E000BF83
:10A6A000D0E90021204690476846FFF772FB0298E8
:10A6B0000028F5D13EBD000024B10200024989699D
:10A6C000002900D008477047802F00202DE9F04175
:10A6D0001400884618D000250E4F032608EB05010C
:10A6E00022460020FCF780F80544241A40B9387847
:10A6F000002809D008494FF47A408847761E05D0D3
:10A7000001203870002CE9D1BDE8F08100203870BC
:10A71000FAE70000182B0020F1B002002DE9F0410B
:10A720000746806A14468846C8B3002531E000BF5A
:10A73000B96A05EB450001EB8006B088801CFE2855
:10A7400002D90C20BDE8F0812288401C08F80200E4
:10A7500020881622401C80B2208008F80020208823
:10A76000401C80B2208000EB0801308800F048FADD
:10A770002188084480B22080B28842B1B16871B1AA
:10A780004044FBF7CFFD2088B188084420806D1C31
:10A79000EDB297F82C00A842CAD80020D2E7FFE714
:10A7A0000720CFE70A78062822F0FF020A7010D2AD
:10A7B000DFE800F0030507090B0D002008E0112079
:10A7C00006E0212004E0312002E0122000E02220F7
:10A7D00008707047002805D1034901204870002007
:10A7E000FDF758BB704700001430002010B516204C
:10A7F000FCF7DAF9A0B1114890F8000440090828E4
:10A8000011D20121814011F0EC0F0CD00C4882686C
:10A810004FF480016AB1016841F48001016010BD0C
:10A8200042F2010001E042F20200BDE81040FCF7F4
:10A83000EDBA4FF0E020C0F8001110BD16E000E0C6
:10A84000043200202DE9F84F204D924689460646F5
:10A850009846012269461846AF68FDF7CFF958B30C
:10A86000009800210446801C09E000BF00EA0703AD
:10A870005AF8212005EB8303401C491CDA6041454E
:10A88000F4D34FEA164AFDF767FC4AEA0041601C20
:10A89000384005EB80003C4005EB8402C160D06885
:10A8A00066F3C50068F3891069F39F2020F0030068
:10A8B000401C20F00400D06095F8200402E000BFA6
:10A8C000FEF770FD0028FBD1BDE8F88FB4330020FF
:10A8D00008B56846FCF774FB08BD00002DE9F84F89
:10A8E0001D4C00256846D4E901A6FDF73FFC002772
:10A8F00038B30023009A61681CE0D1F800C0084614
:10A90000944503D9ACEB02020A6015E0A2EB0C02FD
:10A9100063440760D0F80CC0C1698146BCF1000FE8
:10A9200008D006EB030828F07F48C0E9018CC9F87D
:10A930001C5005460029E0D128466160FDF74CFD1A
:10A9400003E02846FDF748FD10B15046FDF7C4FA74
:10A95000E770BDE8F88F0000FC2A00200D4B10B511
:10A96000596831B102680C68A24204D8A21A0A6080
:10A97000C161586010BD0B4603E00B46C969121B4C
:10A9800021B10C689442F8D3A41A0C600260C16132
:10A99000D86110BDFC2A00202DE9F041144E7768E3
:10A9A0003D462C4603E0844204D02546E469002C51
:10A9B000F9D11BE0D4B1A5420BD1F869706040B960
:10A9C0000C49012088600021B160F0702F20FFF752
:10A9D00057FA2168E069E86110B10268114401602A
:10A9E0007068874202D00120BDE8F0810020FBE7BB
:10A9F000FC2A0020001001407CB5064600240D46CC
:10AA00008DF800406846FCF79DFA01A800F0AAF90D
:10AA100070B10570094946609DF8040048709DF8C2
:10AA20000000FCF7B3FA1420FBF7DEFD20467CBDE6
:10AA300004249DF80000FCF7A9FAF7E7F83000209D
:10AA40002DE9F041194D6C68002C2CD018480027D6
:10AA50000068A968B846401A20F07F462068B042D6
:10AA60000CD82146361A0744E469087C20B181F8E5
:10AA70001080886949698847002CEFD12978687867
:10AA8000814206D1401CC0B26870022801D185F80D
:10AA90000180064869780C3040F82170BDE8F0412B
:10AAA0001420FBF7A1BDBDE8F0810000FC2A0020C6
:10AAB000041501402DE9F04F0D464FF4927887B010
:10AAC00004464146FFF79CF94FF0020B01264FF474
:10AAD000827740B141462046FFF797F93946204634
:10AAE000FFF78EF9C0B34FF482712046FFF788F963
:10AAF000DFF808810100EA4605F10C094FF0000774
:10AB00003ED04FF482712046FFF77FF91422494668
:10AB10000AF10400FBF706FC95F82E0058B1287BDB
:10AB2000012827D0D4F84C050290287B022824D095
:10AB3000D4F84C0503904FF4B0712046FFF765F947
:10AB40004FF4AE712046FFF760F995F83000A8B3D6
:10AB500095F82E0090BB37E0FFE7A868C4F808031B
:10AB6000C5F808B0A868C4F804032662666107B097
:10AB7000BDE8F08FD4F83C05D6E7D4F83C05D9E71A
:10AB80004FF4A4712046FFF740F9287B68B14FF4D9
:10AB90000070C4F80002801CA860C4F80883A8688C
:10ABA000C4F80403A6602662E1E7142249460AF1CC
:10ABB0000400FBF7B7FB95F8300028B90020C4F873
:10ABC0000002AF60C4F80883D4F8C404C4F8C40415
:10ABD000810702D58DF8006006E0400702D58DF8A8
:10ABE00000B001E08DF8007095F8300008B985F8E4
:10ABF0002F70D5E9002168469047B8E702029C0112
:10AC00000870000A48700220704700002DE9F05FCC
:10AC10008346DDE90A4A994690460D4608460127D3
:10AC200003E000BFB0FBF8F07F1C4045FAD2B94505
:10AC300000D94F465FEACA7012D18CB15FEA8A70C0
:10AC400002D5B9F1000F01D0202607E0302605E03B
:10AC500031465846641EFDF719F80CB1A742F7D3E8
:10AC60005FF00106B9F1010F02D9A9F1010903E072
:10AC7000B5FBF6F0404502D306FB08F6F2E7DFF835
:10AC80003C9000BFB5FBF6F000FB165519F800101C
:10AC90005846FCF7FBFFB6FBF8F6002EF2D15FEA50
:10ACA000CA7009D0002C07D0A74205D220215846EF
:10ACB000641EFCF7EBFFF5E7BDE8F09F66AF02000E
:10ACC000F8B5054680B2FDF7E1FA040013D0154E41
:10ACD000207A0027317B88420ED2A8B204F10A0103
:10ACE00075DF28B1112806D0BDE8F840FFF7E6BCB3
:10ACF000207A401C2072F8BD2772307C38B1A8B28F
:10AD00003B2176DF18B1082801D0FFF7D7FC716925
:10AD10000029F0D08DF80070ADF8025068468847E1
:10AD2000F8BD0000802F0020417939B190F852120F
:10AD300021B990F8540208B10120704700207047F3
:10AD400030B40446007A00280AD06088002166DF0B
:10AD500028B1112802D0616830BC08470120207258
:10AD600030BC70470A494A788B78521CD2B2934261
:10AD700000D100220B78934201D10020704702706D
:10AD8000487800EB400001EBC000001D7047000058
:10AD9000F83000202DE9FC411646DDE90854CDE9E4
:10ADA00000541F468046022200F00CF8002807D10C
:10ADB000CDE900543B4610223146404600F002F8EF
:10ADC000BDE8FC812DE9FC5F0026DDE90C4B9946CE
:10ADD00092468E4680462788354630E0D8F80400F3
:10ADE000002200EB850069460068019001A864DF3D
:10ADF000002830D19DF8000050451FD10EB1002130
:10AE000000E00221228808441118594522D846B989
:10AE1000521C90B2208009F800E02088401C20805D
:10AE20000126218801A801EB0902694664DF002898
:10AE300011D120889DF80010084420806D1CB8F8BE
:10AE40000000A842CADC56B12088C01B401E80B258
:10AE5000FF2802D90C20BDE8FC9F09F8070000205C
:10AE6000F9E7000000000000000000000000000002
:10AE700003000200010002000100020003000200C2
:10AE800001000200030002007C2B002001000600EC
:10AE90000338FDD87047000000000000003000407B
:10AEA0000000000001000000020000002D00000072
:10AEB0000000980102000000566F6C746167650025
:10AEC00000000000000000000000000054656D70EC
:10AED0002F48756D00000000000000000000000019
:10AEE0000000000000000000000000004C75780029
:10AEF0000000000000000000000000000000000052
:10AF00000000000000000000000000000000000041
:10AF10000200000D00000000020000000000000020
:10AF200007020000770A000000000000770A000016
:10AF3000000000007ADA0000000000009ECADC2455
:10AF40000EE5A9E093F3A3B50000406E00000050A9
:10AF5000000300500000000000000000000000009E
:10AF60000338FDD87047303132333435363738390D
:10AF7000414243444546000000000000000000003C
:10AF800000000000000000000000000000000000C1
:10AF900078AF020090AF020004000000556E6B6EA7
:10AFA0006F776E206572726F7220636F6465000048
:10AFB000000000004CB6020001000000F8B40200DE
:10AFC00002000000ECB20200030000006CB50200B9
:10AFD00004000000C0B5020005000000A0B402009B
:10AFE000060000003CB4020007000000A8B5020003
:10AFF00008000000B4B402000900000018B5020007
:10B000000A00000034B602000B000000D4B20200B7
:10B010000C000000CCB402000D0000009CB6020041
:10B020000E00000098B502000F000000D4B5020029
:10B030001000000008B6020011000000B0B60200C7
:10B040001200000084B602001300000020B60200C7
:10B050008000000054B402008100000090B30200A0
:10B060008200000050B302008300000030B30200F1
:10B07000840000006CB302008500000078B4020078
:10B080008600000080B50200900000001CB40200A1
:10B090009100000010B3020092000000E0B4020032
:10B0A00000820000E8B502000182000034B5020011
:10B0B0000282000050B5020000840000ACB3020020
:10B0C0000184000058B6020002840000F4B30200BC
:10B0D00003840000D0B3020079920200779202004C
:10B0E000719202000000000000000000000000005B
:10B0F0000338FDD8704700001C3300207F0000009B
:10B100009C33002000000000000000000000000050
:10B11000000000000100000704B1020014B10200A9
:10B12000080000003CB102004CB102000800000021
:10B130004CB102005CB1020008000000B8BA020085
:10B14000C0BA02000000000000000000A8BA02001F
:10B15000B8BA0200000000000000000058BA020067
:10B1600060BA020060BA020080BA020080BA02002F
:10B1700090BA020090BA020098BA0200982A002001
:10B180005CB102007CB102000800000098BA020025
:10B19000A0BA0200A0BA0200A8BA02008CB1020054
:10B1A0009CB1020008000000004040404040404088
:10B1B000404041414141414040404040404040408A
:10B1C000404040404040404040050202020202022E
:10B1D000020202020202020202202020202020207D
:10B1E0002020200202020202020290909090909091
:10B1F000101010101010101010101010101010104F
:10B2000010101010020202020202888888888888C2
:10B2100008080808080808080808080808080808AE
:10B22000080808080202020240000000A9B102005A
:10B2300073645F626C655F6761705F646174615FB6
:10B240006C656E6774685F75706461746528292029
:10B25000287265717565737429206F6E20636F6E37
:10B260006E656374696F6E2030782578207265741E
:10B2700075726E65642025732E0000005468652089
:10B2800072657175657374656420636F6D62696E54
:10B290006174696F6E206F6620545820616E64205F
:10B2A0005258207061636B6574206C656E677468BA
:10B2B0007320697320746F6F206C6F6E67206279E2
:10B2C000202575206D6963726F7365636F6E64739B
:10B2D0002E0000004E52465F4552524F525F494E7B
:10B2E00056414C49445F4441544100004E52465F30
:10B2F0004552524F525F534F465444455649434579
:10B300005F4E4F545F454E41424C454400000000A3
:10B310004E52465F4552524F525F46454154555238
:10B32000455F4E4F545F454E41424C45440000003E
:10B330004E52465F4552524F525F4D555445585FED
:10B34000554E4C4F434B5F4641494C45440000002D
:10B350004E52465F4552524F525F4D555445585FCD
:10B360004C4F434B5F4641494C4544004E52465F6B
:10B370004552524F525F4D555445585F434F4E44CE
:10B380005F494E49545F4641494C45440000000026
:10B390004E52465F4552524F525F4D555445585F8D
:10B3A000494E49545F4641494C4544004E52465F20
:10B3B0004552524F525F424C455F495053505F5285
:10B3C000585F504B545F5452554E434154454400CE
:10B3D0004E52465F4552524F525F424C455F495074
:10B3E00053505F504545525F52454A45435445448A
:10B3F000000000004E52465F4552524F525F424C91
:10B40000455F495053505F4C494E4B5F444953434D
:10B410004F4E4E4543544544000000004E52465F97
:10B420004552524F525F4150495F4E4F545F494D14
:10B43000504C454D454E5445440000004E52465F29
:10B440004552524F525F4E4F545F535550504F52DA
:10B45000544544004E52465F4552524F525F4D4F45
:10B4600044554C455F4E4F545F494E495449414CF9
:10B47000495A4544000000004E52465F4552524F23
:10B48000525F4D4F44554C455F414C5245414459E4
:10B490005F494E495449414C495A45440000000017
:10B4A0004E52465F4552524F525F4E4F545F464F89
:10B4B000554E44004E52465F4552524F525F494EE0
:10B4C00056414C49445F5354415445004E52465FE7
:10B4D0004552524F525F444154415F53495A4500CF
:10B4E0004E52465F4552524F525F494F5F50454E54
:10B4F00044494E47000000004E52465F4552524FAD
:10B50000525F5356435F48414E444C45525F4D494C
:10B510005353494E470000004E52465F4552524F2A
:10B52000525F494E56414C49445F4C454E47544842
:10B53000000000004E52465F4552524F525F445247
:10B54000565F5457495F4552525F414E41434B004D
:10B550004E52465F4552524F525F4452565F5457C7
:10B56000495F4552525F444E41434B004E52465F45
:10B570004552524F525F494E5445524E414C000085
:10B580004E52465F4552524F525F53544F524147BD
:10B59000455F46554C4C00004E52465F4552524F57
:10B5A000525F4E554C4C00004E52465F4552524F32
:10B5B000525F494E56414C49445F504152414D0003
:10B5C0004E52465F4552524F525F4E4F5F4D454D72
:10B5D000000000004E52465F4552524F525F464FA8
:10B5E0005242494444454E004E52465F4552524FE6
:10B5F000525F4452565F5457495F4552525F4F560F
:10B60000455252554E0000004E52465F4552524F31
:10B61000525F494E56414C49445F414444520000F8
:10B620004E52465F4552524F525F5245534F55520C
:10B63000434553004E52465F4552524F525F494E6A
:10B6400056414C49445F464C414753004E52465F79
:10B6500053554343455353004E52465F4552524F54
:10B66000525F424C455F495053505F4348414E4EF4
:10B67000454C5F414C52454144595F4558495354EC
:10B68000530000004E52465F4552524F525F434FA7
:10B690004E4E5F434F554E54000000004E52465FE1
:10B6A0004552524F525F54494D454F55540000008A
:10B6B0004E52465F4552524F525F42555359000019
:10B6C0007761726E696E670064656275670000007D
:10B6D0001B5B313B33306D001B5B306D00000000A5
:10B6E0001B5B313B33316D001B5B313B33326D00F3
:10B6F0001B5B313B33336D001B5B313B33346D00DF
:10B700001B5B313B33356D001B5B313B33366D00CA
:10B710001B5B313B33376D00696E666F00000000C4
:10B720006572726F7200000073645F626C655F63C4
:10B7300066675F73657428292072657475726E651B
:10B7400064202573207768656E20617474656D7060
:10B7500074696E6720746F2073657420424C455F76
:10B7600047415454535F4346475F534552564943FC
:10B77000455F4348414E4745442E000073645F6275
:10B780006C655F6366675F736574282920726574F2
:10B7900075726E6564202573207768656E2061740C
:10B7A00074656D7074696E6720746F2073657420A2
:10B7B000424C455F434F4D4D4F4E5F4346475F56AA
:10B7C000535F555549442E0073645F626C655F6337
:10B7D00066675F73657428292072657475726E657B
:10B7E00064202573207768656E20617474656D70C0
:10B7F00074696E6720746F2073657420424C455FD6
:10B8000047415454535F4346475F415454525F5439
:10B8100041425F53495A452E0000000073645F6245
:10B820006C655F6366675F73657428292072657451
:10B8300075726E6564202573207768656E2061746B
:10B8400074656D7074696E6720746F207365742001
:10B85000424C455F434F4E4E5F4346475F47415022
:10B860002E00000073645F626C655F6366675F73E0
:10B87000657428292072657475726E65642025735D
:10B88000207768656E20617474656D7074696E6789
:10B8900020746F2073657420424C455F4741505FB0
:10B8A0004346475F524F4C455F434F554E542E0021
:10B8B00073645F626C655F6366675F736574282994
:10B8C0002072657475726E656420257320776865D3
:10B8D0006E20617474656D7074696E6720746F207A
:10B8E00073657420424C455F434F4E4E5F4346475D
:10B8F0005F474154542E00006E72665F626C655F54
:10B900006761747400000000626C655F6E7573009F
:10B91000636C6F636B000000434C4F434B000000AF
:10B920004750494F5445000050525300554152541E
:10B930000000000055415254450000005457494D45
:10B94000000000004C50434F4D5000005341414413
:10B95000430000007077725F6D676D740000000037
:10B960007274745F6C6F675F6261636B656E6400B5
:10B97000617070006E72665F736468006E72665FFD
:10B980007364685F626C65006E72665F7364685FA3
:10B99000736F6300C0BA0200982A0020E400000020
:10B9A000886B0200A4BB02007C2B0020E42E000068
:10B9B000986B0200D8B002000000000060B90200DD
:10B9C0001C2B0020F8B802000000030308B9020095
:10B9D0000000000010B902000000000018B90200C9
:10B9E0000000000020B902000000000028B9020099
:10B9F000000000002CB902000000000034B9020071
:10BA0000000000003CB902000000000044B9020040
:10BA1000000000004CB902000000000054B9020010
:10BA20000000000070B902000000030374B90200B6
:10BA3000000003037CB902000000030388B9020080
:10BA4000000003032C2B0020242B00202C2B002093
:10BA50005C320020180000000179020000000000A4
:10BA60000D8C02009C2B002023730200BC2B0020B5
:10BA70009577020000000000057802000000000039
:10BA8000417B0200B42A0020978D0200B02B0020D9
:10BA9000AD76020000000000D5A702000000000003
:10BAA0008D730200BC2B0020259C020000000000CA
:10BAB000299D02000000000011A602000000000005
:10BAC000D02A00200100040000000000FFFF140045
:10BAD0000000000000000100020000000000000063
