:020000040001F9
:10900000583D0020F99201000193010003930100F3
:10901000059301000793010009930100000000007F
:109020000000000000000000000000000B930100A1
:109030000D930100000000000F9301001193010047
:109040001996010013930100DD99010013930100AB
:1090500013930100000000005194010013930100DC
:109060001393010013930100139301001393010064
:109070001393010013930100139301001393010054
:1090800013930100719601001393010013930100E3
:10909000F596010013930100F99601001393010066
:1090A0001393010013930100000000000000000072
:1090B0001393010013930100000000000000000062
:1090C00000000000000000000000000000000000A0
:1090D0000000000000000000000000000000000090
:1090E0000000000000000000000000000000000080
:1090F0000000000000000000000000000000000070
:10910000000000000000000000000000000000005F
:10911000000000000000000000000000000000004F
:10912000000000000000000000000000000000003F
:10913000000000000000000000000000000000002F
:10914000000000000000000000000000000000001F
:10915000000000000000000000000000000000000F
:1091600000000000000000000000000000000000FF
:1091700000000000000000000000000000000000EF
:1091800000000000000000000000000000000000DF
:1091900000000000000000000000000000000000CF
:1091A00000000000000000000000000000000000BF
:1091B00000000000000000000000000000000000AF
:1091C000000000000000000000000000000000009F
:1091D000000000000000000000000000000000008F
:1091E000000000000000000000000000000000007F
:1091F000000000000000000000000000000000006F
:10920000DFF80CD000F012F90048004795B90100D2
:10921000583D002030B4044654E8000F0D4644E8A1
:109220000053002BF8D1156030BC704730B40446B1
:1092300054E8000F40EA010544E80053002BF7D141
:10924000156030BC704730B4044654E8000F00EAA3
:10925000010544E80053002BF7D1156030BC70477E
:1092600030B4044654E8000F80EA010544E8005396
:10927000002BF7D1156030BC704730B4044654E879
:10928000000F00EB010544E80053002BF7D11560F7
:1092900030BC704730B4044654E8000FA0EB010521
:1092A00044E80053002BF7D1156030BC704770B410
:1092B00004464FF0000054E8006F0D68AE4207BF4F
:1092C00044E80023012044E800630E60002B1CBF2B
:1092D0000020F0E770BC704730B4044654E8000F3B
:1092E00088422CBF451A054644E80053002BF5D1AF
:1092F000156030BC704700000648804706480047AC
:10930000FEE7FEE7FEE7FEE7FEE7FEE7FEE7FEE735
:10931000FEE7FEE7FD960100019201002DE9F05FF6
:109320000546002092469B468846064681464024D4
:109330001BE0284641464746224600F067F8534660
:109340005A46C01A914110D311461846224600F0E1
:1093500016F82D1A67EB01084F462246012000211E
:1093600000F00DF817EB00094E41201EA4F1010496
:10937000DFDC484631462A464346BDE8F09F202AB6
:1093800004DB203A00FA02F1002070479140C2F15C
:10939000200320FA03F319439040704700487047B8
:1093A0005CEA010040EA01039B0703D009E008C919
:1093B000121F08C0042AFAD203E011F8013B00F89A
:1093C000013B521EF9D27047D2B201E000F8012BE6
:1093D000491EFBD270470022F6E710B513460A4635
:1093E00004461946FFF7F0FF204610BD421C10F856
:1093F000011B0029FBD1801A7047034611F8012B8D
:1094000000F8012B002AF9D118467047202A04DB06
:10941000203A21FA02F00021704721FA02F3D040ED
:10942000C2F120029140084319467047064C074D8F
:1094300006E0E06840F0010394E807009847103424
:10944000AC42F6D3FFF7E0FE08F1010028F101007D
:109450002DE9F04700268AB0DFF85091B0464FF46E
:109460008075012437460696284603F0B1F838B1D6
:10947000D9F80403204203D0284603F09FF826437E
:109480002D1D64007F1CADB2082FEDD34FF4BE74C8
:10949000204603F09DF848B1204603F08FF846F0CF
:1094A000004606AA0121002003F074F8404D16F092
:1094B000FF0F15D00127002437420DD009EB84019E
:1094C000D1F81005D1F81015C0F3042055F8242068
:1094D000C1F3014102B190477F00641C082CEBD31B
:1094E000002E5FDA4FF0FF30CDF8108054E02819DD
:1094F00010F8507F90F9000027F0C008401C3BD0C6
:1095000007A9404602F013FD10B34FEA97194046F1
:1095100001F09CFD55F820701FB1B9F1030F03D085
:1095200006E0B9F1030F27D104A9404602F007FD78
:109530004FF0A04101EB8800D0F8000706A9C0F366
:10954000014A404602F0F3FC18B1BAF1020F03D011
:1095500012E0BAF1030F0FD1B9F1030F08D1BAF13C
:10956000020F1DD00221404602F0EAFF761CF6B23F
:1095700017B149464046B847641C042CB7D3002EA7
:1095800010D06A460121002003F004F806990098E3
:10959000884207D006900498002634460790A6E734
:1095A0000321E0E70AB0BDE8F0870000006000405A
:1095B000202B002000F01F02012191404009800073
:1095C00000F1E020C0F88012704700F01F02012176
:1095D00091404009800000F1E020C0F80011704780
:1095E00000F01F02012191404009800000F1E020BD
:1095F000C0F8001270474907090E002806DA00F08B
:109600000F0000F1E02080F8141D704700F1E02009
:1096100080F800147047000070B54FF48076304633
:1096200002F0A6FD114CB50560B1304602F0A7FD71
:109630000120C5F80803607920B901206071216814
:10964000002088474FF48276304602F091FD0028D2
:109650000AD0304602F093FD0220C5F808032168C5
:10966000BDE870400120084770BD00006025002063
:1096700007480021C0F84011C0F84411C0F8481153
:10968000C0F84C11C0F80011C0F8041104F0C0BCBF
:109690000010014000F0A8B970B50E46144900EB67
:1096A000400001EBC0051446E86A183520B10128D6
:1096B0000FD0022805D113E0284600F0C9F9A042D6
:1096C00001D2002411E022463146284600F0F8F984
:1096D0000BE0284600F0BCF9A042F4D20446F2E7C1
:1096E0003146284600F0BFF90446204670BD000010
:1096F000CC32002004F0DABB03F0A4BC2DE9F04723
:10970000A44E4FF08054371D31783D1D4FF00109B4
:1097100006290BD13878000708D12878C0F3031048
:10972000032806D0042804D0052802D0062907D033
:1097300011E0B4F824039849C0F30420086002E063
:109740003878000707D12878C0F30310032802D126
:1097500093499248486701F09BFE28B1D4F844022F
:109760009049C0F3423008603078B04606280CD1EA
:109770003878000709D12878C0F30310032804D1F2
:109780008948016821F08071016001F0A7FE002680
:1097900040B14FF08040C0F80C61C0F810618148C2
:1097A000001F066098F80000062807D139780907DD
:1097B00004D12978C1F30311032902D0062805D06A
:1097C00019E0784A03216432116007E0397809070B
:1097D00011D12978C1F3031103290CD1734B052250
:1097E0001A60724A7832C2F80090704908310E60EF
:1097F0003F211A1D1160D4F830110A2904D1D4F880
:1098000034215AB1012A09D0062807D13A78120723
:1098100004D12A78C2F30312052A55D1644A12688A
:10982000644B1A60624A121D12681B1D1A60604A5E
:10983000083212681B1D1A605D4A0C3212681B1D2B
:109840001A605B4A103212681B1D1A60584A1432A3
:1098500012681B1D1A60564A18321268554B203385
:109860001A60534A1C3212681B1D1A60504A20327B
:1098700012681B1D1A604E4A243212681B1D1A60A2
:109880004B4A283212681B1D1A60494A2C32126852
:109890001B1D1A60464A30321268464B40331A602C
:1098A000434A343212681B1D1A60414A383212682A
:1098B0001B1D1A603E4A3C3212681B1D1A603C4A4E
:1098C000403212681B1D1A600A2905D1D4F83411E0
:1098D00011B9394AFB211160062811D138780007E7
:1098E0000ED12878C0F30310032803D0042801D038
:1098F000052805D1D4F85802304900F04F0008601F
:1099000001F0A0FD30B12E480168C90702D06FF008
:1099100001010160D4F83001062808D1D4F83401DF
:10992000062804D12748016841F4806101604FF0A6
:109930001021D1F80002002803DBD1F8040200282E
:1099400023DA214AC2F8009020480368002BFCD09B
:109950001523C1F800320468002CFCD0C1F8043291
:1099600001680029FCD0166001680029FCD0BFF313
:109970004F8F0D48F0380168154A01F4E06111433A
:109980000160BFF34F8F00BFFDE713491148086026
:10999000BDE8F087E00F00F0403501400DF0ADBAB2
:1099A00000C007403C050040FCED00E010560040C0
:1099B0000404001020C5004018F50040E40E0040EB
:1099C000000400403C17004004E5014000E4014071
:1099D0000400FA050090D0030C260020014800681E
:1099E000004700006825002010B5124C02202061BD
:1099F000606111A0A06104F17800E0614FF4007093
:109A000020620020A06260620BA1A164E06204F504
:109A10001E71E1641021A065C4E91410E06509A17C
:109A2000E01DFFF7EAFC08A12046FFF7E6FC202036
:109A3000A07110BDCC3200205465726D696E616CEE
:109A4000000000005254540053454747455200005F
:109A50000269C1688A4203D88068401A104400E055
:109A6000501A401E70472DE9F047C46817468946D2
:109A700006464FF000083069A04201D9051B02E0FC
:109A8000B168201A0D1AB0686D1E001BA84200D8DC
:109A90000546BD4200D33D4670682A4620444946EB
:109AA000FFF780FCB0687F1B2C44A844A944A04267
:109AB00000D10024F460002FDDD14046BDE8F087DE
:109AC0002DE9F04104468846D4E90207C51BE16848
:109AD000606816460844B54206D94146FFF762FC65
:109AE000B819E060BDE8F0812A464146FFF75AFC0C
:109AF000761B08EB050132466068FFF753FCE66011
:109B0000F0E70000014A024900F026B877B50100ED
:109B1000A825002002E008C8121F08C1002AFAD1B7
:109B200070477047002001E001C1121F002AFBD1DD
:109B3000704700000121202803DA814005480140D8
:109B400003E0402802DA2038814009B10120704743
:109B500000207047FC06FFBD2DE9F04116460F4678
:109B60000446002503E03946B047641C6D1C20788C
:109B70000028F8D12846BDE8F08110B50122022165
:109B8000002001F0E3F808B1072810D107220221D4
:109B9000012001F0DBF808B1072808D100210A22D2
:109BA000084601F0D3F808B1072800D1002010BD05
:109BB00072B602F099FF00BF02F0DAFD0028FBD177
:109BC00011481249401AC408012000EB044010A1BA
:109BD00002F0E8FE11480068C00700D000BE022075
:109BE00000EB04400EA102F0DDFEBFF34F8F0B48E7
:109BF000E43801680E4A01F4E06111430160BFF3EB
:109C00004F8F00BFFDE7000080F1010038F1010037
:109C1000466174616C206572726F7200F0ED00E055
:109C200053797374656D207265736574000000006C
:109C30000400FA050EB500210091CDE901106A4635
:109C400044F20100FFF7B4FF0EBD10B58268C3688F
:109C5000934203D001F068FC002010BD052010BD28
:109C600029B112B1531E134203D0092070470E20B0
:109C700070470160838000218160C16008467047A1
:109C800010B58268C3689A1A83889A4203D801F093
:109C900055FC002010BD042010BD0000074B9B7830
:109CA00023B12AB120B10068037C1BB108207047A2
:109CB000072070474174426100207047CC2B002080
:109CC00070B503F021FF104800240B21047044708C
:109CD0000E4D817014206C602C706C70FFF76AFC64
:109CE00006211420FFF787FC1420FFF76EFC0848BC
:109CF000046006211120FFF77EFC0548001F006864
:109D0000A860002070BD0000CC2B00207025002032
:109D1000081501402DE9FC47DFF8789099F80230EA
:109D200073B368B3052902D20720BDE8FC874369F5
:109D300033B3437C012B25D00027044600258846F9
:109D400016468DF80050684600F0CEF801A804F0E1
:109D500031FCC8B1012101700F4944600968C0E9B4
:109D60000218C0E904769DF8040089F801009DF806
:109D7000000000F0DDF81420FFF732FC2846D4E79D
:109D80000820D2E70F46D8E704259DF8000000F030
:109D9000CFF8F3E7CC2B0020041501400649897861
:109DA00039B130B1416921B100210174022104F0BF
:109DB0000BB9082070470000CC2B002070B50A4E6C
:109DC00001460A48B578FFF740FF04464DB1002030
:109DD000B070711C0122C81D02F042FA08B1FFF7F1
:109DE00029FF204670BD000084250020D82C0020CB
:109DF000F0B5244E89B01F460D00044672603FD076
:109E0000A888296882B22048FFF72AFF002835D1A8
:109E1000A889A96882B21C481030FFF721FF0028EA
:109E20002CD1202219496846FFF7BCFA60690690D8
:109E3000207C00B101208DF814008DF81C70607C2E
:109E400000B10E208DF81500E0680290A068039024
:109E500020680190606800900A480D4A6946083001
:109E600002F0CAF9002809D1B0702068401C05D062
:109E700004490122491CC81D02F0F2F909B0F0BDE5
:109E80000720FBE784250020D82C002078E701007C
:109E900039E1010010B501461048FFF7F1FE04005A
:109EA00019D10F480F4A0178515C19B1001D03F018
:109EB0001BFC02E00C3003F0FFFA60B908490748C8
:109EC0000839FFF7C2FE30B90549012208390448B4
:109ED00002F0D6F90446204610BD0000E82C002010
:109EE0008C2500205425002030B5EFF3108172B688
:109EF0000D4A9468012324B10370002900D162B691
:109F000030BD93604FF0E023D3F88051074C2540DB
:109F10001560C3F88041D3F8844154605A17C3F8E0
:109F2000842100220270E8E7F82C0020FC06FFBD27
:109F30000B498A68002A11D000280FD1EFF3108056
:109F400072B60B684FF0E022C2F800314B68C2F8DD
:109F5000043100228A60002800D162B670470000F8
:109F6000F82C00202DE9F041064608680C46411CFB
:109F70004FF0A0474FF0010506D005FA00F1C7F8F1
:109F80000815206802F0C8FA6068411C02D0002160
:109F900002F0B0FA3168A069C1F82405607D227D25
:109FA00031681043C1F86C05D4E900123068C0F87C
:109FB0001425C0F80C15207D012815D1A068411C7E
:109FC00002D0002102F096FAE068411C05D08540DD
:109FD000C7F80855E06802F09FFAD4E90212306829
:109FE000C0F80825C0F81015BDE8F0812DE9F04152
:109FF000064608680C46411C4FF0A0474FF001058B
:10A0000006D005FA00F1C7F80815206802F08EFAAC
:10A010006068411C02D0002102F075FA3168A06925
:10A02000C1F82405607D217D32680843C2F86C05C3
:10A03000D4E900123068C0F80C15C0F81425207D52
:10A04000012815D1A068411C02D0002102F05BFA62
:10A05000E068411C05D08540C7F80855E06802F06B
:10A0600065FAD4E902123068C0F80825C0F8101566
:10A07000BDE8F08170B51500044609D000202860C5
:10A0800034B1206820B1A079800703D0072070BDCB
:10A090000E2070BD084600F0E1FAC0B2142804D0CA
:10A0A0002179814203D8042070BD052070BDE2886B
:10A0B000216800FB02102860002070BD2DE9FC47DC
:10A0C000002517880646158090F82D00144689460D
:10A0D00030B13A462146484600F0D4FA051E09D16F
:10A0E000B0784FF00C0A18B32088C846001DB8425B
:10A0F00002D95046BDE8FC87684679DF0028F9D1CF
:10A100002088032108F8001020881921401C80B203
:10A11000208008F800102088401C80B2208000EBCE
:10A120000801BDF8000004F094F92188084420805B
:10A13000F0780222C8B1218896F9033001F1030CAE
:10A140004846BC45D5D8425421884FF0010C491CE3
:10A1500089B2218000F801C02188491C89B2218080
:10A1600009F801302088401C20807068B8B121882F
:10A1700090F9003001F1030C4846BC45B9D842546F
:10A1800021880A22491C89B2218042542188491C15
:10A1900089B2218009F801302088401C2080308954
:10A1A00050B1CDE900474B460622022106F10800D6
:10A1B00004F018FA051E9DD1308A50B1CDE9004750
:10A1C0004B460722032106F1100004F00BFA051E8E
:10A1D00090D1308B50B1CDE900474B461522142168
:10A1E00006F1180004F0FEF9051E83D1306A30B183
:10A1F0003B462246494601F090F8051EDBD1706AC5
:10A2000030B13B462246494601F01AFD051ED2D127
:10A2100096F82C0038B13B4622464946304603F0BA
:10A2200057FD051EC7D1307838B13B462246494616
:10A23000304601F08FFD051EBDD128465AE718B5FE
:10A2400004460020ADF8000013466A46204600F0A0
:10A2500006F8002802D0BDF80000204418BD70B5F3
:10A2600088B182B10024158803E0065D641C344483
:10A27000A4B2A54203D8061976789E4201D08C423A
:10A28000F3D38C4201D3002070BDA11C1180005D6E
:10A29000401E80B270BD80F8301070472DE9F0414B
:10A2A0000D00044606D02CB195F87A00002601284E
:10A2B00003D006E00E20BDE8F08195F89800012853
:10A2C00029D0D5F8A000042825D0D5F89C00042872
:10A2D00021D04FF00108A6702C2205F17801201D35
:10A2E000FFF760F884F83060D5F8A4006063D5F813
:10A2F000A800A0634FF6FF70A4F8A80004F1940032
:10A30000C4F8A400C4F8AA60A4F8AE6084F8B060F1
:10A31000207810B104E00720CDE7FF2084F8540036
:10A3200004F155011F27C4F89410A4F8987004F1A3
:10A3300098022846FFF7C2FE0028BCD104F1740140
:10A34000C4F89C10A4F8A07004F1A00205F13C0030
:10A35000FFF7B4FE0028AED184F85180208BA4F81A
:10A36000480084F83C80266484F85060606960642A
:10A37000454604F13C02002104F1540072DF00283C
:10A3800099D1257097E710B50288102A1BD0112AA1
:10A3900020D0262A1DD1007A0C46012801D002289F
:10A3A00017D1A0780521401CB0FBF1F201FB12018E
:10A3B000204600F01EF800280BD0A16B002908D021
:10A3C000BDE810400847C27B012A02D18088A1F86D
:10A3D000A80010BD0C46002184F8B2108088B4F8A3
:10A3E000A8108842F5D120790028F2D10121DFE7B9
:10A3F00070472DE9F05F044600780F4698B1A770CA
:10A400000025C4F8AA50A4F8AE5084F8B050A07942
:10A41000012608B1012F09D0E07980B1012F05D0C4
:10A42000022F03D00BE00820BDE8F09F616B21B143
:10A4300084F8B1600820884701E084F8B15004F145
:10A44000AB0100200A5C0AB1304603E0401C06283C
:10A45000F8D300204FF002084FF0030A4FF0040B2E
:10A46000012F06D0022F0CD0032F0FD0042F15D1AF
:10A4700010E0A17929B194F8241011B908B130463F
:10A480000DE0E17911B108B1404608E0207A08B149
:10A49000504604E0607A08B1584600E02846A070B3
:10A4A000616B41B1032801D0042804D1607910B157
:10A4B00094F8B200A0B184F8B35004F13C00182124
:10A4C0000746FEF788FF04F12C0084F83C608146C3
:10A4D00003F09AFA58B194F82C0084F8510008E07F
:10A4E00084F8B45084F8B36007208847E5E784F81F
:10A4F000516094F8240050B1484603F085FA20B129
:10A5000094F8280084F8520001E084F8526084F83E
:10A510005050A27804F1AA0104F19409052A4DD201
:10A52000DFE802F065030F1B320084F83160C4F8E5
:10A53000A450C4E9101584F83C808020A4F8480099
:10A540003EE084F8318087F800A0228ABA81C4F8FE
:10A55000A4507960E168B96032E06069B860208B2E
:10A56000B8813D4684F83C60204604F005F840B1CF
:10A5700085F814800421204600F0E9FFF0B9052198
:10A5800015E084F831A017E0E069B860208CB8814C
:10A590003D4684F83C60204603F0EEFF50B185F85C
:10A5A00014800421204600F0D2FF38B9062184F837
:10A5B000311001E084F831B0C4F8A490A07878B1EB
:10A5C0003A4604F15400D4F8A41072DF00287FF456
:10A5D0002BAF94F8301094F8540073DF0028F6D1B4
:10A5E000616B11B194F83100884700201CE784F8B2
:10A5F0003150F5E770B5040012D001461C22144812
:10A60000FEF7D0FE1248134D0560206850B17ADF86
:10A61000002806D12068016829604068686005E06C
:10A620000E2070BD0B487BDF0028FAD108484FF69A
:10A63000FF711438084A20F8041B054934390160B9
:10A640000021FFF72BFB0028EBD0032070BD00009A
:10A65000782A00204C25002011E5010010B50446A1
:10A6600000F006F808B1204610BD142010BD00000F
:10A67000142801D3002070470146014801F0C8BBEF
:10A68000982A00207CB5054608880C46093090427F
:10A6900001D90C207CBD68466DDF0028FAD12188E5
:10A6A0000820685420881B21401C80B22080295437
:10A6B0002088401C80B220802844DDF80110016011
:10A6C000BDF8051081802088801D80B220809DF813
:10A6D0000010490800D0012129542088401C208006
:10A6E00000207CBDF8B52B4D018804466E882129D9
:10A6F0003BD015DC2848294A1029A0EB02004FEA7C
:10A70000D0004FF0030202EB004013D0112925D0F6
:10A71000132929D100231A46852130467FDF17E00F
:10A720003B2932D052292AD056291DD180881321A5
:10A7300076DF0DE01AA102F035F9072000F028FBC2
:10A7400008B1FFF777FAA1886980184801F098FCF2
:10A75000002809D0BDE8F840FFF76CBA14A102F058
:10A7600021F94FF6FF706880F8BD00200090A088A6
:10A7700069468FDF0028F7D0FFF75CFAF8BD0023A9
:10A780001A4619463046B1DFE2E78088132176DFAA
:10A79000DEE700000825002080F1010038F101000B
:10A7A000436F6E6E656374656400000014290020B9
:10A7B000446973636F6E6E656374656400000000C6
:10A7C00010B51A4C0188606810290ED011292BD1C0
:10A7D000401E606028D1FFF7D0F9002824D02168FE
:10A7E000002921D0BDE810400847D0B9002101223E
:10A7F000084600F0ABFA08B107280FD10722022162
:10A80000012000F0A3FA08B1072807D10422022191
:10A81000002000F09BFA20B1072802D0216801B186
:10A8200088476068401C606010BD0000442500201F
:10A830002DE9F04701883B4E40F2F3194FF6FF75C2
:10A8400010291BD011293ED0122954D0502946D1AD
:10A85000C188F289841D914241D1618902293ED18A
:10A860008688304600F0D4FE050038D004F10C0094
:10A8700000F0B4F9A8B3294630464EE0C17B878882
:10A88000044601292BD1A846284600F0C1FE050048
:10A8900017D02F8000202872234843464A4601687B
:10A8A000C5F80A104068C5F80E0004F1100105F162
:10A8B0000A0000F063FF6872F08900280FD1294672
:10A8C0002AE0042013E0808800F0A2FE040006D0F5
:10A8D0006068FFF763FA08B103F0CAF92580BDE8A4
:10A8E000F087FFE76868FFF759FA0028F7D0BDE85E
:10A8F000F04703F0BDB987880646384600F088FE69
:10A900000400ECD02B464A4606F1080104F10A0087
:10A9100000F034FF607221463846BDE8F04700F091
:10A9200043BD0000782A00204C2500202DE9F04F7F
:10A930000746858802883D48012197B08346102A42
:10A9400009D0112A49D01A2A6CD1387AB1EB101FDC
:10A9500045D2012244E0354C083CA068C0430B902E
:10A9600061680BA801F075FA0B990CA800F0B6FC11
:10A970002C220CA96846FEF715FD0026E946A046E4
:10A9800010E000BF09EB46005FF00004B0F804A03F
:10A9900008EB84005146001D01F02FFA641C1D2CA9
:10A9A000F6D3761C0098B042ECD8142D05D317B01E
:10A9B0000420BDE8F04FFFF73DB92946584601F0A5
:10A9C00032FA294608F1040001F02DFAF87B01283B
:10A9D00028D016482946001D15E029461AE0002215
:10A9E0000221B1EB101F01D2012600E000260F4921
:10A9F000083901F11000041D294682B101F013FA53
:10AA000036B12946204617B0BDE8F04F01F00BBA29
:10AA10002946204617B0BDE8F04F01F0EEB901F02D
:10AA2000ECF9F5E717B0BDE8F08F00009C2A002094
:10AA3000F0B585B016460F4604001D4614D004AA92
:10AA400019466069FFF716FB00280BD1A5F57F407A
:10AA5000FF380BD0049848B1007848B13088F4280A
:10AA600008D9072005B0F0BD0E20FBE70520F9E767
:10AA70000820F7E700200090019002900390A08842
:10AA8000ADF8000001208DF80200CDE902676946AB
:10AA90002846AEDFE6E7000070B5334D04008EB007
:10AAA0002DCD08AE86E82D005BD0E9B30868A06123
:10AAB000214608A862DF002851D1207801258DF8B1
:10AAC0003200ADF83050A21C0CA92846A8DF00289F
:10AAD00045D120216846FEF77EFC0220ADF800003B
:10AAE00020788DF802008DF80C509DF80D00F426AA
:10AAF000ADF8046040F00C008DF81150ADF8065030
:10AB00008DF80D008DF81250608804F10C02694632
:10AB100000F0A4FA002822D120216846FEF75BFC51
:10AB20000320ADF8000000E01BE020788DF8020063
:10AB30008DF80C509DF80D008DF81150ADF80460A3
:10AB400040F010008DF81250ADF806508DF80D0051
:10AB50008DF813506088221D694600F07FFA0EB010
:10AB600070BD0E20FBE7000054E7010070B588B00F
:10AB70000446002924D0002C22D008462188102920
:10AB800020D0502924D057291AD10546A1884069E0
:10AB900006AAFFF76FFA002812D1069E3078002827
:10ABA0000ED018216846FEF716FC01208DF8000033
:10ABB0000195A088ADF808000396A9696846884702
:10ABC00008B070BD08B02146BDE8704002F006BE76
:10ABD00008B02146BDE8704002F0D4BE007800F015
:10ABE000010070470149085C7047000014E701004C
:10ABF00007490B5C4FF0A041D1F804250120984093
:10AC000020EA0203C1F808351040C1F80C0570476E
:10AC100010E701000249085C012101F0B0BC00000E
:10AC200010E701000249085C002101F0A8BC000007
:10AC300010E701000649095C4FF0A040D0F8040578
:10AC4000C84010F0010000D0012080F001007047E2
:10AC500010E7010010B500242046FFF7DBFF641C5D
:10AC6000042CF9D310BD10B500242046FFF7DAFFFD
:10AC7000641C042CF9D310BD10B50246064B4FF0EE
:10AC8000FF3000215C5C944201D1084610BD491C94
:10AC90000429F7D310BD000014E7010010B500200F
:10ACA00000F066F908B1062806D1012000F060F92D
:10ACB00008B1062800D1002010BD00002DE9F047A2
:10ACC0000D468146FFF7D8FF0446042836D2DFF848
:10ACD00074801B481C4EA8F10C0725B3012D0ED023
:10ACE000022D2BD104EB440030444578002D25D0B3
:10ACF000B968002922D02846BDE8F047084704EB90
:10AD00004401755C0E44717849B10E4A4FF400411C
:10AD1000093A8068FEF7FEFF08B987F80390B1781A
:10AD200008F80410E2E78068FFF738F804EB440104
:10AD3000314418F804008D78A842D7D0BDE8F087D8
:10AD400018E7010040250020182A002070B50023D4
:10AD5000042810D20D4D00EB4004012A02D1012934
:10AD60000CD00022094E00EB4000304461B10129B3
:10AD700006D0022906D00723184670BD0E30C2B295
:10AD80002A55F9E74270F7E78270F5E7182A0020A4
:10AD9000044A014600201279D20702D0084600F08A
:10ADA00003B87047342500202DE9F05F6E4C05464E
:10ADB00000266078B34618B184F801B000F000FDB9
:10ADC0006A4F4FF47A694FF4C87A4FF00108182D92
:10ADD00069D2DFE805F00C1313384754696E727BB3
:10ADE000727BC58484848484B3B6B9BCC5C500F0C5
:10ADF000E7FC3868FEF7D2FF06465CE00020FFF76C
:10AE000019FF00284FF0000008D0FFF703FF022DC4
:10AE100002D14FF4E16008E0484606E0FFF702FF88
:10AE2000022D01D1C82000E05046410CC0034FF470
:10AE3000FA72801841F10001257052000023FEF7DC
:10AE40006DFA01462AE00020FFF7F4FE00284FF0DB
:10AE5000000004D0FFF7DEFE4FF44870E5E7FFF78F
:10AE6000E1FEDFE70020FFF7E5FE00284FF00000DD
:10AE700002D0FFF7CFFECFE7FFF7D4FED4E70020E4
:10AE8000FFF7D8FE00284FF0000002D0FFF7C2FE07
:10AE900001E0FFF7C7FE257041F69A1100223868DD
:10AEA000FEF738FF064646E00020FFF7A1FE2570BA
:10AEB00008E0002051E025703DE084F80180012089
:10AEC000FFF796FE002240F6CD41E8E784F80180C6
:10AED0000120FFF78DFE00224FF48041DFE7786804
:10AEE000FEF75CFF0646D5F1110000D02EB102201E
:10AEF000FFF790FE84F802B01DE0012816D980B259
:10AF0000C8214843C117C90341EA5041C0034FF467
:10AF1000FA72801841F1000152000023FEF7FEF999
:10AF2000014600227868FEF7F5FE06460220FFF78C
:10AF300079FE84F802803046BDE8F09F00F040FCC6
:10AF4000B9E700F03DFCB4E700F03AFC04E000F0A3
:10AF500037FC0020FFF766FE0120FFF763FEAAE73B
:10AF6000FFF781FEA7E700003425002018E7010065
:10AF7000012103F09EBB00002DE9F8430546861C25
:10AF800000208DF8000090460F464FF001096846FA
:10AF9000FEF7AAFF1B4C20683860D4E90001401A74
:10AFA000A16804F21C47081A0EE00121384600F09F
:10AFB0004AFF00F0A1FC0146384600F044FFD4E906
:10AFC0000001401AA168081A401C8642EDD8B8F169
:10AFD000000F03D0052065F3891002E0062065F319
:10AFE0009F50A2682168114004EB8101C86020686D
:10AFF000304420609DF80000FEF79AFF4846BDE807
:10B00000F8830000A82E002070B50D4604460A29DA
:10B0100002D10D21FFF7F8FFA0682268411CA16052
:10B020001554D4E90101814204D32046BDE87040A3
:10B0300001F043B970BD0000034803C8814201D14B
:10B040000120704700207047A82E002002490844C4
:10B0500090F9300070470000202B00202DE9F043CC
:10B060008146887891B090460C4600B901208DF851
:10B070003E002088ADF83C0000250095607C6946C4
:10B0800002F06AFE6E46A07C711C02F065FEE07B59
:10B0900000289DF8020002D040F0080001E020F0F6
:10B0A00008008DF80200217C11B140F0100001E091
:10B0B00020F010008DF80200217B11B140F001005A
:10B0C00001E020F001008DF80200217D09B102218C
:10B0D00000E0012161F342008DF802001C2102A86A
:10B0E000FEF779F9607BC10601D4800617D50E956D
:10B0F0000EAFE07C791C02F02FFE9DF83800079718
:10B1000020F00F00401C20F0F00010308DF83800C7
:10B110009DF83A0020F00600801C8DF83A00607B14
:10B120008DF80800A07B8DF80900142109A8FEF70E
:10B1300052F90FA8CDE90906A088ADF83000A06843
:10B1400020B1E088ADF82C00A0680D90A06998B3FC
:10B1500001950088ADF81000A06901AD01A94088F3
:10B16000ADF81200A069406806950390A069007BC5
:10B1700002F0F2FDA069691C407B02F0EDFDA069C0
:10B18000807A00289DF8060002D040F0080001E017
:10B1900020F008008DF80600A169C97A11B140F0CD
:10B1A000100001E020F010008DF80600A169097A76
:10B1B00019B140F0010002E00DE020F001008DF82F
:10B1C0000600A169897B09B1022100E0012161F338
:10B1D00042008DF80600E06900B10590434609AAD7
:10B1E00002A94846AADF11B0BDE8F08370B5084C4B
:10B1F000050009D010342168002907D008682060B4
:10B20000496828468847F6E70834F4E770BD00002F
:10B210000C2B0020054A012120B1012805D1917095
:10B22000FFF7E4BF51700020FAE770470C2B0020B5
:10B230002DE9F05F26484168F1B3DFF898B00E6859
:10B240008146DBF8004087688078E11B21F07F456C
:10B25000ED1CB0B9DFF880804FF48030C8F84403AB
:10B26000C8F804031120FEF7A5F91120FEF7ADF987
:10B270004FF0010AC8F800A02F2001F0B7FF89F8AD
:10B2800002A0B54200D23546124BE8193C3320F0FB
:10B290007F401860DBF800105A46091B21F07F41FF
:10B2A000001B20F07F40C91C81420FD91068186034
:10B2B0002F2001F09BFF00E004E0BDE8F05F1120CB
:10B2C000FEF78EB9BDE8F05F02F01EBCBDE8F09F4E
:10B2D00070250020041501400010014073B58CB0AA
:10B2E0000646002000900D9880B100246D4621464E
:10B2F0000DA800F08DFD30B1009805EB4000848072
:10B300000098401C0090641C142CF0D32C22694639
:10B310003046FEF747F80EB070BD2DE9F0411788B2
:10B320000646B81D14460D46984202D90C20BDE8C9
:10B33000F0813188072206290AD34FF4486C4FF672
:10B34000FF73614501D9994202D17088062801D264
:10B350001046ECE7604501D99842F9D1994203D0F3
:10B36000984201D08142F3D80520E8552088122167
:10B37000401C80B2208029542088401C80B220804C
:10B380004119308803F065F82188084480B2208094
:10B390004119708803F05DF821880844208000205E
:10B3A000C5E7FEF747BC000038B54A7A0F4B62B1DB
:10B3B00000220A725969002906D001228DF8002066
:10B3C000ADF802006846884738BD0A7A62B19B68CA
:10B3D0004C68024619462046FEF79CFC0028F3D034
:10B3E000BDE8384002F044BC5B68F1E7782A0020F1
:10B3F00010B50021024800F037FD80F3100010BDA9
:10B40000C43200200E4910B50A784C780023A242BD
:10B4100012D0521CD2B20A70022A00D10B70084A14
:10B420000B780C3252F8232002608868104420F018
:10B430007F408860012010BD0360002010BD000027
:10B44000702500204FF08050D0F830110A2904D127
:10B45000D0F83401B8B1012814D00C48007806287F
:10B4600011D10A48001D007800070CD107480830A8
:10B470000078C0F30310032805D0042803D0052862
:10B4800001D000207047012070470000E00F00F05D
:10B490004FF08050D0F830110A2904D1D0F834018F
:10B4A000B8B1012814D00C480078062811D10A48F8
:10B4B000001D007800070CD1074808300078C0F361
:10B4C0000310032805D0042803D0052801D000204C
:10B4D0007047012070470000E00F00F04FF08050EF
:10B4E000D0F830110A2904D1D0F83401B8B10128BC
:10B4F00014D00C480078062811D10A48001D0078A5
:10B5000000070CD1074808300078C0F30310032867
:10B5100005D0042803D0052801D000207047012061
:10B5200070470000E00F00F0826883881A400368CB
:10B530009A5C0A708168491C81607047C268838880
:10B540001A4003689954C168491CC160704770B5BE
:10B550000D460446B0F89810D0F894000122FEF78A
:10B560006EFE00B1057004F13C0204F1940104F197
:10B57000540072DF70BD10B50446C0B2FEF78AFCFD
:10B58000204610BD0C484A8843889A4213D10A8845
:10B59000A2F52063773B0ED18988C91E8AB28280CA
:10B5A000064807491346401AC008032101EB004032
:10B5B00004A101F002BA70470825002080F10100C3
:10B5C00038F1010044617461206C656E206973205C
:10B5D00073657420746F20307825582825642900FD
:10B5E00010B50949094800F0C0FC08B1FEF722FB7C
:10B5F000F721064800F0ADFC002803D0BDE810405C
:10B60000FEF718BB10BD000085B50100042900201D
:10B610000146034802888A4200D00020704700009B
:10B62000642A00202DE9FC5F0E008346DDE90C470B
:10B63000C6F1000098469246814600D4084601258E
:10B6400003E000BF90FBFAF06D1C5045FADAA84504
:10B6500000D9454624B1002E01DB780700D5641ED1
:10B66000B80702D5B8F1000F0AD0F80708D13CB1ED
:10B67000A54205D220215846641EFFF7C5FCF6E717
:10B68000002E02DA4E462D2102E0780703D52B2149
:10B690005846FFF7B9FC07F0030002280BD1B8F1B8
:10B6A000000F08D13CB1A54205D230215846641E96
:10B6B000FFF7AAFCF6E7CDE900474346524631467C
:10B6C000584602F0CBFEBDE8FC9F000070B50D4669
:10B6D000044600684FF4887101F04EFD4FF49071FC
:10B6E000206801F049FD4FF49271206801F044FD9B
:10B6F0004FF4A271206801F03FFD20681149C0F8A5
:10B7000004132068690740F30730090E002806DAA1
:10B7100000F00F0000F1E02080F8141D03E000F1BC
:10B72000E02080F800142068012140F3073000F089
:10B730001F0291404009800000F1E020C0F8001194
:10B7400070BD00001003020002460020126853077B
:10B7500013D502F00300012802D002280CD105E025
:10B76000C2F383100B68801C184404E002230868AD
:10B7700003EB92521044086001207047F0B58488B2
:10B78000A518944200D82246A41AC288D6189A4214
:10B7900000D81346D21A4B880788BB420CD3408886
:10B7A000834209D88888A04206D3A84204D8C88812
:10B7B000904201D3B04201D90020F0BD0120F0BD7C
:10B7C0000A4810B5807860B1002401E0022C06D050
:10B7D0002046FFF71FFA641C042CF7D310BD032486
:10B7E000F6E7BDE81040FFF735BA00003425002029
:10B7F000F7210180172141800021017141717047BB
:10B800002DE9F047394E002780463D46DFF8E090AD
:10B81000D6F804A057E003D00446D0F81C8035E0E9
:10B8200099F8002002EB4201521CD2B289F80020A4
:10B8300009EBC10199F80230091D9A4201D189F83A
:10B84000005048680A780446012A12D0022A02D021
:10B85000032A3BD108E002F087FB00B101272574E1
:10B8600034E00574C06900E070680028F9D17060A8
:10B870002CE0207C50BB88686060C868A0600869C4
:10B88000E0604869A061F07800B165606268B16805
:10B89000184B501A20F07F40984202D2A168084409
:10B8A00006E0881AA16820F07F40814202D9081A78
:10B8B000206000E0256065600120A56020742046BE
:10B8C000E56102F033FBB8F10000A4D199F8001053
:10B8D00099F801008142A3D117B97168514502D08E
:10B8E0000120BDE8F0870020FBE700007025002064
:10B8F000CC2B0020FFFF7F002DE9FF4100262348CD
:10B9000000F09EFA2148001F074600F099FA204CEB
:10B9100060680090A56800E000986946284004EB44
:10B9200080000C30FFF710FF0028F5D101AA009924
:10B9300001EA050304EB8303491CDB6842F820306D
:10B94000401C00910228F2D3019800F00300012866
:10B950000BD0022810D10198032101EB90500099DF
:10B96000BDF80A6001EB900005E00198BDF80A609F
:10B97000C0F3831008440090384600F05EFA08B126
:10B980000098606004B03046BDE8F081C03200200D
:10B99000A82E0020ACB0182289496846FDF702FDA8
:10B9A0008848069088494FF48070CDE907010990D6
:10B9B0000723864A06A96846FEF71AFA08B1FEF779
:10B9C00039F94FF40041002001F058F808B1FEF7B2
:10B9D00031F900F0BFFEFEF773F908B1FEF72AF95E
:10B9E00001F062F908B1FEF725F901F0F1FA08B1AA
:10B9F000FEF720F9002469460120009401F08CF93B
:10BA000008B1FEF717F9684601F01AFA08B1FEF717
:10BA100011F99DF808006EA120F00F00401C20F0E5
:10BA2000F00010308DF808000B2202A87CDF08B16E
:10BA3000FEF700F900941020ADF800003C200194BE
:10BA4000ADF80200ADF804404FF4C870ADF8060040
:10BA500068467ADF08B1FEF7EDF8FFF7C1FD5F48F1
:10BA6000019001A95E4800F016FB08B1FEF7E2F86C
:10BA70005C48009069465C48FFF70EF808B1FEF795
:10BA8000D9F8AC216846FDF7A6FC02208DF800002D
:10BA90008DF8024005208DF803004FF0010852494F
:10BAA000ADF84C804020891F2290149144F25060E0
:10BAB00023908DF87C804D482990494869460C3088
:10BAC000FEF7ECFB08B1FEF7B5F8454801210C3054
:10BAD000FEF7E1FB1C216846FDF77DFC4FF42030AA
:10BAE000CDE900404FF470200290414805900325B5
:10BAF00040488DF80C500690ADF80E408DF810407F
:10BB00006846FEF777FD08B1FEF794F83AA0FDF716
:10BB1000F9FF3E483E49401AC00805EB00403DA1F0
:10BB200000F040FF2E4803210C30FEF762FC08B104
:10BB3000FEF780F80121192000F013FD01211A20E1
:10BB400000F00FFD01211B2000F00BFD01211C2046
:10BB500000F007FD01211D2000F003FD184D002617
:10BB60004FF4FA79083D4FF47A474FF0A04A4C461B
:10BB7000691C38468847641EFAD1DAF80415504625
:10BB80004FF080638B434246CAF8083501F080616C
:10BB9000CAF80C15761C062EE9DB002101F1190408
:10BBA00002FA04F3C0F80C35491C0529F6DB00BF86
:10BBB00000F0DEFD0028FBD101F08AF8F8E7000074
:10BBC000F8E601000427002004280020C1E001005D
:10BBD0004E6F726469635F5541525400E5CC0100B9
:10BBE0001429002005D70100142500209DD701004D
:10BBF000C1D70100A3B301000D0A5541525420736F
:10BC00007461727465642E0D0A00000080F10100F9
:10BC100038F101004465627567206C6F6767696E73
:10BC20006720666F722055415254206F76657220EE
:10BC300052545420737461727465642E00000000C5
:10BC400070B5144682880E4605462088111D0144B1
:10BC5000921C994201D8FE2A01D90C2070BD521CB9
:10BC600032542088FF21401C80B22080315420882B
:10BC7000401C80B220808119288802F0EAFB2188CC
:10BC8000084480B22080AA8842B1A96841B13044FA
:10BC9000FDF788FB2088A98808442080002070BD1B
:10BCA000072070BD2DE9F047C5881E1DB6FBF5F7CE
:10BCB0008946B6FBF5F1044605FB176C407916681A
:10BCC0006843DDF820A0F718001F874200D9C61A84
:10BCD000166001E02468491E0029FBD1A5EB0C0782
:10BCE0008846B74216D818E004EB0C00001D09EB9B
:10BCF0000803BAF1000F3A4602D00146184600E0A8
:10BD00001946FDF74FFB2468F61B4FF0000CB844B2
:10BD1000B54201D9374600E02F46002EE4D1BDE8F8
:10BD2000F087000030B5024651B100F0C5FE002199
:10BD3000074C08E034F821301568AB4202D111609D
:10BD4000002030BD491C8142F4D3052030BD0000E5
:10BD500000000000F8B50F46017814460546012999
:10BD600001D1687830B12088821C9A4232D80129EA
:10BD700002D006E00720F8BD69780144891C994289
:10BD800028D8181A801E86B2ADF800602188B81C29
:10BD9000084469467DDF0028EDD12978022904D0C6
:10BDA0006878BDF80020904205D3BDF80000B0428D
:10BDB00001D809200AE00820012905D16978B1429B
:10BDC00002D8ADF8001001E0ADF80060BDF8001039
:10BDD000FE2901D90C20F8BD2288491CB9542188BC
:10BDE000491C89B2218078542088401C2080BDF8ED
:10BDF0000010084420800020F8BD01F01F0301223C
:10BE00009A40D243490900EB8100114600F021B865
:10BE10004A0950F8220001F01F0201219140084018
:10BE200000D00120704701F01F0301229A40490908
:10BE300000EB8100114600F01CB8002100F00FB8A3
:10BE4000012100F016B808B56A46FDF716FA009809
:10BE500008BD08B56A46FDF7F6F9009808BD08B5B3
:10BE60006A46FDF7F0F908BD08B56A46FDF7D2F954
:10BE700008BD08B56A46FDF7D9F9009808BD08B5B0
:10BE80006A46FDF707FA009808BD38B50446002554
:10BE90008DF800506846FEF727F821686268086848
:10BEA00090420ED9401E08600178238AE26801FBA7
:10BEB0000325227A2168101AC0B20A79824200D280
:10BEC00008719DF80000FEF733F8284638BD38B5F4
:10BED000054600208DF800000C466846FEF704F881
:10BEE000E868298A201AB0FBF1F12A681068431C1F
:10BEF000136001709DF80000FEF71AF838BD10B508
:10BF000030B1017A42680368891AC9B21A6006E042
:10BF10000E2010BD03681A68541C1C601170491E65
:10BF2000C9B2F7D2006800210171084610BDC208ED
:10BF300000F007030120895C98400840704710B565
:10BF4000C20800F00703885C01249C402043885409
:10BF500010BD28B1A1F11702E12A03D307207047D1
:10BF60000E20704701800020704710B560B1C1609D
:10BF7000F72120F8021B20F8021BFB2100F8021B0E
:10BF8000FFF736FC002010BD0E2010BD7CB50C461E
:10BF90008188002933D102880025102A06D0112A71
:10BFA00009D03A2A0BD0552A2ED129E00146204645
:10BFB00001F04AFC28E0A01DFFF71AFC24E022460D
:10BFC000408934F8063F834200D81846608017281D
:10BFD00000D217206080D06878B1607968B1184BC2
:10BFE000D3E90003CDE90003ADF802106088ADF895
:10BFF0000400D368694610469847657125717CBD79
:10C000000146204601F066FCA07A0028F7D02846B9
:10C01000E188A5DF012680B11128F0D001F08CF86D
:10C0200002460848084902B0401AC00806EB004022
:10C03000BDE8704005A100F0B9BCA572E6727CBDF8
:10C0400044E7010038F1010038F1010073645F62D8
:10C050006C655F67617474635F65786368616E6760
:10C06000655F6D74755F72657175657374282920DD
:10C0700072657475726E65642025732E0000000071
:10C0800020B10278DE2A03D0082070470E207047C6
:10C0900041800020704760B159B10278DE2A0AD091
:10C0A00009684160DE2101704FF6FF714180002078
:10C0B00070470E207047082070477FB5054600295D
:10C0C0004DD0002D4BD008780C46DE2847D1A888EB
:10C0D0006188884202D1204602F05AFA2888012855
:10C0E00025D002283BD011283AD0512837D135F835
:10C0F000040F6188884232D1A978A81C02292ED168
:10C10000017A042903D0062901D0052927D100216D
:10C11000009102228DF8002001914FF4C07202912B
:10C120000391ADF80420007A05280FD010E0297A99
:10C130002046012913D1A988428891420FD10121BB
:10C14000017204B0BDE8704002F022BAADF80410EC
:10C1500028886946B0DF002801D0616888477FBD24
:10C16000A88861888842FAD14FF6FF7060807FBD51
:10C1700000F180400068002800D00120704708B519
:10C1800000F18040002101600068009008BD0000BF
:10C1900070B50B4C207808B185250FE00020A06019
:10C1A00060602061E060074801F002F8054600F099
:10C1B0005BFF08B900F0E6FF01202070284670BD43
:10C1C0000C2B002015B2010038B500258DF8005069
:10C1D0006846FDF789FE074CE068401EE060E068B5
:10C1E00010B900F0F5FFA5709DF80000FDF7A0FE66
:10C1F00038BD00000C2B0020F0B50546047815482A
:10C2000089B0164640F82420124A0869121DA2F18E
:10C21000080742F82400487F385520226846FDF779
:10C22000C1F804942878385C48B10EB10A4A00E09D
:10C2300000226946281D01F057F909B0F0BD0EB182
:10C24000064A00E00022694605F10C0001F004F8FE
:10C25000F3E700005825002031E30100D9E1010097
:10C2600030B40378054CE35C1BB130BC001D01F019
:10C2700071B930BC0C3001F057B8000054250020D3
:10C2800030B40378054CE35C1BB130BC001D01F0F9
:10C29000E3B930BC0C3001F0BDB8000054250020DB
:10C2A0000FB408B50399002904D004AA00926A4685
:10C2B00000F00FF801B05DF814FB10B58268044679
:10C2C000002A05D0D4E90403216898470020A06023
:10C2D00010BD2DE9FC4791460C00804676D014F83D
:10C2E000011B39B125290ED04046FEF78DFE20787E
:10C2F0000028F4D198F80C00002867D04046BDE82B
:10C30000FC47FFF7DABF0020012221782B291BD040
:10C310002D2902D0302908D102E040F0010001E0CF
:10C3200040F00200641C002AEFD100252A290ED01B
:10C330002178A1F130020A2A11D205EB850201EB26
:10C340004205641C303DF1E740F00400EAE7D9F80B
:10C3500000100B1DC9F800300968641C0D442178D9
:10C3600000232E290BD114F8011FA1F130020A2A53
:10C3700005D203EB830201EB4203303BF3E76C2968
:10C380000DD068290BD0692921D00BDC252918D0C4
:10C39000582931D063290ED0642915D117E014F83B
:10C3A000011FECE7702969D0732932D075291BD0A1
:10C3B000782909D120E0D9F80000011DC9F8001042
:10C3C00001784046FEF720FE641C90E76CE0D9F847
:10C3D00000100A1DC9F800200968CDE900500A22A2
:10C3E0004046FFF71FF9EFE7D9F800100A1DC9F81A
:10C3F000002009680A2206E0D9F800100A1DC9F8D1
:10C40000002009681022CDE90050404602F026F8CD
:10C41000DAE7D9F8001000270A1DC9F800200E68D5
:10C42000C00705D112E04046761C7F1CFEF7ECFDEC
:10C4300031780029F7D104E0202140466D1EFEF737
:10C44000E3FDBD42C0D9002DF6D1BDE74EB1304667
:10C45000FCF7CCFF074604E0202140466D1EFEF7A6
:10C46000D3FDBD4206D9002DF6D103E04046761C2F
:10C47000FEF7CAFD31780029F8D1A5E7D9F8000008
:10C48000011DC9F80010056830214046FEF7BCFDCB
:10C4900078214046FEF7B8FD08200021CDE90001D3
:10C4A000034610222946B0E7BDE8FC8770B541EA93
:10C4B0004201DDE904564FF0A04441EA830141EA1C
:10C4C000052104EB800041EA0641C0F8001770BD69
:10C4D00070B541EA4201DDE904564FF0A04441EA5B
:10C4E000830141EA052104EB800041EA0641C0F8DE
:10C4F000001770BD1CB500220B4600921146019238
:10C50000FFF7D4FF1CBD1CB500220B46009211465C
:10C510000192FFF7DDFF1CBD1CB5002100910B4609
:10C52000012201911146FFF7C1FF1CBD1CB500217E
:10C5300000910B46012201911146FFF7C9FF1CBD76
:10C540004FF0A04202EB8000D0F8002722F44032E6
:10C55000C0F80027D0F8002742EA0141C0F80017D0
:10C5600070474FF0A04221B101218140C2F8181557
:10C57000704702EB80000021C0F8001770470122CD
:10C580004FF0A043824011B1C3F808257047C3F8AB
:10C590000C25704718B5084B6C4601441B68009386
:10C5A00006E000BF54F82030D3F81035401C08C214
:10C5B0008142F7D818BD000064E70100034908B5BF
:10C5C0000844002101600068009008BD0060004040
:10C5D00002494058012800D0002070470060004008
:10C5E00030B5154A01460020D2F8104423460AE02F
:10C5F000DB681D79854205D1401C0A28F6DB4FF027
:10C60000FF3030BD1B68002BF2D1431CF9D0CB6842
:10C610001871D2F8103443B1DB68CC681B68236012
:10C62000D2F81024D268116030BDC2F81014C96865
:10C6300000220A6030BD0000A82E00207047FDF7E0
:10C6400029B8704708B5034A00924023024A00F017
:10C6500005F808BD81DC0100102D0020F0B595B073
:10C660001C4615460F4608461A9E00F0F7FA182198
:10C6700009A8FCF7B0FE0E96CDE909540023082264
:10C6800003A9384600F0FFFA05980690BDF810009F
:10C69000ADF81C00BDF81200ADF81E0000208DF8AA
:10C6A00021000398082600F00300012802D0022888
:10C6B00018D032E003983346850AC0F3C2008DF8E3
:10C6C000200003980FA9C0F38314A200384600F09D
:10C6D000DAFA09A8009006AB22460FA9284600F016
:10C6E00019FA1AE00398840DC0F3C2008DF82000F7
:10C6F000082C01D2254600E0082533462A460FA91A
:10C70000384600F0C0FA2E44641B09AB06AA29463D
:10C710000FA800F05BF9002CEAD1384600F0A4FA2B
:10C7200015B0F0BD0A4A012902EBC00007D002296A
:10C7300007D0032907D0042907D000207047022022
:10C7400070470420704700797047407970470000B7
:10C7500038F1010010B5FFF772FF04210348FFF71D
:10C760003FFF02490120C968487110BD28F101004E
:10C770002DE9F04F8DB0FEF75FFC18B100200DB031
:10C78000BDE8F08F7E4C4FF0000BC4F818B4BFF337
:10C790004F8F60680290A568D846284004EB80005F
:10C7A0000CE000BFD4F8180470B9216802988142E7
:10C7B00001D86160E2E7284004EB80000C3002A958
:10C7C000FEF7C2FF0028EDD1002005AA029901EA78
:10C7D000050304EB8303491CDB6842F82030401C4E
:10C7E00002910228F2D3059800F00300022802D03B
:10C7F00001284DD0AAE005985022810D8946B2EB60
:10C80000905F00D850210E4666F39F500590083186
:10C810005C4800F0DAF9070078D000F01FFA4346D0
:10C82000082205A9384600F036FA029908F1080AEC
:10C830002940681A8000001D864222D9504D0C35CF
:10C8400030B1C2B204EB8101301A90460C3104E0E1
:10C850002946F2B2002590462846C6B253463846CD
:10C8600000F019FA0AEB080325B13246294638468A
:10C8700000F011FA029909F1030001EB9000029017
:10C880003BE004EB81015346324638460C31EFE77A
:10C890000598C0F38310062800D30620059960F39D
:10C8A0008911C1F38310801C05918100354800F087
:10C8B0008CF907004AD000F0D1F94346082205A9B7
:10C8C000384600F0E8F908F1080800260FE0029861
:10C8D000434600EA0501401C04EB8101029004225A
:10C8E00038460C3100F0D7F908F10408761C059899
:10C8F000C0F38310B042EAD847B1D4F81054D4F84A
:10C90000180478B1384600F0AFF934E01EE0E8686A
:10C910004079012804D12A68284639461268904790
:10C92000E8680568002DF2D1384600F09DF98DF8D1
:10C9300000B06846FDF7D8FAD4F8180408B9029890
:10C9400060609DF80000FDF7F3FA14E0D4F810449D
:10C9500005E02168204689688847E0680468002C63
:10C96000F7D109480949401AC008022101EB0040EB
:10C9700007A100F017F8FEF75FFB80F00100FEE66C
:10C98000A82E0020A0F1010080F1010038F1010083
:10C990004261636B656E647320666C757368656471
:10C9A0000000000000231A4601F03ABA08B501233E
:10C9B00000926A4601F034FA08BD1CB5CDE90023A7
:10C9C00002236A4601F02CFA1CBD00002DE9F04755
:10C9D0000E4680461C469246082940D894F80C9092
:10C9E000002020731946104601F036F80025B542A4
:10C9F00006D218F805201BA12046FFF751FC03E0E2
:10CA00001AA12046FFF74CFC6D1C082DEFD318A18E
:10CA10002046FFF745FC0025B54212D218F80570F4
:10CA20007E2F08D8FCF7BAFC0068C05D10F03E0FFE
:10CA300001D03A4600E02E220EA12046FFF730FC3E
:10CA400003E00DA12046FFF72BFC6D1C082DE3D35E
:10CA500001222146504600F0E1FF84F80C90BDE829
:10CA6000F0870000202530327800000020202000D0
:10CA70007C00000025630000200000000B4810B57A
:10CA8000FF218160002101604160C0F81814C0F8E6
:10CA9000141480F82014064800F0E4F8002803D1AC
:10CAA000044800F021F9002010BD0000A82E00204D
:10CAB000A0F1010028E9010002480349401AC0081A
:10CAC00070470000A0F1010038F1010013B568467D
:10CAD000FFF728F908B100201CBD0248009950F862
:10CAE00031001CBD38F1010070B509480125D0F8AE
:10CAF000104480F8205407E0E06845712168204622
:10CB000049688847E0680468002CF5D170BD0000D2
:10CB1000A82E00202DE9FF4781460C9D00200C46E1
:10CB20002F7B2873984616462946184600F094FF36
:10CB3000072E42D2DFE806F004090F161F2A36003E
:10CB400049462846FFF7ACFB37E0494628462268AD
:10CB5000FFF7A6FB31E0D4E9002349462846FFF75A
:10CB60009FFB2AE0A0680090D4E9002349462846AC
:10CB7000FFF796FB21E0D4E90201CDE90001D4E9F9
:10CB8000002349462846FFF78BFB16E004F1080016
:10CB900007C88DE80700D4E9002349462846FFF777
:10CBA0007FFB0AE004F108000FC88DE80F00D4E90C
:10CBB000002349462846FFF773FB002229464046DA
:10CBC00000F02CFF2F73BDE8FF872DE9F041058AA7
:10CBD00080462D1F4819C01CB0FBF5F0C6B2404678
:10CBE000FFF753F9041E19D0002020710120607155
:10CBF000E58000272546761EC4F800800BE04046FD
:10CC0000FFF743F960B16179491C617128600546FD
:10CC10007F1CC0F80080B742F1D32046BDE8F08108
:10CC2000204600F002F80020F8E72DE9F0414579B0
:10CC300001466B1E002201E00968521C9A42FBD398
:10CC40000F680146002605E038460C68FFF73FF9FB
:10CC50002146761CAE42F7D3BDE8F0810121001DCC
:10CC6000FFF7F1B8FFF74BB910B504460121001DDD
:10CC7000FFF705F910F0FF0F04D12046BDE8104082
:10CC8000FFF7D3BF10BD1CB501920122009201AA8B
:10CC9000FFF708F81CBD1CB501920022009201AA02
:10CCA000FFF700F81CBD0000064910B500204870D1
:10CCB000091D0860BFF35F8F0349044800F0F8F9CD
:10CCC000002010BDA0250020C0E70100042D002099
:10CCD00010B500F0C9F908B141DF10BD20BF40BF59
:10CCE00020BF10BDFCF7A6BF82680021916082685A
:10CCF0001161826851618268D16082685160806888
:10CD00000160704720B10349096801600020704745
:10CD10000E207047ACE901002DE9FE4307460E46A0
:10CD20000846FFF7EFFF002878D100250095019510
:10CD300006208DF800704FF00108ADF80400029550
:10CD40008DF8028069462020326869DF3449354A0F
:10CD5000891AC908012202EB014430B100F0ECF954
:10CD6000024620463049FFF721FE009501950295C5
:10CD70008DF8018069464020326869DF30B100F0EB
:10CD8000DBF9024620462949FFF710FE00958DF891
:10CD90000070F720ADF80200019502956946232046
:10CDA000326869DF30B100F0C7F9024620462049F9
:10CDB000FFF7FCFD0095019502958DF8008069460E
:10CDC0000120326869DF30B100F0B6F90246204632
:10CDD0001849FFF7EBFD4FF4B06000900195029504
:10CDE0006946A120326869DF30B100F0A5F902463A
:10CDF00020461149FFF7DAFD0095019502958DF85F
:10CE000000506946A020326869DF30B100F094F923
:10CE1000024620460949FFF7C9FD0020BDE8FE8310
:10CE200090F1010038F10100A8EF0100F0EF0100DE
:10CE30003CF0010008EF010054EF0100B4EE0100E6
:10CE40002DE9F0410546076860DF804619491A4818
:10CE50002A68081AC608BA4219D9022000EB06440B
:10CE600016A12046FFF79EFD20463A461FA12B68DB
:10CE7000FFF7A3FD4FF08050D0F80C012968800225
:10CE800000F10050421A204625A1FFF78FFDB8F1AE
:10CE900000004FF001040AD000F04EF9024604EB06
:10CEA00006402AA1FFF782FD4046BDE8F0812F48E9
:10CEB0000470F9E790F1010038F10100496E7375D3
:10CEC0006666696369656E742052414D20616C6CC1
:10CED0006F636174656420666F72207468652053A7
:10CEE0006F66744465766963652E00004368616E01
:10CEF0006765207468652052414D207374617274B7
:10CF0000206C6F636174696F6E2066726F6D203084
:10CF100078257820746F20307825782E0000000066
:10CF20004D6178696D756D2052414D2073697A6548
:10CF300020666F72206170706C69636174696F6ED6
:10CF400020697320307825782E00000073645F62BA
:10CF50006C655F656E61626C652829207265747509
:10CF6000726E65642025732E000000000B260020E1
:10CF700030B51548ADF5017D0078002821D04FF47B
:10CF8000FA7500BFADF8005280A9684661DF38B17C
:10CF9000052816D00DF5017DBDE83040FCF74ABEEE
:10CFA0006C460A497DA800F083F806E0D0E900212C
:10CFB000204690477DA800F092F87F980028E1D0A5
:10CFC000F4E70DF5017D30BD0B260020B0E901002E
:10CFD0007CB5194C207808B108207CBD0120A070D8
:10CFE000002000F017FE112819D0002000F02AFEC2
:10CFF00012480026006801908DF800606846FCF732
:10D0000073FF0F4901A810DF05000AD0002020702F
:10D010009DF80000FCF78CFF2DB128467CBD002058
:10D020007CBD0120F3E7A670667000F0CDFE012004
:10D0300000F008FEF3E700000826002044E90100A4
:10D04000B19B01000EB50749684600F031F805E0D4
:10D05000D0E900108847684600F041F8029800289F
:10D06000F6D10EBD60E9010001480078704700006C
:10D07000082600201FB568464BDF30B1052814D0C4
:10D0800004B0BDE81040FCF7D5BD084901A800F088
:10D090000FF806E0D0E900210098904701A800F0C1
:10D0A0001EF803980028E6D0F4E71FBDCCE9010084
:10D0B000016009684160AFF3008010B5D0E900213C
:10D0C0005368994201D1002104E0D1E90034A34220
:10D0D00002D01946816010BD08314160F0E78168D7
:10D0E00000290BD0026892680A44826041684B684C
:10D0F0009A4203D108314160FFF7DFBF704700005B
:10D100000C4A10B502F594730EE0991AC91001EBA0
:10D11000D171491002EBC1010C68844201D90B4660
:10D1200002E005D201F108029A42EED3002010BDC0
:10D13000486810BDE0E7010000B5FFF7E1FF0028F7
:10D1400000D1014800BD0000CCE701004058002894
:10D1500000D00120704708B500224250405800908E
:10D1600008BDD0F80403084000D0012070474058A3
:10D17000002800D00120704708B5002242504058D6
:10D18000009008BD08480068012110F0010F06D189
:10D190004FF0E020C02280F80024C0F800110349BD
:10D1A000012008607047000000E100E01805004021
:10D1B0000649024600200B790BB1852070470A60B2
:10D1C00001220A7100224A71704700006025002088
:10D1D00004490120086004480168C1F300410029A6
:10D1E000FAD170470C00004018040040002802D01B
:10D1F000014980010847704771E701000121B1EB47
:10D20000507F01D1012070470020704738B50D468E
:10D2100000F06EFC040014D000208DF80000684679
:10D22000FCF762FE207928B19DF80000FCF780FE33
:10D23000112038BD0120256020719DF80000FCF709
:10D2400077FE002038BD00000149024800F0DCBF35
:10D250007C2B0020002000402DE9F041054600799C
:10D2600016460F4600EB40012C4A01EBC00102EBD1
:10D27000810494F82A1011B10820BDE8F0812849F2
:10D2800051F820102868FFF7C1FF08B11120F4E71A
:10D2900039462846FCF766FE666038692060300033
:10D2A0004FF001062DD03F7F4FF48E712868FFF7B5
:10D2B00052FF4FF4A2712868FFF74DFF2868194903
:10D2C000C0F8041328684FEA471140F307300028DC
:10D2D00006DA00F00F0000F1E02080F8141D03E0F2
:10D2E00000F1E02080F80014286840F3073000F0D7
:10D2F0001F0106FA01F14009800000F1E020C0F8AA
:10D30000001128680421C0F800150020A061E06128
:10D3100084F8290044F8140FA675AEE77C2B002092
:10D3200068E70100800002002DE9F05F0546007902
:10D330004FF4017600EB400303EBC000344B03EBEA
:10D3400080040020636813B12B68C3F80863A369E5
:10D350004FF000096BB1E06938B1606810B128681E
:10D36000C0F804631120BDE8F09FE2610120216153
:10D3700005E0C4F82490A261E160C4F81C9094F820
:10D380002910014302D1284600F00BFC60680028F8
:10D39000286803D0C0F804630020E4E74FF4A276C5
:10D3A0003146FFF7D8FEB2464FF4927B59462868C3
:10D3B000FFF7CCFE06464FF484712868FFF7C6FEDF
:10D3C000804651462868FFF7C1FE074648EA070035
:10D3D0003043EBD056EA070007D12146286800F019
:10D3E000B1FBA169606A8142E0D8C4F818900EB11F
:10D3F0000320B8E70FB10F20B5E794F829100120FA
:10D400000029296801D00860C6E74860C4E7000029
:10D410007C2B00202DE9F047054600790B4600EBF8
:10D42000400101EBC000234901EB8004284600F0D5
:10D4300043F810B11120BDE8F0874FF00008C4F8A0
:10D440002080A360626184F828804FF48E7647467E
:10D4500031462868FFF77FFE28684FF00109C0F8C1
:10D4600008902146286800F00DFE606800BBD5F8E2
:10D4700000A00EE094F8280008B10F2716E031460E
:10D480005046FFF763FE0028F4D02146504600F0D6
:10D49000F9FD216A60698142F1D331462868FFF7BE
:10D4A00055FE0028F9D02868C0F80C90C4F8148004
:10D4B0003846C0E77C2B0020007900EB400101EBEF
:10D4C000C000044901EB80004069002800D0012021
:10D4D000704700007C2B00200149024800F040BF4B
:10D4E000A82B0020002000402DE9F04105461646FB
:10D4F00000790F46154A00EBC00102EB810494F855
:10D50000201011B10820BDE8F081114951F8201018
:10D510002868FFF77BFE08B11120F4E7394628465A
:10D52000FCF764FD6660386920601EB1397F2846CB
:10D53000FEF7CCF828680821C0F800150020A0618B
:10D54000E0616061012184F82010DCE7A82B002055
:10D550006CE701002DE9F05F044600790E4600EB10
:10D56000C001DFF8F0A017460AEB81053046FFF74F
:10D5700045FEB0B168684FF000084FF4047910B16F
:10D580002168C1F80893A8694FF0000B80B1E869E1
:10D5900048B1686810B12068C0F804931120BDE854
:10D5A000F09F1020FBE7EF614FF001082E6102E0D1
:10D5B000EE60C5E9067B00254FF488712068FFF70F
:10D5C000DBFD4FF4A2712068FFF7D6FD2068C0F89C
:10D5D0003465C0F838752068B8F1000F12D0D0F863
:10D5E000001241F02001C0F800122079D04600EB73
:10D5F000C0010AEB8100406838B12068C0F804938C
:10D600002846CCE701210160EFE74FF4887A4FF418
:10D61000A27951462068FFF7AAFD074649462068CF
:10D62000FFF7A5FD06464FF492712068FFF79FFDB6
:10D63000014647EA06000843EBD0227902EBC20319
:10D6400008EB8302C2F818B001B10325002ED7D031
:10D650000F25D5E7A82B00202DE9F04704460E46FC
:10D660000079204900EBC00001EB800517463046E9
:10D67000FFF7C4FD30B1204600F036F820B111208C
:10D68000BDE8F0871020FBE76F61AE604FF4907645
:10D69000002731462068FFF76FFD4FF4AC78414614
:10D6A0002068FFF769FD2068AA686969C0F8442509
:10D6B000C0F84815206801218160686878B9B146D2
:10D6C00049462068FFF753FD064641462068FFF7AC
:10D6D0004EFD0643F4D000B10F27002068613846A4
:10D6E000CEE70000A82B00200079054900EBC00020
:10D6F00001EB80004069002800D001207047000045
:10D70000A82B00202DE9F04105460078002828D1FB
:10D71000154816490026401AC008012101EB0047B0
:10D7200010E02869805DFCF7B5FB040009D0112CDE
:10D73000F7D0384622460EA1FFF738F92046FCF70D
:10D7400079FA761CA88AB042EBD8A98A28690844DD
:10D7500010F8010C0D2804D10A20FCF79BFB1128BE
:10D76000FAD0BDE8F081000080F1010038F101003D
:10D770004661696C656420726563656976696E6788
:10D78000204E5553206D6573736167652E20457279
:10D79000726F7220307825782E20000010B550B1BD
:10D7A00003280CD10220FDF7F3FA002807D0BDE8CA
:10D7B0001040FCF73FBABDE8104000F0E5BA10BDDC
:10D7C0000078002807D104483B21408876DF0028F4
:10D7D00001D0FCF72FBA704708250020F0B58BB0B8
:10D7E000002601960D4604468988406901AAFCF787
:10D7F00041FC0AA8CDE908600227ADF82070ADF819
:10D800002260218AA88808AAADDF002819D1A06962
:10D81000002816D00998FDF7E1F9002811D0019EE3
:10D820000EB101203070182102A8FBF7D4FD8DF84D
:10D8300008700394A888ADF810000596A16902A8A5
:10D8400088470BB0F0BD000070B502468888C97BE0
:10D8500000EB400302EB4304A41D012901D1118810
:10D86000218021886288914213D9A5DF012578B1F2
:10D8700011280FD0FFF760FC024607480749401AFD
:10D88000C00805EB0040BDE8704005A1FFF78EB869
:10D89000657170BD257170BD38F1010038F101006E
:10D8A00073645F626C655F67617474635F657863FE
:10D8B00068616E67655F6D74755F726571756573BC
:10D8C0007428292072657475726E65642025732E24
:10D8D000000000007CB506468D88C88805EB450130
:10D8E00006EB4104A41D172800D21720218881428D
:10D8F00000D8084660800020207121882846B5DFC6
:10D9000060B1FFF719FC02460F481049401AC008E1
:10D91000012101EB00400EA1FFF748F860790028D3
:10D9200010D1F06800280DD01549D1E90201CDE9E8
:10D930000001ADF802506088ADF80400F268694655
:10D94000304690477CBD000038F1010038F10100FD
:10D9500073645F626C655F67617474735F6578633D
:10D9600068616E67655F6D74755F7265706C79284C
:10D97000292072657475726E65642025732E00000F
:10D9800044E70100F0B587B00C4605468E1D898836
:10D99000406906AAFCF76EFB18216846FBF71BFDE1
:10D9A0000195A088069AADF80800039231882B896A
:10D9B000002704F11200994202D17389022B0DD085
:10D9C000AA8991421ED1A96900291BD08DF8007047
:10D9D00004907089ADF81400A96911E0002A11D0F3
:10D9E000FDF7FCF820B1069901200870022002E042
:10D9F0000698077003208DF80000A969002901D05E
:10DA00006846884707B0F0BD0068012803D00228A7
:10DA100001D00020704701207047000010B50C466F
:10DA2000017A052908D0407A38B1084808A102686F
:10DA30002046FEF735FC00E01AB106A12046FEF7AD
:10DA40002FFC2046BDE81040FEF737BCE42500203F
:10DA5000257300000D0A000038B5C3880D46044642
:10DA600033B114A0009015A216A12846FEF718FCA9
:10DA7000217A05291CD0607A48B1A088FEF752FEB1
:10DA8000164951F8202016A12846FEF709FCA08867
:10DA90000021FFF71BF803461049207A143951F88A
:10DAA000202001B02846BDE830400EA1FEF7F8BBAB
:10DAB00038BD00001B5B306D000000001B5B313B7C
:10DAC00033316D0025734C6F67732064726F707013
:10DAD0006564202825642925730D0A00E4250020AB
:10DAE000257300003C25733E2025733A200000007A
:10DAF0000349884201D10348704700207047000065
:10DB0000002000406825002070B5012670044FF009
:10DB1000E0210025C1F88001084C4010C4F84803FA
:10DB2000C4F8080366602F20FFF760FBA660044C72
:10DB30002F20A560FFF75AFBA57070BD00100140B3
:10DB40007025002070B5054688690C4600284FF402
:10DB5000847128460AD0FFF7FEFAD5F81805626AE4
:10DB6000E1688854606A401C606270BDFFF7F3FA98
:10DB7000D5F8180570BD1FB501238DF80030CDE92B
:10DB80000121D0E90012684690471FBD1FB501234F
:10DB90008DF80030CDE90121D0E9001268469047A8
:10DBA0001FBD10B5044600684FF49271FFF7D3FA19
:10DBB0004FF484712068FFF7CEFA206801210160DC
:10DBC00010BD000038B50021012548B101280CD056
:10DBD000032809D1FFF7D6FABDE83840FEF7F4BABA
:10DBE0004FF0E020C0F8805138BD8DF80010684635
:10DBF000FCF77AF9064C207808B9FEF7C9FAE06814
:10DC0000401CE060A5709DF80000FCF791F938BD5C
:10DC10000C2B00203EB5044609496846FFF748FA38
:10DC200008E000BFD0E900212046904730B16846A7
:10DC3000FFF755FA02980028F4D13EBD11203EBDF1
:10DC400048E901003EB5044608496846FFF730FA46
:10DC500007E000BFD0E90021204690476846FFF763
:10DC60003EFA02980028F5D13EBD000054E90100BB
:10DC700002498969002900D008477047782A0020A6
:10DC80002DE9F0411400884618D000250E4F0326D8
:10DC900008EB050122460020FBF7FEFC0544241A90
:10DCA00040B93878002809D008494FF47A408847AD
:10DCB000761E05D001203870002CE9D1BDE8F08136
:10DCC00000203870FAE70000AC25002021E90100AF
:10DCD0002DE9F0410746806A14468846C8B30025FE
:10DCE00031E000BFB96A05EB450001EB8006B08862
:10DCF000801CFE2802D90C20BDE8F0812288401C3F
:10DD000008F8020020881622401C80B2208008F803
:10DD100000202088401C80B2208000EB0801308861
:10DD200000F097FB2188084480B22080B28842B17D
:10DD3000B16871B14044FBF735FB2088B1880844D5
:10DD400020806D1CEDB297F82C00A842CAD80020A4
:10DD5000D2E7FFE70720CFE70A78062822F0FF0284
:10DD60000A7010D2DFE800F0030507090B0D002050
:10DD700008E0112006E0212004E0312002E012201A
:10DD800000E022200870704710B50020FDF700F871
:10DD900008B1FBF74FFFFCF781FF08B1FBF74AFF23
:10DDA00033DF002803D0BDE81040FBF743BF10BDB0
:10DDB000002805D10349012048700020FDF716BA5C
:10DDC000704700000C2B002010B51620FBF7B2FEA8
:10DDD000A0B1114890F800044009082811D201218F
:10DDE000814011F0EC0F0CD00C4882684FF4800198
:10DDF0006AB1016841F48001016010BD42F2010086
:10DE000001E042F20200BDE81040FBF713BF4FF003
:10DE1000E020C0F8001110BD16E000E0F82C002052
:10DE20002DE9F84F204D9246894606469846012234
:10DE300069461846AF68FDF79FF858B3009800216F
:10DE40000446801C09E000BF00EA07035AF82120BD
:10DE500005EB8303401C491CDA604145F4D34FEACB
:10DE6000164AFDF7C5FA4AEA0041601C384005EB46
:10DE700080003C4005EB8402C160D06866F3C500B9
:10DE800068F3891069F39F2020F00300401C20F004
:10DE90000400D06095F8200402E000BFFEF768FCA3
:10DEA0000028FBD1BDE8F88FA82E00202DE9F84FFF
:10DEB0001D4C00256846D4E901A6FDF7A3FA00270A
:10DEC00038B30023009A61681CE0D1F800C008460E
:10DED000944503D9ACEB02020A6015E0A2EB0C02F8
:10DEE00063440760D0F80CC0C1698146BCF1000FE3
:10DEF00008D006EB030828F07F48C0E9018CC9F878
:10DF00001C5005460029E0D128466160FDF778FCE9
:10DF100003E02846FDF774FC10B15046FDF788F980
:10DF2000E770BDE8F88F0000702500200D4B10B59C
:10DF3000596831B102680C68A24204D8A21A0A607A
:10DF4000C161586010BD0B4603E00B46C969121B46
:10DF500021B10C689442F8D3A41A0C600260C1612C
:10DF6000D86110BD702500202DE9F041144E77686E
:10DF70003D462C4603E0844204D02546E469002C4B
:10DF8000F9D11BE0D4B1A5420BD1F869706040B95A
:10DF90000C49012088600021B160F0702F20FFF74C
:10DFA00025F92168E069E86110B102681144016057
:10DFB0007068874202D00120BDE8F0810020FBE7B5
:10DFC00070250020001001407CB5064600240D4657
:10DFD0008DF800406846FBF787FF01A800F0EAFAD9
:10DFE00070B10570094946609DF8040048709DF8BD
:10DFF0000000FBF79DFF1420FBF7F2FA20467CBDE2
:10E0000004249DF80000FBF793FFF7E7CC2B0020DA
:10E010002DE9F041194D6C68002C2CD018480027D0
:10E020000068A968B846401A20F07F462068B042D0
:10E030000CD82146361A0744E469087C20B181F8DF
:10E040001080886949698847002CEFD12978687861
:10E05000814206D1401CC0B26870022801D185F807
:10E060000180064869780C3040F82170BDE8F04125
:10E070001420FBF7B5BABDE8F08100007025002040
:10E080000415014070B50C4605464FF48E71FFF73C
:10E0900062F8216AA068415C206A401C2062C5F8D1
:10E0A0001C1570BD1FB500228DF8002002918168FB
:10E0B00001914261D0E90012684690471FBD0000FF
:10E0C00038B5017841B1012901D002292FD140682A
:10E0D000BDE83840FBF7AEBD164C154D20782844FE
:10E0E000FBF76CFE2078401CC0B22918207011F894
:10E0F000011C0A2904D00D2902D0A188884216D318
:10E10000012812D92078ADF800000A4863886A46D1
:10E1100007490C30FCF78CFC082806D01328F1D0F6
:10E12000052802D008B1FBF785FD0020207038BD1E
:10E1300010260020082500207CB50178244D81B3ED
:10E1400001290BD002292BD18DF80010C068691C61
:10E1500001900122C81DFEF783F82EE04068017887
:10E160001C48FBF78DFD1B4C012618B18DF8006093
:10E17000019006E0A068E168814205D000208DF89A
:10E180000000696868468847A068E168081AA188A5
:10E19000884207D80E490122491CC81DFEF760F8C5
:10E1A0007CBD01E0AE70FBE70A4809491030FBF77F
:10E1B0004CFD30B103208DF800006968684688473F
:10E1C000EEE70349012201F10800FEF759F8E7E7FD
:10E1D00084250020D82C00201FB50A4601788DF830
:10E1E000001041680191017A8DF80810C068039011
:10E1F000044850F82210001F50F82220684690472B
:10E200001FBD00005C2500202DE9FF470C46054698
:10E210004FF40071FEF7A5FF01274FF401780026A7
:10E2200018B34FF4927949462846FEF78FFFE0B1C4
:10E2300049462846FEF78FFFC5F8088394F8290061
:10E2400000B96F6002208DF80000D5F88004C5F891
:10E2500080040390A0690290E0680190A661E661E5
:10E26000D4E900126846904728E004212846FEF7CA
:10E2700078FF18B34FF484712846FEF767FFE8B1C2
:10E2800021462846FFF75EFC616AA069884215D1E5
:10E29000E06938B1E268616AA0612069E66166629E
:10E2A000E06008E094F8290000B96F60C5F80883C1
:10E2B000A661E268616A2046FFF75DFC4FF48E7844
:10E2C00041462846FEF742FF78B1206A61698842DC
:10E2D00002D294F8280020B341462846FEF73BFFBF
:10E2E000616911B12046FFF7DDFE4FF4A278414687
:10E2F0002846FEF72BFF002818D041462846FEF797
:10E300002AFF94F8290000B12F60A06900280DD0E1
:10E31000A661E268616A04B02046BDE8F047FFF7F5
:10E320002ABC21462846FFF7ADFEDEE7BDE8FF87A1
:10E330001FB50A4601788DF8001041680191017AF5
:10E340008DF80810C0680390044850F82210001F90
:10E3500050F82220684690471FBD00005C25002031
:10E360002DE9FF410C464FF4927706463946FEF7F9
:10E37000FEFE0025B8B139463046FEF7FDFE02200C
:10E380008DF80000D6F88004C6F880040390D6F813
:10E390003C050290E0680190A561E561D4E90012B6
:10E3A0006846904723E04FF4887739463046FEF7B9
:10E3B000DEFEE0B139463046FEF7DEFED6F83C150B
:10E3C000A069884213D1E06960B1E268D6F8000222
:10E3D00020F02000C6F80002E069A0612069E56134
:10E3E000E06001E0A561E2682046FFF7CFFB4FF453
:10E3F000A27739463046FEF7BAFE68B13946304654
:10E40000FEF7BAFEA06938B1A561E561D6F83C1502
:10E410002046E268FFF7BAFB4FF490773946304662
:10E42000FEF7A5FE002812D039463046FEF7A4FEBE
:10E43000606900280BD0D6F84C058DF8005002908A
:10E44000A06801906561D4E9001268469047BDE874
:10E45000FF810870000A4870022070472DE9F05FC4
:10E460008346DDE90A4A994690460D46084601274B
:10E4700003E000BFB0FBF8F07F1C4045FAD2B9457D
:10E4800000D94F465FEACA7012D18CB15FEA8A7038
:10E4900002D5B9F1000F01D0202607E0302605E0B3
:10E4A00031465846641EFCF7AFFD0CB1A742F7D3C6
:10E4B0005FF00106B9F1010F02D9A9F1010903E0EA
:10E4C000B5FBF6F0404502D306FB08F6F2E7DFF8AD
:10E4D0003C9000BFB5FBF6F000FB165519F8001094
:10E4E0005846FCF791FDB6FBF8F6002EF2D15FEA34
:10E4F000CA7009D0002C07D0A74205D22021584667
:10E50000641EFCF781FDF5E7BDE8F09F98E7010088
:10E51000F8B5054680B2FDF77BF8040013D0154E20
:10E52000207A0027317B88420ED2A8B204F10A017A
:10E5300075DF28B1112806D0BDE8F840FFF798BB79
:10E54000207A401C2072F8BD2772307C38B1A8B206
:10E550003B2176DF18B1082801D0FFF789FB7169EC
:10E560000029F0D08DF80070ADF802506846884759
:10E57000F8BD0000782A0020417939B190F8B21036
:10E5800021B990F8B40008B101207047002070470D
:10E5900030B40446007A00280AD06088002166DF83
:10E5A00028B1112802D0616830BC084701202072D0
:10E5B00030BC70470A494A788B78521CD2B29342D9
:10E5C00000D100220B78934201D1002070470270E5
:10E5D000487800EB400001EBC000001D70470000D0
:10E5E000CC2B00202DE9FC411646DDE90854CDE98D
:10E5F00000541F468046022200F00CF8002807D184
:10E60000CDE900543B4610223146404600F002F866
:10E61000BDE8FC812DE9FC5F0026DDE90C4B994645
:10E6200092468E4680462788354630E0D8F804006A
:10E63000002200EB850069460068019001A864DFB4
:10E64000002830D19DF8000050451FD10EB10021A7
:10E6500000E00221228808441118594522D846B901
:10E66000521C90B2208009F800E02088401C2080D5
:10E670000126218801A801EB0902694664DF002810
:10E6800011D120889DF80010084420806D1CB8F836
:10E690000000A842CADC56B12088C01B401E80B2D0
:10E6A000FF2802D90C20BDE8FC9F09F807000020D4
:10E6B000F9E710B5042817D209B1032400E00024BB
:10E6C000FCF790FA4FF0A04101EB8000D0F8001762
:10E6D00021F44031C0F80017D0F8001741EA044196
:10E6E000C0F80017002010BD062010BD000000007B
:10E6F0000338FDD870470000080000000600000045
:10E7000005000000070000000000000000E0D70145
:10E71000111213140D0E0F10D8290020F829002013
:10E72000242A00200D000300BDAC01000E000300F0
:10E73000BDAC01000F000300BDAC010010000300E0
:10E74000BDAC0100770A000000000000770A00005D
:10E75000000000009ECADC240EE5A9E093F3A3B5F7
:10E760000000406E0000005049D20100D9D40100E1
:10E770000338FDD870470000FFFFFFFFFFFFFFFFDA
:10E78000FFFFFFFFFFFFFFFF000000000000000091
:10E790000000D601060100003031323334353637FF
:10E7A0003839414243444546000000000000000063
:10E7B0000000000000000000000000000000000059
:10E7C000A8E70100C0E7010004000000556E6B6E71
:10E7D0006F776E206572726F7220636F64650000E0
:10E7E00000000000D8ED01000100000084EC0100F1
:10E7F0000200000078EA010003000000F8EC0100CC
:10E80000040000004CED0100050000002CEC0100AC
:10E8100006000000C8EB01000700000034ED010015
:10E820000800000040EC010009000000A4EC010019
:10E830000A000000C0ED01000B00000060EA0100CA
:10E840000C00000058EC01000D00000028EE010053
:10E850000E00000024ED01000F00000060ED01003B
:10E860001000000094ED0100110000003CEE0100DA
:10E870001200000010EE010013000000ACED0100DA
:10E8800080000000E0EB0100810000001CEB0100B3
:10E8900082000000DCEA010083000000BCEA010005
:10E8A00084000000F8EA01008500000004EC01008B
:10E8B000860000000CED010090000000A8EB0100B4
:10E8C000910000009CEA0100920000006CEC010045
:10E8D0000082000074ED010001820000C0EC010024
:10E8E00002820000DCEC01000084000038EB010033
:10E8F00001840000E4ED01000284000080EB0100CF
:10E90000038400005CEB010045C6010043C6010022
:10E910003DC60100000000000000000000000000F3
:10E920000338FDD870470000102E00207F00000043
:10E93000902E0020000000000000000000000000F9
:10E94000000000000100000734E9010044E9010073
:10E95000080000006CE901007CE9010008000000EB
:10E960007CE901008CE901000800000014F20100BC
:10E970001CF20100000000000000000004F2010091
:10E9800014F201000000000000000000B4F10100DA
:10E99000BCF10100BCF10100DCF10100DCF101007F
:10E9A000ECF10100ECF10100F4F101000025002080
:10E9B0008CE90100ACE9010008000000F4F101005D
:10E9C000FCF10100FCF1010004F20100BCE90100CE
:10E9D000CCE90100080000000040404040404040B9
:10E9E0004040414141414140404040404040404022
:10E9F00040404040404040404005020202020202C6
:10EA00000202020202020202022020202020202014
:10EA10002020200202020202020290909090909028
:10EA200010101010101010101010101010101010E6
:10EA3000101010100202020202028888888888885A
:10EA40000808080808080808080808080808080846
:10EA5000080808080202020240000000D9E901008B
:10EA60004E52465F4552524F525F494E56414C49B5
:10EA7000445F4441544100004E52465F4552524F5C
:10EA8000525F534F46544445564943455F4E4F5499
:10EA90005F454E41424C4544000000004E52465FE7
:10EAA0004552524F525F464541545552455F4E4F75
:10EAB000545F454E41424C45440000004E52465F73
:10EAC0004552524F525F4D555445585F554E4C4F2D
:10EAD000434B5F4641494C45440000004E52465F5F
