:020000022000DC
:1070000000000420757302005D7302005F730200CC
:1070100061730200637302006573020000000000E8
:107020000000000000000000000000006773020084
:1070300069730200000000006B7302006D730200B0
:1070400029B902006F73020091B902006F73020048
:107050006F7302006F7302006F73020049BA02007F
:107060006F730200BDBD02006F7302006F730200F8
:107070006F7302006F7302006F7302006F73020080
:107080006F730200D99102006F7302006F730200E8
:10709000199202006F730200150103006F73020062
:1070A0006F7302006F730200D5BD02006F730200A0
:1070B0006F7302006F730200000000000000000008
:1070C0006F7302006F7302006F7302006F73020030
:1070D0006F7302006F7302006F7302006F73020020
:1070E0006F7302006F7302006F73020000000000F4
:1070F000000000006F730200000000006F730200C8
:10710000000000000000000000000000000000007F
:10711000000000000000000000000000000000006F
:10712000000000000000000000000000000000005F
:10713000000000000000000000000000000000004F
:10714000000000000000000000000000000000003F
:10715000000000000000000000000000000000002F
:10716000000000000000000000000000000000001F
:10717000000000000000000000000000000000000F
:1071800000000000000000000000000000000000FF
:1071900000000000000000000000000000000000EF
:1071A00000000000000000000000000000000000DF
:1071B00000000000000000000000000000000000CF
:1071C00000000000000000000000000000000000BF
:1071D00000000000000000000000000000000000AF
:1071E000000000000000000000000000000000009F
:1071F000000000000000000000000000000000008F
:10720000354936480A1A02D0072291438D4634493F
:1072100034480A1A06D00722914381F309880222D2
:1072200082F3148830483149314A00F044F831483B
:107230003149324A00F03FF831483249324A00F0D1
:107240003AF832483249334A00F035F83248334987
:10725000334A00F030F833483349344A00F02BF811
:1072600033483449344A00F026F83448344900227F
:1072700000F02CF833483449002200F027F8334856
:107280003349091A082902DB002202604160314AB1
:1072900090471F481F49884205D00268043003B454
:1072A000904703BCF7E700208646EC46002000210B
:1072B000294A9047FEE7884207D0521A05D0037842
:1072C00001300B700131013AF9D17047884202D088
:1072D00002700130FAE770470000042000E003204C
:1072E000000004200000042038390300FC2A00209C
:1072F000802B0020D0730200D0730200A01903007D
:1073000038390300FC2A0020FC2A0020D81A030088
:10731000D81A0300D81A0300D81A0300D81A030099
:10732000D81A0300D81A0300D81A0300383903000A
:10733000BC390300802B0020802B0020802B0020F4
:107340004C3C00204C3C0020503C0020503C002095
:10735000505C00209D73020021C90200FEE7FEE799
:10736000FEE7FEE7FEE7FEE7FEE7FEE7FEE7FEE7F5
:1073700000F002B8FFF7FCBF0F484FF00701884349
:1073800085460E4880470E48016841F4700101604F
:10739000BFF34F8FBFF36F8FFFF732BF09480A4922
:1073A0000A4A884207D0521A05D0037801300B7080
:1073B0000131013AF9D1704700000420E1AF020029
:1073C00088ED00E0C41A0300E82A0020FC2A00200F
:1073D00000487047443C002000B585B00190019BF7
:1073E000002B0AD0074B43F001030393019B9B0141
:1073F0000293039B0298984700E000BF05B05DF838
:1074000004FB00BFF01A030000B583B00190019B9C
:10741000002B0AD04FF47A70FFF7DEFF019B013B8F
:107420000193019B002BF5D100E000BF03B05DF894
:1074300004FB08B505F0F2FC00BF08BD00B589B03B
:10744000039002910192019B002B33D000230793FC
:1074500003230693029A079B1344019A19460020BE
:1074600005F08CFC0590079A059B13440793019A3D
:10747000059BD31A0193059B002B13D10F4B1B784F
:1074800083F00103DBB2002B13D10120FFF7BCFF17
:10749000069B013B0693069B002B03D1074B002262
:1074A0001A7007E0054B01221A70019B002BD1D105
:1074B00000E000BF00BF09B05DF804FB802B002096
:1074C00000B585B003900291054B00934023054A17
:1074D0000299039800F012F800BF05B05DF804FBB4
:1074E0003D740200842B002082B0019000BF02B0E6
:1074F000704782B0019000BF02B0704700B5A1B0E4
:107500000590049103920293049802F0C7FF039B35
:107510001593029B16930023179300238DF8603078
:1075200000231993229B1A9300231F930FA91F9BDB
:107530000822049803F08CF808231F93119B1293E0
:10754000BDF84030ADF84C30BDF84230ADF84E30AB
:1075500000238DF851309DF83C3003F00303DBB27B
:10756000012B26D10F9BC3F395231C939DF83C3030
:10757000C3F3C203DBB28DF85030BDF83C30C3F327
:107580008313DBB21B931B9B9A0009A91F9B0498D2
:1075900003F05EF81B9B9B001F9A13441F9312AAD3
:1075A00009A915AB009313461B9A1C9800F0ECFE3A
:1075B0002FE09DF83C3003F00303DBB2022B28D10F
:1075C000BDF83E30C3F389139BB21E939DF83C3047
:1075D000C3F3C203DBB28DF850301E9B082B28BFCB
:1075E00008231D9307A91F9B1D9A049803F030F8E8
:1075F0001F9A1D9B13441F931E9A1D9BD31A1E9303
:1076000015AB12AA07A81D9900F060FF1E9B002B66
:10761000E3D1049802F051FF00BF21B05DF804FBF4
:1076200082B00190019BDB6801225A7100BF02B059
:107630007047000000B583B04FF0FF330193FFF7B0
:10764000F8FE0421084800F0B9FD0190019B002BD1
:1076500003DA0649412004F079FD0348FFF7E0FF13
:1076600000BF03B05DF804FBB41A0300081B03005D
:1076700000B583B001900091019B1B681B680099C5
:107680000198984700BF03B05DF804FB00B583B0D4
:107690000190019B1B685B680198984700BF03B08D
:1076A0005DF804FB00B583B00190019B1B689B68EB
:1076B0000198984700BF03B05DF804FB82B00190C9
:1076C0000B468DF80330019BDB689DF803201A718F
:1076D00000BF02B0704782B00190019BDB681B794C
:1076E000184602B0704782B00190019BDB6801220E
:1076F0005A7100BF02B0704782B00190019BDB68F5
:107700005B79184602B0704700B585B001900091D2
:10771000154BFF229A60144B00221A60124B002274
:107720005A60114B0022C3F818240F4B0022C3F8F3
:1077300014240D4B002283F820240C4802F012FE82
:107740000390039B002B01D0039B08E0084803F043
:107750003DF8084A084BD31ADB0802930023184669
:1077600005B05DF804FB00BF2C2D0020181A0300A3
:10777000501B0300B41A03002C1A0300024A034BE7
:10778000D31ADB0818467047B41A03002C1A0300FA
:1077900000B587B001900B468DF803309DF803309B
:1077A000002B1FD0FFF7EAFF04900023059313E09E
:1077B000059B9B000E4A13440393039B1B881A46A8
:1077C000019B1B689A4204D1019B059A1A60002311
:1077D00009E0059B01330593059A049B9A42E7D380
:1077E000052300E00023184607B05DF804FB00BF46
:1077F000FC2A002000B585B001900B468DF80330BF
:107800009DF8032001AB11461846FFF7C1FF034660
:10781000002B07D1019BDB00054A13440393039B14
:107820001B6800E00023184605B05DF804FB00BFAC
:107830002C1A030084B001900B468DF80330019B95
:10784000DB00174A134402939DF80330013B032BDE
:107850001CD801A252F823F0697802007178020066
:10786000797802008378020002238DF80F3011E04E
:1078700004238DF80F300DE0029B1B798DF80F303B
:1078800008E0029B5B798DF80F3003E000238DF850
:107890000F3000BF9DF80F30184604B0704700BF8E
:1078A0002C1A030084B00190009100238DF80F3052
:1078B000019B1B7803F00403DBB2002B24D0019B57
:1078C0001B78C3F30103DBB2012B02D0022B0CD0D7
:1078D00017E0009B1B68019A1288C2F38312D2B290
:1078E00013449A1C009B1A600BE0009B1B68019AD2
:1078F0005288C2F3891292B213449A1C009B1A60F8
:1079000000BF01238DF80F309DF80F30184604B0EA
:107910007047000000B58BB00023ADF826303E481C
:1079200002F033F83D4802F030F83D4B5B680493B9
:107930003B4B9B680693049A069B134002339B00C3
:10794000374A13440433089304AB19460898FFF7E9
:10795000A9FF0346002B09D0049A069B134002336B
:107960009B002F4A134404330893EDE700BF002324
:10797000079311E0049B5A1C0492069A1340079A3D
:10798000920001A90A44264902339B000B445B681C
:107990001360079B01330793079B012BEAD99DF8DE
:1079A0000430C3F30103DBB2012B10D0022B1CD136
:1079B000BDF80A30ADF82630BDF80630C3F38913A0
:1079C0009BB203339A08049B1344049313E0BDF85D
:1079D0000A30ADF82630BDF80430C3F38313DBB2B0
:1079E0001A46049B1344049305E00E494FF4BF70FC
:1079F00004F0ACFB00BF094801F0D3FF0590059BE4
:107A0000002B02D0049B064A5360BDF8263018466E
:107A10000BB05DF804FB00BF443100204031002072
:107A20002C2D0020601B030000B585B00021074805
:107A300001F0F8FE0390039B0293029B83F3100373
:107A40000193019B184605B05DF804FB4831002006
:107A500000B589B00390029101920093039B1B0C27
:107A60000793FFF7E1FF0690FFF788FE0246079BAA
:107A7000934204D3214940F2A31004F067FB069B14
:107A80001904009B5A1C0A9B1340079A0A431C497D
:107A900002339B000B445A60009A0A9B1340023346
:107AA0009B00174A134404330593039B03F0070319
:107AB000D9B2059A137861F3C5031370019B03F0E3
:107AC0000F03D9B2059A138861F389131380029BBF
:107AD000C3F31501059A136861F39F231360059A98
:107AE0001378012161F301031370059A13786FF382
:107AF0008203137000BF09B05DF804FB601B030034
:107B00002C2D002000B58DB00390029113468DF806
:107B10000730039B02330A9301238DF8273000239B
:107B20008DF81B300DF11B03184601F0ABFC404BE8
:107B30001A68029B1A603E4B9A683D4B59683C4B51
:107B40001B68CB1A134401330B9314E0012139480D
:107B500001F0DFFEFFF7DEFE07900799354801F0E0
:107B6000D8FE334B9A68324B5968314B1B68CB1A9D
:107B7000134401330B930A9A0B9B9A42E6D89DF863
:107B80002730002B48D0002305939DF80730002BA9
:107B900017D09DF81430012262F301038DF81430E0
:107BA0009DF8143043F004038DF81430039B03F068
:107BB0000F03DAB2BDF8143062F38913ADF8143054
:107BC00016E09DF81430022262F301038DF81430A0
:107BD0009DF8143043F004038DF81430039BC3F375
:107BE00009039AB2BDF8163062F38F13ADF8163060
:107BF0000F4B1A680E4B9B68134002339B000C4AD4
:107C0000134404330893059A089B1A60084B1A68BA
:107C10000A9B1344064A13609DF81B30184601F076
:107C200047FC9DF8273018460DB05DF804FB00BFF7
:107C30002C2D00204831002000B58BB00590049118
:107C4000039202931F4B9B68079306AB01221946D0
:107C50000298FFF757FF0346002B24D0069B023300
:107C600009930023089311E0089B9B00039A1A4490
:107C7000099B591C099107990B401268114902335D
:107C80009B000B445A60089B01330893089A029B9F
:107C90009A42E9D3069A079B00931346029A0499E5
:107CA0000598FFF7D5FE074B93F82034002B05D03D
:107CB00000BF00F07BF80346002BFAD100BF0BB0E9
:107CC0005DF804FB2C2D002000B583B001900091DD
:107CD0000023002200990198FFF7AEFF00BF03B018
:107CE0005DF804FB00B587B0039002910192019BFF
:107CF000059305AA012302990398FFF79DFF00BF92
:107D000007B05DF804FB00B587B0039002910192C3
:107D10000093019B0493009B059304AA02230299FC
:107D20000398FFF789FF00BF07B05DF804FB00B5BB
:107D300089B00390029101920093019B0593009BEF
:107D400006930A9B079305AA032302990398FFF75A
:107D500073FF00BF09B05DF804FB00B58BB0039062
:107D6000029101920093019B0593009B06930C9B4B
:107D700007930D9B08930E9B099305AA052302996F
:107D80000398FFF759FF00BF0BB05DF804FB00003C
:107D9000054B5A68044B1B689A420CBF0123002311
:107DA000DBB21846704700BF2C2D002000B599B0FB
:107DB000FFF7EEFF0346002B01D00023BEE19B4BF3
:107DC0000022C3F81824BFF34F8F00BF974B5B68A6
:107DD0000493964B9B681093049A109B13400233B4
:107DE0009B00924A134404331193002317930023FA
:107DF000169300230F9304AB19461198FFF752FD19
:107E00000346002B19D0894BD3F81834002B14D11A
:107E1000864B1A68049B9A4205D8844B1B68834A98
:107E2000536000238AE1049A109B134002339B00A5
:107E30007E4A134404331193DDE70023159311E0C8
:107E4000049B5A1C0492109A1340159A920001A99F
:107E50000A44764902339B000B445B681360159B10
:107E600001331593159B012BEAD99DF8043003F0DB
:107E70000303DBB2022B40F09C80BDF80630C3F355
:107E800089139BB20D93BDF80630C3F389139BB2DF
:107E9000502B28BF50239BB20C930C9BC3F30903B8
:107EA0009AB2BDF8063062F38F13ADF806300C9B22
:107EB00008330B939DF80430C3F3C203DBB20F9376
:107EC0000B995B4802F059FA1790179B002B00F0B2
:107ED000D180179802F0E2FA01A9169B08221798A0
:107EE00002F098FB169B08331693049BDA43109B11
:107EF000134001339B000A930C9A0A9B9A4242D981
:107F00000A9B002B08D0049A109B134002339B005D
:107F1000464A1344043300E0464B08930A9B002B67
:107F200002D00A9BDBB201E00C9BDBB28DF81F3064
:107F30000A9B002B01D03F4B00E0002306930A9BD5
:107F4000002B06D00C9BDAB20A9BDBB2D31ADBB251
:107F500000E000238DF817309DF81F20169B08992C
:107F6000179802F057FB9DF81F30169A134416938A
:107F7000069B002B16D09DF81720169B0699179884
:107F800002F048FB0EE0049A109B134002339B0062
:107F9000264A134404330993169B0C9A099917989F
:107FA00002F038FB0D9B03339A08049B134404939F
:107FB00060E09DF8043003F00303DBB2012B59D1DC
:107FC000BDF80430C3F38313DBB2062B28BF0623AE
:107FD000DAB2BDF8043062F38913ADF80430BDF8AD
:107FE0000430C3F38313DBB202330E939DF80430E5
:107FF000C3F3C203DBB20F930E9B9B0019460C48E0
:1080000002F0BBF91790179B002B33D0179802F0A2
:1080100045FA01A9169B0822179802F0FBFA169B55
:1080200008331693002315931BE000BF2C2D00206E
:10803000181A0300382D0020049B5A1C0492109A31
:10804000134002339B003F4A1344191D169B042220
:10805000179802F0DFFA169B04331693159B013331
:108060001593BDF80430C3F38313DBB21A46159B96
:108070009342E1D3179B002B40D0324BD3F81034FE
:108080001493304BD3F81834002B1BD0179802F000
:1080900014FA4DE000238DF84F301498FFF72CFBB5
:1080A0000346002B02D001238DF84F309DF84F304E
:1080B000002B03D017991498FFF7DAFA149BDB68AA
:1080C0001B681493149B002BE4D1179802F0F5F968
:1080D00000238DF803300DF10303184601F0D2F9A7
:1080E000184BD3F81834002B02D1049B154A536067
:1080F0009DF80330184601F0DBF919E0114BD3F875
:108100001034129306E01298FFF7CCFA129BDB684A
:108110001B681293129B002BF5D10B4A0B4BD31A01
:10812000DB081B0443F0020309491846FFF7CCFDA6
:10813000FFF72EFE034683F00103DBB2184619B0A9
:108140005DF804FB2C2D0020641A03002C1A030098
:10815000A01B030000B585B00023039323E0164B5A
:10816000D3F81034029301238DF807300FE0029802
:10817000FFF7B1FA03461A46039B934203D100234B
:108180008DF8073006E0029BDB681B680293029BB8
:10819000002BECD19DF80730002B01D0039B07E0AA
:1081A000039B01330393039B092BD8DD4FF0FF336F
:1081B000184605B05DF804FB2C2D002000B585B0F5
:1081C00001900B468DF80330FFF7C4FF0390039B2B
:1081D000B3F1FF3F01D1039B22E0039BDBB21946C1
:1081E0000198FFF76BFA104BD3F81034002B08D12D
:1081F0000D4A019BC2F81034019BDB6800221A6013
:108200000DE0094BD3F81034DA68019BDB68126883
:108210001A60054BD3F81034DB68019A1A60039B8F
:10822000184605B05DF804FB2C2D002000B583B086
:108230000D4BD3F8103401930B4B012283F820240B
:1082400009E00198FFF74FFA0198FFF71FFA019B29
:10825000DB681B680193019B002BF2D100BF00BFBC
:1082600003B05DF804FB00BF2C2D002082B001900C
:10827000009100BF02B0704710B584B00390029126
:10828000039BDB88002B0AD0039BDB881A461F4B1D
:10829000009313461E4A1F49029801F0BFFC039B3E
:1082A0001B7A052B2ED0039B5B7A002B12D0039BED
:1082B0009B881A46039B1B7A19461046FFF7BAFAA9
:1082C00003461A46144B53F822301A4613490298B3
:1082D00001F0A4FC039B1B6819460298FFF7C6FF38
:1082E000039B1B7A1A460E4B53F82240039B9B8834
:1082F00000211846FFF77EFA0346224609490298F4
:1083000001F08CFC00BF04B010BD00BFD41B030003
:10831000E41B03001C1C0300182B0020341C03006A
:10832000042B0020381C030000B585B00390029197
:1083300013468DF80730039B1B7A052B0FD0039B48
:108340005B7A002B06D00D4B1B681A460C4902982D
:1083500001F064FC0B49029801F060FC07E09DF815
:108360000730002B03D00749029801F057FC029810
:1083700001F032FC00BF05B05DF804FB182B0020B3
:10838000341C0300441C030030B58BB007900691E9
:10839000059204930E9B1B7B8DF827300E9B0022C9
:1083A0001A730E990498FFF767FF059B062B7FD879
:1083B00001A252F823F000BFD5830200DF83020040
:1083C000EF8302000384020021840200498402003A
:1083D0007984020007990E9801F020FC69E0069B61
:1083E0001B681A4607990E9801F018FC61E0069B7D
:1083F0001A68069B04331B6807990E9801F00EFC5F
:1084000057E0069B1A68069B04331968069B0833DD
:108410001B6800930B4607990E9801F0FFFB48E09C
:10842000069B1968069B04331868069B08331B6873
:10843000069A0C3212680192009303460A46079985
:108440000E9801F0EBFB34E0069B1868069B0433A2
:108450001C68069B08331B68069A0C321268069942
:108460001031096802910192009323460246079950
:108470000E9801F0D3FB1CE0069B1C68069B04339E
:108480001D68069B08331B68069A0C321268069911
:108490001031096806981430006803900291019227
:1084A00000932B46224607990E9801F0B7FB00E097
:1084B00000BF00220E990498FFF736FF0E9B9DF82F
:1084C00027201A7300BF0BB030BD00BF00B587B0C6
:1084D0000390029101920093029B082B60D8009BAD
:1084E0001B7B8DF81330009B00221A7300990198B2
:1084F000FFF7C2FE0023059314E0059A029B9A42FF
:1085000009D2039A059B13441B781A462649009802
:1085100001F084FB03E02549009801F07FFB059BF7
:1085200001330593059B072BE7D92149009801F0FA
:1085300075FB0023059326E0059A029B9A421BD205
:10854000039A059B13441B788DF812309DF8123066
:108550007E2B0AD89DF81230184608F0EBF8034637
:10856000002B02D09DF8123000E02E231A4611494C
:10857000009801F053FB03E00F49009801F04EFB17
:10858000059B01330593059B072BD5D90122009943
:108590000198FFF7C9FE009B9DF813201A7300E0B5
:1085A00000BF07B05DF804FB481C0300501C03002B
:1085B000541C0300581C03005C1C030086B003908D
:1085C0000291019201238DF817309DF81730214A4E
:1085D000039B13601F4A029B53601E4A019B9360DA
:1085E000039B44F20102934213D0039B44F2020224
:1085F000934221D1019B174AD360164BDB681B883D
:108600001A46144B9A61134BDB685B68114AD361BD
:1086100012E0019B0F4A13610E4B1B699B680D4AC8
:1086200053610C4B1B691B680A4A9361094B1B6918
:108630005B68084AD36100BF72B600BF00BF9DF8F7
:108640001730DBB2002BFAD162B600BF00BF06B014
:10865000704700BF5031002000B583B002900091F8
:10866000019244F2010071466A4600F003F803B03B
:1086700000BD00BF30B58BB007900691059272B671
:1086800000BFFFF7D3FD00BFFFF790FB0346002BB1
:10869000FAD1079B44F2020293422FD0079B44F287
:1086A0000202934269D8079B44F20102934237D0F9
:1086B000079B44F2010293425FD8079B012B05D030
:1086C000079B41F2010293420CD056E0394A3A4BE3
:1086D000D31ADB081B0443F0010338491846FFF79F
:1086E000F3FA57E0334A344BD31ADB081B0443F048
:1086F000010333491846FFF7E7FA4BE0059B09935E
:108700002C4A2D4BD31ADB081B0443F00100099BB4
:108710005B681A46099B1B882A49FFF7F4FA39E07F
:10872000059B0893234A244BD31ADB081B0443F010
:108730000104089B9D68089B9B68184602F0C0F8DE
:1087400003461846089B5B681946089B1B68069AF7
:1087500002920193009103462A461B492046FFF7E7
:10876000FCFA144A144BD31ADB081B0443F0010330
:1087700016491846FFF7A8FA0CE00E4A0E4BD31A1A
:10878000DB081B0443F00103069A11491846FFF762
:10879000A9FA00BF0F4B1B6803F00103002B00D0A8
:1087A00000BE059A06990798FFF708FF00BF0BB0B7
:1087B00030BD00BF641A03002C1A0300A41C030080
:1087C000C41C0300E81C0300041D03002C1D03004F
:1087D000401D0300F0ED00E082B003468DF8073045
:1087E0009DF8073003F01F0205499DF907305B092A
:1087F000012000FA02F241F8232000BF02B07047C6
:1088000000E100E082B003468DF807309DF80730A4
:1088100003F01F0206499DF907305B09012000FAA9
:1088200002F2203341F8232000BF02B0704700BF9E
:1088300000E100E082B003468DF807309DF8073074
:1088400003F01F0206499DF907305B09012000FA79
:1088500002F2403341F8232000BF02B0704700BF4E
:1088600000E100E082B003468DF807309DF8073044
:1088700003F01F0206499DF907305B09012000FA49
:1088800002F2603341F8232000BF02B0704700BFFE
:1088900000E100E082B0034600918DF807309DF9B9
:1088A0000730002B0CDA009BDAB20C499DF8073038
:1088B00003F00F03043B5201D2B20B441A7609E0D5
:1088C000009BDAB206499DF907305201D2B20B443F
:1088D00083F8002300BF02B0704700BF00ED00E046
:1088E00000E100E000B585B00190019B002B0AD0AB
:1088F000074B43F001030393019B9B010293039BEE
:108900000298984700E000BF05B05DF804FB00BF87
:10891000601D030000B583B00190064A019BC2F8B8
:10892000083506211120FFF7B5FF00BF03B05DF841
:1089300004FB00BF0010014008B50D4B4FF480321E
:10894000C3F844230A4B4FF48032C3F804231120A8
:10895000FFF788FF1120FFF73FFF054B01221A6048
:108960002F20FFF7BFFF034B01221A7000BF08BD85
:10897000001001408E32002008B51120FFF742FFA1
:108980000E4B4FF48032C3F848230C4B4FF4803227
:10899000C3F80823094B01225A602F20FFF7A2FFDA
:1089A000064B01229A60064B00221A602F20FFF727
:1089B00099FF044B00221A7000BF08BD001001404F
:1089C000803200208E320020024BD3F80435184646
:1089D000704700BF0010014082B001900091019AE1
:1089E000009BD31A23F07F43184602B07047000063
:1089F00082B00190034A019BC2F8403500BF02B02B
:108A0000704700BF0010014086B00190284B1B68E2
:108A1000002B03D1264A019B136045E0019B1A6895
:108A2000234B1B681B689A4210D8214B1B6819689E
:108A3000019B1A681E4B1B688A1A1A601C4B1A6825
:108A4000019BDA611A4A019B13602DE0019B1B68B0
:108A50000393174B1B680593154B1B68049309E0A0
:108A6000049B1B68039AD31A0393049B0593049BEE
:108A7000DB690493049B002B04D0049B1B68039ABE
:108A80009A42EDD8049B002B05D0049B1A68039BE7
:108A9000D21A049B1A60019B039A1A60019B049AE4
:108AA000DA61059B019ADA6100BF06B0704700BF2A
:108AB0007C32002000B587B001902A4B1B680393DD
:108AC000284B1B680593059B049308E0049A019BBF
:108AD0009A4208D0049B0593049BDB690493049B92
:108AE000002BF3D100E000BF049B002B01D1002339
:108AF00033E0059A049B9A4214D11A4B1B68DB6938
:108B0000184A1360174B1B68002B0BD1164B012220
:108B10009A60164B00221A60154B01221A702F2002
:108B2000FFF7E0FE049B1B680293049BDA69059B38
:108B3000DA61059BDB690493049B002B05D0049B41
:108B40001A68029B1A44049B1A60064B1B68039A1E
:108B50009A4214BF01230023DBB2184607B05DF828
:108B600004FB00BF7C320020001001408032002056
:108B70008F32002008B51120FFF75CFE00BF08BD52
:108B800008B51420FFF756FE00BF08BD00B583B03E
:108B90000190019B5B69019A92691046984700BF5A
:108BA00003B05DF804FB000000B585B02B4B1B68DB
:108BB000002B4ED000230193FFF706FF0246284BFF
:108BC0001B6819461046FFF707FF0290234B1B68EE
:108BD00003931DE0039B1B68029A9A421CD3039BDC
:108BE0001B68029AD31A0293039B1B68019A1344D1
:108BF0000193039B0093039BDB690393009B1B7C06
:108C0000002B05D0009B00221A740098FFF7BEFFCE
:108C1000039B002BDED100E000BF124B1A78124BF1
:108C20001B789A420CD1104B1B780133DAB20E4BF1
:108C30001A700D4B1B78022B02D10B4B00221A70BD
:108C4000094B1B781946094A019B42F82130FFF76E
:108C500097FF00BF05B05DF804FB00BF7C32002029
:108C6000803200208C3200208D320020843200209F
:108C700082B00190184B1A78184B1B789A4223D077
:108C8000154B1B780133DAB2134B1A70124B1B7859
:108C9000022B02D1104B00221A700F4B1B781A4680
:108CA0000F4B53F82220019B1A60019B1A680D4B51
:108CB0001B6813440B4A13600A4B1B6823F07F4365
:108CC000084A1360012303E0019B00221A6000237D
:108CD000184602B0704700BF8C3200208D32002051
:108CE000843200208032002088B0039002910192EB
:108CF0000023079338E0204B1B680693069B1B68F4
:108D0000039A9A4206D2069B1A68039BD21A069BC4
:108D10001A602EE0069B1B68039AD31A0393069BE6
:108D20001B68079A13440793069B00221A60124B94
:108D30001B680593069BDB690F4A1360069BDB6883
:108D4000002B11D0029A079B134423F07F42069B0D
:108D50005A60069BDA68069B9A60019B1A68069B1C
:108D6000DA61019B059A1A60034B1B68002BC2D184
:108D700000BF00BF08B070477C32002000B589B04A
:108D8000019000238DF81F30664B1B680593AAE005
:108D9000019B002B05D0019B0693069BDB69019389
:108DA00061E0614B1B781A4613465B001344DB00FD
:108DB0005D4A1344043304935B4B1B780133DAB2EE
:108DC000594B1A70584B1A78574B9B789A4202D1DC
:108DD000554B00221A70049B5B680693049B1B781A
:108DE000032B1ED0032B7EDC012B1FD0022B7AD14C
:108DF000049B5B681846FFF75DFE0346002B02D01C
:108E000001238DF81F30069B00221A746BE0454B3E
:108E10001B680393039B00221A74039BDB69414A7E
:108E20001360404B1B68002BF1D15CE000BF069B38
:108E30001B7C002B00D056E0049B9A68069B5A606E
:108E4000049BDA68069B9A60049B1A69069BDA60A9
:108E5000049B5A69069B9A61344B1B78002B02D005
:108E6000069B00225A60069B5A68314B1B68D31A36
:108E700023F07F432F4A93420ED8069B5B682C4A0F
:108E8000126811461846FFF7A7FD0246069B9B682D
:108E90001A44069B1A6017E0254B1A68069B5B680C
:108EA00019461046FFF798FD0290069B9B68029AB0
:108EB0009A4206D2069B9A68029BD21A069B1A60B7
:108EC00002E0069B00221A60069B00225A60069B65
:108ED00000229A60069B01221A74069B0022DA6126
:108EE0000698FFF791FD019B002B7FF451AF0E4BCD
:108EF0001A780D4B5B789A427FF44AAF9DF81F3089
:108F0000002B04D1074B1B68059A9A4201D001231C
:108F100000E0002303F00103DBB2184609B05DF85E
:108F200004FB00BF7C320020703100208F32002013
:108F300080320020FEFF7F0010B588B00190274BE3
:108F40001B68002B44D0254B1B681B680793FFF759
:108F50003BFD0690224B1B68059305990698FFF789
:108F60003BFD0346033304931E4B1B7883F0010340
:108F7000DBB2002B01D0FFF7DFFC049A079B934282
:108F800038BF1346059A13440593059B23F07F438E
:108F900005930598FFF72CFDFFF716FD0390069942
:108FA0000398FFF719FD0346DC1C06990598FFF7A7
:108FB00013FD03469C420DD9FFF706FD03461846F4
:108FC000FFF716FD2F20FFF78DFCFFF7D3FD01E023
:108FD000FFF7D2FC00BF08B010BD00BF7C320020FC
:108FE000803200208E32002000B587B0002301932C
:108FF00000238DF81730194B1B680493184B1B681E
:1090000003936B461846FFF733FE03468DF80B308B
:109010009DF80B30002B08D0009B01AA049918463C
:10902000FFF762FE01238DF81730019B1846FFF70A
:10903000A5FE0346002B02D001238DF817309DF8C2
:109040001730002B02D00398FFF776FF054B002264
:109050001A7000BF07B05DF804FB00BF803200202B
:109060007C3200208F32002082B003468DF807301A
:10907000034A9DF80730537000BF02B0704700BF2D
:109080007031002084B00190144B5B7801338DF86F
:109090000F30124B9B789DF80F209A4202D100238B
:1090A0008DF80F300D4B1B789DF80F209A4201D19F
:1090B00000230FE0019B9DF80F201A70074B5B788F
:1090C0001A4613465B001344DB00044A134404337E
:1090D0000293029B184604B0704700BF7031002015
:1090E00000B589B003900291019200930023079389
:1090F00000238DF816300DF11603184600F0C2F962
:109100000DF117031846FFF7BDFF0690069B002BD5
:1091100002D10423079318E0069B01221A70069BD4
:10912000039A5A60FFF750FC0246069B9A60069B22
:10913000029ADA60069B019A1A61069B009A5A61AC
:109140009DF817301846FFF78FFF9DF81630184628
:1091500000F0AEF9079B002B01D1FFF711FD079B33
:10916000184609B05DF804FB00B587B001900B46C6
:109170008DF803300023059300238DF80E300DF198
:109180000E03184600F07EF90DF10F031846FFF7A5
:1091900079FF0490049B002B02D1042305930BE07C
:1091A000049B9DF803201A70049B019A5A609DF855
:1091B0000F301846FFF758FF9DF80E30184600F0A4
:1091C00077F9059B002B01D1FFF7DAFC059B1846C8
:1091D00007B05DF804FB000008B50E4B0022C3F891
:1091E00040210C4B0022C3F844210A4B0022C3F853
:1091F0004821084B0022C3F84C21064B0022C3F83B
:109200000021044B0022C3F80421FFF7CDFC00BF6E
:1092100008BD00BF0010014008B5FFF7E5FE00BF24
:1092200008BD000008B5FFF7A7FB134B00221A701A
:10923000114B00225A70104B0B229A700F4B0022D8
:109240001A600F4B00221A700E4B00221A70142065
:10925000FFF708FB06211420FFF71CFB1420FFF783
:10926000BBFA0020FFF756FBFFF7AEFB0346064AAA
:1092700013600023184608BD703100207C320020A6
:109280008C3200208D3200208032002086B0039086
:109290000B4601928DF80B30134B9B78002B01D1BC
:1092A00008231EE0019B002B01D1072319E0039B3B
:1092B000002B01D1072314E0039B1B681B7C002BB0
:1092C00001D008230DE0039B1B680593059B00223A
:1092D0001A74059B9DF80B205A74059B019A5A61DC
:1092E0000023184606B070477031002000B587B0E3
:1092F000039002910192039B0593164B9B78002BE0
:1093000001D1082322E0039B002B01D108231DE09B
:10931000029B042B03D9029BB3F1807F01D3072367
:1093200014E0059B5B69002B01D108230EE0059B2F
:109330005B7C012B01D1029B00E000230493019B85
:10934000049A02990598FFF7CBFE0346184607B02A
:109350005DF804FB7031002000B585B00190019BE1
:1093600003930D4B9B78002B01D1082310E0019B48
:10937000002B03D0039B5B69002B01D1082307E07E
:10938000039B00221A7402210398FFF7EDFE0346A7
:10939000184605B05DF804FB7031002082B0EFF391
:1093A00010830093009B019372B600BF019B184687
:1093B00002B0704762B600BF00BF704700B585B00D
:1093C0000190FFF7EBFF0390164B9B68002B1BD11E
:1093D000144B01229A60144BD3F88020134B134096
:1093E000104A1360104B114AC3F880200E4BD3F87B
:1093F00084300C4A53600C4B4FF0FF32C3F884208A
:10940000019B00221A7002E0019B01221A70039B4B
:10941000002B01D1FFF7CEFF0023184605B05DF801
:1094200004FB00BF9032002000E100E0FC06FFBD1D
:1094300000B585B003468DF80730104B9B68002BB4
:1094400016D09DF80730002B12D1FFF7A7FF03902D
:109450000B4A0A4B1B681360094A084B5B68536050
:10946000064B00229A60039B002B01D1FFF7A2FF5D
:109470000023184605B05DF804FB00BF90320020C1
:1094800000E100E000B583B0019000F02BF8034646
:10949000012B03D00549432002F058FE0198FFF745
:1094A0008DFF00BF03B05DF804FB00BF681D030023
:1094B00000B583B003468DF8073000F013F803467B
:1094C000012B03D00649512002F040FE9DF80730E1
:1094D0001846FFF7ADFF00BF03B05DF804FB00BF07
:1094E000681D030084B0EFF305830193019BC3F370
:1094F00008030393039B002B0DD1EFF31483009318
:10950000009B0293029B03F00103002B0CBF01237D
:109510000023DBB200E00123184604B0704786B098
:1095200001900091019B53E8011F8AB2D88902443F
:109530009889824228BF121A1889824202BFBFF35B
:109540002F8F002307E0C2EA010243E80120002830
:10955000E9D14FF001038DF80F300590029104928C
:10956000029A009B1A609DF80F30DBB2184606B0D5
:10957000704784B00190019951E8013FC3EA034369
:1095800041E80132002AF7D10392029300BF04B0F0
:10959000704786B001900091019B53E8021F1FFAAB
:1095A000A1F2D888824202BFBFF32F8F00230DE0C3
:1095B000D88902449889824228BF121AC1EA02421D
:1095C00043E802200028E8D14FF001038DF80F3066
:1095D000059002910492029A009B1A609DF80F3048
:1095E000DBB2184606B0704784B00190019951E88B
:1095F000023FC3EA234341E80232002AF7D1039233
:10960000029300BF04B0704786B00190019B53E8FD
:10961000021FDA88B1EB314F4FF0000017BF89B25B
:1096200042EA024241EA024204E05968B1EB314F9A
:1096300008BF012043E802210029E8D18DF80F007E
:10964000059104929DF80F30DBB2184606B07047C2
:1096500084B00390029111461A460B46ADF80630CD
:109660001346ADF80430029B002B01D10E231FE0FE
:10967000BDF80630BDF80420B3FBF2F102FB01F2A5
:109680009B1A9BB2002B01D0092311E0039B029A85
:109690001A60039B00225A60039B00229A60039B7E
:1096A000BDF806209A81039BBDF80420DA810023CF
:1096B000184604B0704700B585B001900198FFF7D7
:1096C000A3FF03468DF80F309DF80F30002B01D01B
:1096D000002300E01123184605B05DF804FB00B537
:1096E00085B001900091009B19460198FFF717FF84
:1096F0000346002B07D0019B1B68009A1288134475
:109700000393039B00E00023184605B05DF804FBBB
:1097100000B583B001900091009B1A88009B5B8884
:109720009A4204D10198FFF724FF012300E00023AF
:10973000184603B05DF804FB00B585B001900091B8
:10974000009B19460198FFF724FF0346002B07D022
:10975000019B1B68009A528813440393039B00E00B
:109760000023184605B05DF804FB00B583B00190F6
:109770000091009B1A88009B5B889A4204D1019853
:10978000FFF732FF012300E00023184603B05DF825
:1097900004FB00B585B001900091009B5B099B0024
:1097A000019A1A44009B03F01F03012101FA03F3FD
:1097B0001946104600F065F8039000BF05B05DF84B
:1097C00004FB00B585B001900091009B5B099B00F4
:1097D000019A1A44009B03F01F03012101FA03F3CD
:1097E000DB431946104600F07CF8039000BF05B03B
:1097F0005DF804FB82B001900091009B5B099B0027
:10980000019A13441A68009B03F01F0322FA03F322
:1098100003F00103002B14BF01230023DBB2184621
:1098200002B0704710B487B001900091019B009A7C
:1098300053E8004F104643E8000191F0000FF7D1C4
:10984000059404900391059B184607B05DF8044BFE
:10985000704710B487B001900091019B009A53E8C3
:10986000004F44EA020043E8000191F0000FF6D1F6
:10987000059404900391059B184607B05DF8044BCE
:10988000704710B487B001900091019B009A53E893
:10989000004F44EA020043E8000191F0000FF6D1C6
:1098A000059404900391049B184607B05DF8044B9F
:1098B000704710B487B001900091019B009A53E863
:1098C000004F04EA020043E8000191F0000FF6D1D6
:1098D000059404900391059B184607B05DF8044B6E
:1098E000704710B487B001900091019B009A53E833
:1098F000004F04EA020043E8000191F0000FF6D1A6
:10990000059404900391049B184607B05DF8044B3E
:10991000704710B487B001900091019B009A53E802
:10992000004F04EB020043E8000191F0000FF6D174
:10993000059404900391049B184607B05DF8044B0E
:10994000704710B487B001900091019B009A53E8D2
:10995000004FA4EB020043E8000191F0000FF6D1A4
:10996000059404900391049B184607B05DF8044BDE
:10997000704700B583B0019001210198FFF769FF9E
:109980000346184603B05DF804FB00B583B00190B0
:1099900001210198FFF775FF0346184603B05DF8F3
:1099A00004FB00B583B0019000210198FFF781FF0F
:1099B0000346184603B05DF804FB000000B583B011
:1099C00001900B468DF80330019B002B03D1084911
:1099D000E82002F0BBFB019BDA689DF80330019997
:1099E000098A01FB03F31344184603B05DF804FB36
:1099F000A81D030000B583B001900091019B002BCE
:109A000003D10849F52002F0A1FB009B019AD2681E
:109A10009B1A019A128AB3FBF2F3DBB2184603B029
:109A20005DF804FBA81D030000B585B00190019B03
:109A3000002B01D10E234CE0019B1B68002B03D1AE
:109A40002649FF2002F082FB019B5B68002B04D1BA
:109A500022494FF4807002F079FB019B9B68002B38
:109A600004D11E4940F2011002F070FB019BDB683B
:109A7000002B04D119494FF4817002F067FB019B60
:109A80001B8A002B04D1154940F2031002F05EFB43
:109A9000019B9A68019B5B68D31A8DF80F30019B7C
:109AA0001B68019A52681A6007E0019B1A681368E4
:109AB000591C11609DF80F201A709DF80F305A1E26
:109AC0008DF80F20002BF0D1019B1B6800221A712A
:109AD0000023184605B05DF804FB00BFA81D030075
:109AE00000B585B00190019B002B04D11F494FF4B4
:109AF000927002F02BFB0023039300238DF80A30B1
:109B00000DF10A031846FFF7BDFC019B1B681A689C
:109B1000019B5B689A421FD9019B1B681A68013A36
:109B20001A601B681B7819460198FFF747FF0390DE
:109B3000019B9A68019B1B681B68D31A8DF80B3038
:109B4000019B1B681B799DF80B209A4204D9019B4D
:109B50001B689DF80B201A719DF80A301846FFF714
:109B6000A7FC039B184605B05DF804FBA81D030085
:109B700010B584B001900091019B002B04D11549D0
:109B800040F2471002F0E2FA009B002B04D1114989
:109B90004FF4A47002F0DAFA009B039300238DF8CF
:109BA0000B300DF10B031846FFF76CFC019B1B6893
:109BB0001C68621C1A6003990198FFF71BFF03469B
:109BC00023709DF80B301846FFF772FC00BF04B0FD
:109BD00010BD00BFA81D030000B583B00190019B1C
:109BE000002B03D10C49312002F0B0FA019B9B6895
:109BF000002B0CD0019B5B69019A1069019A1168D6
:109C0000019A92689847019B00229A6000E000BF89
:109C100003B05DF804FB00BFE01D03000EB400B507
:109C200084B00190019B002B03D11849422002F01F
:109C30008DFA019B5B69002B03D11449432002F08C
:109C400085FA019B1B68002B03D11049442002F0C8
:109C50007DFA019B5B68002B03D10C49452002F083
:109C600075FA059B002B0AD00023039306AB0393E0
:109C700003AB1A460599019800F0B0F900E000BF67
:109C800004B05DF804EB03B0704700BFE01D0300B3
:109C900000B583B001900B468DF80330019B1A6824
:109CA000019B9B68581C0199886013449DF8032010
:109CB0001A70019B9A68019B5B689A4202D30198D3
:109CC000FFF78AFF00BF03B05DF804FB00B587B063
:109CD000039002910192009300230593009B03F0EF
:109CE0000103002B24D00BE0029B01330293059B60
:109CF000013305939DF8133019460398FFF7C8FF09
:109D0000029B1B788DF813309DF81330002BEBD19C
:109D100006E0019B013B019320210398FFF7B8FF68
:109D2000019A059B9A422ED9019B002BF1D12AE082
:109D3000029B002B0BD0029806F0B0FD059006E0C8
:109D4000019B013B019320210398FFF7A1FF019A9A
:109D5000059B9A420FD9019B002BF1D10BE0029B8E
:109D600001330293059B013305939DF81330194687
:109D70000398FFF78DFF029B1B788DF813309DF839
:109D80001330002BEBD100BF07B05DF804FB0000DF
:109D900000B589B00390029101920093029B079352
:109DA0000123069307E0079A019BB2FBF3F30793A5
:109DB000069B01330693079A019B9A42F3D2009ABD
:109DC000069B9A4201D9009B06930B9B03F001036B
:109DD000002B22D10A9B002B1FD00B9B03F0020308
:109DE000002B06D0009B002B03D130238DF81730B9
:109DF00002E020238DF8173008E00A9B013B0A930C
:109E00009DF8173019460398FFF742FF0A9B002B75
:109E100003D0069A0A9B9A42EFD301230793009B33
:109E2000012B03D9009B013B009309E0029A079B99
:109E3000B2FBF3F30493049A019B9A4200D205E02B
:109E4000079B019A02FB03F30793E8E7029A079B3B
:109E5000B2FBF3F30493049B079A02FB03F3029A09
:109E6000D31A0293154A049B13441B78194603988E
:109E7000FFF70EFF079A019BB2FBF3F30793079BD3
:109E8000002BE3D10B9B03F00103002B11D00A9BA5
:109E9000002B0ED006E00A9B013B0A932021039879
:109EA000FFF7F6FE0A9B002B03D0069A0A9B9A4204
:109EB000F1D300BF09B05DF804FB00BF481E0300EA
:109EC00000B589B00590049103920293049B002B86
:109ED000B8BF5B4206930123079307E0039B069AF2
:109EE00092FBF3F30693079B01330793039B069AB8
:109EF0009A42F3DA029A079B9A4201D9029B07938E
:109F00000A9B002B0AD0049B002B04DB0B9B03F065
:109F10000403002B02D00A9B013B0A930B9B03F026
:109F20000203002B02D0029B002B16D00B9B03F0E8
:109F30000103002B11D10A9B002B0ED006E00A9BD7
:109F4000013B0A9320210598FFF7A2FE0A9B002BF4
:109F500003D0079A0A9B9A42F1D3049B002B07DA9D
:109F6000049B5B4204932D210598FFF791FE08E0C6
:109F70000B9B03F00403002B03D02B210598FFF764
:109F800087FE0B9B03F00203002B19D00B9B03F001
:109F90000103002B14D1029B002B11D10A9B002B33
:109FA0000ED006E00A9B013B0A9330210598FFF78B
:109FB0006FFE0A9B002B03D0079A0A9B9A42F1D3AB
:109FC00004990B9B01930A9B0093029B039A0598AB
:109FD000FFF7DEFE00BF09B05DF804FB00B58FB0EF
:109FE000059004910392059B002B04D1B64940F2E1
:109FF000522002F0ABF8059B5B69002B04D1B249FB
:10A000004FF4157002F0A2F8059B1B68002B04D1D9
:10A01000AD4940F2552002F099F8059B5B68002B92
:10A0200004D1A94940F2562002F090F8049B002B7D
:10A0300000F09381049B1B788DF83730049B01332B
:10A0400004939DF83730002B00F07E819DF8373067
:10A05000252B40F06D8100230A9301230C93049B70
:10A060001B788DF837309DF83730302B0DD0302BE2
:10A070001BDC2B2B11D02D2B17D10A9B43F0010396
:10A080000A93049B0133049312E00A9B43F00203FA
:10A090000A93049B013304930AE00A9B43F00403F0
:10A0A0000A93049B0133049302E000230C9300BF46
:10A0B0000C9B002BD3D1002309939DF837302A2B1A
:10A0C0000CD1039B1B68191D039A11601B68099A28
:10A0D00013440993049B013304931AE0049B1B78F7
:10A0E0008DF837309DF837302F2B12D99DF8373047
:10A0F000392B0ED8049B01330493099A13469B0015
:10A1000013445B001A469DF837301344303B0993E3
:10A11000D3E700230B93049B1B788DF837309DF811
:10A1200037302E2B1DD1049B01330493049B1B78E5
:10A130008DF837309DF837302F2B12D99DF83730F6
:10A14000392B0ED8049B013304930B9A13469B00C2
:10A1500013445B001A469DF837301344303B0B9391
:10A16000E4E7049B1B788DF837309DF837306C2B73
:10A1700003D09DF83730682B07D1049B013304933B
:10A18000049B1B788DF83730EFE79DF83730252B8F
:10A1900000F0C480252BC0F2C680782B00F3C3806A
:10A1A000582BC0F2C080583B202B00F2BC8001A28B
:10A1B00052F823F0A3A2020027A3020027A3020063
:10A1C00027A3020027A3020027A3020027A302005F
:10A1D00027A3020027A3020027A3020027A302004F
:10A1E00039A202005BA2020027A3020027A30200FB
:10A1F00027A3020027A302005BA2020027A30200FC
:10A2000027A3020027A3020027A3020027A302001E
:10A2100027A30200E9A2020027A3020027A302004D
:10A22000CDA2020027A302007FA2020027A3020002
:10A2300027A30200A3A20200039B1B68191D039A17
:10A2400011601B680C930C9B8DF81F309DF81F301C
:10A2500019460598FFF71CFD66E0039B1B68191D56
:10A26000039A11601B680C930A9B0193099B00934E
:10A270000B9B0A220C990598FFF722FE54E0039BE2
:10A280001B68191D039A11601B680C930C990A9B9B
:10A290000193099B00930B9B0A220598FFF778FD19
:10A2A00042E0039B1B68191D039A11601B680C9305
:10A2B0000C990A9B0193099B00930B9B1022059814
:10A2C000FFF766FD30E000BF101E0300039B1B6814
:10A2D000191D039A11601B6808930A9B099A089933
:10A2E0000598FFF7F3FC1FE0039B1B68191D039AF9
:10A2F00011601B680C9330210598FFF7C9FC782189
:10A300000598FFF7C5FC0C990023019308230093DF
:10A31000082310220598FFF73BFD05E0252105984D
:10A32000FFF7B6FC00E000BF049B0133049305E097
:10A330009DF8373019460598FFF7AAFC049B1B7857
:10A34000002B7FF477AE00E000BF059B1B7B002B4A
:10A3500004D00598FFF740FC00E000BF0FB05DF8A7
:10A3600004FB00BF00B583B001900198FFF75CFBD0
:10A370000346184603B05DF804FB00B58BB00190AE
:10A380000091019B1B8A043B0793009A079B13448F
:10A39000DA1C079BB2FBF3F38DF81B300198FFF733
:10A3A0009FFB0590059B002B01D1002338E0059B06
:10A3B00000221A71059B01225A71079B9AB2059BD4
:10A3C000DA80059B09939DF81B30013B0493099BA0
:10A3D000019A1A60002308931DE00198FFF780FBA3
:10A3E0000390039B002B0ED0059B5B790133DAB2FF
:10A3F000059B5A71099B039A1A60039B019A1A6084
:10A40000039B099304E0059800F00EF8002307E091
:10A41000089B01330893089A049B9A42DDD3059B5D
:10A4200018460BB05DF804FB00B58BB00190019BA2
:10A430000793079B5B798DF81B30019B08939DF870
:10A440001B30013B05930023099305E0089B1B6823
:10A450000893099B01330993099A059B9A42F5D306
:10A46000089B1B680493019B0893002309930BE04E
:10A47000089B1B68039308990498FFF779FB039BDB
:10A480000893099B013309939DF81B30099A9A425E
:10A49000EED300BF00BF0BB05DF804FB00B585B084
:10A4A0000190019B0393039B043301211846FFF79E
:10A4B00030FA00BF05B05DF804FB00B587B001902D
:10A4C000019B0593059B043301211846FFF739FAD8
:10A4D0000346039303AB0493049B1B78002B02D128
:10A4E0000198FFF7A1FF00BF07B05DF804FB000073
:10A4F00000B591B00390029101920093039B002B51
:10A5000003D14349B62001F021FE039B0993039B2D
:10A510000F93099BDB881A46099B5B7903FB02F3C7
:10A52000043B0893009A089B9A4203D33849C420FD
:10A5300001F00CFE099BDB880793009B1A1D079B0B
:10A54000B2FBF3F30E93009B0433079AB3FBF2F2D2
:10A55000079901FB02F29B1A0D93019B1A68009B5D
:10A560001344089A9A4203D2089A009BD31A01E036
:10A57000019B1B680C93019B0C9A1A6005E00F9BD2
:10A580001B680F930E9B013B0E930E9B002BF6D185
:10A5900000230B93079A0D9BD31A0A930A9A0C9BDC
:10A5A000934228BF13460A932AE0029A0B9B134456
:10A5B00006930F9A0D9B1344043305939DF848307E
:10A5C000002B05D00A9A0599069806F0E9F804E0F0
:10A5D0000A9A0699059806F0E3F800230D930F9B5D
:10A5E0001B680F930C9A0A9BD31A0C930B9A0A9B25
:10A5F00013440B93079A0C9B934228BF13460A936C
:10A600000C9B002BD1D100BF00BF11B05DF804FB43
:10A61000581E030000B589B005900491039202937F
:10A62000039B079307AA00230093029B04990598B4
:10A63000FFF75EFF079B039A9A4203D00349F62077
:10A6400001F084FD00BF09B05DF804FB581E030053
:10A6500000B589B00590049103920293039B079380
:10A6600007AA01230093029B04990598FFF740FF76
:10A67000079B039A9A4204D004494FF4807001F07A
:10A6800065FD00BF09B05DF804FB00BF581E030064
:10A6900082B003468DF807309DF8073003F01F02A3
:10A6A00006499DF907305B09012000FA02F2603388
:10A6B00041F8232000BF02B0704700BF00E100E076
:10A6C00000B583B00190019B002B03D10649722095
:10A6D00001F03CFD019B00221A60BFF35F8F00BFB9
:10A6E00000BF03B05DF804FBE41E030041DF7047C8
:10A6F00000BF184600B585B000238DF803300DF17A
:10A7000003031846FEF7BEFEF1EE103A0193019BDB
:10A710000393039B23F09F030293029BE1EE103A05
:10A7200000BFBFF35F8F00BF2620FFF7B1FF9DF88A
:10A7300003301846FEF7BCFE039B03F00703002B13
:10A7400003D004497D2001F001FD00BF05B05DF894
:10A7500004FB00BF241F030008B5064B00221A703B
:10A760000548FFF7ADFF0549054800F04DF8002307
:10A77000184608BDA03200209C320020601F030054
:10A78000A432002000B583B0FFF7B4FF05F094FCBD
:10A790000346002B0ED0FFF7A9FF0190019B002B71
:10A7A0000ED0019B022B0BD007494FF4B07001F083
:10A7B000CDFC05E020BF00BF40BF00BF20BF00BFF1
:10A7C00000BF03B05DF804FB241F030082B00190BA
:10A7D000019B9B6800229A60019B9B6800221A6182
:10A7E000019B9B6800225A61019B9B680022DA60F2
:10A7F000019B9B6800225A60019B9B6800221A60A3
:10A8000000BF02B07047000000B583B00190009116
:10A81000019B002B03D11049502001F097FC009BB5
:10A82000002B03D10C49512001F090FC019B009AB0
:10A830001A60019B1B681A68019B5A60019B5A6849
:10A84000019B1B685B689A4202D1019B00225A60FF
:10A8500000BF03B05DF804FB6C1F030000B583B0BC
:10A860000190019B002B03D11449632001F06EFC81
:10A87000019B1B68002B03D11049642001F066FC8A
:10A88000019B5B68002B14D0019B5B681A46019BFF
:10A890001B689B6813441A46019B5A60019B5A68C7
:10A8A000019B1B685B689A4204D1019B00225A609D
:10A8B00000E000BF03B05DF804FB00BF6C1F0300A5
:10A8C00000B585B00190019800F00EF80390039B4D
:10A8D000002B01D0039B00E0024B184605B05DF849
:10A8E00004FB00BFC01F030086B00190164B059308
:10A8F000164B04931FE0049A059BD31ADB10DA0F62
:10A9000013445B10DB00059A13440393039B1B68FD
:10A910000293029A019B9A4202D9039B04930AE094
:10A92000029A019B9A4203D2039B0833059302E0EB
:10A93000039B5B6804E0059A049B9A42DBD30023E7
:10A94000184606B0704700BFC0230300E824030088
:10A9500000B587B0059004910392059B002B10D1A0
:10A96000194A1A4BD31ADB081B0443F00100184A9A
:10A9700018490E2300930B461749FDF7D8F90E230B
:10A980001DE0049B002B10D10F4A104BD31ADB089B
:10A990001B0443F00100114A0E490E2300930B469D
:10A9A0000D49FDF7C4F90E2309E0059B049A1A60CE
:10A9B000059B1B681B680399059898470346184632
:10A9C00007B05DF804FB00BF8C1A03002C1A0300CB
:10A9D000F82403009C260300002503002C25030017
:10A9E00029DF704700BF184628DF704700BF1846B0
:10A9F00000B589B001900091019B1B689B68002BFA
:10AA000035D002AB00221A605A609A60DA601A618F
:10AA10005A61009B0393019B9B680793019B1B79E1
:10AA2000002B02D0012B0DD01AE001238DF8083045
:10AA3000019B1B690493019BDB680593019B5B6988
:10AA400006930DE002238DF80830019BDB684FF47C
:10AA5000805202FB03F30493019B5B69069300BFE2
:10AA6000019B1B689B6802AA1046984700E000BF44
:10AA700009B05DF804FB00B587B00190019B5A69ED
:10AA8000019B9B69D31AB3F5805F28BF4FF48053B5
:10AA900005930422059BB3FBF2F3012B38BF01237E
:10AAA0000593019B1A69019B9B6913440493019BC5
:10AAB000DB681A46019B9B6913440393059A03992B
:10AAC0000498FFF78DFF0346184607B05DF804FBB6
:10AAD00000B583B00190019BDA68019B1B691344A8
:10AAE0001846FFF781FF0346184603B05DF804FBE4
:10AAF00008B5034B03491846FEF737FE00BF08BDF3
:10AB0000383300206033002008B5084B0849184648
:10AB1000FEF712FE0346074A1360064B1B68002B24
:10AB200014BF01230023DBB2184608BD38330020D0
:10AB3000603300205C33002000B583B02A4B1B7AC1
:10AB4000002B0BD1FFF7E0FF034683F00103DBB2DC
:10AB5000002B03D0244B00225A6042E0224B0222F9
:10AB60001A72224B1B681B79002B02D0012B07D0D5
:10AB70000DE01E4B1B681846FFF77DFF019009E0B2
:10AB80001A4B1B681846FFF7A3FF019002E003234E
:10AB9000019300BF019B002B03D0019B112B0CD014
:10ABA0000FE0114B1B7C83F00103DBB2002B17D0AD
:10ABB0000021022000F060F912E00B4B01221A7212
:10ABC0000FE00A4B1B6803211846FFF711FF064BE5
:10ABD00000221A72044B00225A60FFF789FF00E03E
:10ABE00000BF03B05DF804FB483300205C33002055
:10ABF00008B50848FEF7BDFE0346002B08D1064BFA
:10AC00005B7C83F00103DBB2002B01D0FFF794FFE4
:10AC100000BF08BD4C3300204833002084B00190B1
:10AC20001B4B0022DA60019B1B79002B02D0012B09
:10AC300019D028E0019B5A69019B9B69D31AB3F58F
:10AC4000805F28BF4FF480530393019B9A69039B55
:10AC50001A44019B9A61019B9A69019B5B699A4224
:10AC60000ED1012310E0019B1B695A1C019B1A6144
:10AC7000019B1A69019B5B699A4203D1012303E09E
:10AC800000BF00E000BF0023184604B0704700BFBB
:10AC90004833002082B00190084BDB680133074A3B
:10ACA000D360064BDB68082B04D9044B0022DA6022
:10ACB000012300E00023184602B07047483300200B
:10ACC00000B583B001900091019B0C4A5A600C487A
:10ACD000FEF74FFE0346002B0BD105F0EDF90346BE
:10ACE0001A46074B1A7407481C238C220649FEF7A4
:10ACF000AFFC0023184603B05DF804FBB026030048
:10AD00004833002038330020AC32002000B583B037
:10AD10000190009114220021054805F06AFD054BC1
:10AD20001846FEF7C8FC0023184603B05DF804FB84
:10AD3000483300203833002000B587B003900291DB
:10AD400001920093174A04AB19461046FEF7C7FC60
:10AD50000590059B002B01D104231FE01C2200213C
:10AD6000059805F046FD059B00221A71059B039A84
:10AD70001A60059B089A9A60059B029A1A61059BC6
:10AD8000019ADA60059B009A5A61064A04AB19469B
:10AD90001046FEF7BDFCFFF72BFF0023184607B057
:10ADA0005DF804FB3833002000B585B003900291B4
:10ADB00001920093029B009A1946019805F0F0FC5D
:10ADC0000023184605B05DF804FB000000B587B00D
:10ADD0000390029101920093184A04AB1946104661
:10ADE000FEF77DFC0590059B002B01D1042320E09C
:10ADF0001C220021059805F0FCFC059B01221A711C
:10AE0000059B039A1A60059B009A9A604FF4805242
:10AE1000029BB3FBF2F2059BDA60059B019A5A6133
:10AE2000064A04AB19461046FEF772FCFFF7E0FE37
:10AE30000023184607B05DF804FB00BF383300203C
:10AE400082B001900091009B184602B0704782B01A
:10AE5000019000910023184602B0704782B0019023
:10AE6000044B1B7A002B14BF01230023DBB21846CE
:10AE700002B070474833002000B585B001900091C2
:10AE8000019B022B02D0019B032B48D1274B1B7A3D
:10AE9000022B05D0022B35DC002B42D0012B31E0F8
:10AEA00000238DF80F30019B022B03D0019B032B55
:10AEB00009D011E01E4B1B681846FFF7AFFE034692
:10AEC0008DF80F3008E01A4B1B681846FFF7E2FEBA
:10AED00003468DF80F3000BF9DF80F30002B10D0C7
:10AEE000124B00221A72124B1A68019B022B01D1DD
:10AEF000002300E00D2319461046FFF779FDFFF708
:10AF0000F7FD00BF094B5B7C83F00103DBB2002B34
:10AF100002D0FFF711FE05E005F0B2F802E000BF35
:10AF200000E000BF05B05DF804FB00BF483300201F
:10AF30005C33002082B0034600918DF80730064B49
:10AF400001225A74044B1B7A002B0CBF01230023EF
:10AF5000DBB2184602B070474833002000B583B01A
:10AF6000034600918DF807309DF80730012B03D080
:10AF70009DF80730032B0DD1084B00225A749DF821
:10AF80000730012B0CBF01230023DAB2034B1A74E4
:10AF9000FFF7D2FD00BF03B05DF804FB483300208B
:10AFA000BFF34F8F00BF074BDB6803F4E062054936
:10AFB000054B1343CB60BFF34F8F00BF00BF00BFF3
:10AFC000FCE700BF00ED00E00400FA05024B034A75
:10AFD0001A6000BF704700BF3C2B00200090D003D8
:10AFE00008B500F027F90346002B0ED04FF0804340
:10AFF0000022C3F80C214FF080430022C3F8102137
:10B000004FF080430022C3F8382500F037F903469B
:10B01000002B76D04FF080537D4AD3F80434C2F829
:10B0200020354FF080537A4AD3F80834C2F82435DB
:10B030004FF08053764AD3F80C34C2F828354FF0DD
:10B040008053734AD3F81034C2F82C354FF0805334
:10B050006F4AD3F81434C2F830354FF080536C4A3D
:10B06000D3F81834C2F834354FF08053684AD3F817
:10B070001C34C2F840354FF08053654AD3F8203471
:10B08000C2F844354FF08053614AD3F82434C2F8F3
:10B0900048354FF080535E4AD3F82834C2F84C3517
:10B0A0004FF080535A4AD3F82C34C2F850354FF041
:10B0B0008053574AD3F83034C2F854354FF0805398
:10B0C000534AD3F83434C2F860354FF08053504AB5
:10B0D000D3F83834C2F864354FF080534C4AD3F873
:10B0E0003C34C2F868354FF08053494AD3F84034B5
:10B0F000C2F86C354FF08053454AD3F84434C2F857
:10B10000703500F0DFF80346002B02D0414B424A75
:10B110001A6000F0E9F80346002B03D03F4BFB22F6
:10B12000C3F8182500F0F2F80346002B0AD03C4B78
:10B130001B6823F00F023B4B1B6803F00F033849D9
:10B1400013430B6000F0F4F80346002B03D0364B9A
:10B150004FF400721A6000F0FDF80346002B0DD08A
:10B160004FF08043D3F8003403F00103002B05D0E7
:10B170004FF080436FF00102C3F800242B4BD3F84B
:10B1800088302A4A43F47003C2F88830BFF34F8FE7
:10B1900000BFBFF36F8F00BF4FF01023D3F8003212
:10B1A000002B05DB4FF01023D3F80432002B2BDAF1
:10B1B0001F4B0122C3F8042500BF1D4BD3F80034F8
:10B1C000002BFAD04FF010231222C3F8002200BF48
:10B1D000174BD3F80034002BFAD04FF01023122273
:10B1E000C3F8042200BF124BD3F80034002BFAD06E
:10B1F0000F4B0022C3F8042500BF0D4BD3F80034D9
:10B20000002BFAD0FFF7CCFEFFF7E0FE00BF08BD31
:10B2100000C000408C5600404881030000F0004010
:10B22000E40E0040580200104096024000ED00E09D
:10B2300000E001400F4B1B68082B17D10E4B1B6819
:10B24000002B01D1012312E00B4B1B68012B01D114
:10B2500001230CE0084B1B68022B01D1012306E0FF
:10B26000054B1B68032B01D1012300E00123184685
:10B27000704700BF30010010340100100F4B1B68F5
:10B28000082B17D10E4B1B68002B01D1012312E0B4
:10B290000B4B1B68012B01D101230CE0084B1B68F1
:10B2A000022B01D1012306E0054B1B68032B01D1C2
:10B2B000012300E001231846704700BF3001001051
:10B2C00034010010064B1B68082B05D1054B1B6889
:10B2D000002B01D1012300E000231846704700BF76
:10B2E0003001001034010010064B1B68082B05D1FB
:10B2F000054B1B68002B01D1012300E000231846F9
:10B30000704700BF3001001034010010064B1B686D
:10B31000082B05D1054B1B68002B01D1012300E050
:10B3200000231846704700BF3001001034010010A0
:10B33000064B1B68082B05D1054B1B68002B01D160
:10B34000012300E000231846704700BF30010010C1
:10B35000340100100F4B1B68082B17D10E4B1B68D4
:10B36000002B01D1012312E00B4B1B68012B01D1F3
:10B3700001230CE0084B1B68022B01D1012306E0DE
:10B38000054B1B68032B01D1012300E00123184664
:10B39000704700BF300100103401001082B0034636
:10B3A0008DF807309DF8073003F01F0206499DF91C
:10B3B00007305B09012000FA02F2203341F8232014
:10B3C00000BF02B0704700BF00E100E008B504F024
:10B3D00073FE034683F00103DBB2002B03D1054962
:10B3E000792000F0B3FE00F085FA034B00229A703A
:10B3F00000BF08BDE42603006433002000B583B01D
:10B4000000230193144B1B78002B02D0852301935A
:10B410001CE0114B00229A600F4B00225A600E4B29
:10B4200000221A610C4B0022DA600C4800F028FA66
:10B43000019004F041FE034683F00103DBB2002BD0
:10B4400001D000F043FA044B01221A70019B184608
:10B4500003B05DF804FB00BF6433002035B5020083
:10B4600084B00190019B1B680393039B002B03D0C6
:10B47000039B1A68019B1A60039B184604B070472F
:10B4800000B583B0164B1B78002B04D115494FF43F
:10B49000857000F05BFE124BDB68002B04D1114974
:10B4A00040F20B1000F052FE00238DF807300DF132
:10B4B00007031846FDF7E6FF094BDB68013B084A26
:10B4C000D360074BDB68002B01D1FFF77FFF9DF8AE
:10B4D00007301846FDF7ECFF00BF03B05DF804FB32
:10B4E00064330020E426030000B585B003468DF8E0
:10B4F00007309DF80730002B02D10C4B039301E07D
:10B500000B4B03930398FFF7ABFF0290029B002BBA
:10B5100006D0029B5B689DF8072010469847F1E72C
:10B5200000BF00BF05B05DF804FB00BF6C33002016
:10B530007433002000B583B003468DF807309DF8C2
:10B540000730002B05D10A4B01225A700020FFF76B
:10B55000CBFF9DF80730012B05D1054B01229A70D6
:10B560000120FFF7C1FF00BF03B05DF804FB00BF7F
:10B570006433002000B583B001900091019B002B43
:10B5800005D1054B01225A700020FFF7ADFF00BF27
:10B5900003B05DF804FB00BF6433002000B585B044
:10B5A000034600918DF807309DF80730032B29D012
:10B5B000032B35DC002B02D0012B04D030E000201F
:10B5C000FFF7ECFE2DE000238DF80F300DF10F0397
:10B5D0001846FDF757FF154B1B7883F00103DBB2CC
:10B5E000002B01D0FFF70AFF104BDB6801330F4A35
:10B5F000D3600E4B01229A709DF80F301846FDF76C
:10B6000057FF0EE0094B1B78002B04D1084940F28C
:10B61000452000F09BFD00F059F9FFF731FF00E0F5
:10B6200000BF00BF05B05DF804FB00BF643300201D
:10B63000E426030082B003468DF807309DF80730FA
:10B6400003F01F0205499DF907305B09012000FA4C
:10B6500002F241F8232000BF02B0704700E100E091
:10B6600082B0034600918DF807309DF90730002B1A
:10B670000CDA009BDAB20C499DF8073003F00F0397
:10B68000043B5201D2B20B441A7609E0009BDAB2B5
:10B6900006499DF907305201D2B20B4483F80023CA
:10B6A00000BF02B0704700BF00ED00E000E100E025
:10B6B00082B00190019B1B0B5BB2184602B0704731
:10B6C00000B583B003460A468DF8073013468DF85F
:10B6D00006309DF80630012B03D99DF80630032B68
:10B6E0000BD99DF80630042B03D99DF80630072BA3
:10B6F00003D908496B2000F029FD9DF806209DF92B
:10B70000073011461846FFF7ABFF00BF03B05DF8E6
:10B7100004FB00BF1C27030000B583B003468DF86F
:10B7200007309DF907301846FFF784FF00BF03B0CC
:10B730005DF804FB82B003468DF807300F4A9DF98F
:10B740000730002B00DA1F335B115BB252F8232065
:10B750009DF90730594203F01F0301F01F0158BF44
:10B760004B425BB222FA03F303F00103002B14BF38
:10B7700001230023DBB2184602B0704700E100E06D
:10B7800082B001904FF08042019BC2F8083300BFA5
:10B7900002B0704782B003468DF807309DF807303D
:10B7A00003F1804301221A6000BF02B0704784B0E9
:10B7B0000346ADF80630BDF8063003F180430022A1
:10B7C0001A60BDF8063003F180431B680393039BA6
:10B7D00000BF04B0704782B00346ADF80630BDF834
:10B7E000063003F180431B68002B14BF01230023A4
:10B7F000DBB2184602B0704782B001904FF0804231
:10B80000019BC2F8183500BF02B070474FF080436B
:10B81000D3F818341B0C03F00103002B14BF0123D1
:10B820000023DBB21846704700B583B006238DF8BD
:10B8300007304FF08040FFF73BFF03461846FFF705
:10B8400079FF034683F00103DBB2002B13D04FF0E6
:10B850008040FFF72DFF03461A469DF80730194632
:10B860001046FFF72DFF4FF08040FFF721FF034602
:10B870001846FFF751FF00BF03B05DF804FB00005E
:10B8800000B585B00190019B002B03D10D49A42088
:10B8900000F05CFC002303930B4B1B79002B02D0C0
:10B8A0008523039308E0084A019B1360064B01229D
:10B8B0001A71054B00225A71039B184605B05DF8BA
:10B8C00004FB00BF502703007833002008B5074B66
:10B8D0001B79002B03D10649BD2000F037FCFFF790
:10B8E000A3FF0120FFF788FF00BF08BD78330020C9
:10B8F0005027030008B50A4B1B79002B03D10949D7
:10B90000F72000F023FC0C20FFF744FF00BFFFF7F7
:10B910007DFF0346002BFAD100BF00BF08BD00BF6A
:10B92000783300205027030008B54FF48070FFF7EC
:10B9300052FF0346002B14D04FF48070FFF737FFFF
:10B940000120FFF71DFF114B5B7983F00103DBB290
:10B95000002B06D00D4B01225A710C4B1B680020A6
:10B9600098474FF48270FFF736FF0346002B0AD04A
:10B970004FF48270FFF71BFF0220FFF701FF034B1C
:10B980001B680120984700BF08BD00BF7833002026
:10B9900008B5064B1B68002B03D10549512000F068
:10B9A000D5FB024B1B68984700BF08BD80330020C1
:10B9B0008C27030082B003468DF807309DF80730CE
:10B9C00003F1804303F5E04301221A6000BF02B097
:10B9D000704782B00346ADF80630BDF8063003F17B
:10B9E000804303F5E0431B68002B14BF01230023B1
:10B9F000DBB2184602B0704784B00346ADF806309B
:10BA0000BDF8063003F1804303F5E04300221A60DD
:10BA1000BDF8063003F1804303F5E0431B68039350
:10BA2000039B00BF04B0704782B001900091054AAB
:10BA3000019BC2F82C36034A009BC2F8303600BF87
:10BA400002B070470070004000B58DB04FF48270B6
:10BA5000FFF7BFFF0346002B46D04FF48270FFF77D
:10BA6000CBFF8C4B93F82E3083F00103DBB2002B1D
:10BA700004D1884B93F82F30002B35D000238DF85C
:10BA80001830844B5B680793824B1B899BB2ADF8DF
:10BA90002030804BDB68002B03D17E4B00221A74D0
:10BAA00019E07C4B1A8B7B4B5A837A4BDB68794AC3
:10BAB0005360784B1A8B774B1A81764B0022DA60F1
:10BAC000744B93F82E3083F00103DBB2002B02D0CD
:10BAD0000020FFF76FFF6F4B1B6806AA10469847C0
:10BAE0006C4B002283F82F206A4B93F82E30002BEA
:10BAF00062D04FF48070FFF76CFF0346002B5BD0E1
:10BB00004FF48070FFF778FF624B5A8B614B93F8CC
:10BB10002D309BB29A421CD95E4B5A8B5D4B93F8E9
:10BB20002D309BB2D31A9AB25A4B5A83594B5A684A
:10BB3000584B1B899BB21946564B5B8BCB1A5B004B
:10BB40001344544A92F82D2011461846FFF76CFF13
:10BB50002BE0504B5A8B4F4B93F82D309BB29A42AF
:10BB600014D14C4BDB68002B10D04A4B012283F8D8
:10BB70002F20484B00225A83464BDB68454A92F8F7
:10BB80002D2011461846FFF74FFF0EE0414B5A8B10
:10BB9000404B93F82D309BB29A4206D13D4B012287
:10BBA00083F82F203B4B00225A834FF48270FFF71B
:10BBB00023FF0420FFF7FEFE4FF48870FFF709FF14
:10BBC0000346002B0ED04FF48870FFF715FF314B62
:10BBD00000221A7402238DF80C302E4B1B6803AA26
:10BBE000104698474FF48A70FFF7F3FE0346002B88
:10BBF00007D04FF48A70FFF7FFFE264B00221A741D
:10BC000044E0244B5B690B933DE00B9BB3FA83F359
:10BC10000A934FF000420A9B22FA03F3DB430B9A8C
:10BC200013400B930A9B9BB246339BB29B00ADF82B
:10BC30002630BDF826301846FFF7CBFE0346002B12
:10BC400021D0BDF826301846FFF7D6FE01238DF827
:10BC50000030BDF82630A3F58C73DB08DBB28DF81D
:10BC60000430BDF82630A3F58C7303F00403002BD9
:10BC70000CBF01230023DBB28DF80530054B1B6898
:10BC80006A46104698470B9B002BBED100BF0DB0F3
:10BC90005DF804FB8833002084B001900B46ADF8BA
:10BCA0000230BDF80230019A134400221A60BDF838
:10BCB0000230019A13441B680393039B00BF04B036
:10BCC000704782B001900B46ADF80230BDF80230EB
:10BCD000019A13441B68002B14BF01230023DBB21D
:10BCE000184602B0704782B001900091019BD3F8D2
:10BCF0000423009B1340002B14BF01230023DBB25D
:10BD0000184602B0704782B00190019B9B0003F57A
:10BD1000A0739BB2184602B0704782B001904FF4F6
:10BD20008032019B02FA03F3184602B0704700B557
:10BD300087B00390029113468DF8073000238DF8E9
:10BD4000173030E09DF817301846FFF7DCFF034648
:10BD5000ADF814309DF817301846FFF7DEFF049059
:10BD6000BDF8143019460398FFF7ABFF0346002BCC
:10BD700014D004990398FFF7B6FF0346002B0DD0AB
:10BD8000BDF8143019460398FFF786FF029B1B6825
:10BD9000029A5168BDF81420104698479DF8173054
:10BDA00001338DF817309DF817209DF807309A421F
:10BDB000C8D300BF00BF07B05DF804FB08B504227C
:10BDC00002490348FFF7B3FF00BF08BDB8330020A6
:10BDD0000090004008B5062202490348FFF7A7FF7C
:10BDE00000BF08BDC433002000A0014084B0019012
:10BDF0000B468DF8033013468DF802300023039371
:10BE0000019B032B3CD89DF80230012B0BD19DF8F0
:10BE10000330012B04D1019BDBB20E33DBB200E017
:10BE200000238DF802309DF80330022B0FD0022B37
:10BE300023DC002B16D0012B1FD11449019A134685
:10BE40005B0013440B449DF802201A701AE00F495E
:10BE5000019A13465B0013440B4401339DF8022002
:10BE60001A700FE00949019A13465B0013440B4412
:10BE700002339DF802201A7004E00723039301E0C7
:10BE800007230393039B184604B07047D033002068
:10BE900000B583B0012200210020FFF7A7FF019029
:10BEA000019B002B04D0019B072B01D0019B1CE0C0
:10BEB000072202210120FFF799FF0190019B002B2F
:10BEC00004D0019B072B01D0019B0EE0042202212C
:10BED0000020FFF78BFF0190019B002B04D0019BFA
:10BEE000072B01D0019B00E00023184603B05DF84A
:10BEF00004FB00B583B0012202210020FFF776FF8A
:10BF00000190019B002B04D0019B072B01D0019BCA
:10BF10001CE0072202210120FFF768FF0190019B2E
:10BF2000002B04D0019B072B01D0019B0EE00A22BD
:10BF300000210020FFF75AFF0190019B002B04D045
:10BF4000019B072B01D0019B00E00023184603B0A2
:10BF50005DF804FB00B585B001900091019B1B8842
:10BF6000102B02D0112B18D02FE01A4B1B68002B7E
:10BF70000DD1FFF78DFF0390039B002B07D0164BCD
:10BF80001B68002B03D0144B1B6803989847114B78
:10BF90001B6801330F4A136017E00E4B1B68013B0F
:10BFA0000C4A13600B4B1B68002B0DD1FFF7A1FF50
:10BFB0000390039B002B07D0074B1B68002B03D07B
:10BFC000054B1B680398984700BF00BF05B05DF89C
:10BFD00004FB00BFE0330020DC33002076DF704735
:10BFE00000BF18467ADF704700BF18467CDF7047F5
:10BFF00000BF18467FDF704700BF18468FDF7047CD
:10C0000000BF1846B1DF704700BF184600B583B0C7
:10C010000190019B1B682F2B04D90B4940F2CD10D6
:10C0200000F094F8019B1B681F2B02D84FF0A0432F
:10C0300006E0019B1B6803F01F02019B1A60034B83
:10C04000184603B05DF804FBF82903000003005014
:10C0500000B585B00190084611461A4603468DF892
:10C0600003300B468DF8023013468DF8013001ABDA
:10C070001846FFF7CBFF03909DF803209DF8023090
:10C080005B001A439DF801309B001A439DF818305D
:10C090001B0242EA03019DF81C301B04019A19435C
:10C0A000039B02F5E07243F8221000BF05B05DF873
:10C0B00004FB00B585B00390002301930023009397
:10C0C0000023012201210398FFF7C2FF00BF05B042
:10C0D0005DF804FB00B585B0019001AB1846FFF791
:10C0E00095FF0390019B012202FA03F3194603987E
:10C0F00000F018F800BF05B05DF804FB00B585B08E
:10C10000019001AB1846FFF781FF0390019B0122CC
:10C1100002FA03F31946039800F00EF800BF05B0C9
:10C120005DF804FB82B001900091019B009AC3F876
:10C13000082500BF02B0704782B001900091019BBA
:10C14000009AC3F80C2500BF02B0704700B583B059
:10C1500003460091ADF80630BDF80630009A194646
:10C160000348FCF779FA00BF03B05DF804FB00BF99
:10C17000EFBEADDE00B583B0FDF754F80190019B32
:10C180000093009B002B04D0044A97210098FCF7F1
:10C1900063FA00BF03B05DF804FB00BF8C2A030004
:10C1A00000B587B02D4B1B682D4A2E492E4804F050
:10C1B000D1FA2E4A2E4BD31ADB081B0443F003039B
:10C1C000294A2C491846FBF78DFD9DF800300122C5
:10C1D00062F303038DF800309DF80030012262F312
:10C1E00007138DF80030204804F058FB03469AB23C
:10C1F0006B461D491846FFF7F9FE0590059B049311
:10C20000049B002B04D01C4AAE210498FCF724FAAE
:10C2100001AB08220021184604F0EBFA1023ADF818
:10C2200004303C23ADF806300023ADF808304FF45D
:10C23000C873ADF80A3001AB1846FFF7D3FE05907E
:10C24000059B0393039B002B04D00B4AB821039852
:10C25000FCF702FA00BF07B05DF804FB3C38002091
:10C26000CC2A0300D82A030044380020641A0300B3
:10C270002C1A0300E02A03008C2A030000B583B0C7
:10C280000190044AC5210198FCF7E6F900BF03B00C
:10C290005DF804FB8C2A030082B0019000BF02B05D
:10C2A0007047000000B587B000230193174B01933E
:10C2B00001AB1946164803F0B7F90590059B0493A6
:10C2C000049B002B04D0134AFD210498FCF7C4F909
:10C2D00002AB04220021184604F08BFA0E4B0293A5
:10C2E00002AB19460D4803F0DDFB0590059B039357
:10C2F000039B002B05D0074A40F205110398FCF779
:10C30000ABF900BF07B05DF804FB00BF7DC20200BF
:10C31000FC3300208C2A030099C20200482B002025
:10C3200000B585B00190019B1B78002B11D10B4B00
:10C330001B883B211846FFF751FE0390039B029395
:10C34000029B002B05D0064A40F21B110298FCF715
:10C3500083F900BF05B05DF804FB00BF642B00202B
:10C360008C2A030000B583B00190054A4FF4937105
:10C370000198FCF771F900BF03B05DF804FB00BF42
:10C380008C2A030000B58BB001AB1C22002118469B
:10C3900004F02FFA002301934FF4203302934FF45B
:10C3A0007023039303238DF810300023ADF812306F
:10C3B00000238DF814300C4B06930C4B079301AB04
:10C3C000184602F0CFF80990099B0893089B002BB0
:10C3D00005D0074A40F23D110898FCF73DF900BF2F
:10C3E0000BB05DF804FB00BF21C3020065C302006F
:10C3F0008C2A030000B583B00B4B01221A70032175
:10C400000A4801F025FE0190019B0093009B002B40
:10C4100005D0074A40F247110098FCF71DF900BF0C
:10C4200003B05DF804FB00BF403800200834002052
:10C430008C2A030000B583B003468DF807309DF8C1
:10C440000730002B01D0032B02E0FFF7D3FF00BF22
:10C4500000BF03B05DF804FB00B58BB00190009104
:10C46000019B1B88562B00F0CA80562B00F3DA8004
:10C47000522B00F09D80522B00F3D480212B2DDC19
:10C48000102BC0F2CF80103B112B00F2CB8001A209
:10C4900052F823F0E3C402002FC5020025C60200B3
:10C4A00089C5020025C6020025C6020025C6020075
:10C4B00025C6020025C6020025C6020025C60200C8
:10C4C00025C6020025C6020025C6020025C60200B8
:10C4D00025C6020025C6020055C502003B2B7BD0B5
:10C4E000A0E0594A594BD31ADB081B0443F003035D
:10C4F00057491846FBF7E8FB019B9A88554B1A8071
:10C50000544B1B881946544803F0B0F80990534B1C
:10C5100002221A70099B0393039B002B00F0848076
:10C520004F4A4FF4C6710398FCF796F87CE0464AF0
:10C53000464BD31ADB081B0443F003034949184652
:10C54000FBF7C2FB434B4FF6FF721A80434B0022AE
:10C550001A7074E000238DF8083000238DF809303C
:10C56000019B9B8802AA11461846FFF747FD0990D8
:10C57000099B0593059B002B58D0394A40F29F1127
:10C580000598FCF769F851E0324B18880023002227
:10C590008521FFF72FFD0990099B0493049B002B35
:10C5A00046D02F4A40F2A5110498FCF755F83FE019
:10C5B000284B1888002300220021FFF723FD099053
:10C5C000099B0793079B002B34D0254A40F2AB11FF
:10C5D0000798FCF741F82DE0019B9B881321184632
:10C5E000FFF7FCFC0990099B0693069B002B23D0C8
:10C5F0001B4A4FF4D9710698FCF72EF81CE0019BFA
:10C600009B8813211846FFF7E9FC0990099B0893C2
:10C61000089B002B12D0124A40F2B9110898FCF77F
:10C620001BF80BE000BF0AE000BF08E000BF06E017
:10C6300000BF04E000BF02E000BF00E000BF00BF99
:10C640000BB05DF804FB00BF641A03002C1A030052
:10C65000F42A0300642B0020FC3300204038002023
:10C660008C2A0300002B030000B587B003F072FC96
:10C670000590059B0493049B002B05D0164A4FF4AC
:10C68000E6710498FBF7E8FF0023019301AB19461C
:10C69000012003F075FD0590059B0393039B002B80
:10C6A00005D00D4A4FF4E9710398FBF7D5FF01ABB4
:10C6B000184603F083FE0590059B0293029B002B16
:10C6C00005D0054A4FF4EB710298FBF7C5FF00BF98
:10C6D00007B05DF804FB00BF8C2A030000B583B0EF
:10C6E00001900091009B5A88114B1B889A421AD1E5
:10C6F000009B1B8840F67722934214D1009B9B88B5
:10C70000033B9AB20B4B1A800B4A0C4BD31ADB0833
:10C710001B0443F00300074B1B881A46054B1B887C
:10C720000749FBF7F0FA00BF03B05DF804FB00BF58
:10C73000642B0020662B0020641A03002C1A0300CF
:10C74000102B030000B585B01149124802F06CFEB1
:10C750000390039B0293029B002B05D00E4A40F2EC
:10C76000F1110298FBF778FFF7210A4802F087FEE3
:10C770000390039B0193019B002B05D0064A4FF4C5
:10C78000FA710198FBF768FF00BF05B05DF804FB84
:10C79000DDC60200E83300208C2A030008B52D20F6
:10C7A000FFF787FC2F20FFF784FC00BF08BD00B512
:10C7B00083B003468DF807309DF80730002B06D074
:10C7C0002D20FFF787FC2F20FFF784FC05E02D20AC
:10C7D000FFF780FC2F20FFF791FC00BF03B05DF84E
:10C7E00004FB000000B5AFB001ABAC22002118463D
:10C7F00003F0FFFF02238DF8043000238DF806308C
:10C8000005238DF807300123ADF85030124B1593F6
:10C8100001238DF880304FF4C863239344F25063B2
:10C8200024930E4B2A9301AB19460D4801F034FBBB
:10C830002D902D9B2C932C9B002B05D0094A40F268
:10C84000F2212C98FBF708FF0121054801F017FBA6
:10C8500000BF2FB05DF804FB682B002035C4020038
:10C86000083400208C2A030000B583B04FF4004147
:10C870000020FAF749FF0190019B0093009B002BD9
:10C8800005D0064A4FF43F710098FBF7E5FEFAF732
:10C89000D1FE00BF03B05DF804FB00BF8C2A03008B
:10C8A00000B583B0FDF758FF0190019B0093009BFA
:10C8B000002B05D00B4A4FF442710098FBF7CCFED9
:10C8C0004FF080430122C3F878254FF080430122C6
:10C8D000C3F88025044B0022C3F8002500BF03B035
:10C8E0005DF804FB8C2A03000070024008B5FBF7DA
:10C8F0005DFAFDF747FF00BF08BD82B0002301933A
:10C900004FF080535B6E1B0201934FF080531B6E00
:10C91000019A13440193019B184602B0704700002E
:10C9200008B5FFF7BDFFFFF7E8FF0346214A136094
:10C93000FFF79AFFFFF732FF0020FFF738FFFFF7FE
:10C9400019FC00F04DF800F0F3F8FFF78DFEFFF74B
:10C9500027FCFFF7F7FEFFF7A5FCFFF743FFFFF704
:10C9600011FD154A154BD31ADB081B0443F00303D2
:10C9700013491846FBF7A8F9FFF73CFD00BFFBF78A
:10C9800015FA0346002BFAD10B4A0C4BD31ADB08DD
:10C990001B0443F00303074A12680A491846FBF7D1
:10C9A000A1F9FFF7A3FF00BFFBF700FA0346002B36
:10C9B000FAD1F6E73C380020641A03002C1A030071
:10C9C000702C03009C2C030082B00190034B1B6869
:10C9D0000133024A136000BF02B07047C438002020
:10C9E00000B583B0094A01210948FCF74FFC0190CA
:10C9F000019B0093009B002B04D0064A1E21009847
:10CA0000FBF72AFE00BF03B05DF804FBC9C90200B2
:10CA1000A82C0300AC2C030000B583B00190019B4F
:10CA20005B68002B0BD01A4A1A4BD31ADB081B0485
:10CA300043F0030318491846FBF746F924E0019B2D
:10CA40001B78012B02D0022B0FD01DE0104A114B96
:10CA5000D31ADB081B0443F00300019B1A69019BF6
:10CA60009B680E49FBF74FF90EE0094A094BD31AB0
:10CA7000DB081B0443F00300019B1A69019B9B68C0
:10CA80000749FBF740F900BF03B05DF804FB00BFA6
:10CA9000641A03002C1A0300EC2C0300302D030051
:10CAA000682D030000B583B001901B4A1B4BD31ABD
:10CAB000DB081B0443F0030319491846FBF704F98C
:10CAC000154A164BD31ADB081B0443F00300019BE5
:10CAD0005B681B681A461349FBF704F90E4A0F4BB3
