:020000040001F9
:10900000583D0020F99201000193010003930100F3
:10901000059301000793010009930100000000007F
:109020000000000000000000000000000B930100A1
:109030000D930100000000000F9301001193010047
:1090400019960100139301006D980100139301001C
:1090500013930100000000005194010013930100DC
:109060001393010013930100139301001393010064
:109070001393010013930100139301001393010054
:1090800013930100699601001393010013930100EB
:10909000ED96010013930100F19601001393010076
:1090A0001393010013930100000000000000000072
:1090B0001393010013930100000000000000000062
:1090C00000000000000000000000000000000000A0
:1090D0000000000000000000000000000000000090
:1090E0000000000000000000000000000000000080
:1090F0000000000000000000000000000000000070
:10910000000000000000000000000000000000005F
:10911000000000000000000000000000000000004F
:10912000000000000000000000000000000000003F
:10913000000000000000000000000000000000002F
:10914000000000000000000000000000000000001F
:10915000000000000000000000000000000000000F
:1091600000000000000000000000000000000000FF
:1091700000000000000000000000000000000000EF
:1091800000000000000000000000000000000000DF
:1091900000000000000000000000000000000000CF
:1091A00000000000000000000000000000000000BF
:1091B00000000000000000000000000000000000AF
:1091C000000000000000000000000000000000009F
:1091D000000000000000000000000000000000008F
:1091E000000000000000000000000000000000007F
:1091F000000000000000000000000000000000006F
:10920000DFF80CD000F012F90048004741B7010028
:10921000583D002030B4044654E8000F0D4644E8A1
:109220000053002BF8D1156030BC704730B40446B1
:1092300054E8000F40EA010544E80053002BF7D141
:10924000156030BC704730B4044654E8000F00EAA3
:10925000010544E80053002BF7D1156030BC70477E
:1092600030B4044654E8000F80EA010544E8005396
:10927000002BF7D1156030BC704730B4044654E879
:10928000000F00EB010544E80053002BF7D11560F7
:1092900030BC704730B4044654E8000FA0EB010521
:1092A00044E80053002BF7D1156030BC704770B410
:1092B00004464FF0000054E8006F0D68AE4207BF4F
:1092C00044E80023012044E800630E60002B1CBF2B
:1092D0000020F0E770BC704730B4044654E8000F3B
:1092E00088422CBF451A054644E80053002BF5D1AF
:1092F000156030BC704700000648804706480047AC
:10930000FEE7FEE7FEE7FEE7FEE7FEE7FEE7FEE735
:10931000FEE7FEE7F5960100019201002DE9F05FFE
:109320000546002092469B468846064681464024D4
:109330001BE0284641464746224600F067F8534660
:109340005A46C01A914110D311461846224600F0E1
:1093500016F82D1A67EB01084F462246012000211E
:1093600000F00DF817EB00094E41201EA4F1010496
:10937000DFDC484631462A464346BDE8F09F202AB6
:1093800004DB203A00FA02F1002070479140C2F15C
:10939000200320FA03F319439040704700487047B8
:1093A0007CE7010040EA01039B0703D009E008C9FC
:1093B000121F08C0042AFAD203E011F8013B00F89A
:1093C000013B521EF9D27047D2B201E000F8012BE6
:1093D000491EFBD270470022F6E710B513460A4635
:1093E00004461946FFF7F0FF204610BD421C10F856
:1093F000011B0029FBD1801A7047034611F8012B8D
:1094000000F8012B002AF9D118467047202A04DB06
:10941000203A21FA02F00021704721FA02F3D040ED
:10942000C2F120029140084319467047064C074D8F
:1094300006E0E06840F0010394E807009847103424
:10944000AC42F6D3FFF7E0FE28EE010048EE010043
:109450002DE9F04700268AB0DFF85091B0464FF46E
:109460008075012437460696284602F047FF38B13A
:10947000D9F80403204203D0284602F035FF2643E2
:109480002D1D64007F1CADB2082FEDD34FF4BE74C8
:10949000204602F033FF48B1204602F025FF46F097
:1094A000004606AA0121002002F00AFF404D16F0F6
:1094B000FF0F15D00127002437420DD009EB84019E
:1094C000D1F81005D1F81015C0F3042055F8242068
:1094D000C1F3014102B190477F00641C082CEBD31B
:1094E000002E5FDA4FF0FF30CDF8108054E02819DD
:1094F00010F8507F90F9000027F0C008401C3BD0C6
:1095000007A9404602F0B7FB10B34FEA971940464F
:1095100001F0E4FC55F820701FB1B9F1030F03D03E
:1095200006E0B9F1030F27D104A9404602F0ABFBD6
:109530004FF0A04101EB8800D0F8000706A9C0F366
:10954000014A404602F097FB18B1BAF1020F03D06E
:1095500012E0BAF1030F0FD1B9F1030F08D1BAF13C
:10956000020F1DD00221404602F08EFE761CF6B29C
:1095700017B149464046B847641C042CB7D3002EA7
:1095800010D06A460121002002F09AFE0699009848
:10959000884207D006900498002634460790A6E734
:1095A0000321E0E70AB0BDE8F0870000006000405A
:1095B000202B002000F01F02012191404009800073
:1095C00000F1E020C0F88012704700F01F02012176
:1095D00091404009800000F1E020C0F80011704780
:1095E00000F01F02012191404009800000F1E020BD
:1095F000C0F8001270474907090E002806DA00F08B
:109600000F0000F1E02080F8141D704700F1E02009
:1096100080F800147047000070B54FF48076304633
:1096200002F04AFC0F4DB40540B1304602F04BFC4D
:109630000120C4F808032968002088474FF4827687
:10964000304602F039FC00280AD0304602F03BFCDC
:109650000220C4F808032968BDE8704001200847CB
:1096600070BD00006025002007480021C0F84011AF
:10967000C0F84411C0F84811C0F84C11C0F80011EE
:10968000C0F8041104F058BB0010014000F0F4B819
:1096900070B50E46144900EB400001EBC0051446BE
:1096A000E86A183520B101280FD0022805D113E04F
:1096B000284600F015F9A04201D2002411E022460C
:1096C0003146284600F044F90BE0284600F008F93E
:1096D000A042F4D20446F2E73146284600F00BF9E6
:1096E0000446204670BD0000CC32002004F072BA5F
:1096F00003F03EBB30B54FF08050D0F84412504BD1
:10970000C1F34231196000218300C3F80C11C3F882
:1097100010114B4B1B1F19604A4B1B684A4C2360AE
:10972000484B1B1D1B68241D2360464B08331B68D8
:10973000241D2360434B0C331B68241D2360414BC5
:1097400010331B68241D23603E4B14331B68241DFB
:1097500023603C4B18331B683B4C20342360394B4F
:109760001C331B68241D2360364B20331B68241DCB
:109770002360344B24331B68241D2360314B283372
:109780001B68241D23602F4B2C331B68241D236072
:109790002C4B30331B682C4C40342360294B343322
:1097A0001B68241D2360274B38331B68241D23604E
:1097B000244B3C331B68241D2360224B40331B6821
:1097C000241D2360D0F85802204B00F04F00186091
:1097D0001F480268D20701D08A1E02604FF0102293
:1097E000D2F80002002803DBD2F80402002822DAB3
:1097F000184B0120186018480468002CFCD0152470
:10980000C2F800420568002DFCD0C2F8044202688C
:10981000002AFCD0196001680029FCD0BFF34F8FEB
:109820000E4801680E4A01F4E06111430160BFF384
:109830004F8F00BFFDE70C490A48086030BD0000AB
:109840003C0500400404001020C50040E40E004028
:109850000004004004E5014000E401400CED00E09C
:109860000400FA050090D0030C260020014800688F
:10987000004700006825002010B5124C022020612E
:10988000606111A0A06104F17800E0614FF4007004
:1098900020620020A06260620BA1A164E06204F576
:1098A0001E71E1641021A065C4E91410E06509A1EE
:1098B000E01DFFF7A2FD08A12046FFF79EFD202036
:1098C000A07110BDCC3200205465726D696E616C60
:1098D00000000000525454005345474745520000D1
:1098E0000269C1688A4203D88068401A104400E0C7
:1098F000501A401E70472DE9F047C4681746894644
:1099000006464FF000083069A04201D9051B02E06D
:10991000B168201A0D1AB0686D1E001BA84200D84D
:109920000546BD4200D33D4670682A46204449465C
:10993000FFF738FDB0687F1B2C44A844A944A0421F
:1099400000D10024F460002FDDD14046BDE8F0874F
:109950002DE9F04104468846D4E90207C51BE168B9
:10996000606816460844B54206D94146FFF71AFD1D
:10997000B819E060BDE8F0812A464146FFF712FDC4
:10998000761B08EB050132466068FFF70BFDE660C9
:10999000F0E70000014A024900F026B823B30100B5
:1099A000A825002002E008C8121F08C1002AFAD129
:1099B00070477047002001E001C1121F002AFBD14F
:1099C000704700000121202803DA8140054801404A
:1099D00003E0402802DA2038814009B101207047B5
:1099E00000207047FC06FFBD2DE9F04116460F46EA
:1099F0000446002503E03946B047641C6D1C2078FE
:109A00000028F8D12846BDE8F08110B501220221D6
:109A1000002001F0E3F808B1072810D10722022145
:109A2000012001F0DBF808B1072808D100210A2243
:109A3000084601F0D3F808B1072800D1002010BD76
:109A400072B602F0E7FE00BF02F028FD0028FBD14D
:109A500011481249401AC408012000EB044010A12B
:109A600002F036FE11480068C00700D000BE022098
:109A700000EB04400EA102F02BFEBFF34F8F0B480A
:109A8000E43801680E4A01F4E06111430160BFF35C
:109A90004F8F00BFFDE70000A0EE010058EE01006F
:109AA000466174616C206572726F7200F0ED00E0C7
:109AB00053797374656D20726573657400000000DE
:109AC0000400FA050EB500210091CDE901106A46A7
:109AD00044F20100FFF7B4FF0EBD10B58268C36801
:109AE000934203D001F0F6FB002010BD052010BD0D
:109AF00029B112B1531E134203D0092070470E2022
:109B000070470160838000218160C1600846704712
:109B100010B58268C3689A1A83889A4203D801F004
:109B2000E3FB002010BD042010BD0000074B9B7814
:109B300023B12AB120B10068037C1BB10820704713
:109B4000072070474174426100207047CC2B0020F1
:109B500070B503F06DFE104800240B2104704470B2
:109B60000E4D817014206C602C706C70FFF722FD1C
:109B700006211420FFF73FFD1420FFF726FD0848BB
:109B8000046006211120FFF736FD0548001F00681C
:109B9000A860002070BD0000CC2B002070250020A4
:109BA000081501402DE9FC47DFF8789099F802305C
:109BB00073B368B3052902D20720BDE8FC87436967
:109BC00033B3437C012B25D000270446002588466B
:109BD00016468DF80050684600F0CEF801A804F053
:109BE0007DFBC8B1012101700F4944600968C0E9DB
:109BF0000218C0E904769DF8040089F801009DF878
:109C0000000000F0DDF81420FFF7EAFC2846D4E756
:109C10000820D2E70F46D8E704259DF8000000F0A1
:109C2000CFF8F3E7CC2B00200415014006498978D2
:109C300039B130B1416921B100210174022104F030
:109C400057B8082070470000CC2B002070B50A4E92
:109C500001460A48B578FFF740FF04464DB10020A1
:109C6000B070711C0122C81D02F09EF908B1FFF707
:109C700029FF204670BD000084250020D82C00203C
:109C8000F0B5244E89B01F460D00044672603FD0E7
:109C9000A888296882B22048FFF72AFF002835D11A
:109CA000A889A96882B21C481030FFF721FF00285C
:109CB0002CD1202219496846FFF774FB6069069091
:109CC000207C00B101208DF814008DF81C70607CA0
:109CD00000B10E208DF81500E0680290A068039096
:109CE00020680190606800900A480D4A6946083073
:109CF00002F026F9002809D1B0702068401C05D078
:109D000004490122491CC81D02F04EF909B0F0BDFA
:109D10000720FBE784250020D82C002098E40100D0
:109D200061DE010010B501461048FFF7F1FE0400A6
:109D300019D10F480F4A0178515C19B1001D03F089
:109D400067FB02E00C3003F04BFA60B908490748A2
:109D50000839FFF7C2FE30B9054901220839044825
:109D600002F032F90446204610BD0000E82C002025
:109D70008C2500205425002030B5EFF3108172B6F9
:109D80000D4A9468012324B10370002900D162B602
:109D900030BD93604FF0E023D3F88051074C25404D
:109DA0001560C3F88041D3F8844154605A17C3F852
:109DB000842100220270E8E7F82C0020FC06FFBD99
:109DC0000B498A68002A11D000280FD1EFF31080C8
:109DD00072B60B684FF0E022C2F800314B68C2F84F
:109DE000043100228A60002800D162B6704700006A
:109DF000F82C00202DE9F041064608680C46411C6D
:109E00004FF0A0474FF0010506D005FA00F1C7F862
:109E10000815206802F024FA6068411C02D0002175
:109E200002F00CFA3168A069C1F82405607D227D3A
:109E300031681043C1F86C05D4E900123068C0F8ED
:109E40001425C0F80C15207D012815D1A068411CEF
:109E500002D0002102F0F2F9E068411C05D08540F3
:109E6000C7F80855E06802F0FBF9D4E9021230683F
:109E7000C0F80825C0F81015BDE8F0812DE9F041C3
:109E8000064608680C46411C4FF0A0474FF00105FC
:109E900006D005FA00F1C7F80815206802F0EAF9C3
:109EA0006068411C02D0002102F0D1F93168A0693C
:109EB000C1F82405607D217D32680843C2F86C0535
:109EC000D4E900123068C0F80C15C0F81425207DC4
:109ED000012815D1A068411C02D0002102F0B7F979
:109EE000E068411C05D08540C7F80855E06802F0DD
:109EF000C1F9D4E902123068C0F80825C0F810157D
:109F0000BDE8F08170B51500044609D00020286036
:109F100034B1206820B1A079800703D0072070BD3C
:109F20000E2070BD084600F0E1FAC0B2142804D03B
:109F30002179814203D8042070BD052070BDE288DC
:109F4000216800FB02102860002070BD2DE9FC474D
:109F5000002517880646158090F82D00144689467E
:109F600030B13A462146484600F0D4FA051E09D1E0
:109F7000B0784FF00C0A18B32088C846001DB842CC
:109F800002D95046BDE8FC87684679DF0028F9D140
:109F90002088032108F8001020881921401C80B275
:109FA000208008F800102088401C80B2208000EB40
:109FB0000801BDF8000004F0E0F821880844208082
:109FC000F0780222C8B1218896F9033001F1030C20
:109FD0004846BC45D5D8425421884FF0010C491C55
:109FE00089B2218000F801C02188491C89B22180F2
:109FF00009F801302088401C20807068B8B12188A1
:10A0000090F9003001F1030C4846BC45B9D84254E0
:10A0100021880A22491C89B2218042542188491C86
:10A0200089B2218009F801302088401C20803089C5
:10A0300050B1CDE900474B460622022106F1080047
:10A0400004F064F9051E9DD1308A50B1CDE9004776
:10A050004B460722032106F1100004F057F9051EB4
:10A0600090D1308B50B1CDE900474B4615221421D9
:10A0700006F1180004F04AF9051E83D1306A30B1A8
:10A080003B462246494601F090F8051EDBD1706A36
:10A0900030B13B462246494601F076FC051ED2D13E
:10A0A00096F82C0038B13B4622464946304603F02C
:10A0B000A3FC051EC7D1307838B13B46224649463D
:10A0C000304601F0EBFC051EBDD128465AE718B515
:10A0D00004460020ADF8000013466A46204600F012
:10A0E00006F8002802D0BDF80000204418BD70B565
:10A0F00088B182B10024158803E0065D641C3444F5
:10A10000A4B2A54203D8061976789E4201D08C42AB
:10A11000F3D38C4201D3002070BDA11C1180005DDF
:10A12000401E80B270BD80F8301070472DE9F041BC
:10A130000D00044606D02CB195F87A0000260128BF
:10A1400003D006E00E20BDE8F08195F898000128C4
:10A1500029D0D5F8A000042825D0D5F89C000428E3
:10A1600021D04FF00108A6702C2205F17801201DA6
:10A17000FFF718F984F83060D5F8A4006063D5F8CB
:10A18000A800A0634FF6FF70A4F8A80004F19400A3
:10A19000C4F8A400C4F8AA60A4F8AE6084F8B06063
:10A1A000207810B104E00720CDE7FF2084F85400A8
:10A1B00004F155011F27C4F89410A4F8987004F115
:10A1C00098022846FFF7C2FE0028BCD104F17401B2
:10A1D000C4F89C10A4F8A07004F1A00205F13C00A2
:10A1E000FFF7B4FE0028AED184F85180208BA4F88C
:10A1F000480084F83C80266484F85060606960649C
:10A20000454604F13C02002104F1540072DF0028AD
:10A2100099D1257097E710B50288102A1BD0112A12
:10A2200020D0262A1DD1007A0C46012801D0022810
:10A2300017D1A0780521401CB0FBF1F201FB1201FF
:10A24000204600F01EF800280BD0A16B002908D092
:10A25000BDE810400847C27B012A02D18088A1F8DE
:10A26000A80010BD0C46002184F8B2108088B4F814
:10A27000A8108842F5D120790028F2D10121DFE72A
:10A2800070472DE9F05F044600780F4698B1A7703B
:10A290000025C4F8AA50A4F8AE5084F8B050A079B4
:10A2A000012608B1012F09D0E07980B1012F05D036
:10A2B000022F03D00BE00820BDE8F09F616B21B1B5
:10A2C00084F8B1600820884701E084F8B15004F1B7
:10A2D000AB0100200A5C0AB1304603E0401C0628AE
:10A2E000F8D300204FF002084FF0030A4FF0040BA0
:10A2F000012F06D0022F0CD0032F0FD0042F15D121
:10A3000010E0A17929B194F8241011B908B13046B0
:10A310000DE0E17911B108B1404608E0207A08B1BA
:10A32000504604E0607A08B1584600E02846A07024
:10A33000616B41B1032801D0042804D1607910B1C8
:10A3400094F8B200A0B184F8B35004F13C00182195
:10A350000746FFF740F804F12C0084F83C60814682
:10A3600003F0E6F958B194F82C0084F8510008E0A5
:10A3700084F8B45084F8B36007208847E5E784F890
:10A38000516094F8240050B1484603F0D1F920B14F
:10A3900094F8280084F8520001E084F8526084F8B0
:10A3A0005050A27804F1AA0104F19409052A4DD273
:10A3B000DFE802F065030F1B320084F83160C4F857
:10A3C000A450C4E9101584F83C808020A4F848000B
:10A3D0003EE084F8318087F800A0228ABA81C4F870
:10A3E000A4507960E168B96032E06069B860208BA0
:10A3F000B8813D4684F83C60204603F051FF40B1EF
:10A4000085F814800421204600F077FFF0B905217B
:10A4100015E084F831A017E0E069B860208CB881BD
:10A420003D4684F83C60204603F03AFF50B185F881
:10A4300014800421204600F060FF38B9062184F81A
:10A44000311001E084F831B0C4F8A490A07878B15C
:10A450003A4604F15400D4F8A41072DF00287FF4C7
:10A460002BAF94F8301094F8540073DF0028F6D125
:10A47000616B11B194F83100884700201CE784F823
:10A480003150F5E770B5040012D001461C22144883
:10A49000FEF788FF1248134D0560206850B17ADF3F
:10A4A000002806D12068016829604068686005E0DE
:10A4B0000E2070BD0B487BDF0028FAD108484FF60C
:10A4C000FF711438084A20F8041B0549343901602B
:10A4D0000021FFF72BFB0028EBD0032070BD00000C
:10A4E000782A00204C25002039E2010010B50446EE
:10A4F00000F006F808B1204610BD142010BD000081
:10A50000142801D3002070470146014801F024BB04
:10A51000982A00207CB5054608880C4609309042F0
:10A5200001D90C207CBD68466DDF0028FAD1218856
:10A530000820685420881B21401C80B220802954A8
:10A540002088401C80B220802844DDF80110016082
:10A55000BDF8051081802088801D80B220809DF884
:10A560000010490800D0012129542088401C208077
:10A5700000207CBDF8B52B4D018804466E8821294A
:10A580003BD015DC2848294A1029A0EB02004FEAED
:10A59000D0004FF0030202EB004013D0112925D068
:10A5A000132929D100231A46852130467FDF17E081
:10A5B0003B2932D052292AD056291DD18088132117
:10A5C00076DF0DE01AA102F083F8072000F028FBE7
:10A5D00008B1FFF777FAA1886980184801F0F4FB09
:10A5E000002809D0BDE8F840FFF76CBA14A102F0CA
:10A5F0006FF84FF6FF706880F8BD00200090A088CB
:10A6000069468FDF0028F7D0FFF75CFAF8BD00231A
:10A610001A4619463046B1DFE2E78088132176DF1B
:10A62000DEE7000008250020A0EE010058EE010042
:10A63000436F6E6E6563746564000000142900202A
:10A64000446973636F6E6E65637465640000000037
:10A6500010B51A4C0188606810290ED011292BD131
:10A66000401E606028D1FFF7D0F9002824D021686F
:10A67000002921D0BDE810400847D0B900210122AF
:10A68000084600F0ABFA08B107280FD107220221D3
:10A69000012000F0A3FA08B1072807D10422022103
:10A6A000002000F09BFA20B1072802D0216801B1F8
:10A6B00088476068401C606010BD00004425002091
:10A6C0002DE9F04701883B4E40F2F3194FF6FF7534
:10A6D00010291BD011293ED0122954D0502946D11F
:10A6E000C188F289841D914241D1618902293ED1FC
:10A6F0008688304600F062FE050038D004F10C0078
:10A7000000F0B4F9A8B3294630464EE0C17B8788F3
:10A71000044601292BD1A846284600F04FFE05002B
:10A7200017D02F8000202872234843464A460168EC
:10A73000C5F80A104068C5F80E0004F1100105F1D3
:10A740000A0000F0F1FE6872F08900280FD1294656
:10A750002AE0042013E0808800F030FE040006D0D8
:10A760006068FFF763FA08B103F016F92580BDE8C9
:10A77000F087FFE76868FFF759FA0028F7D0BDE8CF
:10A78000F04703F009B987880646384600F016FE00
:10A790000400ECD02B464A4606F1080104F10A00F9
:10A7A00000F0C2FE607221463846BDE8F04700F076
:10A7B00043BD0000782A00204C2500202DE9F04FF1
:10A7C0000746858802883D48012197B08346102AB4
:10A7D00009D0112A49D01A2A6CD1387AB1EB101F4E
:10A7E00045D2012244E0354C083CA068C0430B90A0
:10A7F00061680BA801F0D1F90B990CA800F0B6FC28
:10A800002C220CA96846FEF7CDFD0026E946A0469D
:10A8100010E000BF09EB46005FF00004B0F804A0B0
:10A8200008EB84005146001D01F08BF9641C1D2CBF
:10A83000F6D3761C0098B042ECD8142D05D317B08F
:10A840000420BDE8F04FFFF73DB92946584601F016
:10A850008EF9294608F1040001F089F9F87B0128F6
:10A8600028D016482946001D15E029461AE0002286
:10A870000221B1EB101F01D2012600E000260F4992
:10A88000083901F11000041D294682B101F06FF969
:10A8900036B12946204617B0BDE8F04F01F067B940
:10A8A0002946204617B0BDE8F04F01F04AB901F043
:10A8B00048F9F5E717B0BDE8F08F00009C2A0020AA
:10A8C000F0B585B016460F4604001D4614D004AA04
:10A8D00019466069FFF716FB00280BD1A5F57F40EC
:10A8E000FF380BD0049848B1007848B13088F4287C
:10A8F00008D9072005B0F0BD0E20FBE70520F9E7D9
:10A900000820F7E700200090019002900390A088B3
:10A91000ADF8000001208DF80200CDE9026769461C
:10A920002846AEDFE6E7000070B5334D04008EB078
:10A930002DCD08AE86E82D005BD0E9B30868A06194
:10A94000214608A862DF002851D1207801258DF822
:10A950003200ADF83050A21C0CA92846A8DF002810
:10A9600045D120216846FEF736FD0220ADF80000F3
:10A9700020788DF802008DF80C509DF80D00F4261B
:10A98000ADF8046040F00C008DF81150ADF80650A1
:10A990008DF80D008DF81250608804F10C026946A4
:10A9A00000F0A4FA002822D120216846FEF713FD0A
:10A9B0000320ADF8000000E01BE020788DF80200D5
:10A9C0008DF80C509DF80D008DF81150ADF8046015
:10A9D00040F010008DF81250ADF806508DF80D00C3
:10A9E0008DF813506088221D694600F07FFA0EB082
:10A9F00070BD0E20FBE7000070E4010070B588B068
:10AA00000446002924D0002C22D008462188102991
:10AA100020D0502924D057291AD10546A188406951
:10AA200006AAFFF76FFA002812D1069E3078002898
:10AA30000ED018216846FEF7CEFC01208DF80000EC
:10AA40000195A088ADF808000396A9696846884773
:10AA500008B070BD08B02146BDE8704002F052BD9C
:10AA600008B02146BDE8704002F020BE007800F03A
:10AA7000010070470149085C7047000030E40100A4
:10AA800007490B5C4FF0A041D1F804250120984004
:10AA900020EA0203C1F808351040C1F80C057047E0
:10AAA0002CE401000249085C012101F0FEBB00001A
:10AAB0002CE401000249085C002101F0F6BB000013
:10AAC0002CE401000649095C4FF0A040D0F80405D1
:10AAD000C84010F0010000D0012080F00100704754
:10AAE0002CE4010010B500242046FFF7DBFF641CB6
:10AAF000042CF9D310BD10B500242046FFF7DAFF6F
:10AB0000641C042CF9D310BD10B50246064B4FF05F
:10AB1000FF3000215C5C944201D1084610BD491C05
:10AB20000429F7D310BD000030E4010010B5002067
:10AB300000F066F908B1062806D1012000F060F99E
:10AB400008B1062800D1002010BD00002DE9F04713
:10AB50000D468146FFF7D8FF0446042836D2DFF8B9
:10AB600074801B481C4EA8F10C0725B3012D0ED094
:10AB7000022D2BD104EB440030444578002D25D024
:10AB8000B968002922D02846BDE8F047084704EB01
:10AB90004401755C0E44717849B10E4A4FF400418E
:10ABA000093A8068FEF7FEFF08B987F80390B1788C
:10ABB00008F80410E2E78068FFF738F804EB440176
:10ABC000314418F804008D78A842D7D0BDE8F0874A
:10ABD00034E4010040250020182A002070B500232D
:10ABE000042810D20D4D00EB4004012A02D10129A6
:10ABF0000CD00022094E00EB4000304461B1012925
:10AC000006D0022906D00723184670BD0E30C2B206
:10AC10002A55F9E74270F7E78270F5E7182A002015
:10AC2000044A014600201279D20702D0084600F0FB
:10AC300003B87047342500202DE9F05F6E4C0546BF
:10AC400000266078B34618B184F801B000F08EFC9D
:10AC50006A4F4FF47A694FF4C87A4FF00108182D03
:10AC600069D2DFE805F00C1313384754696E727B24
:10AC7000727BC58484848484B3B6B9BCC5C500F036
:10AC800075FC3868FEF7D2FF06465CE00020FFF74F
:10AC900019FF00284FF0000008D0FFF703FF022D36
:10ACA00002D14FF4E16008E0484606E0FFF702FFFA
:10ACB000022D01D1C82000E05046410CC0034FF4E2
:10ACC000FA72801841F10001257052000023FEF74E
:10ACD00025FB01462AE00020FFF7F4FE00284FF094
:10ACE000000004D0FFF7DEFE4FF44870E5E7FFF701
:10ACF000E1FEDFE70020FFF7E5FE00284FF000004F
:10AD000002D0FFF7CFFECFE7FFF7D4FED4E7002055
:10AD1000FFF7D8FE00284FF0000002D0FFF7C2FE78
:10AD200001E0FFF7C7FE257041F69A11002238684E
:10AD3000FEF738FF064646E00020FFF7A1FE25702B
:10AD400008E0002051E025703DE084F801800120FA
:10AD5000FFF796FE002240F6CD41E8E784F8018037
:10AD60000120FFF78DFE00224FF48041DFE7786875
:10AD7000FEF75CFF0646D5F1110000D02EB102208F
:10AD8000FFF790FE84F802B01DE0012816D980B2CA
:10AD9000C8214843C117C90341EA5041C0034FF4D9
:10ADA000FA72801841F1000152000023FEF7B6FA52
:10ADB000014600227868FEF7F5FE06460220FFF7FE
:10ADC00079FE84F802803046BDE8F09F00F0CEFBAB
:10ADD000B9E700F0CBFBB4E700F0C8FB04E000F0FB
:10ADE000C5FB0020FFF766FE0120FFF763FEAAE720
:10ADF000FFF781FEA7E700003425002034E40100BE
:10AE0000012103F0EABA00002DE9F8430546861C4B
:10AE100000208DF8000090460F464FF0010968466B
:10AE2000FEF7AAFF1B4C20683860D4E90001401AE5
:10AE3000A16804F21C47081A0EE00121384600F010
:10AE4000A6FE00F02FFC0146384600F0A0FED4E933
:10AE50000001401AA168081A401C8642EDD8B8F1DA
:10AE6000000F03D0052065F3891002E0062065F38A
:10AE70009F50A2682168114004EB8101C8602068DE
:10AE8000304420609DF80000FEF79AFF4846BDE878
:10AE9000F8830000A82E002070B50D4604460A294C
:10AEA00002D10D21FFF7F8FFA0682268411CA160C4
:10AEB0001554D4E90101814204D32046BDE8704015
:10AEC00001F09FB870BD0000034803C8814201D162
:10AED0000120704700207047A82E00200249084436
:10AEE00090F9300070470000202B00202DE9F0433E
:10AEF0008146887891B090460C4600B901208DF8C3
:10AF00003E002088ADF83C0000250095607C694635
:10AF100002F0B6FD6E46A07C711C02F0B1FDE07B34
:10AF200000289DF8020002D040F0080001E020F067
:10AF300008008DF80200217C11B140F0100001E002
:10AF400020F010008DF80200217B11B140F00100CB
:10AF500001E020F001008DF80200217D09B10221FD
:10AF600000E0012161F342008DF802001C2102A8DB
:10AF7000FEF731FA607BC10601D4800617D50E9525
:10AF80000EAFE07C791C02F07BFD9DF8380007973E
:10AF900020F00F00401C20F0F00010308DF8380039
:10AFA0009DF83A0020F00600801C8DF83A00607B86
:10AFB0008DF80800A07B8DF80900142109A8FEF780
:10AFC0000AFA0FA8CDE90906A088ADF83000A068FC
:10AFD00020B1E088ADF82C00A0680D90A06998B36E
:10AFE00001950088ADF81000A06901AD01A9408865
:10AFF000ADF81200A069406806950390A069007B37
:10B0000002F03EFDA069691C407B02F039FDA06999
:10B01000807A00289DF8060002D040F0080001E088
:10B0200020F008008DF80600A169C97A11B140F03E
:10B03000100001E020F010008DF80600A169097AE7
:10B0400019B140F0010002E00DE020F001008DF8A0
:10B050000600A169897B09B1022100E0012161F3A9
:10B0600042008DF80600E06900B10590434609AA48
:10B0700002A94846AADF11B0BDE8F08370B5084CBC
:10B08000050009D010342168002907D00868206025
:10B09000496828468847F6E70834F4E770BD0000A1
:10B0A0000C2B0020054A012120B1012805D1917007
:10B0B000FFF7E4BF51700020FAE770470C2B002027
:10B0C0002DE9F05F26484168F1B3DFF898B00E68CB
:10B0D0008146DBF8004087688078E11B21F07F45DE
:10B0E000ED1CB0B9DFF880804FF48030C8F844031D
:10B0F000C8F804031120FEF75DFA1120FEF765FA87
:10B100004FF0010AC8F800A02F2001F003FF89F8D2
:10B1100002A0B54200D23546124BE8193C3320F06C
:10B120007F401860DBF800105A46091B21F07F4170
:10B13000001B20F07F40C91C81420FD910681860A5
:10B140002F2001F0E7FE00E004E0BDE8F05F1120F1
:10B15000FEF746BABDE8F05F02F06ABBBDE8F09FBB
:10B1600070250020041501400010014073B58CB01B
:10B170000646002000900D9880B100246D462146BF
:10B180000DA800F0E9FC30B1009805EB4000848088
:10B190000098401C0090641C142CF0D32C226946AB
:10B1A0003046FEF7FFF80EB070BD2DE9F04117886C
:10B1B0000646B81D14460D46984202D90C20BDE83B
:10B1C000F0813188072206290AD34FF4486C4FF6E4
:10B1D000FF73614501D9994202D17088062801D2D6
:10B1E0001046ECE7604501D99842F9D1994203D065
:10B1F000984201D08142F3D80520E85520881221D9
:10B20000401C80B2208029542088401C80B22080BD
:10B210004119308802F0B1FF2188084480B22080B3
:10B220004119708802F0A9FF21880844208000207D
:10B23000C5E7FEF747BC000038B54A7A0F4B62B14C
:10B2400000220A725969002906D001228DF80020D7
:10B25000ADF802006846884738BD0A7A62B19B683B
:10B260004C68024619462046FEF79CFC0028F3D0A5
:10B27000BDE8384002F090BB5B68F1E7782A002017
:10B2800010B50021024800F093FC80F3100010BDBF
:10B29000C43200200E4910B50A784C780023A2422F
:10B2A00012D0521CD2B20A70022A00D10B70084A86
:10B2B0000B780C3252F8232002608868104420F08A
:10B2C0007F408860012010BD0360002010BD000099
:10B2D00070250020826883881A4003689A5C0A708F
:10B2E0008168491C81607047C26883881A4003687E
:10B2F0009954C168491CC160704770B50D46044639
:10B30000B0F89810D0F894000122FEF7E0FE00B1EA
:10B31000057004F13C0204F1940104F1540072DF61
:10B3200070BD10B50446C0B2FEF7FCFC204610BD4F
:10B330000C484A8843889A4213D10A88A2F52063B0
:10B34000773B0ED18988C91E8AB282800648074998
:10B350001346401AC008032101EB004004A101F08C
:10B36000C2B9704708250020A0EE010058EE010088
:10B3700044617461206C656E20697320736574206C
:10B38000746F2030782558282564290010B50949A4
:10B39000094800F08EFC08B1FEF794FBF72106483F
:10B3A00000F07BFC002803D0BDE81040FEF78ABB0C
:10B3B00010BD000031B301000429002001460348FC
:10B3C00002888A4200D0002070470000642A0020D2
:10B3D0002DE9FC5F0E008346DDE90C47C6F1000055
:10B3E00098469246814600D40846012503E000BFF6
:10B3F00090FBFAF06D1C5045FADAA84500D9454695
:10B4000024B1002E01DB780700D5641EB80702D5F1
:10B41000B8F1000F0AD0F80708D13CB1A54205D217
:10B4200020215846641EFFF737FDF6E7002E02DAAA
:10B430004E462D2102E0780703D52B215846FFF711
:10B440002BFD07F0030002280BD1B8F1000F08D143
:10B450003CB1A54205D230215846641EFFF71CFDC1
:10B46000F6E7CDE90047434652463146584602F0DA
:10B4700089FEBDE8FC9F000070B50D4604460068DB
:10B480004FF4887101F00EFD4FF49071206801F0C7
:10B4900009FD4FF49271206801F004FD4FF4A27190
:10B4A000206801F0FFFC20681149C0F804132068EF
:10B4B000690740F30730090E002806DA00F00F0094
:10B4C00000F1E02080F8141D03E000F1E02080F896
:10B4D00000142068012140F3073000F01F02914062
:10B4E0004009800000F1E020C0F8001170BD0000AC
:10B4F00010030200024600201268530713D502F021
:10B500000300012802D002280CD105E0C2F3831009
:10B510000B68801C184404E00223086803EB925275
:10B520001044086001207047F0B58488A518944243
:10B5300000D82246A41AC288D6189A4200D81346C8
:10B54000D21A4B880788BB420CD34088834209D863
:10B550008888A04206D3A84204D8C888904201D364
:10B56000B04201D90020F0BD0120F0BD0A4810B55D
:10B57000807860B1002401E0022C06D02046FFF75D
:10B5800091FA641C042CF7D310BD0324F6E7BDE840
:10B590001040FFF7A7BA000034250020F7210180F2
:10B5A0001721418000210171417170472DE9F04759
:10B5B000394E002780463D46DFF8E090D6F804A0DB
:10B5C00057E003D00446D0F81C8035E099F80020FD
:10B5D00002EB4201521CD2B289F8002009EBC101F2
:10B5E00099F80230091D9A4201D189F80050486843
:10B5F0000A780446012A12D0022A02D0032A3BD13B
:10B6000008E002F045FB00B10127257434E0057421
:10B61000C06900E070680028F9D170602CE0207CDF
:10B6200050BB88686060C868A0600869E0604869CD
:10B63000A061F07800B165606268B168184B501A7B
:10B6400020F07F40984202D2A168084406E0881AA0
:10B65000A16820F07F40814202D9081A206000E0F2
:10B66000256065600120A56020742046E56102F038
:10B67000F1FAB8F10000A4D199F8001099F801008E
:10B680008142A3D117B97168514502D00120BDE8AC
:10B69000F0870020FBE7000070250020CC2B002065
:10B6A000FFFF7F002DE9FF410026234800F06CFAE0
:10B6B0002148001F074600F067FA204C60680090A0
:10B6C000A56800E000986946284004EB80000C3033
:10B6D000FFF710FF0028F5D101AA009901EA050340
:10B6E00004EB8303491CDB6842F82030401C0091C6
:10B6F0000228F2D3019800F0030001280BD00228A1
:10B7000010D10198032101EB90500099BDF80A6017
:10B7100001EB900005E00198BDF80A60C0F38310CA
:10B7200008440090384600F02CFA08B10098606098
:10B7300004B03046BDE8F081C0320020A82E0020C1
:10B74000ACB018226F496846FDF72CFE6E48069093
:10B750006E494FF48070CDE90701099007236C4AC8
:10B7600006A96846FEF78CFA08B1FEF7ABF94FF46C
:10B770000041002001F018F808B1FEF7A3F900F02D
:10B780007FFEFEF7E5F908B1FEF79CF901F022F91A
:10B7900008B1FEF797F95F480125056001F0AEFAA0
:10B7A00008B1FEF78FF9002401A90120019401F0EE
:10B7B00049F908B1FEF786F901A801F0D7F908B1F7
:10B7C000FEF780F99DF80C0053A120F00F00401CFB
:10B7D00020F0F00010308DF80C000B2203A87CDF65
:10B7E00008B1FEF76FF900941020ADF800003C207E
:10B7F0000194ADF80200ADF804404FF4C870ADF804
:10B80000060068467ADF08B1FEF75CF9FFF7BEFD77
:10B81000444800906946444800F0E1FA08B1FEF758
:10B8200051F94248029002A94148FFF77DF808B15A
:10B83000FEF748F9AC216846FDF7CDFD02208DF8F2
:10B8400000008DF8024005208DF803003848ADF85F
:10B850004C50801F14904020229044F2506023905E
:10B860008DF87C50334829902F4869460C30FEF7FC
:10B870005DFC08B1FEF726F92B4801210C30FEF7DC
:10B8800052FC1C216846FDF7A6FD4FF42030CDE99F
:10B8900000404FF470200290274805900325274868
:10B8A0008DF80C500690ADF80E408DF810406846AB
:10B8B000FEF7E8FD08B1FEF705F921A0FEF76AF8EA
:10B8C00024482549401AC00805EB004023A100F098
:10B8D000FFFE154803210C30FEF7D3FC08B1FEF73C
:10B8E000F1F8114804220C3090F85410012077DF51
:10B8F00008B1FEF7E7F800F0D1FD0028FBD101F018
:10B900007DF8F8E714E40100042700200428002053
:10B91000E9DD0100780500404E6F726469635F5590
:10B920004152540011CA0100142900202DD40100F5
:10B9300014250020C5D40100E9D4010033B2010070
:10B940000D0A5541525420737461727465642E0D52
:10B950000A000000A0EE010058EE01004465627587
:10B9600067206C6F6767696E6720666F722055414C
:10B970005254206F76657220525454207374617251
:10B980007465642E0000000070B5144682880E466F
:10B9900005462088111D0144921C994201D8FE2AB7
:10B9A00001D90C2070BD521C32542088FF21401C4C
:10B9B00080B2208031542088401C80B220808119C0
:10B9C000288802F0DAFB2188084480B22080AA8807
:10B9D00042B1A96841B13044FDF7E4FC2088A98850
:10B9E00008442080002070BD072070BD2DE9F0477D
:10B9F000C5881E1DB6FBF5F78946B6FBF5F1044672
:10BA000005FB176C407916686843DDF820A0F7182D
:10BA1000001F874200D9C61A166001E02468491E3B
:10BA20000029FBD1A5EB0C078846B74216D818E0D1
:10BA300004EB0C00001D09EB0803BAF1000F3A46B5
:10BA400002D00146184600E01946FDF7ABFC246819
:10BA5000F61B4FF0000CB844B54201D9374600E060
:10BA60002F46002EE4D1BDE8F087000030B5024635
:10BA700051B100F0B7FE0021074C08E034F8213046
:10BA80001568AB4202D11160002030BD491C8142D3
:10BA9000F4D3052030BD000000000000F8B50F46CB
:10BAA000017814460546012901D1687830B1208813
:10BAB000821C9A4232D8012902D006E00720F8BD44
:10BAC00069780144891C994228D8181A801E86B2C8
:10BAD000ADF800602188B81C084469467DDF002865
:10BAE000EDD12978022904D06878BDF80020904271
:10BAF00005D3BDF80000B04201D809200AE00820B3
:10BB0000012905D16978B14202D8ADF8001001E0F1
:10BB1000ADF80060BDF80010FE2901D90C20F8BD79
:10BB20002288491CB9542188491C89B22180785443
:10BB30002088401C2080BDF8001008442080002090
:10BB4000F8BD01F01F0301229A40D243490900EBDE
:10BB50008100114600F021B84A0950F8220001F096
:10BB60001F0201219140084000D00120704701F0E0
:10BB70001F0301229A40490900EB8100114600F0A1
:10BB80001CB8002100F00FB8012100F016B808B56C
:10BB90006A46FDF772FB009808BD08B56A46FDF7D6
:10BBA00052FB009808BD08B56A46FDF74CFB08BD7E
:10BBB00008B56A46FDF72EFB08BD08B56A46FDF7D5
:10BBC00035FB009808BD08B56A46FDF763FB009891
:10BBD00008BD38B5044600258DF800506846FEF7CC
:10BBE000CBF821686268086890420ED9401E086050
:10BBF0000178238AE26801FB0325227A2168101A62
:10BC0000C0B20A79824200D208719DF80000FEF7A6
:10BC1000D7F8284638BD38B5054600208DF8000015
:10BC20000C466846FEF7A8F8E868298A201AB0FB97
:10BC3000F1F12A681068431C136001709DF8000040
:10BC4000FEF7BEF838BD10B530B1017A426803681E
:10BC5000891AC9B21A6006E00E2010BD03681A687E
:10BC6000541C1C601170491EC9B2F7D20068002133
:10BC70000171084610BDC20800F007030120895C6D
:10BC800098400840704710B5C20800F00703885C70
:10BC900001249C402043885410BD28B1A1F1170213
:10BCA000E12A03D3072070470E207047018000204F
:10BCB000704710B560B1C160F72120F8021B20F871
:10BCC000021BFB2100F8021BFFF768FC002010BDDF
:10BCD0000E2010BD7CB50C468188002933D1028826
:10BCE0000025102A06D0112A09D03A2A0BD0552A4D
:10BCF0002ED129E00146204601F03AFC28E0A01DA3
:10BD0000FFF74CFC24E02246408934F8063F83428A
:10BD100000D818466080172800D217206080D068AD
:10BD200078B1607968B1184BD3E90003CDE900031D
:10BD3000ADF802106088ADF80400D368694610467B
:10BD40009847657125717CBD0146204601F056FC7F
:10BD5000A07A0028F7D02846E188A5DF012680B127
:10BD60001128F0D001F07EF802460848084902B0D8
:10BD7000401AC00806EB0040BDE8704005A100F085
:10BD8000ABBCA572E6727CBD60E4010058EE010018
:10BD900058EE010073645F626C655F676174746381
:10BDA0005F65786368616E67655F6D74755F726506
:10BDB000717565737428292072657475726E656477
:10BDC0002025732E0000000020B10278DE2A03D067
:10BDD000082070470E20704741800020704760B1F6
:10BDE00059B10278DE2A0AD009684160DE2101706B
:10BDF0004FF6FF714180002070470E2070470820E9
:10BE000070477FB5054600294DD0002D4BD00878EE
:10BE10000C46DE2847D1A8886188884202D1204696
:10BE200002F04AFA2888012825D002283BD01128A0
:10BE30003AD0512837D135F8040F6188884232D181
:10BE4000A978A81C02292ED1017A042903D0062939
:10BE500001D0052927D10021009102228DF8002070
:10BE600001914FF4C07202910391ADF80420007A61
:10BE700005280FD010E0297A2046012913D1A9887E
:10BE8000428891420FD10121017204B0BDE8704097
:10BE900002F012BAADF8041028886946B0DF002815
:10BEA00001D0616888477FBDA88861888842FAD13F
:10BEB0004FF6FF7060807FBD00F180400068002871
:10BEC00000D00120704708B500F1804000210160DA
:10BED0000068009008BD000070B50B4C207808B1D8
:10BEE00085250FE00020A06060602061E0600748C9
:10BEF00000F0F4FF054600F04DFF08B900F0D8FF50
:10BF000001202070284670BD0C2B0020A5B0010038
:10BF100038B500258DF800506846FDF72DFF074C19
:10BF2000E068401EE060E06810B900F0E5FFA57031
:10BF30009DF80000FDF744FF38BD00000C2B0020E9
:10BF4000F0B505460478154889B0164640F8242017
:10BF5000124A0869121DA2F1080742F82400487F1E
:10BF6000385520226846FDF71DFA04942878385C7D
:10BF700048B10EB10A4A00E000226946281D01F0CE
:10BF800047F909B0F0BD0EB1064A00E0002269464B
:10BF900005F10C0000F0F4FFF3E700005825002045
:10BFA00059E0010001DF010030B40378054CE35C87
:10BFB0001BB130BC001D01F061B930BC0C3001F088
:10BFC00047B800005425002030B40378054CE35CEA
:10BFD0001BB130BC001D01F0D3B930BC0C3001F0F6
:10BFE000ADB80000542500200FB408B5039900290E
:10BFF00004D004AA00926A4600F00FF801B05DF880
:10C0000014FB10B582680446002A05D0D4E9040365
:10C01000216898470020A06010BD2DE9FC4791469B
:10C020000C00804676D014F8011B39B125290ED0BA
:10C030004046FEF731FF20780028F4D198F80C0034
:10C04000002867D04046BDE8FC47FFF7DABF002074
:10C05000012221782B291BD02D2902D0302908D18B
:10C0600002E040F0010001E040F00200641C002A00
:10C07000EFD100252A290ED02178A1F130020A2A19
:10C0800011D205EB850201EB4205641C303DF1E75E
:10C0900040F00400EAE7D9F800100B1DC9F80030A1
:10C0A0000968641C0D44217800232E290BD114F853
:10C0B000011FA1F130020A2A05D203EB830201EB32
:10C0C0004203303BF3E76C290DD068290BD0692976
:10C0D00021D00BDC252918D0582931D063290ED066
:10C0E000642915D117E014F8011FECE7702969D015
:10C0F000732932D075291BD0782909D120E0D9F8CD
:10C100000000011DC9F8001001784046FEF7C4FE8A
:10C11000641C90E76CE0D9F800100A1DC9F80020F3
:10C120000968CDE900500A224046FFF751F9EFE7D0
:10C13000D9F800100A1DC9F8002009680A2206E093
:10C14000D9F800100A1DC9F8002009681022CDE9AD
:10C150000050404602F016F8DAE7D9F80010002740
:10C160000A1DC9F800200E68C00705D112E040463C
:10C17000761C7F1CFEF790FE31780029F7D104E091
:10C18000202140466D1EFEF787FEBD42C0D9002D1E
:10C19000F6D1BDE74EB13046FDF728F9074604E079
:10C1A000202140466D1EFEF777FEBD4206D9002DC8
:10C1B000F6D103E04046761CFEF76EFE317800298A
:10C1C000F8D1A5E7D9F80000011DC9F800100568ED
:10C1D00030214046FEF760FE78214046FEF75CFEC7
:10C1E00008200021CDE90001034610222946B0E7CE
:10C1F000BDE8FC8770B541EA4201DDE904564FF025
:10C20000A04441EA830141EA052104EB800041EAB0
:10C210000641C0F8001770BD70B541EA4201DDE982
:10C2200004564FF0A04441EA830141EA052104EBA2
:10C23000800041EA0641C0F8001770BD1CB500221D
:10C240000B46009211460192FFF7D4FF1CBD1CB5AE
:10C2500000220B46009211460192FFF7DDFF1CBD44
:10C260001CB5002100910B46012201911146FFF7F8
:10C27000C1FF1CBD1CB5002100910B46012201919C
:10C280001146FFF7C9FF1CBD4FF0A04202EB800032
:10C29000D0F8002722F44032C0F80027D0F8002759
:10C2A00042EA0141C0F80017704701224FF0A04355
:10C2B000824011B1C3F808257047C3F80C257047B8
:10C2C00018B5084B6C4601441B68009306E000BF9C
:10C2D00054F82030D3F81035401C08C28142F7D8FA
:10C2E00018BD000080E40100034908B5084400219E
:10C2F00001600068009008BD00600040024940589D
:10C30000012800D0002070470060004030B5154A79
:10C3100001460020D2F8104423460AE0DB681D796C
:10C32000854205D1401C0A28F6DB4FF0FF3030BDB6
:10C330001B68002BF2D1431CF9D0CB681871D2F8DE
:10C34000103443B1DB68CC681B682360D2F810243A
:10C35000D268116030BDC2F81014C96800220A60AA
:10C3600030BD0000A82E00207047FDF78FB9704740
:10C3700008B5034A00924023024A00F005F808BDC0
:10C38000A9D90100102D0020F0B595B01C46154626
:10C390000F4608461A9E00F0F7FA182109A8FDF783
:10C3A0001AF80E96CDE909540023082203A938464D
:10C3B00000F0FFFA05980690BDF81000ADF81C00DB
:10C3C000BDF81200ADF81E0000208DF82100039882
:10C3D000082600F00300012802D0022818D032E01D
:10C3E00003983346850AC0F3C2008DF820000398F5
:10C3F0000FA9C0F38314A200384600F0DAFA09A8A6
:10C40000009006AB22460FA9284600F019FA1AE060
:10C410000398840DC0F3C2008DF82000082C01D2CF
:10C42000254600E0082533462A460FA9384600F085
:10C43000C0FA2E44641B09AB06AA29460FA800F0D7
:10C440005BF9002CEAD1384600F0A4FA15B0F0BD33
:10C450000A4A012902EBC00007D0022907D00329AC
:10C4600007D0042907D0002070470220704704201D
:10C4700070470079704740797047000058EE01001E
:10C4800010B5FFF772FF04210348FFF73FFF024991
:10C490000120C968487110BD48EE01002DE9F04F38
:10C4A0008DB0FEF711FD18B100200DB0BDE8F08F82
:10C4B0007E4C4FF0000BC4F818B4BFF34F8F606888
:10C4C0000290A568D846284004EB80000CE000BF2D
:10C4D000D4F8180470B921680298814201D86160CB
:10C4E000E2E7284004EB80000C3002A9FFF702F8D5
:10C4F0000028EDD1002005AA029901EA050304EB0A
:10C500008303491CDB6842F82030401C029102285A
:10C51000F2D3059800F00300022802D001284DD084
:10C52000AAE005985022810D8946B2EB905F00D8B1
:10C5300050210E4666F39F50059008315C4800F08C
:10C54000DAF9070078D000F01FFA4346082205A95F
:10C55000384600F036FA029908F1080A2940681AAC
:10C560008000001D864222D9504D0C3530B1C2B238
:10C5700004EB8101301A90460C3104E02946F2B2F6
:10C58000002590462846C6B25346384600F019FAB0
:10C590000AEB080325B132462946384600F011FA65
:10C5A000029909F1030001EB900002903BE004EBDB
:10C5B00081015346324638460C31EFE70598C0F307
:10C5C0008310062800D30620059960F38911C1F372
:10C5D0008310801C05918100354800F08CF907001C
:10C5E0004AD000F0D1F94346082205A9384600F0A8
:10C5F000E8F908F1080800260FE00298434600EA2F
:10C600000501401C04EB81010290042238460C31E4
:10C6100000F0D7F908F10408761C0598C0F38310E0
:10C62000B042EAD847B1D4F81054D4F8180478B11D
:10C63000384600F0AFF934E01EE0E86840790128A0
:10C6400004D12A682846394612689047E868056888
:10C65000002DF2D1384600F09DF98DF800B0684603
:10C66000FDF78AFBD4F8180408B9029860609DF8B9
:10C670000000FDF7A5FB14E0D4F8104405E02168A4
:10C68000204689688847E0680468002CF7D109488B
:10C690000949401AC008022101EB004007A100F03F
:10C6A00017F8FEF711FC80F00100FEE6A82E00202E
:10C6B000C0EE0100A0EE010058EE01004261636B84
:10C6C000656E647320666C757368656400000000B5
:10C6D00000231A4601F038BA08B5012300926A46D1
:10C6E00001F032FA08BD1CB5CDE9002302236A46E9
:10C6F00001F02AFA1CBD00002DE9F0470E468046E5
:10C700001C469246082940D894F80C9000202073CB
:10C710001946104601F034F80025B54206D218F843
:10C7200005201BA12046FFF75FFC03E01AA120466D
:10C73000FFF75AFC6D1C082DEFD318A12046FFF718
:10C7400053FC0025B54212D218F805707E2F08D888
:10C75000FCF724FE0068C05D10F03E0F01D03A46A1
:10C7600000E02E220EA12046FFF73EFC03E00DA1C3
:10C770002046FFF739FC6D1C082DE3D3012221462A
:10C78000504600F0DFFF84F80C90BDE8F087000011
:10C790002025303278000000202020007C0000009E
:10C7A00025630000200000000B4810B5FF218160C8
:10C7B000002101604160C0F81814C0F8141480F81A
:10C7C0002014064800F0E4F8002803D1044800F0E3
:10C7D00021F9002010BD0000A82E0020C0EE0100AD
:10C7E00048E6010002480349401AC00870470000AB
:10C7F000C0EE010058EE010013B56846FFF736F9A8
:10C8000008B100201CBD0248009950F831001CBD41
:10C8100058EE010070B509480125D0F8104480F8A1
:10C82000205407E0E0684571216820464968884740
:10C83000E0680468002CF5D170BD0000A82E00202F
:10C840002DE9FF4781460C9D00200C462F7B287365
:10C85000984616462946184600F092FF072E42D207
:10C86000DFE806F004090F161F2A3600494628465D
:10C87000FFF7BAFB37E0494628462268FFF7B4FBCA
:10C8800031E0D4E9002349462846FFF7ADFB2AE012
:10C89000A0680090D4E9002349462846FFF7A4FB8E
:10C8A00021E0D4E90201CDE90001D4E900234946A1
:10C8B0002846FFF799FB16E004F1080007C88DE849
:10C8C0000700D4E9002349462846FFF78DFB0AE01C
:10C8D00004F108000FC88DE80F00D4E90023494691
:10C8E0002846FFF781FB00222946404600F02AFF38
:10C8F0002F73BDE8FF872DE9F041058A80462D1F83
:10C900004819C01CB0FBF5F0C6B24046FFF761F90C
:10C91000041E19D00020207101206071E5800027DD
:10C920002546761EC4F800800BE04046FFF751F91B
:10C9300060B16179491C6171286005467F1CC0F8AF
:10C940000080B742F1D32046BDE8F081204600F0D8
:10C9500002F80020F8E72DE9F041457901466B1E09
:10C96000002201E00968521C9A42FBD30F6801467D
:10C97000002605E038460C68FFF74DF92146761C85
:10C98000AE42F7D3BDE8F0810121001DFFF7FFB8EB
:10C99000FFF759B910B504460121001DFFF713F93F
:10C9A00010F0FF0F04D12046BDE81040FFF7D3BFC1
:10C9B00010BD1CB501920122009201AAFFF716F8E2
:10C9C0001CBD1CB501920022009201AAFFF70EF8CF
:10C9D0001CBD0000064910B500204870091D086004
:10C9E000BFF35F8F0349044800F0F8F9002010BD41
:10C9F000A0250020E0E40100042D002010B500F087
:10CA0000C9F908B141DF10BD20BF40BF20BF10BD34
:10CA1000FDF758B8826800219160826811618268D0
:10CA200051618268D160826851608068016070479E
:10CA300020B1034909680160002070470E2070474B
:10CA4000CCE601002DE9FE4307460E460846FFF7F7
:10CA5000EFFF002878D100250095019506208DF87C
:10CA600000704FF00108ADF8040002958DF80280C7
:10CA700069462020326869DF3449354A891AC90875
:10CA8000012202EB014430B100F0ECF902462046ED
:10CA90003049FFF721FE0095019502958DF8018040
:10CAA00069464020326869DF30B100F0DBF90246A8
:10CAB00020462949FFF710FE00958DF80070F720F9
:10CAC000ADF802000195029569462320326869DFBE
:10CAD00030B100F0C7F9024620462049FFF7FCFDBF
:10CAE0000095019502958DF8008069460120326815
:10CAF00069DF30B100F0B6F9024620461849FFF769
:10CB0000EBFD4FF4B0600090019502956946A120BD
:10CB1000326869DF30B100F0A5F9024620461149BC
:10CB2000FFF7DAFD0095019502958DF800506946F2
:10CB3000A020326869DF30B100F094F90246204647
:10CB40000949FFF7C9FD0020BDE8FE83B0EE0100F2
:10CB500058EE0100C8EC010010ED01005CED010091
:10CB600028EC010074EC0100D4EB01002DE9F04148
:10CB70000546076860DF804619491A482A68081A7E
:10CB8000C608BA4219D9022000EB064416A1204675
:10CB9000FFF79EFD20463A461FA12B68FFF7A3FD35
:10CBA0004FF08050D0F80C012968800200F100504D
:10CBB000421A204625A1FFF78FFDB8F100004FF083
:10CBC00001040AD000F04EF9024604EB06402AA107
:10CBD000FFF782FD4046BDE8F0812F480470F9E779
:10CBE000B0EE010058EE0100496E73756666696328
:10CBF00069656E742052414D20616C6C6F63617485
:10CC0000656420666F722074686520536F66744493
:10CC100065766963652E00004368616E6765207400
:10CC200068652052414D207374617274206C6F638B
:10CC30006174696F6E2066726F6D20307825782080
:10CC4000746F20307825782E000000004D617869DF
:10CC50006D756D2052414D2073697A6520666F7243
:10CC6000206170706C69636174696F6E20697320F4
:10CC7000307825782E00000073645F626C655F6514
:10CC80006E61626C6528292072657475726E6564C8
:10CC90002025732E000000000B26002030B515481B
:10CCA000ADF5017D0078002821D04FF4FA7500BF62
:10CCB000ADF8005280A9684661DF38B1052816D06A
:10CCC0000DF5017DBDE83040FCF7FCBE6C460A491D
:10CCD0007DA800F083F806E0D0E9002120469047C7
:10CCE0007DA800F092F87F980028E1D0F4E70DF5D8
:10CCF000017D30BD0B260020D0E601007CB5194C2B
:10CD0000207808B108207CBD0120A070002000F030
:10CD100015FE112819D0002000F028FE1248002628
:10CD2000006801908DF800606846FDF725F80F490E
:10CD300001A810DF05000AD0002020709DF8000037
:10CD4000FDF73EF82DB128467CBD00207CBD0120BA
:10CD5000F3E7A670667000F0CBFE012000F006FE3F
:10CD6000F3E700000826002064E60100419A010074
:10CD70000EB50749684600F031F805E0D0E900102B
:10CD80008847684600F041F802980028F6D10EBDA9
:10CD900080E6010001480078704700000826002066
:10CDA0001FB568464BDF30B1052814D004B0BDE88C
:10CDB0001040FCF787BE084901A800F00FF806E014
:10CDC000D0E900210098904701A800F01EF80398D0
:10CDD0000028E6D0F4E71FBDECE601000160096819
:10CDE0004160AFF3008010B5D0E90021536899424B
:10CDF00001D1002104E0D1E90034A34202D0194658
:10CE0000816010BD08314160F0E7816800290BD0D6
:10CE1000026892680A44826041684B689A4203D172
:10CE200008314160FFF7DFBF704700000C4A10B5C2
:10CE300002F594730EE0991AC91001EBD1714910F3
:10CE400002EBC1010C68844201D90B4602E005D215
:10CE500001F108029A42EED3002010BD486810BDCF
:10CE600000E5010000B5FFF7E1FF002800D101480F
:10CE700000BD0000ECE401004058002800D0012073
:10CE8000704708B5002242504058009008BDD0F8C5
:10CE90000403084000D0012070474058002800D00B
:10CEA0000120704708B5002242504058009008BD4C
:10CEB00008480068012110F0010F06D14FF0E02072
:10CEC000C02280F80024C0F8001103490120086046
:10CED0007047000000E100E01805004005490246E7
:10CEE00000200B790BB1852070470A6001220A717E
:10CEF00070470000602500200449012008600448B4
:10CF00000168C1F300410029FAD170470C000040CC
:10CF100018040040002802D00149800108477047EA
:10CF200091E401000121B1EB507F01D10120704754
:10CF30000020704738B50D4600F06EFC040014D098
:10CF400000208DF800006846FCF716FF207928B114
:10CF50009DF80000FCF734FF112038BD012025604A
:10CF600020719DF80000FCF72BFF002038BD000069
:10CF70000149024800F0DCBF7C2B0020002000406B
:10CF80002DE9F0410546007916460F4600EB4001B9
:10CF90002C4A01EBC00102EB810494F82A1011B174
:10CFA0000820BDE8F081284951F820102868FFF7D3
:10CFB000C1FF08B11120F4E739462846FCF71AFFF3
:10CFC00066603869206030004FF001062DD03F7F49
:10CFD0004FF48E712868FFF754FF4FF4A271286850
:10CFE000FFF74FFF28681949C0F8041328684FEA73
:10CFF000471140F30730002806DA00F00F0000F177
:10D00000E02080F8141D03E000F1E02080F8001417
:10D01000286840F3073000F01F0106FA01F14009CB
:10D02000800000F1E020C0F8001128680421C0F859
:10D0300000150020A061E06184F8290044F8140F75
:10D04000A675AEE77C2B002084E40100800002007E
:10D050002DE9F05F054600794FF4017600EB4003BF
:10D0600003EBC000344B03EB80040020636813B172
:10D070002B68C3F80863A3694FF000096BB1E0693E
:10D0800038B1606810B12868C0F804631120BDE8A9
:10D09000F09FE2610120216105E0C4F82490A261C3
:10D0A000E160C4F81C9094F82910014302D128468D
:10D0B00000F00BFC60680028286803D0C0F8046307
:10D0C0000020E4E74FF4A2763146FFF7DAFEB246DD
:10D0D0004FF4927B59462868FFF7CEFE06464FF480
:10D0E00084712868FFF7C8FE804651462868FFF71C
:10D0F000C3FE074648EA07003043EBD056EA070074
:10D1000007D12146286800F0B1FBA169606A81421D
:10D11000E0D8C4F818900EB10320B8E70FB10F2083
:10D12000B5E794F8291001200029296801D008608A
:10D13000C6E74860C4E700007C2B00202DE9F047DB
:10D14000054600790B4600EB400101EBC000234986
:10D1500001EB8004284600F043F810B11120BDE82F
:10D16000F0874FF00008C4F82080A360626184F863
:10D1700028804FF48E76474631462868FFF781FEB7
:10D1800028684FF00109C0F808902146286800F08F
:10D190000DFE606800BBD5F800A00EE094F82800F2
:10D1A00008B10F2716E031465046FFF765FE00280C
:10D1B000F4D02146504600F0F9FD216A60698142B1
:10D1C000F1D331462868FFF757FE0028F9D02868C8
:10D1D000C0F80C90C4F814803846C0E77C2B0020BF
:10D1E000007900EB400101EBC000044901EB800035
:10D1F0004069002800D00120704700007C2B0020EF
:10D200000149024800F040BFA82B00200020004048
:10D210002DE9F0410546164600790F46154A00EB08
:10D22000C00102EB810494F8201011B10820BDE880
:10D23000F081114951F820102868FFF77BFE08B1F2
:10D240001120F4E739462846FCF718FE6660386975
:10D2500020601EB1397F2846FEF70EF928680821A4
:10D26000C0F800150020A061E0616061012184F830
:10D270002010DCE7A82B002088E401002DE9F05FF6
:10D28000044600790E4600EBC001DFF8F0A0174617
:10D290000AEB81053046FFF745FEB0B168684FF0F4
:10D2A00000084FF4047910B12168C1F80893A86907
:10D2B0004FF0000B80B1E86948B1686810B1206890
:10D2C000C0F804931120BDE8F09F1020FBE7EF6148
:10D2D0004FF001082E6102E0EE60C5E9067B0025F3
:10D2E0004FF488712068FFF7DDFD4FF4A2712068CC
:10D2F000FFF7D8FD2068C0F83465C0F8387520689D
:10D30000B8F1000F12D0D0F8001241F02001C0F89F
:10D3100000122079D04600EBC0010AEB8100406882
:10D3200038B12068C0F804932846CCE70121016099
:10D33000EFE74FF4887A4FF4A27951462068FFF75F
:10D34000ACFD074649462068FFF7A7FD06464FF4A7
:10D3500092712068FFF7A1FD014647EA06000843E5
:10D36000EBD0227902EBC20308EB8302C2F818B0BB
:10D3700001B10325002ED7D00F25D5E7A82B00201B
:10D380002DE9F04704460E460079204900EBC00025
:10D3900001EB800517463046FFF7C4FD30B120464B
:10D3A00000F036F820B11120BDE8F0871020FBE72F
:10D3B0006F61AE604FF49076002731462068FFF72A
:10D3C00071FD4FF4AC7841462068FFF76BFD206893
:10D3D000AA686969C0F84425C0F848152068012189
:10D3E0008160686878B9B14649462068FFF755FD05
:10D3F000064641462068FFF750FD0643F4D000B1D1
:10D400000F27002068613846CEE70000A82B0020D7
:10D410000079054900EBC00001EB8000406900285D
:10D4200000D0012070470000A82B00202DE9F0411A
:10D4300005460078002828D1154816490026401ACC
:10D44000C008012101EB004710E02869805DFCF76E
:10D4500069FC040009D0112CF7D0384622460EA1F1
:10D46000FFF73AF92046FCF72DFB761CA88AB0425C
:10D47000EBD8A98A2869084410F8010C0D2804D1BA
:10D480000A20FCF74FFC1128FAD0BDE8F08100001B
:10D49000A0EE010058EE01004661696C65642072DF
:10D4A0006563656976696E67204E5553206D6573B7
:10D4B000736167652E204572726F7220307825780F
:10D4C0002E20000010B550B103280CD10220FDF72A
:10D4D000A7FB002807D0BDE81040FCF7F3BABDE871
:10D4E000104000F0E5BA10BD0078002807D10448CC
:10D4F0003B21408876DF002801D0FCF7E3BA704773
:10D5000008250020F0B58BB0002601960D46044694
:10D510008988406901AAFCF7F5FC0AA8CDE90860F2
:10D520000227ADF82070ADF82260218AA88808AAE9
:10D53000ADDF002819D1A069002816D00998FDF7A1
:10D5400095FA002811D0019E0EB1012030701821EB
:10D5500002A8FBF740FF8DF808700394A888ADF887
:10D5600010000596A16902A888470BB0F0BD000025
:10D5700070B502468888C97B00EB400302EB430488
:10D58000A41D012901D1118821802188628891423E
:10D5900013D9A5DF012578B111280FD0FFF762FC60
:10D5A000024607480749401AC00805EB0040BDE89D
:10D5B000704005A1FFF790B8657170BD257170BD11
:10D5C00058EE010058EE010073645F626C655F679E
:10D5D000617474635F65786368616E67655F6D74BD
:10D5E000755F72657175657374282920726574752D
:10D5F000726E65642025732E000000007CB506461F
:10D600008D88C88805EB450106EB4104A41D172849
:10D6100000D217202188814200D80846608000206F
:10D62000207121882846B5DF60B1FFF71BFC024658
:10D630000F481049401AC008012101EB00400EA11B
:10D64000FFF74AF86079002810D1F06800280DD063
:10D650001549D1E90201CDE90001ADF80250608819
:10D66000ADF80400F2686946304690477CBD000082
:10D6700058EE010058EE010073645F626C655F67ED
:10D68000617474735F65786368616E67655F6D74FC
:10D69000755F7265706C7928292072657475726E79
:10D6A00065642025732E000060E40100F0B587B0AA
:10D6B0000C4605468E1D8988406906AAFCF722FCA7
:10D6C00018216846FBF787FE0195A088069AADF8F9
:10D6D0000800039231882B89002704F11200994237
:10D6E00002D17389022B0DD0AA8991421ED1A9695A
:10D6F00000291BD08DF8007004907089ADF81400DB
:10D70000A96911E0002A11D0FDF7B0F920B10699FE
:10D7100001200870022002E00698077003208DF8AF
:10D720000000A969002901D06846884707B0F0BD0C
:10D730000068012803D0022801D000207047012092
:10D740007047000010B50C46017A052908D0407AD0
:10D7500038B1084808A102682046FEF745FC00E001
:10D760001AB106A12046FEF73FFC2046BDE8104056
:10D77000FEF747BCE4250020257300000D0A0000D9
:10D7800038B5C3880D46044633B114A0009015A2E5
:10D7900016A12846FEF728FC217A05291CD0607ABC
:10D7A00048B1A088FEF754FE164951F8202016A172
:10D7B0002846FEF719FCA0880021FFF71DF8034654
:10D7C0001049207A143951F8202001B02846BDE8CC
:10D7D00030400EA1FEF708BC38BD00001B5B306D69
:10D7E000000000001B5B313B33316D0025734C6F33
:10D7F00067732064726F7070656420282564292522
:10D80000730D0A00E4250020257300003C25733EBB
:10D810002025733A200000000349884201D10348C3
:10D82000704700207047000000200040682500205D
:10D8300070B5012670044FF0E0210025C1F8800189
:10D84000084C4010C4F84803C4F8080366602F2051
:10D85000FFF760FBA660044C2F20A560FFF75AFB82
:10D86000A57070BD001001407025002070B5054600
:10D8700088690C4600284FF4847128460AD0FFF7C7
:10D8800000FBD5F81805626AE1688854606A401C9C
:10D89000606270BDFFF7F5FAD5F8180570BD1FB5C9
:10D8A00001238DF80030CDE90121D0E9001268464E
:10D8B00090471FBD1FB501238DF80030CDE9012130
:10D8C000D0E90012684690471FBD10B504460068B5
:10D8D0004FF49271FFF7D5FA4FF484712068FFF787
:10D8E000D0FA20680121016010BD000038B5002188
:10D8F000012548B101280CD0032809D1FFF7D8FA37
:10D90000BDE83840FEF704BB4FF0E020C0F880517E
:10D9100038BD8DF800106846FCF72EFA064C2078CA
:10D9200008B9FEF7D9FAE068401CE060A5709DF8E0
:10D930000000FCF745FA38BD0C2B00203EB504462C
:10D9400009496846FFF74AFA08E000BFD0E900211C
:10D950002046904730B16846FFF757FA02980028F2
:10D96000F4D13EBD11203EBD68E601003EB504463F
:10D9700008496846FFF732FA07E000BFD0E9002106
:10D98000204690476846FFF740FA02980028F5D1F4
:10D990003EBD000074E6010002498969002900D0FB
:10D9A00008477047782A00202DE9F0411400884686
:10D9B00018D000250E4F032608EB05012246002053
:10D9C000FBF766FE0544241A40B93878002809D0D0
:10D9D00008494FF47A408847761E05D001203870F8
:10D9E000002CE9D1BDE8F08100203870FAE7000092
:10D9F000AC25002041E601002DE9F0410746806A90
:10DA000014468846C8B3002531E000BFB96A05EB6B
:10DA1000450001EB8006B088801CFE2802D90C204E
:10DA2000BDE8F0812288401C08F8020020881622F8
:10DA3000401C80B2208008F800202088401C80B262
:10DA4000208000EB0801308800F097FB2188084413
:10DA500080B22080B28842B1B16871B14044FBF716
:10DA6000A1FC2088B188084420806D1CEDB297F895
:10DA70002C00A842CAD80020D2E7FFE70720CFE752
:10DA80000A78062822F0FF020A7010D2DFE800F0C0
:10DA9000030507090B0D002008E0112006E02120F6
:10DAA00004E0312002E0122000E0222008707047DC
:10DAB00010B50020FDF7B4F808B1FCF703F8FDF746
:10DAC00035F808B1FBF7FEFF33DF002803D0BDE8CF
:10DAD0001040FBF7F7BF10BD002805D10349012016
:10DAE00048700020FDF7CABA704700000C2B0020D8
:10DAF00010B51620FBF766FFA0B1114890F800049E
:10DB00004009082811D20121814011F0EC0F0CD0FE
:10DB10000C4882684FF480016AB1016841F48001C9
:10DB2000016010BD42F2010001E042F20200BDE8D6
:10DB30001040FBF7C7BF4FF0E020C0F8001110BD48
:10DB400016E000E0F82C00202DE9F84F204D924619
:10DB5000894606469846012269461846AF68FDF791
:10DB600053F958B3009800210446801C09E000BF17
:10DB700000EA07035AF8212005EB8303401C491CE7
:10DB8000DA604145F4D34FEA164AFDF779FB4AEAD9
:10DB90000041601C384005EB80003C4005EB8402EE
:10DBA000C160D06866F3C50068F3891069F39F20EF
:10DBB00020F00300401C20F00400D06095F8200401
:10DBC00002E000BFFEF76AFC0028FBD1BDE8F88F39
:10DBD000A82E00202DE9F84F1D4C00256846D4E9F9
:10DBE00001A6FDF757FB002738B30023009A6168B0
:10DBF0001CE0D1F800C00846944503D9ACEB020202
:10DC00000A6015E0A2EB0C0263440760D0F80CC078
:10DC1000C1698146BCF1000F08D006EB030828F06B
:10DC20007F48C0E9018CC9F81C5005460029E0D1A5
:10DC300028466160FDF7BAFC03E02846FDF7B6FC14
:10DC400010B15046FDF73CFAE770BDE8F88F0000D0
:10DC5000702500200D4B10B5596831B102680C6871
:10DC6000A24204D8A21A0A60C161586010BD0B46D6
:10DC700003E00B46C969121B21B10C689442F8D32A
:10DC8000A41A0C600260C161D86110BD702500202B
:10DC90002DE9F041144E77683D462C4603E084425E
:10DCA00004D02546E469002CF9D11BE0D4B1A5428B
:10DCB0000BD1F869706040B90C49012088600021DF
:10DCC000B160F0702F20FFF725F92168E069E86165
:10DCD00010B10268114401607068874202D00120CF
:10DCE000BDE8F0810020FBE7702500200010014016
:10DCF0007CB5064600240D468DF800406846FCF7CA
:10DD00003BF801A800F0EAFA70B1057009494660D5
:10DD10009DF8040048709DF80000FCF751F81420AD
:10DD2000FBF75EFC20467CBD04249DF80000FCF758
:10DD300047F8F7E7CC2B00202DE9F041194D6C682E
:10DD4000002C2CD0184800270068A968B846401A53
:10DD500020F07F462068B0420CD82146361A07448E
:10DD6000E469087C20B181F8108088694969884796
:10DD7000002CEFD129786878814206D1401CC0B2CE
:10DD80006870022801D185F80180064869780C3056
:10DD900040F82170BDE8F0411420FBF721BCBDE83C
:10DDA000F0810000702500200415014070B50C467C
:10DDB00005464FF48E71FFF764F8216AA068415C54
:10DDC000206A401C2062C5F81C1570BD1FB50022DA
:10DDD0008DF800200291816801914261D0E9001222
:10DDE000684690471FBD000038B5017841B1012950
:10DDF00001D002292FD14068BDE83840FBF762BE50
:10DE0000164C154D20782844FBF720FF2078401C45
:10DE1000C0B22918207011F8011C0A2904D00D295C
:10DE200002D0A188884216D3012812D92078ADF8F3
:10DE300000000A4863886A4607490C30FCF740FD39
:10DE4000082806D01328F1D0052802D008B1FBF726
:10DE500039FE0020207038BD102600200825002043
:10DE60007CB50178244D81B301290BD002292BD137
:10DE70008DF80010C068691C01900122C81DFEF7D2
:10DE800093F82EE0406801781C48FBF741FE1B4CDC
:10DE9000012618B18DF80060019006E0A068E168E5
:10DEA000814205D000208DF80000696868468847E7
:10DEB000A068E168081AA188884207D80E490122A3
:10DEC000491CC81DFEF770F87CBD01E0AE70FBE791
:10DED0000A4809491030FBF700FE30B103208DF8E5
:10DEE0000000696868468847EEE70349012201F1AE
:10DEF0000800FEF769F8E7E784250020D82C002009
:10DF00001FB50A4601788DF8001041680191017A29
:10DF10008DF80810C0680390044850F82210001FC4
:10DF200050F82220684690471FBD00005C25002065
:10DF30002DE9FF470C4605464FF40071FEF7A7FF99
:10DF400001274FF40178002618B34FF4927949461F
:10DF50002846FEF791FFE0B149462846FEF791FFBB
:10DF6000C5F8088394F8290000B96F6002208DF885
:10DF70000000D5F88004C5F880040390A0690290E1
:10DF8000E0680190A661E661D4E900126846904716
:10DF900028E004212846FEF77AFF18B34FF4847175
:10DFA0002846FEF769FFE8B121462846FFF75EFCE8
:10DFB000616AA069884215D1E06938B1E268616A96
:10DFC000A0612069E6616662E06008E094F82900DB
:10DFD00000B96F60C5F80883A661E268616A2046EF
:10DFE000FFF75DFC4FF48E7841462846FEF744FF6C
:10DFF00078B1206A6169884202D294F8280020B37F
:10E0000041462846FEF73DFF616911B12046FFF702
:10E01000DDFE4FF4A27841462846FEF72DFF00288A
:10E0200018D041462846FEF72CFF94F8290000B18D
:10E030002F60A06900280DD0A661E268616A04B073
:10E040002046BDE8F047FFF72ABC21462846FFF7E7
:10E05000ADFEDEE7BDE8FF871FB50A4601788DF803
:10E06000001041680191017A8DF80810C068039092
:10E07000044850F82210001F50F8222068469047AC
:10E080001FBD00005C2500202DE9FF410C464FF428
:10E09000927706463946FEF700FF0025B8B13946AB
:10E0A0003046FEF7FFFE02208DF80000D6F880040F
:10E0B000C6F880040390D6F83C050290E068019011
:10E0C000A561E561D4E900126846904723E04FF46A
:10E0D000887739463046FEF7E0FEE0B139463046F3
:10E0E000FEF7E0FED6F83C15A069884213D1E0693E
:10E0F00060B1E268D6F8000220F02000C6F8000205
:10E10000E069A0612069E561E06001E0A561E26885
:10E110002046FFF7CFFB4FF4A27739463046FEF793
:10E12000BCFE68B139463046FEF7BCFEA06938B186
:10E13000A561E561D6F83C152046E268FFF7BAFB19
:10E140004FF4907739463046FEF7A7FE002812D0EC
:10E1500039463046FEF7A6FE606900280BD0D6F897
:10E160004C058DF800500290A06801906561D4E9DB
:10E17000001268469047BDE8FF810870000A4870A9
:10E18000022070472DE9F05F8346DDE90A4A99468F
:10E1900090460D460846012703E000BFB0FBF8F0AB
:10E1A0007F1C4045FAD2B94500D94F465FEACA7094
:10E1B00012D18CB15FEA8A7002D5B9F1000F01D09B
:10E1C000202607E0302605E031465846641EFCF75D
:10E1D00063FE0CB1A742F7D35FF00106B9F1010F5E
:10E1E00002D9A9F1010903E0B5FBF6F0404502D3DD
:10E1F00006FB08F6F2E7DFF83C9000BFB5FBF6F04F
:10E2000000FB165519F800105846FCF745FEB6FB02
:10E21000F8F6002EF2D15FEACA7009D0002C07D0C0
:10E22000A74205D220215846641EFCF735FEF5E7CB
:10E23000BDE8F09FB8E40100F8B5054680B2FDF7EF
:10E24000BDF8040013D0154E207A0027317B884298
:10E250000ED2A8B204F10A0175DF28B1112806D048
:10E26000BDE8F840FFF798BB207A401C2072F8BD4B
:10E270002772307C38B1A8B23B2176DF18B108286C
:10E2800001D0FFF789FB71690029F0D08DF800708B
:10E29000ADF8025068468847F8BD0000782A002093
:10E2A000417939B190F8B21021B990F8B40008B1B1
:10E2B000012070470020704730B40446007A0028DF
:10E2C0000AD06088002166DF28B1112802D0616879
:10E2D00030BC08470120207230BC70470A494A7898
:10E2E0008B78521CD2B2934200D100220B78934219
:10E2F00001D1002070470270487800EB400001EB2C
:10E30000C000001D70470000CC2B00202DE9FC410F
:10E310001646DDE90854CDE900541F468046022226
:10E3200000F00CF8002807D1CDE900543B4610223C
:10E330003146404600F002F8BDE8FC812DE9FC5F63
:10E340000026DDE90C4B994692468E46804627888A
:10E35000354630E0D8F80400002200EB850069461D
:10E360000068019001A864DF002830D19DF800000A
:10E3700050451FD10EB1002100E00221228808443F
:10E380001118594522D846B9521C90B2208009F87C
:10E3900000E02088401C20800126218801A801EB94
:10E3A0000902694664DF002811D120889DF8001019
:10E3B000084420806D1CB8F80000A842CADC56B1A1
:10E3C0002088C01B401E80B2FF2802D90C20BDE867
:10E3D000FC9F09F807000020F9E710B5042817D2C0
:10E3E00009B1032400E00024FCF744FB4FF0A041F6
:10E3F00001EB8000D0F8001721F44031C0F800177D
:10E40000D0F8001741EA0441C0F80017002010BD01
:10E41000062010BD080000000600000005000000F6
:10E42000070000000000000000E0D7010D0E0F10F3
:10E430000B0C1819D8290020F8290020242A0020C4
:10E440000B0003004DAB01000C0003004DAB0100BD
:10E45000180003004DAB0100190003004DAB010093
:10E46000770A000000000000770A000000000000AA
:10E470009ECADC240EE5A9E093F3A3B50000406E2C
:10E480000000005071CF010001D201000000000027
:10E490000338FDD870470000FFFFFFFFFFFFFFFFBD
:10E4A000FFFFFFFFFFFFFFFF000000000000000074
:10E4B0000000D601060100003031323334353637E2
:10E4C0003839414243444546000000000000000046
:10E4D000000000000000000000000000000000003C
:10E4E000C8E40100E0E4010004000000556E6B6E1A
:10E4F0006F776E206572726F7220636F64650000C3
:10E5000000000000F8EA010001000000A4E9010099
:10E510000200000098E701000300000018EA010073
:10E52000040000006CEA0100050000004CE9010055
:10E5300006000000E8E801000700000054EA0100BE
:10E540000800000060E9010009000000C4E90100C2
:10E550000A000000E0EA01000B00000080E7010073
:10E560000C00000078E901000D00000048EB0100FC
:10E570000E00000044EA01000F00000080EA0100E4
:10E5800010000000B4EA0100110000005CEB010083
:10E590001200000030EB010013000000CCEA010083
:10E5A0008000000000E90100810000003CE801005B
:10E5B00082000000FCE7010083000000DCE70100AE
:10E5C0008400000018E801008500000024E9010033
:10E5D000860000002CEA010090000000C8E801005D
:10E5E00091000000BCE70100920000008CE90100EE
:10E5F0000082000094EA010001820000E0E90100CD
:10E6000002820000FCE901000084000058E80100DB
:10E610000184000004EB010002840000A0E8010076
:10E62000038400007CE8010071C301006FC3010096
:10E6300069C30100000000000000000000000000AD
:10E640000338FDD870470000102E00207F00000026
:10E65000902E0020000000000000000000000000DC
:10E66000000000000100000754E6010064E601001C
:10E67000080000008CE601009CE601000800000094
:10E680009CE60100ACE601000800000034EF010048
:10E690003CEF0100000000000000000024EF01003A
:10E6A00034EF01000000000000000000D4EE010083
:10E6B000DCEE0100DCEE0100FCEE0100FCEE0100EE
:10E6C0000CEF01000CEF010014EF01000025002009
:10E6D000ACE60100CCE601000800000014EF0100E8
:10E6E0001CEF01001CEF010024EF0100DCE601003B
:10E6F000ECE601000800000000404040404040407F
:10E700004040414141414140404040404040404004
:10E7100040404040404040404005020202020202A8
:10E7200002020202020202020220202020202020F7
:10E73000202020020202020202029090909090900B
:10E7400010101010101010101010101010101010C9
:10E75000101010100202020202028888888888883D
:10E760000808080808080808080808080808080829
:10E77000080808080202020240000000F9E6010051
:10E780004E52465F4552524F525F494E56414C4998
:10E79000445F4441544100004E52465F4552524F3F
:10E7A000525F534F46544445564943455F4E4F547C
:10E7B0005F454E41424C4544000000004E52465FCA
:10E7C0004552524F525F464541545552455F4E4F58
:10E7D000545F454E41424C45440000004E52465F56
:10E7E0004552524F525F4D555445585F554E4C4F10
:10E7F000434B5F4641494C45440000004E52465F42
:10E800004552524F525F4D555445585F4C4F434B04
:10E810005F4641494C4544004E52465F4552524F77
:10E82000525F4D555445585F434F4E445F494E49E2
:10E83000545F4641494C4544000000004E52465F3B
:10E840004552524F525F4D555445585F494E4954B9
:10E850005F4641494C4544004E52465F4552524F37
:10E86000525F424C455F495053505F52585F504B86
:10E87000545F5452554E4341544544004E52465FF6
:10E880004552524F525F424C455F495053505F5082
:10E890004545525F52454A454354454400000000F7
:10E8A0004E52465F4552524F525F424C455F49506F
:10E8B00053505F4C494E4B5F444953434F4E4E4576
:10E8C00043544544000000004E52465F4552524FAB
:10E8D000525F4150495F4E4F545F494D504C454D3A
:10E8E000454E5445440000004E52465F4552524F3B
:10E8F000525F4E4F545F535550504F525445440051
:10E900004E52465F4552524F525F4D4F44554C4513
:10E910005F4E4F545F494E495449414C495A454412
:10E92000000000004E52465F4552524F525F4D4F1D
:10E9300044554C455F414C52454144595F494E490D
:10E940005449414C495A4544000000004E52465F2C
:10E950004552524F525F4E4F545F464F554E440002
:10E960004E52465F4552524F525F494E56414C49B6
:10E97000445F5354415445004E52465F4552524FF6
:10E98000525F444154415F53495A45004E52465FDD
:10E990004552524F525F494F5F50454E44494E4792
:10E9A000000000004E52465F4552524F525F535690
:10E9B000435F48414E444C45525F4D495353494E85
:10E9C000470000004E52465F4552524F525F494E3B
:10E9D00056414C49445F4C454E47544800000000A6
:10E9E0004E52465F4552524F525F4452565F545703
:10E9F000495F4552525F414E41434B004E52465F84
:10EA00004552524F525F4452565F5457495F4552E8
:10EA1000525F444E41434B004E52465F4552524F67
:10EA2000525F494E5445524E414C00004E52465F93
:10EA30004552524F525F53544F524147455F4655DE
:10EA40004C4C00004E52465F4552524F525F4E555D
:10EA50004C4C00004E52465F4552524F525F494E59
:10EA600056414C49445F504152414D004E52465F21
:10EA70004552524F525F4E4F5F4D454D00000000D2
:10EA80004E52465F4552524F525F464F52424944A2
:10EA900044454E004E52465F4552524F525F4452DB
:10EAA000565F5457495F4552525F4F564552525533
:10EAB0004E0000004E52465F4552524F525F494E43
:10EAC00056414C49445F4144445200004E52465F17
:10EAD0004552524F525F5245534F55524345530092
