:020000022000DC
:1070000000000420757302005D7302005F730200CC
:1070100061730200637302006573020000000000E8
:107020000000000000000000000000006773020084
:1070300069730200000000006B7302006D730200B0
:107040001D8E02006F730200199102006F7302001F
:107050006F7302006F7302006D8F02003D9102009A
:107060006F7302006F7302006F7302006F73020090
:107070006F7302006F7302006F7302006F73020080
:107080006F730200457E02006F7302006F7302008F
:10709000E17E02006F730200B9AF02006F7302005D
:1070A0006F7302006F7302006F7302006F73020050
:1070B0006F7302006F730200000000000000000008
:1070C0006F7302006F7302006F7302006F73020030
:1070D0006F7302006F7302006F7302006F73020020
:1070E0006F7302006F7302006F73020000000000F4
:1070F000000000006F730200000000006F730200C8
:10710000000000000000000000000000000000007F
:10711000000000000000000000000000000000006F
:10712000000000000000000000000000000000005F
:10713000000000000000000000000000000000004F
:10714000000000000000000000000000000000003F
:10715000000000000000000000000000000000002F
:10716000000000000000000000000000000000001F
:10717000000000000000000000000000000000000F
:1071800000000000000000000000000000000000FF
:1071900000000000000000000000000000000000EF
:1071A00000000000000000000000000000000000DF
:1071B00000000000000000000000000000000000CF
:1071C00000000000000000000000000000000000BF
:1071D00000000000000000000000000000000000AF
:1071E000000000000000000000000000000000009F
:1071F000000000000000000000000000000000008F
:10720000354936480A1A02D0072291438D4634493F
:1072100034480A1A06D00722914381F309880222D2
:1072200082F3148830483149314A00F044F831483B
:107230003149324A00F03FF831483249324A00F0D1
:107240003AF832483249334A00F035F83248334987
:10725000334A00F030F833483349344A00F02BF811
:1072600033483449344A00F026F83448344900227F
:1072700000F02CF833483449002200F027F8334856
:107280003349091A082902DB002202604160314AB1
:1072900090471F481F49884205D00268043003B454
:1072A000904703BCF7E700208646EC46002000210B
:1072B000294A9047FEE7884207D0521A05D0037842
:1072C00001300B700131013AF9D17047884202D088
:1072D00002700130FAE770470000042000E003204C
:1072E00000000420000004201CC30200E82A002043
:1072F000342B0020D0730200D0730200B2B402001D
:107300001CC30200E82A0020E82A0020B0B50200D1
:10731000B0B50200B0B50200B0B50200B0B50200D1
:10732000B0B50200B0B50200B0B502001AC3020049
:1073300068C30200342B0020342B0020342B0020A3
:10734000003C0020003C0020003C0020003C0020CD
:10735000005C00209D73020085960200FEE7FEE7B8
:10736000FEE7FEE7FEE7FEE7FEE7FEE7FEE7FEE7F5
:1073700000F002B8FFF7FCBF0F484FF00701884349
:1073800085460E4880470E48016841F4700101604F
:10739000BFF34F8FBFF36F8FFFF732BF09480A4922
:1073A0000A4A884207D0521A05D0037801300B7080
:1073B0000131013AF9D1704700000420F98A020036
:1073C00088ED00E0B0B50200E82A0020E82A00209D
:1073D0007047000007B5044B0093044A402300F0B7
:1073E00032F803B05DF804FBF1730200352B002086
:1073F0002DE9F84388461446B2B10F4B0F4E0325D2
:10740000002743F00109224608EB0701002002F0A3
:10741000D1FA0744241A48B933782BB14FF47A4093
:10742000C847013D02D13570BDE8F88301233370B0
:10743000002CE8D1F8E700BFB0B50200342B0020E3
:10744000704702F0EBBAF0B595B01D4616460846F7
:107450000C4601F093FA1A9B0D93CDE908650025BF
:107460002B46082205A920460A958DF82C500C952C
:1074700001F0A1FA079B0293069B03939DF8143039
:107480008DF8115003F00302012A1DD1BDF814201C
:10749000059DC3F3C203C2F383168DF81030B2000A
:1074A00008230EA9204601F086FAC5F3952508ABFE
:1074B0000093324602AB0EA9284600F055FB204649
:1074C00001F060FA15B0F0BD022AF8D1BDF81650EF
:1074D000C3F3C203C5F389158DF810300827082DB2
:1074E0002E4628BF08263B4632460EA9204601F00C
:1074F00062FAAD1B08AB02AA31460EA8374400F071
:1075000097FB002DEBD1DAE708B5FFF79AFF0448A7
:10751000042100F091FA034B01225A7108BD00BF0B
:10752000A0B50200E82A0020037813F0040216D068
:1075300003F00303012B03D0022B09D00120704775
:107540000A6800880232C0F3831002440A60F5E73B
:107550000B684288023303EB92130B60EEE7104690
:10756000704700002DE9F04F87B000230446861CC9
:107570000DF107000F4615468DF8073000F0ACFE00
:10758000454801683960D0E90132134401335B1A80
:10759000824600F21C4700F5836900F21448B342AA
:1075A0001CD30020002D73D004F00F039B0143F087
:1075B000050363F30F00DAF80020DAF8083013400F
:1075C000033316444AF823009DF80700CAF8006008
:1075D00000F0A6FE012007B0BDE8F08F012138467B
:1075E00000F0FFFE484600F014FF404600F011FF97
:1075F000DAF80400DAF808B0029000EA0B00033071
:107600000AEB800002A9FFF78FFF029B50BB0BEA39
:1076100003020AEB820203F1020CD26803920133E7
:1076200003EA0B0B0AEB8B0B02F00302012ADBF8D7
:107630000C10CDF808C023D0022A16D0834640464D
:1076400000F0EAFE10B1029BCAF8043059463846F1
:1076500000F0C7FEDAE901231344DAF80020013311
:107660009B1A9CE70BEA0300C9E7BDF80E30C3F391
:10767000891303334FEA114B0CEB93030293DEE7BC
:10768000BDF80C30C3F383134FEA114B6344F5E7A5
:10769000A40544F006008EE7482C00200B4B0C4854
:1076A000FF2210B59A600022C3F81824C3E9002213
:1076B000C3F8142483F8202401F019F9044610B902
:1076C000044801F0C1F9204610BD00BF482C00203D
:1076D00014B50200ECB5020030B50A4C71B10A4A8B
:1076E0000A49121BD20800239A4201D1002030BD62
:1076F00031F82350854202D00133F5E7034654F8B0
:107700003300F4E728B50200A0B50200E82A002003
:10771000094B013903EBC000032909D8DFE801F068
:107720000A020406042070470079704740797047C8
:10773000002070470220704728B50200034BD3E9B0
:107740000030C31A58425841704700BF482C0020EF
:107750002DE9F04387B0FFF7F1FF0646002840F01F
:10776000F9807D4DC5F81804BFF34F8F6B68AC6886
:1077700002932340033305EB830002A9FFF7D4FEF5
:10778000029B18B1D5F81824002A5FD004EA03023E
:10779000991C013305EB8202234005EB8303D26879
:1077A000DB68049302F00303022B0392029160D181
:1077B000BDF80E306948C3F38917502FB84628BF6B
:1077C0004FF0500868F38F1308F10801ADF80E3040
:1077D00001F0A5F80646002800F0A78001F0CEF8D9
:1077E0000023082203A9304601F0DBF8029924EABD
:1077F00001020132B8EB820F4FEA820332D95FFAFD
:1078000088F85BB32140DCB2A8EB040803315FFACF
:1078100088F9A046524C05EB8101082342463046C8
:1078200001F0BFF834B108F108034A46214630465A
:1078300001F0B7F8029B033703EB97070297D5F8DF
:107840001834002B49D1D5F8104459E02A689A42DF
:107850008FD86A60304607B0BDE8F08340491C46C7
:107860009946DAE70C40E11C0823424605EB81010A
:10787000DDE7012B59D1BDF80C303848C3F3831133
:10788000062928BF062161F3891302318900ADF86A
:107890000C3001F044F80646002846D001F06EF89E
:1078A0000023082203A9304601F07BF80027BDF829
:1078B0000C20C2F38312BB00974203F10803BED22F
:1078C00002994A1C21400331029205EB81010422F6
:1078D000304601F066F80137E9E7304601F052F82A
:1078E000FFF72CFF80F00100C6B2B3E7E3685B79D5
:1078F00023B1236831461B6820469847E3681C681B
:10790000002CF3D1304601F03DF80DF107008DF861
:10791000074000F0E1FCD5F818340BB9029B6B600E
:107920009DF8070000F0FCFCDAE7D5F8104454B9E4
:107930000C4B0D480D49C01AC008000440F002006D
:1079400000F062F8CCE7236820469B689847E3681C
:107950001C68ECE700267DE7482C002014B50200E7
:10796000542C002028B5020058B50200D4B50200FE
:107970002DE9F74F224D04460F46924601A90122F8
:107980001846D5F808909B46FFF7ECFD20B3019E02
:107990004FF00008B21CD84508EB020126D1194867
:1079A000002100F0EFFC80F31000000440EA1440D6
:1079B000E400731C04F0380403EA090306EA09062C
:1079C00044F0010405EB8303033644EA881444EAD7
:1079D0008724D86045F8264095F820341BB1FFF77E
:1079E000B7FE0028FBD103B0BDE8F08F09EA010122
:1079F00005EB81015AF82830CB6008F10108CAE78D
:107A0000482C00206430002000231A46FFF7B0BF46
:107A100007B50123019201AAFFF7AAFF03B05DF8A1
:107A200004FB07B5CDE9002302236A46FFF7A0FF58
:107A300003B05DF804FB000030B50F49D1F8102405
:107A400003460020144634B9DC6820714AB9C1F8F5
:107A50001034226030BDE4682579854206D0246860
:107A6000F1E7D268116821601360F3E701300A285A
:107A7000E8D14FF0FF30EDE7482C0020094A38B537
:107A80000123D2F8104482F820341D4604B938BDD1
:107A9000E3685D71236820465B689847E3681C686B
:107AA000F4E700BF482C002007B503460846197AC2
:107AB000052911D05B7A2BB1094A0A49019000F0DF
:107AC0000EFD01980849019000F009FD019803B0EE
:107AD0005DF804EB00F0F8BC002AF8D0F2E700BF34
:107AE000F8B50200FDB502001DB6020030B5C3882E
:107AF00085B004460D4633B1144A00921449154A24
:107B0000284600F0ECFC217A05291DD0637A4BB1A0
:107B1000A088FFF7FDFD104B104953F820202846A0
:107B200000F0DDFC227A0E4BA08853F8222003924D
:107B30000021FFF7D1FD039A0A490346284605B004
:107B4000BDE8304000F0CBBC05B030BDF8B5020058
:107B500008B6020000B6020084B60200FDB50200BD
:107B6000A8B6020020B602002DE9F04385B01F46FA
:107B70000C9D002395F80C902B7306460C469046FE
:107B800029463846FFF7B2FFB8F1060F09D8DFE8FB
:107B900008F00412181F283340003146284600F030
:107BA0009EFC002229463846FFF77EFF85F80C90A0
:107BB00005B0BDE8F08322683146284600F08FFC0E
:107BC000EFE7D4E900233146284600F088FCE8E7D7
:107BD000A36800933146D4E90023284600F07FFCD7
:107BE000DFE7E3680193A36800933146D4E90023FB
:107BF000284600F074FCD4E723690293E3680193FC
:107C0000A36800933146D4E90023284600F067FCBE
:107C1000C7E76369039323690293E3680193A36849
:107C200000933146D4E90023284600F058FCB8E719
:107C300008292DE9F74F80460E4617461C463CD8CA
:107C4000002593F80C901D7319461046FFF74EFF60
:107C5000DFF888A0DFF888B0AE4231D918F80520E7
:107C60005946204600F03BFC0135082DF4D1194956
:107C7000194DDFF870A0204600F031FC4FF0000BEA
:107C80005E4522D918F80B207E2A05D810460192AD
:107C900003F05CFB019A00B92E225146204600F009
:107CA0001EFC0BF1010BBBF1080FE9D101222146AB
:107CB0003846FFF7F9FE84F80C9003B0BDE8F08F6A
:107CC0005146204600F00BFCCEE72946204600F046
:107CD00006FCE6E734B6020032B6020030B6020017
:107CE0002AB6020036B602001FB50021039001AA91
:107CF00044F20100CDE9011100F004F805B05DF88F
:107D000004FB000010B572B6FFF7B8FEFFF720FDC8
:107D10000028FBD1104B114C1149E41AE40824044B
:107D200044F00100FFF770FE0E4B1B68DB0700D527
:107D300000BE0D4944F00200FFF766FEBFF34F8F0F
:107D40000A490B4BCA6802F4E0621343CB60BFF3ED
:107D50004F8F00BFFDE700BF28B5020058B50200F5
:107D6000C7B60200F0ED00E0D3B6020000ED00E07F
:107D70000400FA05094A537891780133DBB299423D
:107D800008BF0023117899421FBF03705078182351
:107D900003FB002014BF0430002070470431002092
:107DA00073B5054600240DF107000E468DF8074017
:107DB00000F092FA0DF10600FFF7DCFF90B10670BB
:107DC000094B9DF8062045605A709DF8070000F0A9
:107DD000A7FA24B9054B4FF48012C3F800212046BE
:107DE00002B070BD0424F0E70431002000E100E09F
:107DF000024B4FF43C6043F001031847E0B6020029
:107E000038B50C4B0C4C4FF40032C3F880200125E0
:107E10004FF48033C4F84833C4F808336560FFF783
:107E2000E7FF064BA56000241C60FFF7E1FF044B51
:107E30001C7038BD00E100E000100140203200203D
:107E400011320020F8B51F4B1F491B680025C1F8EF
:107E50004051C1F84451C1F84851C1F84C51C1F8E2
:107E60000051C1F804514BB3D1F8044517490968D2
:107E7000641A24F07F442F461A68A24209D8A41A33
:107E800015441A7CDE691AB1D3E905201F749047A6
:107E9000AEB90F4A0F4B11781B788B4205D10133D5
:107EA000DBB2022B08BF0023137012780A4B43F891
:107EB00022500A4B4FF48012C3F80021F8BD33461C
:107EC000DAE700BF243200200010014020320020F9
:107ED0001D3200201C3200201432002000E100E09E
:107EE0002DE9F04FA24AA34913780978A24D99428F
:107EF00085B03CD00133DBB2022B08BF00231370E6
:107F00009E4912789E4B0F6853F822003B1823F0CD
:107F10007F4300220B602B6816461446944613B923
:107F200042B12B6006E0196881420ED902B12B6084
:107F3000091A196001272B68DFF84CA201934FF052
:107F40000008BEB9DFF848B262E0401A0C44D968B4
:107F5000D3F81CE0C3F800C031B13A1922F07F42D7
:107F6000C3E90121DE611E4673460122D7E70026E0
:107F70003746E0E73446F669804A63681268DFF8FE
:107F800014C2A068991A21F07F41614500F2A880CF
:107F900001442160012222742A680023C4E90133CC
:107FA000E361002A40F0A5802C60CAE79BF802102C
:107FB0005A1CD2B291428BF8002004BF00228BF8E9
:107FC0000020182202FB03B32A6819799C68022951
:107FD00077D0032900F08180012919D1207CB8B91C
:107FE000D3E90312A2605A69E2609A69654BA26103
:107FF0001B78002B0CBF0B4603466360BCE78C422A
:1080000000F094808946C9690029F8D100232374BF
:108010009BF800309BF801209A42C7D12B68B8F139
:10802000000F04D1019A9A4201D1002F43D0002BB6
:1080300079D0D3F800A0544D504BD5F804751C6886
:10804000DFF854813E1B98F8003026F07F46033657
:108050009BB94FF48033C5F84433C5F804334B4B18
:108060004FF400324FF00109C3F880211A60C5F8BF
:108070000090FFF7BDFE88F80090B2452CBF544435
:10808000A41924F07F44C5F84045D5F80435DB1B1E
:1080900023F07F43E41B033324F07F44A3420AD937
:1080A000D5F80435C5F84035FFF7A2FE374B4FF43D
:1080B0000032C3F80021334B00221A7005B0BDE82E
:1080C000F08F114691469FE71174D2690123002A6F
:1080D000FAD1002B9CD02A609AE700231946F6E7D4
:1080E000D31A23F07F43834234BFC31A0023236093
:1080F00050E721681368994213D8591A1160E26158
:1081000052E7091AD8691A4638B1034618688842F6
:10811000F7D3401A1860184613462160E061DC610D
:108120000FE71346F2E7FFF76BFEC4E74C4511D1AA
:10813000D3692B6073B9DFF844E00120CDE9021266
:10814000CAF80800CEF800300E4B1870FFF750FE4A
:10815000DDE902120B68C969C9F81C1011B1086881
:1081600003440B602B68934218BF4FF001084DE7A2
:108170001C3200201D32002024320020203200203A
:1081800014320020103200200010014000E100E015
:1081900004310020FEFF7F001132002008B5FFF7F8
:1081A0002FFE104B00200B2218809A700E4B186087
:1081B0000E4B18700E4B18700E4B4FF48012C021EE
:1081C000C3F8802183F814131A6002F18042A2F5EB
:1081D0006F22C2F8080583F81113074BD2F8042563
:1081E0001A6008BD04310020243200201C32002017
:1081F0001D32002000E100E020320020074B9B7878
:108200004BB132B128B10368187C20B959745A6156
:108210007047072070470820704700BF04310020D6
:108220002DE9F743DFF88C8098F8023005460E46BA
:108230001746BBB3B0B31C4B4A1F9A4230D84369B0
:1082400083B3437C0024012B0DF107000CBF89464A
:10825000A1468DF8074000F03FF80DF10600FFF74A
:1082600089FDD8B101230370104B4560D3F8043564
:10827000C0E90497C0E902369DF8063088F801305D
:108280009DF8070000F04CF824B9094B4FF4801218
:10829000C3F80021204603B0BDE8F0830424EFE7D3
:1082A0000724F7E70824F5E7FAFFFF000010014074
:1082B00000E100E004310020064A92783AB130B182
:1082C000426922B1002202740221FFF769BD082031
:1082D000704700BF0431002070B5EFF3108672B60E
:1082E0000C4A946801239CB993600B4B0B4DD3F857
:1082F000801029401160C3F88050D3F88410516079
:108300004FF0FF32C3F88420047006B962B670BD26
:108310000370FAE72832002000E100E0FC06FFBD10
:10832000084B9A6810B55AB150B9EFF3108172B684
:10833000054A1C6814605C685460986001B962B6B4
:1083400010BD00BF2832002000E100E001F01F0254
:108350004B090121914000EB830000F01EB801F0B1
:108360001F0301229A404B0900EB8300D14300F028
:108370002CB84B0901F01F0150F82300C84000F051
:108380000100704710B5034653E8000F0A4643E862
:10839000002494F0000FF7D110BD10B5034653E848
:1083A000002F42EA010043E8000494F0000FF6D1E8
:1083B00010BD10B5034653E8000F00EA010243E880
:1083C000002494F0000FF6D110BD10B5034653E819
:1083D000002F02EA010043E8000494F0000FF6D1F8
:1083E00010BD10B5034653E8002F02EB010043E82F
:1083F000000494F0000FF6D110BD10B5034653E809
:10840000002FA2EB010043E8000494F0000FF6D126
:1084100010BD0121FFF7C1BF0021FFF7CABF10B592
:1084200090B1D0E9012301689B1ADBB20A60013BDD
:10843000DBB2FF2B026802D10020107110BD116861
:108440004C1C14600B70F2E70E20F7E737B50546B9
:1084500000240DF107008DF80740FFF73DFF2A6863
:108460006B68116899420ED9481E106011F8014CD2
:10847000EB68298A01FB0434AB6811791B1ADBB263
:10848000994238BF13719DF80700FFF749FF204656
:1084900003B030BD37B5054600230DF107000C468B
:1084A0008DF80730FFF718FF2A681368591C116010
:1084B000E968641A298AB4FBF1F41C709DF807007E
:1084C000FFF72EFF03B030BD826810B504462AB115
:1084D00043690168006998470023A36010BD0EB48A
:1084E00003B5039921B104AB01AA019300F06EF822
:1084F00002B05DF804EB03B07047826830B40468E2
:10850000551C8560A154D0E901329A4202D330BC97
:10851000FFF7DABF30BC70472DE9F84F9846DDE928
:108520000A43154682460F460A464FF00109AA4201
:108530000FD2C14538BFC14613F0010B01D16CB950
:1085400000240126B8F1010F1BD908F1FF386E4352
:10855000F8E709F10109B2FBF5F2E8E79B070ED550
:10856000B8F1000F0CBF30262026A145E9D2013C0E
:1085700031465046FFF7C1FF002CF6D1E0E7202638
:10858000F3E7B7FBF6F39D42E1D9DFF83C80B7FB98
:10859000F6F3504618F8031006FB1377FFF7ADFF0C
:1085A0003346AB42B6FBF5F6F1D2BBF1000F02D079
:1085B0000CB1A14501D3BDE8F88F20215046013C04
:1085C000FFF79BFFF4E700BFE6B602002DE9F74F87
:1085D000054617468846002900F0428118F8011B1D
:1085E00049B92B7B002B00F03B81284603B0BDE846
:1085F000F04FFFF769BF252940F0B780002698F8B3
:1086000000302D2B424608F1010823D0302B24D016
:108610002B2B25D000242A2B02F1010123D13B680A
:108620001A1D1B683A601C440A4613782E2B26D16B
:1086300001324FF0000A104610F8011BA1F1300C76
:10864000BCF1090F1DD80A2303FB0A13A3F1300A5A
:108650000246F0E746F00106D1E746F00206CEE713
:1086600046F00406CBE711F8013CA3F130000928DD
:10867000DBD80A2202FB0434303C0A46CBE74FF039
:10868000000A12F8011B01F0FB0068289046F8D0A0
:10869000782909D86F290CD8632962D022D82529D6
:1086A00063D0582900F0888098F80030002B95D1CD
:1086B00097E770390829F7D801A353F821F000BFD4
:1086C0003B880200A9860200A9860200C987020031
:1086D000A9860200A7870200A9860200A9860200D7
:1086E000B9870200642901D06929DDD13A68D2F83E
:1086F0000090111D89EAE9723960A2EBE9724FF02E
:10870000010B092A35DCD34538BFD3462CB1B9F16A
:10871000000F01DB720700D5013CB30702D5BAF1A7
:10872000000F03D0F00701D44CBB0024B9F1000FB7
:108730002DDAC9F100092D212846FFF7DEFE06F0EB
:108740000302022A04D1BAF1000F01D11CBB00249C
:10875000CDE9004653460A2249462846FFF7DCFE8B
:10876000A2E73B681A1D19783A602846FFF7C5FE54
:108770009AE70A230BF1010BB2FBF3F2C1E7A34521
:10878000D4D220212846013CFFF7B7FECCE7710781
:10879000D5D52B21D0E7A345DAD230212846013C9C
:1087A000FFF7ABFED2E73968CDE900460A1D3A6013
:1087B00053460A220968D0E739680A1D3A60CDE9B4
:1087C000004653461022F5E73B681A1D3A6016F042
:1087D0000106D3F8009028D1B9F1000F03D0484624
:1087E00002F037FE0646B44200D904BB09F1FF3956
:1087F00019F8011F00293FF457AF2846FFF77DFE07
:10880000F6E728460136FFF778FE19F8061000292A
:10881000F7D1A642BFF448AF002C3FF445AF20216A
:108820002846013CFFF769FEF3E70026EDE720212B
:108830002846013CFFF761FED5E73B681A1D3A6008
:10884000302128461C68FFF758FE78212846FFF79C
:1088500054FE00220823CDE90032214610227CE795
:1088600003B0BDE8F08F00BF2DE9F84FB0F806A0C7
:108870004579D2F800B09DF828900AFB05F5043D33
:1088800088460BEB0301A94203F1040488BFA5EB62
:10889000030BB4FBFAF607460AFB1644C2F800B015
:1088A0004EB9AAEB04055D4528BF5D46BBF1000F3C
:1088B00004D1BDE8F88F3F68013EF1E7043408EBCE
:1088C00006003C442A46B9F1000F0DD02146ABEB1F
:1088D000050B02F040FDDA452E443F6855464FF047
:1088E000000428BF5D46E1E701462046EFE7FFF7B9
:1088F00096BDF8B546790146721E0546002393429F
:108900002D6803D30024A64202D8F8BD0133F6E750
:108910000F682846FFF7BEFD01343946F3E72DE91D
:10892000F843068ACD1C0746FFF790FD043E354408
:108930000446B5FBF6F5F0B14FF48073EDB28380D9
:10894000C680013D076081464FF00008A84512D25D
:108950003846FFF77BFD064648B163790133637102
:1089600008F10108C9F8000007608146EEE72046DB
:10897000FFF7BFFF34462046BDE8F88301210430ED
:10898000FFF72FBD10B5012104460430FFF735FD78
:1089900010F0FF0F04D12046BDE81040FFF7A9BF3B
:1089A00010BD1FB503920022009203AAFFF75CFFDF
:1089B00005B05DF804FB1FB503920122009203AAE3
:1089C000FFF752FF05B05DF804FB41DF7047000080
:1089D000064B10B500241C70054B1C60BFF35F8F65
:1089E0000449054800F039F8204610BD3C3200200B
:1089F0004032002000B702003432002007B50023C7
:108A00000DF107008DF80730FFF766FCF1EE103A24
:108A100023F09F03E1EE103ABFF35F8F094B402232
:108A2000C3F884219DF80700FFF77AFC02F0AAFA48
:108A300020B1FFF7CAFF03B05DF804FB20BF40BFC1
:108A400020BFF8E700E100E0836800225A60C3E934
:108A500004229A60DA601A6070470B684A684360C3
:108A6000934208BF0023016008BF4360704743681A
:108A700043B10268916852680B449342436004BF5B
:108A8000002343607047000010B50D49A1F59472B2
:108A9000914201D800200FE08C1AE30F03EBE403AE
:108AA0005B1002EBC30452F83330834205D802D284
:108AB00004F10802ECE7606810BD2146E8E700BF5A
:108AC00004BC020008B5FFF7DFFF024B002808BF17
:108AD000184608BDC6BA0200054B1B68082B01BF2B
:108AE000044B1868B0FA80F0400918BF00207047A6
:108AF000300100103401001008B54FF0804300220F
:108B0000C3F80C21C3F81021C3F838254FF0805268
:108B100003F54043D2F80414C3F82015D2F8081422
:108B2000C3F82415D2F80C14C3F82815D2F8101481
:108B3000C3F82C15D2F81414C3F83015D2F8181451
:108B4000C3F83415D2F81C14C3F84015D2F8201419
:108B5000C3F84415D2F82414C3F84815D2F82814E1
:108B6000C3F84C15D2F82C14C3F85015D2F83014B1
:108B7000C3F85415D2F83414C3F86015D2F8381479
:108B8000C3F86415D2F83C14C3F86815D2F8401441
:108B9000C3F86C15D2F84424C3F87025FFF79CFF86
:108BA00010B1384B384A1A60FFF796FF18B1374BAF
:108BB000FB22C3F81825FFF78FFF48B13449354B26
:108BC0000A681B6822F00F0203F00F0313430B60C7
:108BD000FFF782FF18B1304B4FF400721A604FF06C
:108BE0008043D3F80024D20744BF6FF00102C3F8DA
:108BF00000242A4AD2F8883043F47003C2F888303F
:108C0000BFF34F8FBFF36F8F4FF01023D3F80022C5
:108C1000002A03DBD3F80432002B2FDA204B012289
:108C2000C3F80425D3F80024002AFBD04FF010220B
:108C30001221C2F80012D3F80024002AFBD04FF012
:108C400010231222C3F80422154B1A46D3F800143D
:108C50000029FBD00021C3F80415D2F80034002B02
:108C6000FBD0BFF34F8F0D490E4BCA6802F4E06290
:108C70001343CB60BFF34F8F00BFFDE70A4B0B4A96
:108C80001A6008BD8C5600404881030000F0004087
:108C9000E40E0040580200104096024000ED00E053
:108CA00000E001400400FA05F02A00200090D00303
:108CB00038B5074C051E04F1080318BF1C4623688D
:108CC0002BB11A6822605B6828469847F7E738BDE1
:108CD0004C32002020B9054B01225A70FFF7E8BF43
:108CE000012802D1014A9070F8E770474432002011
:108CF00020B9034B01225A70FFF7DABF704700BF5B
:108D00004432002038B50B4C237883B90A4863609D
:108D1000A3602361E36000F057F8054602F032F9E2
:108D200008B900F05DF801232370284638BD852579
:108D3000FBE700BF44320020D58C020037B50B4C56
:108D400000230DF107008DF80730FFF7C5FAE3683F
:108D5000013BE360E56815B900F054F8A5709DF893
:108D60000700FFF7DDFA03B030BD00BF443200203A
:108D7000012813B508D003281CD018B9104B0122C4
:108D8000C3F8802002B010BD0E4C00230DF1070087
:108D90008DF80730FFF7A0FA23780BB9FFF7B2FF81
:108DA000E3689DF807000133E3600123A370FFF738
:108DB000B7FAE7E700F014F8FFF7C0FFE2E700BFFB
:108DC00000E100E044320020044A137923B9012174
:108DD00010609180184670478520704758320020F7
:108DE000074B1A68D2075FBFC02283F80023012215
:108DF0001A604FF080430122C3F81825704700BF66
:108E000000E100E0044B01221A604FF08042D2F8EA
:108E10001834DB03FBD470470C000040154B07B53A
:108E20001A687AB100221A601B680093009B4FF009
:108E300080430122C3F808230F4B587910B95A71A7
:108E40001B6898470D4B1A6882B100221A601B6894
:108E50000193019B4FF080430222C3F80823064B85
:108E60001B68012003B05DF804EB184703B05DF800
:108E700004FB00BF00010040583200200401004004
:108E800000F1804000F5C040002382B00360036819
:108E90000193019B02B0704703681F2B83BF03F04F
:108EA0001F03036001484FF0A040704700030050CB
:108EB00007B5019001A8FFF7EFFF019B00EB8300CE
:108EC000D0F8003723F44033C0F80037D0F800372B
:108ED00043EA0141C0F8001703B05DF804FB00004D
:108EE000054B4FF0FF32072843F8202084BFC018FD
:108EF00080F85820704700BF6032002010B5174C32
:108F000094F86A3043BB04F130033021FF22013969
:108F100011F0FF0103F8012BF9D1C8B2FFF7E0FF10
:108F200001310C29F9D1062200210D4802F03CFA4A
:108F30000C4BC02283F8062340221A604FF4BE7007
:108F4000FFF79EFF084B4FF00042C3F804230123B4
:108F500084F86A30002010BD0820FCE76032002051
:108F6000C432002000E100E0006000402DE9F04F35
:108F7000002489B0CDE90244624D4FF48072012192
:108F800002F1804303F5C04390B21B68012B06D168
:108F9000D5F804330B4202D0FFF772FF0C430432C2
:108FA000B2F5907F4FEA4101EAD1574B1B68012B84
:108FB0000ED14FF4BE70FFF763FF4FF0A04344F0B3
:108FC0000044D3F810350293504BD3F81035039377
:108FD00014F0FF0F1AD04E4F00250126344210D056
:108FE000AB0003F1804303F5C043D3F81005D3F879
:108FF000101557F8253023B1C1F30141C0F3052006
:1090000098470135082D4FEA4606E7D1002C75DA5E
:1090100004AF002304937B604FF0FF33CDE90633A8
:10902000DFF8EC90DFF8EC800026354618F9012BCC
:10903000531C4AD0C2F3C2000123D4B202F03F0B4A
:1090400002F0070203FA02F208AB191811F8083C03
:1090500013423AD009EB0B03A40993F9303059F8C5
:1090600023A0BAF1000F08D1032C2ED117F800C0AD
:109070004CEA020C07F800C001E0032CF6D001A86E
:10908000CDF804B0FFF708FF019B11F8181C03F599
:10909000E07C114250F82C00C0F3014005D00228BA
:1090A00013D1032C0BD1214604E003280DD1032C4E
:1090B00005D102215846FFF7FBFE0135EDB2BAF1AA
:1090C000000F02D021465846D0470136042EADD1BC
:1090D000A5B14FF0A0430299D3F8102503F54073D2
:1090E0009142D3F8103502D10399994206D00292E9
:1090F0000393049A059B0692079393E709B0BDE892
:10910000F08F00BF006000407C6100400003005011
:1091100060320020C0320020014B1B68184700BF9E
:10912000CC32002000F1804000F5E040002382B006
:10913000036003680193019B02B07047F0B5504B88
:10914000504C1B6885B0002B3DD04FF4827094F8D2
:109150002E20FFF7E7FF2AB394F82F3013BB4A4BBA
:109160001B68002B33D04FF48070FFF7DBFF638B5D
:1091700094F82D108B424FD922895B1A9BB292B280
:109180006383D31A626802EB4303404AC2F82C3669
:10919000C2F830164FF48270FFF7C4FF3C4B012237
:1091A0001A6014E0636802932389ADF80C30E36819
:1091B00000218DF8041023BB2374236801A898476D
:1091C000002384F82F3094F82E30002BC7D1314B78
:1091D0001B685BB14FF48870FFF7A4FF0023237472
:1091E00002238DF8043001A8236898472A4B1B6896
:1091F000EBB14FF48A70FFF795FF0023237405B09D
:10920000F0BD208B608363602081E160002AD4D1AF
:109210001E4B01221A60D0E7BCD1E368012284F81A
:109220002F2013B100226283AFE76383B2E7666940
:109230004FF000470125002EE1D0B6FA86F227FA5A
:1092400002F34632920026EA030602F1804303F558
:10925000E0431B68002BEED01046FFF763FFA2F53A
:109260008C72D30882F00402C2F380028DF80830B9
:109270008DF8045023688DF8092001A89847DAE793
:1092800004710040D43200200071004000700040A2
:10929000047000401071004014710040032811D880
:1092A000012A0AD101290FD100F10E02D2B20D4BD1
:1092B00000EB40001A54002070470129F7D0022922
:1092C00004D049B1072070470022F8E7054B00EBB6
:1092D000400018444270EEE7024B00EB4000184497
:1092E0008270E8E70433002008B501220221002043
:1092F000FFF7D4FF08B1072810D10722022101206F
:10930000FFF7CCFF08B1072808D100210A22084640
:10931000FFF7C4FF10B1072808BF002008BD0000F8
:109320000388102B10B502D0112B1ED010BD1A4C83
:109330002168B1B901220846FFF7B0FF08B107283C
:1093400024D1072202210120FFF7A8FF08B1072836
:109350001CD1042202210020FFF7A0FF08B107283A
:1093600014D1236801332360E0E70B4A1368013B03
:109370001360002BDAD1FFF7B7FF0028D6D0074BD8
:109380001B68002BD2D0BDE810401847034B1B6868
:10939000002BE6D09847E4E7143300201033002078
:1093A00076DF70477ADF70477CDF70477FDF70477A
:1093B0008FDF7047B1DF70477047FEF795BC000044
:1093C0000388212B13B504463DD007D8112B28D094
:1093D000132B40D0102B0CD002B010BD522B42D01A
:1093E000562B01D03B2BF7D1A0881321FFF7D8FFD4
:1093F00012E0214B21482249C01AC008000440F065
:109400000300FEF701FB1F4BA1881F48198001F0E4
:1094100087FB1E4B02221A700028DDD0FEF764FC89
:10942000DAE7154B15481A49C01AC008000440F085
:109430000300FEF7E9FA134B4FF6FF721A80134B45
:1094400000221A70C8E7002301A98088ADF8043013
:10945000FFF7AEFFE0E70B4800231A46852100889E
:10946000FFF7A4FFD8E7074800231A4619460088EB
:10947000FFF7A0FFD0E700BF28B5020058B50200F3
:109480002CBC0200F82A0020943800208C380020E0
:1094900036BC020008B5064B0648012203211A70AB
:1094A00000F0C7FD18B1BDE80840FEF71DBC08BDBF
:1094B0008C3800201833002008B9FFF7EBBF704745
:1094C00008B503784BB9054B3B211888FFF768FFB7
:1094D00018B1BDE80840FEF707BC08BDF82A002017
:1094E0000C4B4A881B889A4212D10A8840F677238F
:1094F0009A420DD1084A09488B880949801A033BD2
:10950000C0089BB200041A4640F00300FEF789BA77
:10951000704700BFF82A002028B5020058B50200A5
:1095200043BC0200FEF7E0BB08B50849084801F05B
:10953000E3F908B1FEF7D8FB0548F72101F0F0F98F
:1095400018B1BDE80840FEF7CFBB08BDE1940200AA
:1095500078380020034B1878034B1B78C01A18BFCB
:10956000012070478D3800208F3800202DE9F04110
:1095700000284AD0284B294D1A782B789A4249D096
:10958000EFF3108772B6264CDFF8A480A1680123A0
:1095900000293CD1A360234B234ED3F880203240D6
:1095A0002260C3F88060D3F8842062604FF0FF32FD
:1095B000C3F8842088F8001007B962B62F781B4ED4
:1095C0001E237B43C7EB071106EB4101F25C01311F
:1095D00001F0C1FE2B780A210133B3FBF1F201FB4C
:1095E00012332B70A3686BB198F8003053B9EFF3C6
:1095F000108172B60B4A2068106060685060A360EA
:1096000001B962B61E235F43F05DBDE8F08188F8C2
:109610000030D1E70020F8E78D3800208F38002097
:109620002832002000E100E0FC06FFBD4C3700209E
:109630008E38002073B50B4D0B4EADF80610044666
:109640002B880DF106022146304601F0DFFB082889
:1096500006D01328F4D0052802D008B1FEF744FB49
:1096600002B070BDF82A0020FC2A002000234FF031
:10967000A042184603F5E07101331F2B42F8210088
:10968000F8D1704730B54FF40041ADB00020FEF77F
:1096900005F808B1FEF728FBFDF736FF734B744859
:1096A0007449754CC01AC008000440F00300FEF76E
:1096B000ABF900232370FFF7D9FFFEF76FFD08B168
:1096C000FEF712FBFFF784F94FF01023D3F80433B1
:1096D000012B14D0694B0122C3F80425D3F80024D0
:1096E000002AFBD04FF010220121C2F804130022FF
:1096F000C3F80425614AD2F80034002BFBD0FFF7F1
:1097000067F908B1FEF7F0FA4FF080430122C3F881
:109710007825C3F8802503F51C330025C3F80055D0
:1097200001F0F2FB08B1FEF7DFFA01A90120019573
:1097300001F078FC08B1FEF7D7FA01A801F042FD6C
:1097400008B1FEF7D1FA11234D488DF8003001F031
:1097500080FE4B4982B26846FFF726FE08B1FEF74D
:10976000C3FA0021082201A801F01EFE45494FF06E
:10977000C87301A8CDE90113FFF714FE08B1FEF785
:10978000B3FAFFF7D1FE404B4048019301A901F025
:10979000B5F908B1FEF7A8FA00210422684601F0E5
:1097A00003FE3B4B3B480093694601F0B5FA08B114
:1097B000FEF79AFAAC22002101A801F0F5FD022380
:1097C0008DF804304FF4A063334AADF8063001231E
:1097D000ADF8503015928DF88030402244F250633D
:1097E000CDE923232D482E4B2A9301A900F0AAFB93
:1097F00008B1FEF779FA2948012100F0A0FB1C22EC
:10980000002101A801F0D0FD00234FF42032CDE962
:109810000132ADF812304FF470228DF81430214B24
:10982000039206930322204B8DF8102001A8079382
:1098300000F044FE08B1FEF757FAFFF75FFBFFF7B1
:1098400029FEFFF787FE58B12378022B08D101A823
:10985000FFF78CFE81B219B101A8FFF7EBFEF6E726
:10986000FDF776FFFFF7CAF8EBE700BF28B5020067
:1098700058B502005FBC02008C38002000E00140B7
:1098800087BC020010003C00BB930200943800200B
:10989000B9930200FC2A0020F42A0020183300208B
:1098A000B9940200C1940200259502000369C168C1
:1098B0008B429DBF8268D21802F1FF3203F1FF3361
:1098C00094BF501A581A70472DE9F843D0E9029412
:1098D0000546A9EB04084068904520440F4614440F
:1098E00004D901F038FDEC60BDE8F8834246A4EBF2
:1098F000090401F030FD6868224607EB0801F0E733
:109900002DE9F843C5680646894617464FF000081A
:109910003469B3687068A54228BFE418013C621B33
:109920005C1BBC4228BF3C46944228BF14464946B3
:109930002844224601F00FFDB3682544AB4208BF1E
:1099400000253F1BA044A144F560E1D14046BDE89D
:10995000F883000010B5114C114AA2610223C4E93A
:109960000433104BE361A2644FF400730E4A0F49B5
:109970002362E26400231022E01DA3626362E362BB
:10998000A3656365E365226501F041FD0849204652
:1099900001F03DFD2023A37110BD00BFA0380020C1
:1099A00091BC020028390020183900209ABC02001E
:1099B0009EBC0200F8B5184C182300FB033503FBCE
:1099C00000402544C46A012C0F4616460FD0022CD5
:1099D0001AD0F4B92846FFF769FF864205D8324607
:1099E00039462846FFF770FF34462046F8BD284622
:1099F000FFF75CFF8642344628BF044622463946BC
:109A00002846FFF761FFF0E72846BDE8F840FFF77A
:109A100077BF0024E9E700BFA0380020FFF79ABF16
:109A20006DDF704779DF70477DDF704764DF704717
:109A30002DE9F04F85B000250E9CBDF83CB0B4F880
:109A400000A00191074690461E46A9463A884A451D
:109A50000DDC45B12388013BA3EB0A039BB2FF2B2E
:109A60003AD806F80A30002005B0BDE8F08F7A68D1
:109A700052F82900039000220DF10B0103A8FFF713
:109A8000D5FF0028F0D19DF80B20424521D1228836
:109A9000002D14BF0020022002EB080101445945AB
:109AA0001ADC3DB9013292B2019B2280B354228864
:109AB0000132228022880DF10B01324403A8FFF706
:109AC000B5FF0028D0D121889DF80B200A442280C0
:109AD000012509F10109B9E70C20C5E72DE9F3419A
:109AE000089FBDF824801546CDE90078022204467F
:109AF0001E46FFF79DFF50B93346102229462046E7
:109B0000CDE9087802B0BDE8F041FFF791BF02B09F
:109B1000BDE8F0812DE9F04F00231788138090F8FD
:109B20002D3085B006460D46144653B3082F01D894
:109B30000C2027E102A8FFF773FF002840F02281E4
:109B400023880822EA54238801339BB21B222380F6
:109B5000EA542088013080B2208006220DF10901EC
:109B6000284401F0F8FB23889DF8082006339BB2B7
:109B700012F0FE0218BF01222380EA542388013329
:109B80002380B378FBB123880433BB42D0D802A82A
:109B9000FFF748FF002840F0F58023880322EA54AD
:109BA000238801339BB219222380EA542388BDF80D
:109BB000082001339BB2E9182380EA54120A4A7044
:109BC000238802332380F2789AB12388D91CB942C2
:109BD000AED80221E954238801339BB201212380AE
:109BE000E95423880B449BB22380EA5423880B4416
:109BF00023807268AAB12388D91CB94298D802215F
:109C000092F90020E954238801339BB20A21238072
:109C1000E954238801339BB22380EA54238801331B
:109C200023803389002B40F0A180338A5BB1CDE9DA
:109C300000472B460722032106F11000FFF74EFFD5
:109C4000002840F09F80338B5BB1CDE900472B4665
:109C50001522142106F11800FFF740FF002840F0FC
:109C60009180326A002A40F09080D6F82480B8F1C2
:109C7000000F30D0B8F804302188981C8A1C0244A8
:109C8000BA423FF655AFFE283FF652AF03336B544E
:109C9000238801339BB2FF222380EA5423880133B7
:109CA0009BB22380B8F80020EA54E918120A4A70DF
:109CB0002088023080B22080B8F804205AB1D8F849
:109CC000081000296BD0284401F045FB2388B8F820
:109CD00004201344238096F82C30002B40F09A8007
:109CE000307800284ED03388012B58D0228802F1DA
:109CF000020CBC453FF61CAF012805D17378023336
:109D000013449F42FFF414AF023FBF1ABFB202A92F
:109D100005EB0C00ADF80870FFF786FE90BB3178BC
:109D2000BDF80830022900F0BA8072789A4202D356
:109D3000BB4240F2B280012940F0B380974293B217
:109D4000C0F0AF80ADF808300821BDF80830FE2B18
:109D50003FF6EEAE22880133AB542288013292B234
:109D60002280A9542288134423800BE0CDE90047C8
:109D70002B460622022106F10800FFF7AFFE00285D
:109D80003FF453AF05B0BDE8F08FB4F800C00CF15C
:109D90000603BB423FF6CCAE1188052901D8072047
:109DA000F0E76FF4486E01EB0E039BB24FF27D3E7D
:109DB0007345F4D95388052BF1D96FF4486018180E
:109DC00080B27045EBD94FF6FF70814203D08342D9
:109DD00001D09942E3D8052305F80C3023880133DC
:109DE0009BB212212380E954238801339BB2238044
:109DF0001188E954E818090A4170238802339BB29C
:109E000023805288EA54E918120A4A7023880233E0
:109E100023802AE7B36A002BC1D04FF000094FF02E
:109E20000C0A4FF0160B96F82C305FFA89F2934229
:109E30007FF656AFB16A0AFB02F201EB0208B8F8EE
:109E40000430981CFE283FF673AE208803332B5451
:109E5000238801339BB2238005F803B023880133A4
:109E60009BB223808A5AEA54E918120A4A70208861
:109E7000023080B22080B8F804205AB1D8F8081017
:109E800000298CD0284401F066FA2388B8F8042011
:109E90001344238009F10109C5E7092155E7BB42B5
:109EA000FBD9ADF808704FE770B5E8B14AB1168834
:109EB0000024B44203D305196D789D4208D0A14215
:109EC00001D8002010E0055D01352C44A4B2F0E774
:109ED000A142F6D9005D0138A31C80B29DB210FAF0
:109EE00083F38B42EDDC158070BD13B51346002261
:109EF000ADF806200DF106020446FFF7D5FF10B1BC
:109F0000BDF80630E01802B010BD72DF704773DF95
:109F1000704738B5012204460D46B0F81414D0F845
:109F20001004FFF7E2FF00B1057004F13C0204F5F4
:109F3000826104F15400BDE83840FFF7E6BF80F8C5
:109F400030107047F8B504460F4600296DD0002840
:109F50006BD091F87A301BB191F89830002B66D114
:109F60004FF0000C84F802C007F178060FCE251DD3
:109F70000FC50FCE0FC596E8070085E8070084F8E7
:109F800030C0D7F8A4306363D7F8A830A3634FF686
:109F9000FF7504F58263C4F82034A4F82454072222
:109FA000614604F2264001F0FFF923780BB984F8EA
:109FB000545094F82430002B14BFEE231F2304F1D7
:109FC0005501C4F81014A4F8143404F214423846AD
:109FD000FFF7A0FD40BB94F82430002B14BFEE2304
:109FE0001F2304F23121C4F81814A4F81C3404F21D
:109FF0001C4207F13C00FFF78DFDA8B9A369A4F846
:10A0000048304FF480730125A4F850306369206410
:10A01000014684F83C50636404F13C0204F15400AE
:10A02000FFF773FF00B92570F8BD0E20FCE707208D
:10A03000FAE7F8B5077804460D46002F00F00981CD
:10A0400000F22646817007220021304601F0ACF96B
:10A05000E38813B1A378012B04D0E3794BB1A37843
:10A06000022B06D1636BA3B1012284F82D240820B2
:10A070009847334604F22C4113F8012F12B9994244
:10A08000FAD117466B1E032B57D8DFE803F0050BF8
:10A090000F1284F82D34ECE7A3791BB194F8243027
:10A0A00003B95FB9E3790BB1002F48D1237A002BB4
:10A0B00047D1637A002B0CBF00250425636BA57084
:10A0C000002B40D0033D012D3DD86279002A3AD0C3
:10A0D00094F82E24002A36D184F83024012284F802
:10A0E0002F240720984704F13C0518220021284618
:10A0F00001F05AF9E26A0123511E994284F83C307A
:10A1000001D9042A00D1D3B294F8242084F8513024
:10A1100042B1A36A591E012902D9042B18BF012399
:10A1200084F85230A178002384F8503004291BD8D9
:10A13000DFE801F0770D223559000025BEE7022542
:10A14000BCE70325BAE7002384F82F34CBE7C4E942
:10A150001063C4F820340223012284F83C308023A9
:10A1600084F83120A4F84830A378002B5CD1636BCD
:10A17000002B6AD1002067E00223002A84F83130E6
:10A1800014BF0723032384F83C302369A4F8483024
:10A190000023C4F82034E36826646364E4E7636959
:10A1A0006364A369A4F8483012B1062384F83C30F4
:10A1B0006379B3B194F82E349BB994F8303483B1F9
:10A1C000022384F8503004212046FFF7A2FE002825
:10A1D000CAD1052384F8313004F58263C4F82034F1
:10A1E000C2E70323F6E7E3696364236AA4F848300F
:10A1F00012B1062384F83C30637983B194F82E348D
:10A200006BB994F8303453B1022384F850300421F0
:10A210002046FFF77EFE0028A6D10623DAE70423B6
:10A22000D8E784F831309FE7D4F820142A4604F1A7
:10A230005400FFF76AFE38B994F8301094F85400CF
:10A24000FFF765FE002892D0F8BD94F831009847DA
:10A2500090E70820F8E70388112B10B50C460AD0C8
:10A26000262B1FD0102B05D1C37B012B02D1838855
:10A27000A1F8243410BD0022838881F82E24B1F87F
:10A2800024249A42F6D10B79002BF3D101212046E8
:10A29000FFF7CFFE0028EDD0A36B002BEAD0BDE87E
:10A2A00010401847037A013B012BE3D88978052336
:10A2B0000131B1FBF3F303EB8303C91AC9B2E6E73B
:10A2C00075DF704776DF70477ADF70477BDF704756
:10A2D000034B1A8882420CBF18460020704700BF0B
:10A2E000443B0020024B9B6903B11847704700BFF5
:10A2F000283B002073B585B22846FFF7E9FF0446E6
:10A3000070B1164E027A337B9A420BD200F10A01E9
:10A310002846FFF7D5FFE8B1112801D0FFF7E2FF8B
:10A3200002B070BD00230372337C43B13B21284649
:10A33000FFF7C8FF30F0080301D0FFF7D3FF7369C0
:10A34000002BEDD000228DF80420ADF8065001A8B6
:10A350009847E5E7237A01332372E1E7283B0020A1
:10A3600037B50B46497A0F4A71B9D2E901141D7A03
:10A370000246002D18BF21465868FDF751FF08B16D
:10A38000FFF7B0FF03B030BD002119725369002BF5
:10A39000F8D00122ADF806008DF8042001A89847F6
:10A3A000F0E700BF283B00204B8802889A4213D870
:10A3B00042889A4210D380888A8840F2F3139842E8
:10A3C00094BF031AC31A934206D800F2F3109042C6
:10A3D00034BF002001207047002070470388122BF3
:10A3E00070B5014659D004D8102B1ED0112B44D083
:10A3F00070BD502BFCD12F4BC288DB899A42F7D11C
:10A40000038A022BF4D186883046FFF761FF0546A8
:10A410000028EDD001F1120000F079F938BB68682E
:10A42000FDF74AFF0028E3D009E0C37B012BDFD111
:10A430004FF6FF70FFF74CFF054620B90420BDE83A
:10A440007040FFF74FBF1C4A8E88068000230372BE
:10A450001368C0F80A305368C0F80E3010310A3063
:10A46000FFF7A2FF134B6872DB89002BC0D129468E
:10A470003046BDE87040FFF773BF8088FFF728FFC4
:10A4800004460028B4D04068FDF716FF08B1FFF776
:10A4900029FF4FF6FF732380AAE786883046FFF72F
:10A4A00017FF05460028A3D008310A30FFF77CFFCC
:10A4B0006872DCE7283B0020583B0020F8B50646D0
:10A4C00048B305460FCD154F3C460FC495E807002D
:10A4D00084E807003068124C3C60B0B1FFF7F4FE2E
:10A4E000C0B9326813682360536863600D480E4A30
:10A4F0004FF6FF7303800D4B40F8043F0021FDF73A
:10A500007DFE002818BF032004E02046FFF7DEFE92
:10A510000028EBD0F8BD0E20FCE700BF283B002050
:10A52000583B0020443B0020F5A20200603B002085
:10A530000AB1FDF70BBFFDF712BF73B50191019C86
:10A5400006466CB100252C46294601A8FDF711FFEF
:10A5500018B106EB440301349D800135142DF3D16D
:10A560003046346002B070BD2DE9F047038884881E
:10A57000103B8CB005460A2B1FD8DFE803F0063FDE
:10A580001E1E1E1E1E1E1E604400314EB368DB439D
:10A59000009371686846FDF718FF009901A8FFF75E
:10A5A000CCFF0DF108094FF00008019B984507D337
:10A5B000132C13D90420FDF797FB0CB0BDE8F087EE
:10A5C00039F802AB00270137514606EB8700FDF74B
:10A5D000C6FE1E2FF7D108F10108E6E71D48214607
:10A5E000FDF7B4FE1C482146FDF7B0FEEB7B012BC6
:10A5F000E3D01A482146FDF7A9FEDEE715482146BB
:10A60000FDF7ADFED9E7027A15483F2A4FEA121549
:10A61000214694BF00220122FFF78AFF022D94BF3A
:10A62000002201220F482146FFF782FF012D0E482C
:10A6300094BF002201222146FFF77AFFBDE7037A8B
:10A64000002BBAD1427A0648C2F3C0022146F3E792
:10A65000803B0020883B0020843B00208C3B002076
:10A66000983B0020943B0020903B0020132801469B
:10A6700002D80248FDF77DBE00207047843B0020D1
:10A6800010B50446FFF7F2FF002814BF204614203F
:10A6900010BD70B50546164608460AB90E2070BDB5
:10A6A00000231360002DF9D02B68002BF6D0EB8827
:10A6B00013F003040ED1FFF7E3FFC0B214280BD050
:10A6C0002B7983420AD9EB882A6800FB032030608B
:10A6D0002046E4E70720E2E70520E0E70420DEE784
:10A6E000AADF7047002301380B70042806D8DFE882
:10A6F00000F00306080A0C0011230B707047212399
:10A70000FBE73123F9E71223F7E72223F5E7007887
:10A7100000F001007047F0B58B7891B0012B0C462A
:10A7200038BF01238DF80E3005460B88ADF80C308C
:10A73000002116466846032200F036FE607C69461A
:10A74000FFF7D0FFA07C0DF10101FFF7CBFFE27B0B
:10A75000237B217D43EAC203227C43EA02139DF856
:10A760000220002922F0190203F0190314BF02216C
:10A770000121134361F342031C22002109A88DF833
:10A78000023000F011FE637B13F0300F15D002AFE2
:10A7900003220021384600F007FEE07C0DF109019C
:10A7A000FFF7A0FF11238DF808309DF80A300E97AF
:10A7B000012262F342038DF80A30637B8DF8243066
:10A7C0001422A37B8DF82530002104A800F0ECFDB5
:10A7D00003AB0493A388ADF81C30A368CDF814D064
:10A7E0001BB1E288ADF818200893A369002B31D083
:10A7F00001AF03220021384600F0D6FDA3691A8874
:10A80000ADF82C205A88ADF82E205A680D97187B89
:10A810000A923946FFF766FFA3690DF10501587BDF
:10A82000FFF760FFA269917A137A43EAC103D17AF4
:10A83000927B43EA01139DF80610002A03F01903E6
:10A8400021F0190114BF022201220B4362F34203DB
:10A850008DF80630E36903B10C93334604AA09A9C5
:10A860002846FFF73DFF11B0F0BD90DF7047A5DF30
:10A870007047B5DF704700007FB50023ADF80810C2
:10A88000ADF80A106A4602A9064603930093ADF894
:10A890000430FFF7EAFF054600B3124B124CE41AEE
:10A8A000E408FEF70FF9240444F0010403460F49BD
:10A8B00032462046FDF7B5F8BDF80020BDF802305D
:10A8C00052EA030103D00A492046FDF7AAF8BDF871
:10A8D00004201AB107492046FDF79AF8284604B02B
:10A8E00070BD00BF28B5020078B50200A5BC02000B
:10A8F000EFBC02002EBD020080B14FF0F7130360E1
:10A90000FB230371F723C3801723038141F6FB3236
:10A910000023016143818281184670470E207047F1
:10A9200030B1A1F11703E02B04D80180002070475B
:10A930000E2070470720704713B5034680880C46E9
:10A94000B8B91A88242A00F0968014D8112A71D038
:10A95000232A00F09E80102A3BD0A37A4BB1E188D5
:10A960000020FFF784FF002840F099804FF48073A7
:10A97000638102B010BD3A2A65D0552AEDD1DB883B
:10A98000C988A072172B38BF17238B4228BF0B46EC
:10A990002381FFF76EFF60B1FEF794F8484B4949F9
:10A9A000024649481B1ADB081B0443F00100FDF76F
:10A9B0002FF8E37A002BD0D12369002BCDD040F6BD
:10A9C000772200922289ADF80420694620469847F4
:10A9D000C3E7DB7B0A790A73012B13D0022B14D057
:10A9E000E18823898B4205D20020FFF740FF70B930
:10A9F0000123E372217B637B8B42AED20020FFF701
:10AA00003BFFAAE70B88E380EAE74B88FBE71128C6
:10AA100002D10123A372EDE7FEF754F8284B2B492E
:10AA2000024629481B1ADB081B0443F00100FCF70F
:10AA3000EFFFDFE7F723CB8017230B8141F6FB33D2
:10AA400048818B8189E75B89CA88934228BF134676
:10AA5000172B0A6938BF17230B814AB1C97A39B15C
:10AA600040F677210091ADF80430694620469047C2
:10AA70000023638171E71A7A0B694A73002B3FF454
:10AA80006CAF4DF67A218DF8050000918DF8042009
:10AA90009BE7197A237B994228BF1946AFE7112813
:10AAA0003FF467AFFEF70EF8054B0849024606482B
:10AAB0001B1ADB081B0443F00100FCF7A9FF58E751
:10AAC00078B50200B5BD020028B5020084BD0200C1
:10AAD000B0DF704766DF704710B50021044640883C
:10AAE000FFF7F8FF034608B9237210BD112801D102
:10AAF0000123F9E76368BDE81040184760B159B118
:10AB00000378DE2B0AD00B684360DE2303704FF618
:10AB1000FF734380002070470E2070470820704765
:10AB200028B10378DE2B04D14180002070470E202D
:10AB3000704708207047F0B5054685B00C46F1B166
:10AB4000E8B10B78DE2B1AD182884B889A4204D167
:10AB50000B7A13B10846FFF7BFFF2B88112B32D0B9
:10AB6000512B0ED0012B0AD12B7A012B07D1A988AA
:10AB70006288914203D123722046FFF7ADFF05B0F2
:10AB8000F0BDAE886388B342F9D1AF79022FF6D118
:10AB9000AD7B2B1F022BF2D800211022684600F05B
:10ABA00003FC052D14BF4FF4C073002369463046E3
:10ABB0008DF80070ADF80430FFF78AFF0028DED072
:10ABC00063689847DBE76388AA889A4204BF4FF618
:10ABD000FF736380D3E7A8DF7047ADDF7047AEDF58
:10ABE000704762DF704770B505468AB00C46002991
:10ABF00062D0002860D00388502B37D0572B72D0FA
:10AC0000102B59D181886069002601AA0196FFF7AF
:10AC100040FD082231460DEB020000F0C5FB022387
:10AC20002189A888CDF80CD002AA0293FFF7D5FF9E
:10AC3000002841D1A369002B3ED00398FFF767FDA0
:10AC4000002839D0019B0BB101221A701822002173
:10AC500004A800F0A9FB02238DF81030AB88ADF8F2
:10AC60001830019B05940793A36923E081886069EC
:10AC700002AAFFF70EFD1822002104A800F094FBA1
:10AC8000AB882189ADF81830EB88029A0594994277
:10AC9000079218D12E8A022E15D16AB105F1120041
:10ACA000FFF735FD029B48B101221A708DF8106044
:10ACB000A3690BB104A898470AB070BD18700323AC
:10ACC0008DF81030F4E7A2899A42F5D1A369002BE0
:10ACD000F2D000228DF8102005F1120208922A8A83
:10ACE000ADF82420E6E78188606902AAFFF7D1FC6D
:10ACF00001460028E0D1029B1B78002BDCD01822F3
:10AD000004A800F051FB01238DF81030AB88ADF89A
:10AD100018300594029BA6E7F0B53A4B8FB002AD10
:10AD200004460A4603F1100C2F46186859682E464F
:10AD300003C6083363453546F7D1002C5FD0002A9F
:10AD40005DD01368A36121463846FFF74AFF00280B
:10AD500053D12246012512F8023B8DF8063001A995
:10AD60002846ADF80450FFF736FF002845D10146CC
:10AD7000202206A800F018FB22460223ADF8183066
:10AD800012F80C3B8DF81A30BDF824301E4E608846
:10AD9000079623F44F6323F00F0343F440632B43E0
:10ADA00006A9ADF824308DF829508DF82A50FFF708
:10ADB000B2FC10BB0146202206A800F0F5FA22469C
:10ADC0000323ADF8183012F8043B8DF81A30BDF8A3
:10ADD00024306088079623F4875323F01F0343F43D
:10ADE00080532B43ADF8243006A940F201138DF8AF
:10ADF0002950ADF82A30FFF78EFC0FB0F0BD0E20C1
:10AE0000FBE700BFF9BD0200F4000100F0B50F46FA
:10AE100087B016461C46054618B3406901AA194674
:10AE2000FFF737FCD8B94FF6FF739C421BD0019B4C
:10AE3000CBB11B78CBB13388F42B18D80146102244
:10AE400002A800F0B1FAAB88ADF8083002A90123DE
:10AE50002046CDE904678DF80A30FFF7C0FE07B041
:10AE6000F0BD0E20FBE70520F9E70820F7E70720F3
:10AE7000F5E710DF7047000013B50446094968463E
:10AE8000FDF7EBFD019808B902B010BDD0E9002133
:10AE90002046904718B16846FDF7E9FDF2E711201A
:10AEA000F2E700BF18BE020013B504460749684622
:10AEB000FDF7D3FD019B0BB902B010BD2046D3E9CD
:10AEC000002190476846FDF7D2FDF3E730BE02004F
:10AED0000B4991F816335A09EC231341DB0706D5C9
:10AEE000084B9A683AB94FF480030B60704742F2FE
:10AEF0000200FCF7F9BE1A6842F480021A6070473B
:10AF000000E100E028320020F7B5194F3C7864BB1F
:10AF1000184E012520463570FFF7AEFF112821D0CD
:10AF20002046FFF7C1FF144B8DF8034018680190CD
:10AF30000DF10300FDF7D0F9104901A8FFF799FFC3
:10AF40000446B0FA80F0400938709DF80300FDF720
:10AF5000E7F93CB90A4B34701C70FFF7B9FF28467B
:10AF6000FFF7A2FF204603B0F0BD0824FAE700BFB8
:10AF7000FD3B0020FC3B002011BE0200057D0200CD
:10AF8000FE3B0020014B1878704700BFFD3B0020BE
:10AF900007B508496846FDF760FD019B13B903B08A
:10AFA0005DF804FBD3E9002090476846FDF75FFD9C
:10AFB000F3E700BF24BE0200FFF7EABF60DF70477F
:10AFC00069DF704761DF704730B5114DADF5017D28
:10AFD0004FF4FA740DF1020103A8ADF80240FFF737
:10AFE000F1FF70B9294601A8FDF737FD029B002B40
:10AFF000F0D003A8D3E90021904701A8FDF737FD61
:10B00000F4E7052801D0FCF76FFE0DF5017D30BD9A
:10B01000B8C00200024B1B780BB1FFF7D5BF7047D9
:10B02000FF3B002030B5054685B00C46002900F0F6
:10B03000B5805B4B0B600C22002101A800F0B4F935
:10B0400001238DF8063022688DF80450062301A9EB
:10B050002020ADF80830FFF7B3FF60B1FDF732FDF7
:10B06000504B5149024651481B1ADB081B0443F060
:10B070000100FCF7CDFC0C22002101A800F094F99E
:10B0800001238DF805302268002301A94020ADF886
:10B090000630FFF795FF60B1FDF714FD414B4449C1
:10B0A000024642481B1ADB081B0443F00100FCF770
:10B0B000AFFC0C22002101A800F076F9F7232268EA
:10B0C0008DF8045001A92320ADF80630FFF778FF72
:10B0D00060B1FDF7F7FC334B3649024633481B1A83
:10B0E000DB081B0443F00100FCF792FC0C2200215A
:10B0F00001A800F059F9012022688DF8040001A987
:10B10000FFF75EFF60B1FDF7DDFC264B2A490246E2
:10B1100026481B1ADB081B0443F00100FCF778FCEF
:10B120000C22002101A800F03FF94FF4B06322681F
:10B13000019301A9A120FFF743FF60B1FDF7C2FC15
:10B14000184B1E49024619481B1ADB081B0443F022
:10B150000100FCF75DFC0C22002101A800F024F99D
:10B160009DF8043022686FF3000301A9A0208DF838
:10B170000430FFF725FF034668B1FDF7A3FC094B38
:10B180000F49024609481B1ADB081B0443F0010063
:10B19000FCF73EFC0023184605B030BD0E23FAE74D
:10B1A000E82A002088B502003CBE020028B5020053
:10B1B00082BE0200CEBE020015BF020061BF0200C7
:10B1C000B2BF020073B505460668FFF7F7FE2B68AD
:10B1D000B34204461DD91A481A4B1B491B1ADB08F7
:10B1E0001B0443F002000190FCF70EFC2B6817498A
:10B1F00001983246FCF715FC4FF080532A68D3F8CB
:10B200000C31134901989B0203F100539A1AFCF781
:10B21000FFFB2CB90F4B01221A70204602B070BD03
:10B220002046FDF74FFC074B0B49024604481B1A0A
:10B23000DB081B0443F00100FCF7EAFBEDE700BF6D
:10B2400028B5020088B5020005C0020034C0020023
:10B2500065C00200FF3B00208FC002004BDF70473B
:10B260001FB50D4C01A8FFF7F9FF70B9214602A8E0
:10B27000FDF7F3FB039B002BF4D00198D3E90021E9
:10B28000904702A8FDF7F3FBF4E7052801D0FCF78F
:10B290002BFD04B010BD00BFD0C002007F2805D830
:10B2A000034B185C034B5B5C1840704700207047F1
:10B2B000E8C0020068C10200A0F16103192B98BF29
:10B2C00020387047A0F14103192B98BF20307047F8
:10B2D0007F2805D8034B185C034B5B5C1840704714
:10B2E00000207047E8C0020068C10200A0F16103BD
:10B2F000192B98BF20387047A0F14103192B98BF34
:10B30000203070477F299ABF017001206FF02E0016
:10B3100070475AB10A787F2A0AD800B1026000212A
:10B3200019605960501A18BF0120704700207047FB
:10B330006FF02E007047000008B5034B5B689B68F8
:10B340001B68984708BD00BF202B002008B50921C5
:10B35000FFF7F2FF08BD844640EA010313F0030F34
:10B3600018D18446202A0BD32DE9F007B1E8F8075D
:10B37000A0E8F807A2F12002202AF7D2BDE8F007E2
:10B38000042A07D351F8043B40F8043BA2F104021D
:10B39000042AF7D2002A05D011F8013B00F8013B3E
:10B3A000013AF9D1604670478446002A2DD010F04A
:10B3B000030F04D000F8011B013A26D0F7E7C9B209
:10B3C00041EA012141EA0141202A12D3A2F12002DF
:10B3D0002DE9F0030B460C460D460E460F468846F7
:10B3E0008946A0E8FA03203AFBD2BDE8F0032032F8
:10B3F0000BD0042A05D340F8041B043A05D0042AD4
:10B40000F9D200F8011B013AFBD1604670470246B1
:10B4100010F0030F16D111F0030F13D12DE9F00036
:10B420004FF001374FF0803351F8044BA4EB070580
:10B4300025EA04051D4002D142F8044BF4E7A1F1CE
:10B440000401F0BC11F8013B02F8013B002BF9D1DB
:10B45000704700F1010110F0030F11D010F8012B1B
:10B46000002A23D010F0030F0AD010F8012B002A75
:10B470001CD010F0030F03D010F8012B002A15D0B8
:10B480002DE970004FF001324FF0803350F8044B3B
:10B49000A4EB020525EA04051D4000D1F6E7A0F162
:10B4A000040070BC10F8012B002AFBD1A0EB0100B6
:02B4B0007047E3
:08B4B400F18C02000000000011
:10B4BC0069A50200000000002193020000000000BA
:10B4CC0057A202001833002039A902007838002056
:10B4DC00DDA302000000000037AB0200943800200E
:10B4EC00E7AB0200FC2A0020C19302000000000020
:08B4FC00718D02000000000048
:10B5040015B002000000000061B20200000000005B
:10B51400782B0020402C0020482C0020802B002079
:04B52400180000000B
:10B528000ABC02000000000010BC0200000000007D
:10B5380017BC02000000000026BC0200000000004A
:10B548001BBC02000000000020BC0200000000003C
:10B55800E5B5020000000303BCB6020000000000CD
:10B56800F1BD02000000000004BC02000000000061
:10B57800E4BD02000000030309BE0200000003034B
:10B58800ACC0020000000303C4C0020000000303B3
:08B59800F6B6020000000000FD
:10B5A000B8B5020000000000C4B50200E82A00207F
:10B5B0000338FDD870470000D573020041740200C3
:10B5C000D17302007274745F6C6F675F6261636B4A
:10B5D000656E64004261636B656E647320666C75B2
:10B5E0007368656400617070000000006C300020BA
:10B5F0007F000000EC3000201B5B306D00257300E5
:10B600001B5B313B33316D0025734C6F67732064D6
:10B61000726F70706564202825642925730D0A00F7
:10B620003C25733E2025733A2000202530327800D7
:10B63000202020007C002563001B5B313B33306DF4
:10B64000001B5B313B33326D001B5B313B33336D91
:10B65000001B5B313B33346D001B5B313B33356D7D
:10B66000001B5B313B33366D001B5B313B33376D69
:10B67000007761726E696E6700696E666F0064655F
:10B6800062756700F8B5020039B6020000B6020024
:10B6900041B6020049B6020051B6020059B6020096
:10B6A00061B6020069B6020000000000CDB60200DB
:10B6B00071B6020079B602007EB602006170705F5A
:10B6C000627574746F6E00466174616C206572728D
:10B6D0006F720053797374656D20726573657400C1
:10B6E0000338FDD870473031323334353637383986
:10B6F0004142434445467077725F6D676D74000048
:10B70000FCB40200FCB40200040000004E52465F8C
:10B7100053554343455353004E52465F4552524F93
:10B72000525F5356435F48414E444C45525F4D492A
:10B730005353494E47004E52465F4552524F525F57
:10B74000534F46544445564943455F4E4F545F4519
:10B750004E41424C4544004E52465F4552524F5274
:10B760005F494E5445524E414C004E52465F455241
:10B77000524F525F4E4F5F4D454D004E52465F4512
:10B7800052524F525F4E4F545F464F554E44004EFB
:10B7900052465F4552524F525F4E4F545F53555081
:10B7A000504F52544544004E52465F4552524F52FC
:10B7B0005F494E56414C49445F504152414D004E05
:10B7C00052465F4552524F525F494E56414C494492
:10B7D0005F5354415445004E52465F4552524F52BA
:10B7E0005F494E56414C49445F4C454E47544800D2
:10B7F0004E52465F4552524F525F494E56414C4958
:10B80000445F464C414753004E52465F4552524FAB
:10B81000525F494E56414C49445F44415441004EA9
:10B8200052465F4552524F525F444154415F534923
:10B830005A45004E52465F4552524F525F54494D51
:10B84000454F5554004E52465F4552524F525F4E3F
:10B85000554C4C004E52465F4552524F525F464F38
:10B860005242494444454E004E52465F4552524F63
:10B87000525F494E56414C49445F41444452004E48
:10B8800052465F4552524F525F42555359004E52F5
:10B89000465F4552524F525F434F4E4E5F434F55A6
:10B8A0004E54004E52465F4552524F525F524553DE
:10B8B0004F5552434553004E52465F4552524F52E8
:10B8C0005F4D4F44554C455F4E4F545F494E495470
:10B8D00049414C495A4544004E52465F4552524FE9
:10B8E000525F4D555445585F494E49545F46414952
:10B8F0004C4544004E52465F4552524F525F4D55A3
:10B900005445585F4C4F434B5F4641494C454400BA
:10B910004E52465F4552524F525F4D555445585F07
:10B92000554E4C4F434B5F4641494C4544004E52A7
:10B93000465F4552524F525F4D555445585F434FF5
:10B940004E445F494E49545F4641494C4544004E80
:10B9500052465F4552524F525F4D4F44554C455FE2
:10B96000414C52454144595F494E495449414C4923
:10B970005A4544004E52465F4552524F525F53540F
:10B980004F524147455F46554C4C004E52465F452D
:10B9900052524F525F4150495F4E4F545F494D5094
:10B9A0004C454D454E544544004E52465F4552521B
:10B9B0004F525F464541545552455F4E4F545F4587
:10B9C0004E41424C4544004E52465F4552524F5202
:10B9D0005F494F5F50454E44494E47004E52465FC7
:10B9E0004552524F525F4452565F5457495F455239
:10B9F000525F4F56455252554E004E52465F455289
:10BA0000524F525F4452565F5457495F4552525FFE
:10BA1000414E41434B004E52465F4552524F525F9A
:10BA20004452565F5457495F4552525F444E41431A
:10BA30004B004E52465F4552524F525F424C455F5B
:10BA4000495053505F52585F504B545F5452554EBB
:10BA50004341544544004E52465F4552524F525F57
:10BA6000424C455F495053505F4348414E4E454C10
:10BA70005F414C52454144595F4558495354530026
:10BA80004E52465F4552524F525F424C455F4950BD
:10BA900053505F4C494E4B5F444953434F4E4E45C4
:10BAA00043544544004E52465F4552524F525F4206
:10BAB0004C455F495053505F504545525F52454A8F
:10BAC000454354454400556E6B6E6F776E2065722A
:10BAD000726F7220636F6465000000000000000058
:10BAE0000CB702000100000018B7020002000000BD
:10BAF00036B702000300000057B702000400000040
:10BB00006AB70200050000007BB7020006000000D3
:10BB10008FB7020007000000A7B70200080000006E
:10BB2000BFB7020009000000D7B702000A000000FA
:10BB3000F0B702000B00000008B802000C00000083
:10BB40001FB802000D00000033B802000E00000014
:10BB500045B802000F00000054B8020010000000B9
:10BB600068B80200110000007FB802001200000057
:10BB70008EB8020013000000A3B80200800000008D
:10BB8000B7B8020081000000D8B8020082000000AF
:10BB9000F4B802008300000010B902008400000025
:10BBA0002EB90200850000004FB902008600000097
:10BBB00074B90200900000008BB9020091000000EF
:10BBC000A9B9020092000000C7B90200008200007B
:10BBD000DCB9020001820000FAB902000282000012
:10BBE00016BA02000084000032BA0200018400008C
:10BBF00056BA02000284000080BA020003840000EA
:10BC0000A5BA0200636C6F636B00434C4F434B005B
:10BC10004750494F5445005052530055415254002B
:10BC2000554152544500534141444300436F6E6EA9
:10BC3000656374656400446973636F6E6E656374F5
:10BC400065640044617461206C656E2069732073C3
:10BC5000657420746F203078255828256429003DAC
:10BC60003D3D3D3D3D3D3D3D3D3D535441525420C4
:10BC7000586965636F6E203834303D3D3D3D3D3D34
:10BC80003D3D3D3D3D0A00586965636F6E2076314C
:10BC9000005465726D696E616C00525454005345D6
:10BCA000474745520073645F626C655F6761705F10
:10BCB000646174615F6C656E6774685F7570646100
:10BCC0007465282920287265717565737429206F41
:10BCD0006E20636F6E6E656374696F6E20307825B9
:10BCE000782072657475726E65642025732E005419
:10BCF0006865207265717565737465642054582F8A
:10BD00005258207061636B6574206C656E6774684F
:10BD100020697320746F6F206C6F6E6720627920CA
:10BD200025752F2575206F63746574732E00546814
:10BD3000652072657175657374656420636F6D62EB
:10BD4000696E6174696F6E206F6620545820616E51
:10BD500064205258207061636B6574206C656E6757
:10BD600074687320697320746F6F206C6F6E672026
:10BD70006279202575206D6963726F7365636F6EDC
:10BD800064732E0073645F626C655F6761747463D3
:10BD90005F65786368616E67655F6D74755F726516
:10BDA000717565737428292072657475726E656487
:10BDB0002025732E0073645F626C655F6761747425
:10BDC000735F65786368616E67655F6D74755F72D8
:10BDD00065706C7928292072657475726E656420AF
:10BDE00025732E006E72665F626C655F67617474A6
:10BDF00000626C655F6E7573009ECADC240EE5A957
:10BE0000E093F3A3B50000406E6E72665F736468E2
:10BE10000001000007000000FCB40200FCB40200B6
:10BE20000800000004B5020014B50200080000007C
:10BE3000FCB4020004B502000800000073645F62F5
:10BE40006C655F6366675F7365742829207265742B
:10BE500075726E6564202573207768656E20617445
:10BE600074656D7074696E6720746F2073657420DB
:10BE7000424C455F434F4E4E5F4346475F474150FC
:10BE80002E0073645F626C655F6366675F736574E1
:10BE900028292072657475726E6564202573207779
:10BEA00068656E20617474656D7074696E67207466
:10BEB0006F2073657420424C455F4741505F434695
:10BEC000475F524F4C455F434F554E542E007364AD
:10BED0005F626C655F6366675F73657428292072B3
:10BEE000657475726E6564202573207768656E20B1
:10BEF000617474656D7074696E6720746F2073650A
:10BF00007420424C455F434F4E4E5F4346475F4768
:10BF10004154542E0073645F626C655F6366675FB3
:10BF200073657428292072657475726E65642025A6
:10BF300073207768656E20617474656D7074696EC6
:10BF40006720746F2073657420424C455F434F4DEA
:10BF50004D4F4E5F4346475F56535F555549442EFC
:10BF60000073645F626C655F6366675F7365742806
:10BF7000292072657475726E656420257320776858
:10BF8000656E20617474656D7074696E6720746F7E
:10BF90002073657420424C455F47415454535F43BE
:10BFA00046475F415454525F5441425F53495A459A
:10BFB0002E0073645F626C655F6366675F736574B0
:10BFC00028292072657475726E6564202573207748
:10BFD00068656E20617474656D7074696E67207435
:10BFE0006F2073657420424C455F47415454535F42
:10BFF0004346475F534552564943455F4348414E88
:10C000004745442E00496E73756666696369656EBF
:10C01000742052414D20616C6C6F636174656420C3
:10C02000666F722074686520536F66744465766924
:10C0300063652E004368616E6765207468652052F1
:10C04000414D207374617274206C6F636174696F09
:10C050006E2066726F6D203078257820746F2030E6
:10C060007825782E004D6178696D756D2052414DAF
:10C070002073697A6520666F72206170706C6963E5
:10C080006174696F6E20697320307825782E007393
:10C09000645F626C655F656E61626C652829207201
:10C0A000657475726E65642025732E006E72665F0E
:10C0B0007364685F626C6500BCB40200FCB402008B
:10C0C000080000006E72665F7364685F736F6300E0
:10C0D000B4B40200BCB40200080000004300000039
:10C0E000504F5349580000002020202020202020BD
:10C0F00020682828282820202020202020202020D8
:10C100002020202020202020481010101010101077
:10C11000101010101010101084848484848484847F
:10C120008484101010101010108181818181810190
:10C1300001010101010101010101010101010101EF
:10C14000010101101010101010828282828282027E
:10C1500002020202020202020202020202020202BF
:10C160000202021010101020000703200417020121
:10C170000857104080000000DCC00200E0C102004F
:10C18000F4C2020053756E004D6F6E005475650069
:10C190005765640054687500467269005361740005
:10C1A000000000004A616E00466562004D61720049
:10C1B000417072004D6179004A756E004A756C00DD
:10C1C00041756700536570004F6374004E6F7600D1
:10C1D0004465630000000000414D00504D00000028
:10C1E00018C3020014C3020014C3020014C30200E7
:10C1F00014C3020014C3020014C3020014C30200DB
:10C2000014C3020014C30200FFFFFFFFFFFFFFFF84
:10C21000FFFFFFFFFFFF000054C2020084C10200C5
:10C2200090C20200A4C10200D8C1020038C20200BC
:10C23000E8C2020044C20200256D2F25642F257933
:10C24000000000002561202562202565202554205E
:10C250002559000053756E646179004D6F6E6461FD
:10C26000790054756573646179005765646E657310
:10C27000646179005468757273646179004672690B
:10C280006461790053617475726461790000000023
:10C290004A616E7561727900466562727561727984
:10C2A000004D6172636800417072696C004D617984
:10C2B000004A756E65004A756C7900417567757343
:10C2C000740053657074656D626572004F63746FBE
:10C2D000626572004E6F76656D62657200446563DB
:10C2E000656D62657200000025483A254D3A255378
:10C2F000000000009DB20200B9B20200C5B2020007
:10C30000D1B20200EDB20200F9B2020005B30200A0
:0AC3100013B30200000000002E002D
:10C31C0000000000FF0000000090D00301000200AC
:10C32C00FFFF000000000000000000000000000003
:10C33C000000000000000000182B0020000000008E
:10C34C00903800200100040078C1020078C102007E
:0CC35C0078C1020078C1020078C1020024
:0400000320007375F1
:00000001FF
