:020000022000DC
:1070000000000420757302005D7302005F730200CC
:1070100061730200637302006573020000000000E8
:107020000000000000000000000000006773020084
:1070300069730200000000006B7302006D730200B0
:10704000299302006F7302008D9302006F73020098
:107050006F7302006F7302006F730200B19302003E
:107060006F730200619502006F7302006F7302007C
:107070006F7302006F7302006F7302006F73020080
:107080006F730200657E02006F7302006F7302006F
:10709000017F02006F730200F9B202006F730200F9
:1070A0006F7302006F730200759502006F73020028
:1070B0006F7302006F730200000000000000000008
:1070C0006F7302006F7302006F7302006F73020030
:1070D0006F7302006F7302006F7302006F73020020
:1070E0006F7302006F7302006F73020000000000F4
:1070F000000000006F730200000000006F730200C8
:10710000000000000000000000000000000000007F
:10711000000000000000000000000000000000006F
:10712000000000000000000000000000000000005F
:10713000000000000000000000000000000000004F
:10714000000000000000000000000000000000003F
:10715000000000000000000000000000000000002F
:10716000000000000000000000000000000000001F
:10717000000000000000000000000000000000000F
:1071800000000000000000000000000000000000FF
:1071900000000000000000000000000000000000EF
:1071A00000000000000000000000000000000000DF
:1071B00000000000000000000000000000000000CF
:1071C00000000000000000000000000000000000BF
:1071D00000000000000000000000000000000000AF
:1071E000000000000000000000000000000000009F
:1071F000000000000000000000000000000000008F
:10720000354936480A1A02D0072291438D4634493F
:1072100034480A1A06D00722914381F309880222D2
:1072200082F3148830483149314A00F044F831483B
:107230003149324A00F03FF831483249324A00F0D1
:107240003AF832483249334A00F035F83248334987
:10725000334A00F030F833483349344A00F02BF811
:1072600033483449344A00F026F83448344900227F
:1072700000F02CF833483449002200F027F8334856
:107280003349091A082902DB002202604160314AB1
:1072900090471F481F49884205D00268043003B454
:1072A000904703BCF7E700208646EC46002000210B
:1072B000294A9047FEE7884207D0521A05D0037842
:1072C00001300B700131013AF9D17047884202D088
:1072D00002700130FAE770470000042000E003204C
:1072E000000004200000042028DB0200FC2A00200B
:1072F000482B0020D0730200D0730200B0C90200F6
:1073000028DB0200FC2A0020FC2A0020E8CA020038
:10731000E8CA0200E8CA0200E8CA0200E8CA02009D
:10732000E8CA0200E8CA0200E8CA020028DB02003C
:1073300074DB0200482B0020482B0020482B002043
:10734000F83B0020F83B0020FC3B0020FC3B0020E9
:10735000FC5B00209D7302008D980200FEE7FEE7B3
:10736000FEE7FEE7FEE7FEE7FEE7FEE7FEE7FEE7F5
:1073700000F002B8FFF7FCBF0F484FF00701884349
:1073800085460E4880470E48016841F4700101604F
:10739000BFF34F8FBFF36F8FFFF732BF09480A4922
:1073A0000A4A884207D0521A05D0037801300B7080
:1073B0000131013AF9D17047000004200590020024
:1073C00088ED00E0D4CA0200E82A0020FC2A002050
:1073D00000487047F03B00207047000007B5044BA1
:1073E0000093044A402300F032F803B05DF804FB38
:1073F000F9730200492B00202DE9F8438846144612
:10740000B2B10F4B0F4E0325002743F0010922466E
:1074100008EB0701002002F04FFC0744241A48B98A
:1074200033782BB14FF47A40C847013D02D1357013
:10743000BDE8F88301233370002CE8D1F8E700BFE2
:10744000F0CA0200482B0020704702F069BCF0B57A
:1074500095B01D46164608460C4601F059FB1A9B8E
:107460000D93CDE9086500252B46082205A9204685
:107470000A958DF82C500C9501F067FB079B029341
:10748000069B03939DF814308DF8115003F003020E
:10749000012A1DD1BDF81420059DC3F3C203C2F318
:1074A00083168DF81030B20008230EA9204601F093
:1074B0004CFBC5F3952508AB0093324602AB0EA9F1
:1074C000284600F061FB204601F026FB15B0F0BD18
:1074D000022AF8D1BDF81650C3F3C203C5F38915CB
:1074E0008DF810300827082D2E4628BF08263B4669
:1074F00032460EA9204601F028FBAD1B08AB02AABC
:1075000031460EA8374400F0A3FB002DEBD1DAE79B
:1075100008B5FFF79AFF0448042100F09DFA034BD9
:1075200001225A7108BD00BFC4CA0200FC2A002013
:10753000037813F0040216D003F00303012B03D0E9
:10754000022B09D0012070470A6800880232C0F37C
:10755000831002440A60F5E70B684288023303EBAC
:1075600092130B60EEE71046704700002DE9F04FD4
:1075700087B000230446861C0DF107000F46154610
:107580008DF8073000F0B8FE454801683960D0E951
:107590000132134401335B1A824600F21C4700F5A6
:1075A000836900F21448B3421CD30020002D73D02D
:1075B00004F00F039B0143F0050363F30F00DAF8B7
:1075C0000020DAF808301340033316444AF8230049
:1075D0009DF80700CAF8006000F0B2FE012007B075
:1075E000BDE8F08F0121384600F0C1FF484600F0A9
:1075F000D9FF404600F0D6FFDAF80400DAF808B008
:10760000029000EA0B0003300AEB800002A9FFF7AA
:107610008FFF029B50BB0BEA03020AEB820203F1CD
:10762000020CD2680392013303EA0B0B0AEB8B0BBB
:1076300002F00302012ADBF80C10CDF808C023D0B9
:10764000022A16D08346404600F0AFFF10B1029BDD
:10765000CAF804305946384600F089FFDAE90123B8
:107660001344DAF8002001339B1A9CE70BEA03006D
:10767000C9E7BDF80E30C3F3891303334FEA114B4A
:107680000CEB93030293DEE7BDF80C30C3F38313D6
:107690004FEA114B6344F5E7A40544F006008EE77A
:1076A0005C2C00200B4B0C48FF2210B59A60002286
:1076B000C3F81824C3E90022C3F8142483F8202453
:1076C00001F0DFF9044610B9044801F087FA2046BA
:1076D00010BD00BF5C2C002028CA02002CCB020089
:1076E00030B50A4C71B10A4A0A49121BD20800236C
:1076F0009A4201D1002030BD31F82350854202D09A
:107700000133F5E7034654F83300F4E73CCA0200BE
:10771000C4CA0200FC2A0020094B013903EBC00057
:10772000032909D8DFE801F00A02040604207047A3
:1077300000797047407970470020704702207047F9
:107740003CCA0200034BD3E90030C31A58425841E7
:10775000704700BF5C2C00202DE9F04387B0FFF795
:10776000F1FF0646002840F0F9807D4DC5F8180469
:10777000BFF34F8F6B68AC6802932340033305EB74
:10778000830002A9FFF7D4FE029B18B1D5F8182494
:10779000002A5FD004EA0302991C013305EB820240
:1077A000234005EB8303D268DB68049302F00303F4
:1077B000022B0392029160D1BDF80E306948C3F3E9
:1077C0008917502FB84628BF4FF0500868F38F1321
:1077D00008F10801ADF80E3001F06BF906460028FB
:1077E00000F0A78001F094F90023082203A9304695
:1077F00001F0A1F9029924EA01020132B8EB820FEB
:107800004FEA820332D95FFA88F85BB32140DCB2D9
:10781000A8EB040803315FFA88F9A046524C05EB47
:10782000810108234246304601F085F934B108F160
:1078300008034A462146304601F07DF9029B033792
:1078400003EB97070297D5F81834002B49D1D5F8E8
:10785000104459E02A689A428FD86A60304607B0CF
:10786000BDE8F08340491C469946DAE70C40E11C2C
:107870000823424605EB8101DDE7012B59D1BDF814
:107880000C303848C3F38311062928BF062161F361
:10789000891302318900ADF80C3001F00AF906466F
:1078A000002846D001F034F90023082203A930460D
:1078B00001F041F90027BDF80C20C2F38312BB0090
:1078C000974203F10803BED202994A1C21400331BA
:1078D000029205EB81010422304601F02CF90137B8
:1078E000E9E7304601F018F9FFF72CFF80F00100BE
:1078F000C6B2B3E7E3685B7923B1236831461B68FE
:1079000020469847E3681C68002CF3D1304601F00C
:1079100003F90DF107008DF8074000F0EDFCD5F8F4
:1079200018340BB9029B6B609DF8070000F008FD4E
:10793000DAE7D5F8104454B90C4B0D480D49C01A7C
:10794000C008000440F0020000F062F8CCE72368B1
:1079500020469B689847E3681C68ECE700267DE7B3
:107960005C2C002028CA0200682C00203CCA0200BF
:1079700074CA020014CB02002DE9F74F224D0446D1
:107980000F46924601A901221846D5F808909B4659
:10799000FFF7ECFD20B3019E4FF00008B21CD84564
:1079A00008EB020126D11948002100F0A5FD80F363
:1079B0001000000440EA1440E400731C04F0380492
:1079C00003EA090306EA090644F0010405EB830310
:1079D000033644EA881444EA8724D86045F82640F0
:1079E00095F820341BB1FFF7B7FE0028FBD103B098
:1079F000BDE8F08F09EA010105EB81015AF8283052
:107A0000CB6008F10108CAE75C2C00207830002028
:107A100000231A46FFF7B0BF07B50123019201AA60
:107A2000FFF7AAFF03B05DF804FB07B5CDE900231B
:107A300002236A46FFF7A0FF03B05DF804FB1FB501
:107A4000CDE90123069B039301AA0323FFF794FFCB
:107A500005B05DF804FB000030B50F49D1F81024E3
:107A600003460020144634B9DC6820714AB9C1F8D5
:107A70001034226030BDE4682579854206D0246840
:107A8000F1E7D268116821601360F3E701300A283A
:107A9000E8D14FF0FF30EDE75C2C0020094A38B503
:107AA0000123D2F8104482F820341D4604B938BDB1
:107AB000E3685D71236820465B689847E3681C684B
:107AC000F4E700BF5C2C002007B503460846197A8E
:107AD000052911D05B7A2BB1094A0A49019000F0BF
:107AE000C7FD01980849019000F0C2FD019803B05C
:107AF0005DF804EB00F0B1BD002AF8D0F2E700BF5A
:107B000038CB02003FD2020068D2020030B5C388F1
:107B100085B004460D4633B1144A00921449154A03
:107B2000284600F0A5FD217A05291DD0637A4BB1C6
:107B3000A088FFF7F1FD104B104953F8202028468C
:107B400000F096FD227A0E4BA08853F82220039273
:107B50000021FFF7C5FD039A0A490346284605B0F0
:107B6000BDE8304000F084BD05B030BD38CB020028
:107B700045CB02003DCB0200C4CB02003FD2020045
:107B8000E8CB02005DCB02002DE9F04385B01F4633
:107B90000C9D002395F80C902B7306460C469046DE
:107BA00029463846FFF7B2FFB8F1060F09D8DFE8DB
:107BB00008F00412181F283340003146284600F010
:107BC00057FD002229463846FFF77EFF85F80C90C6
:107BD00005B0BDE8F08322683146284600F048FD34
:107BE000EFE7D4E900233146284600F041FDE8E7FD
:107BF000A36800933146D4E90023284600F038FDFD
:107C0000DFE7E3680193A36800933146D4E90023DA
:107C1000284600F02DFDD4E723690293E368019321
:107C2000A36800933146D4E90023284600F020FDE4
:107C3000C7E76369039323690293E3680193A36829
:107C400000933146D4E90023284600F011FDB8E73F
:107C500008292DE9F74F80460E4617461C463CD8AA
:107C6000002593F80C901D7319461046FFF74EFF40
:107C7000DFF888A0DFF888B0AE4231D918F80520C7
:107C80005946204600F0F4FC0135082DF4D119497D
:107C9000194DDFF870A0204600F0EAFC4FF0000B11
:107CA0005E4522D918F80B207E2A05D8104601928D
:107CB00003F048FD019A00B92E225146204600F0FB
:107CC000D7FC0BF1010BBBF1080FE9D101222146D2
:107CD0003846FFF7F9FE84F80C9003B0BDE8F08F4A
:107CE0005146204600F0C4FCCEE72946204600F06D
:107CF000BFFCE6E771CB02006FCB02006DCB020048
:107D000067CB020073CB02001FB50021039001AACC
:107D100044F20100CDE9011100F004F805B05DF86E
:107D200004FB000010B572B6FFF7B8FEFFF714FDB4
:107D30000028FBD1104B114C1149E41AE40824042B
:107D400044F00100FFF764FE0E4B1B68DB0700D513
:107D500000BE0D4944F00200FFF75AFEBFF34F8FFB
:107D60000A490B4BCA6802F4E0621343CB60BFF3CD
:107D70004F8F00BFFDE700BF3CCA020074CA02007B
:107D800007CC0200F0ED00E013CC020000ED00E0B3
:107D90000400FA05094A537891780133DBB299421D
:107DA00008BF0023117899421FBF03705078182331
:107DB00003FB002014BF043000207047183100205E
:107DC00073B5054600240DF107000E468DF80740F7
:107DD00000F092FA0DF10600FFF7DCFF90B106709B
:107DE000094B9DF8062045605A709DF8070000F089
:107DF000A7FA24B9054B4FF48012C3F8002120469E
:107E000002B070BD0424F0E71831002000E100E06A
:107E1000024B4FF43C6043F00103184720CC0200B2
:107E200038B50C4B0C4C4FF40032C3F880200125C0
:107E30004FF48033C4F84833C4F808336560FFF763
:107E4000E7FF064BA56000241C60FFF7E1FF044B31
:107E50001C7038BD00E100E0001001403432002009
:107E600025320020F8B51F4B1F491B680025C1F8BB
:107E70004051C1F84451C1F84851C1F84C51C1F8C2
:107E80000051C1F804514BB3D1F8044517490968B2
:107E9000641A24F07F442F461A68A24209D8A41A13
:107EA00015441A7CDE691AB1D3E905201F74904786
:107EB000AEB90F4A0F4B11781B788B4205D10133B5
:107EC000DBB2022B08BF0023137012780A4B43F871
:107ED00022500A4B4FF48012C3F80021F8BD3346FC
:107EE000DAE700BF383200200010014034320020B1
:107EF00031320020303200202832002000E100E042
:107F00002DE9F04FA24AA34913780978A24D99426E
:107F100085B03CD00133DBB2022B08BF00231370C5
:107F20009E4912789E4B0F6853F822003B1823F0AD
:107F30007F4300220B602B6816461446944613B903
:107F400042B12B6006E0196881420ED902B12B6064
:107F5000091A196001272B68DFF84CA201934FF032
:107F60000008BEB9DFF848B262E0401A0C44D96894
:107F7000D3F81CE0C3F800C031B13A1922F07F42B7
:107F8000C3E90121DE611E4673460122D7E70026C0
:107F90003746E0E73446F669804A63681268DFF8DE
:107FA00014C2A068991A21F07F41614500F2A880AF
:107FB00001442160012222742A680023C4E90133AC
:107FC000E361002A40F0A5802C60CAE79BF802100C
:107FD0005A1CD2B291428BF8002004BF00228BF8C9
:107FE0000020182202FB03B32A6819799C68022931
:107FF00077D0032900F08180012919D1207CB8B9FC
:10800000D3E90312A2605A69E2609A69654BA261E2
:108010001B78002B0CBF0B4603466360BCE78C4209
:1080200000F094808946C9690029F8D1002323749F
:108030009BF800309BF801209A42C7D12B68B8F119
:10804000000F04D1019A9A4201D1002F43D0002B96
:1080500079D0D3F800A0544D504BD5F804751C6866
:10806000DFF854813E1B98F8003026F07F46033637
:108070009BB94FF48033C5F84433C5F804334B4BF8
:108080004FF400324FF00109C3F880211A60C5F89F
:108090000090FFF7BDFE88F80090B2452CBF544415
:1080A000A41924F07F44C5F84045D5F80435DB1BFE
:1080B00023F07F43E41B033324F07F44A3420AD917
:1080C000D5F80435C5F84035FFF7A2FE374B4FF41D
:1080D0000032C3F80021334B00221A7005B0BDE80E
:1080E000F08F114691469FE71174D2690123002A4F
:1080F000FAD1002B9CD02A609AE700231946F6E7B4
:10810000D31A23F07F43834234BFC31A0023236072
:1081100050E721681368994213D8591A1160E26137
:1081200052E7091AD8691A4638B1034618688842D6
:10813000F7D3401A1860184613462160E061DC61ED
:108140000FE71346F2E7FFF76BFEC4E74C4511D18A
:10815000D3692B6073B9DFF844E00120CDE9021246
:10816000CAF80800CEF800300E4B1870FFF750FE2A
:10817000DDE902120B68C969C9F81C1011B1086861
:1081800003440B602B68934218BF4FF001084DE782
:1081900030320020313200203832002034320020CA
:1081A00028320020243200200010014000E100E0CD
:1081B00018310020FEFF7F002532002008B5FFF7B0
:1081C0002FFE104B00200B2218809A700E4B186067
:1081D0000E4B18700E4B18700E4B4FF48012C021CE
:1081E000C3F8802183F814131A6002F18042A2F5CB
:1081F0006F22C2F8080583F81113074BD2F8042543
:108200001A6008BD183100203832002030320020BA
:108210003132002000E100E034320020074B9B782F
:108220004BB132B128B10368187C20B959745A6136
:108230007047072070470820704700BF18310020A2
:108240002DE9F743DFF88C8098F8023005460E469A
:108250001746BBB3B0B31C4B4A1F9A4230D8436990
:1082600083B3437C0024012B0DF107000CBF89462A
:10827000A1468DF8074000F03FF80DF10600FFF72A
:1082800089FDD8B101230370104B4560D3F8043544
:10829000C0E90497C0E902369DF8063088F801303D
:1082A0009DF8070000F04CF824B9094B4FF48012F8
:1082B000C3F80021204603B0BDE8F0830424EFE7B3
:1082C0000724F7E70824F5E7FAFFFF000010014054
:1082D00000E100E018310020064A92783AB130B14E
:1082E000426922B1002202740221FFF769BD082011
:1082F000704700BF1831002070B5EFF3108672B6DA
:108300000C4A946801239CB993600B4B0B4DD3F836
:10831000801029401160C3F88050D3F88410516058
:108320004FF0FF32C3F88420047006B962B670BD06
:108330000370FAE73C32002000E100E0FC06FFBDDC
:10834000084B9A6810B55AB150B9EFF3108172B664
:10835000054A1C6814605C685460986001B962B694
:1083600010BD00BF3C32002000E100E010B561B15B
:10837000B2FBF3F403FB1424A4B244B9C0E9001423
:1083800084608281C381204610BD0E20FCE7092055
:10839000FAE782B050E8022FC188B2EB324F4FF0BB
:1083A000000317BF92B241EA014142EA014104E0F1
:1083B0004268B2EB324F08BF012340E80212002AA4
:1083C000E8D18DF807309DF80730002B0CBF112045
:1083D000002002B0704737B550E8013F9DB2C48914
:1083E00025448489A54228BF2D1B0489A54202BFCC
:1083F000BFF32F8F002207E0C5EA030540E80154D0
:10840000002CE9D14FF001028DF803200193019B6C
:108410009DF803200B6002F0FF0322B10B88006877
:10842000184403B030BD1846FBE70A884B889A42CF
:1084300009D150E8012FC2EA024240E80123002B93
:10844000F7D1012070470020704737B550E8023F50
:108450001FFAA3F5C488A54202BFBFF32F8F0022E5
:108460000DE0C48925448489A54228BF2D1BC3EA99
:10847000054540E80254002CE8D14FF001028DF888
:1084800003200193019B9DF803200B6002F0FF0382
:1084900022B14B880068184403B030BD1846FBE792
:1084A0000A884B889A4209D150E8022FC2EA224238
:1084B00040E80223002BF7D10120704700207047CD
:1084C00001F01F024B090121914000EB830000F0F5
:1084D0002AB801F01F0301229A404B0900EB8300E8
:1084E000D14300F038B84B0901F01F0150F82300C8
:1084F000C84000F00100704710B5034653E8000F74
:108500000A4643E8002494F0000FF7D110BD10B5DF
:10851000034653E8000F40EA010243E8002494F0C8
:10852000000FF6D110BD10B5034653E8002F42EA04
:10853000010043E8000494F0000FF6D110BD10B51F
:10854000034653E8000F00EA010243E8002494F0D8
:10855000000FF6D110BD10B5034653E8002F02EA14
:10856000010043E8000494F0000FF6D110BD10B5EF
:10857000034653E8002F02EB010043E8000494F0A7
:10858000000FF6D110BD10B5034653E8002FA2EB43
:10859000010043E8000494F0000FF6D110BD012162
:1085A000FFF7B5BF0121FFF7BEBF0021FFF7C7BF2F
:1085B00010B590B1D0E9012301689B1ADBB20A60C3
:1085C000013BDBB2FF2B026802D10020107110BD0D
:1085D00011684C1C14600B70F2E70E20F7E737B5FA
:1085E000054600240DF107008DF80740FFF784FED3
:1085F0002A686B68116899420ED9481E106011F8FC
:10860000014CEB68298A01FB0434AB6811791B1A11
:10861000DBB2994238BF13719DF80700FFF790FE57
:10862000204603B030BD37B5054600230DF10700E5
:108630000C468DF80730FFF75FFE2A681368591C57
:108640001160E968641A298AB4FBF1F41C709DF882
:108650000700FFF775FE03B030BD826810B5044611
:108660002AB143690168006998470023A36010BDDF
:108670000EB403B5039921B104AB01AA019300F034
:108680006FF802B05DF804EB03B07047826830B455
:108690000468551C8560A154D0E901329A4202D386
:1086A00030BCFFF7DABF30BC704700002DE9F84F4F
:1086B0009846DDE90A43154682460F460A464FF0C2
:1086C0000109AA420FD2C14538BFC14613F0010BC0
:1086D00001D16CB900240126B8F1010F1BD908F1B2
:1086E000FF386E43F8E709F10109B2FBF5F2E8E75C
:1086F0009B070ED5B8F1000F0CBF30262026A145F0
:10870000E9D2013C31465046FFF7C0FF002CF6D1BC
:10871000E0E72026F3E7B7FBF6F39D42E1D9DFF867
:108720003C80B7FBF6F3504618F8031006FB1377AE
:10873000FFF7ACFF3346AB42B6FBF5F6F1D2BBF127
:10874000000F02D00CB1A14501D3BDE8F88F202164
:108750005046013CFFF79AFFF4E700BF26CC020029
:108760002DE9F74F054617468846002900F042815B
:1087700018F8011B49B92B7B002B00F03B812846E0
:1087800003B0BDE8F04FFFF768BF252940F0B78080
:10879000002698F800302D2B424608F1010823D01E
:1087A000302B24D02B2B25D000242A2B02F10101C1
:1087B00023D13B681A1D1B683A601C440A46137893
:1087C0002E2B26D101324FF0000A104610F8011B63
:1087D000A1F1300CBCF1090F1DD80A2303FB0A13C9
:1087E000A3F1300A0246F0E746F00106D1E746F071
:1087F0000206CEE746F00406CBE711F8013CA3F1F0
:1088000030000928DBD80A2202FB0434303C0A4637
:10881000CBE74FF0000A12F8011B01F0FB006828BB
:108820009046F8D0782909D86F290CD8632962D0EE
:1088300022D8252963D0582900F0888098F8003084
:10884000002B95D197E770390829F7D801A353F881
:1088500021F000BFCF8902003D8802003D88020060
:108860005D8902003D8802003B8902003D880200CC
:108870003D8802004D890200642901D06929DDD1BB
:108880003A68D2F80090111D89EAE9723960A2EBCA
:10889000E9724FF0010B092A35DCD34538BFD346C6
:1088A0002CB1B9F1000F01DB720700D5013CB30711
:1088B00002D5BAF1000F03D0F00701D44CBB00245D
:1088C000B9F1000F2DDAC9F100092D212846FFF773
:1088D000DDFE06F00302022A04D1BAF1000F01D135
:1088E0001CBB0024CDE9004653460A2249462846CF
:1088F000FFF7DCFEA2E73B681A1D19783A602846AC
:10890000FFF7C4FE9AE70A230BF1010BB2FBF3F267
:10891000C1E7A345D4D220212846013CFFF7B6FE8B
:10892000CCE77107D5D52B21D0E7A345DAD230218A
:108930002846013CFFF7AAFED2E73968CDE9004698
:108940000A1D3A6053460A220968D0E739680A1DB1
:108950003A60CDE9004653461022F5E73B681A1D00
:108960003A6016F00106D3F8009028D1B9F1000F53
:1089700003D0484602F09AFF0646B44200D904BB31
:1089800009F1FF3919F8011F00293FF457AF2846B4
:10899000FFF77CFEF6E728460136FFF777FE19F869
:1089A00006100029F7D1A642BFF448AF002C3FF4CF
:1089B00045AF20212846013CFFF768FEF3E700267B
:1089C000EDE720212846013CFFF760FED5E73B6834
:1089D0001A1D3A60302128461C68FFF757FE78219F
:1089E0002846FFF753FE00220823CDE90032214636
:1089F00010227CE703B0BDE8F08F00BF2DE9F84FEF
:108A0000B0F806A04579D2F800B09DF828900AFB8E
:108A100005F5043D88460BEB0301A94203F104046C
:108A200088BFA5EB030BB4FBFAF607460AFB164416
:108A3000C2F800B04EB9AAEB04055D4528BF5D46FB
:108A4000BBF1000F04D1BDE8F88F3F68013EF1E7AC
:108A5000043408EB06003C442A46B9F1000F0DD05F
:108A60002146ABEB050B02F0A3FEDA452E443F682E
:108A700055464FF0000428BF5D46E1E70146204619
:108A8000EFE7FFF795BDF8B546790146721E05463A
:108A9000002393422D6803D30024A64202D8F8BDD8
:108AA0000133F6E70F682846FFF7BDFD013439466C
:108AB000F3E72DE9F843068ACD1C0746FFF78FFD43
:108AC000043E35440446B5FBF6F5F0B14FF480732F
:108AD000EDB28380C680013D076081464FF00008FB
:108AE000A84512D23846FFF77AFD064648B16379A9
:108AF0000133637108F10108C9F80000076081467D
:108B0000EEE72046FFF7BFFF34462046BDE8F88376
:108B100001210430FFF72BBD10B5012104460430BC
:108B2000FFF731FD10F0FF0F04D12046BDE81040E3
:108B3000FFF7A9BF10BD1FB503920022009203AA40
:108B4000FFF75CFF05B05DF804FB1FB5039201223F
:108B5000009203AAFFF752FF05B05DF804FB41DF66
:108B600070470000064B10B500241C70054B1C60BC
:108B7000BFF35F8F0449054800F039F8204610BD67
:108B8000503200205432002040CC020048320020F5
:108B900007B500230DF107008DF80730FFF7ACFB98
:108BA000F1EE103A23F09F03E1EE103ABFF35F8F2E
:108BB000094B4022C3F884219DF80700FFF7C0FB52
:108BC00002F080FB20B1FFF7CAFF03B05DF804FBA1
:108BD00020BF40BF20BFF8E700E100E0836800222B
:108BE0005A60C3E904229A60DA601A6070470B6821
:108BF0004A684360934208BF0023016008BF436096
:108C00007047436843B10268916852680B449342CD
:108C1000436004BF002343607047000010B50D4956
:108C2000A1F59472914201D800200FE08C1AE30F55
:108C300003EBE4035B1002EBC30452F833308342CE
:108C400005D802D204F10802ECE7606810BD2146A5
:108C5000E8E700BF44D1020008B5FFF7DFFF024B91
:108C6000002808BF184608BD06D0020013B50B4601
:108C7000114680B9104B1148114AC01A0E23C00882
:108C80000093104B0004104940F00100FEF7D7FE9E
:108C90000E2002B010BD4BB9074B08480B4AC01A52
:108CA000C0080E2300930004064BECE703601B682A
:108CB00002B0BDE8104018473CCA02009CCA02003E
:108CC00044D1020085D1020049D1020072D10200D4
:108CD00029DF704728DF704770B503689E6886B04B
:108CE00004460D466EB114220021684602F089FD4B
:108CF000A3680593237901952BB1012B0DD068460C
:108D0000B04706B070BD01238DF80030236902938F
:108D1000E368039363690493F1E702238DF800305D
:108D2000E3681B030293F5E708467047002070478D
:108D3000024B187A003818BF01207047F432002027
:108D4000034B187A0122B0FA80F05A744009704738
:108D5000F432002008B510461A4602F029FD002022
:108D600008BD000008B514220021044802F049FDA6
:108D70000348FFF70EFB002008BD00BFF4320020BF
:108D8000E432002010B5094C094B43602046FFF740
:108D900006FC40B902F096FA064920741C230648E6
:108DA0008C22FFF7E3FA002010BD00BFF432002050
:108DB00098D1020058320020E432002070B5244CD3
:108DC000244E237A25463BB923492448FFF73DFB2F
:108DD000306008B9606070BD022334682B7223795B
:108DE00073B1012B24D020460321FFF775FF002328
:108DF0002B726B6018491948BDE87040FFF750BBF3
:108E0000D4E90523D21AB2F5805FD4E9031028BF54
:108E10004FF480529208012A38BF012219441844A5
:108E2000FFF756FF50B11128DDD101232B72D2E795
:108E3000D4E903031844FFF74DFFF3E72B7C002B25
:108E4000C9D10146BDE87040022000F009B800BF5A
:108E5000F43200200C33002008330020E4320020DC
:108E600038B5831E012B45D8234C237A002B41D0E3
:108E7000022B09D1032830D0204B00221B68E2606E
:108E80001A793AB1012A22D0637C7BBBBDE8384015
:108E9000FFF794BFD3E905128D1AB5F5805F94BF33
:108EA000521902F580529A619142EDD102284FF099
:108EB000000308BF19462372104B18BF0D21186814
:108EC000FFF70AFF0E490F48FFF7EAFADCE71A69D5
:108ED00001321A615B699A42E7E7E3680133082BC4
:108EE00001D8E360D0E70023E360DFE7BDE8384066
:108EF00002F0D8B938BD00BFF43200200C33002096
:108F000008330020E432002000F0FD03012B08D1DB
:108F1000044B00225A74421E504250411874FFF70D
:108F20004DBF7047F432002010B5064C201DFFF7EE
:108F300036FB28B9637C1BB9BDE81040FFF73EBF84
:108F400010BD00BFF43200202DE9F34180460D46EC
:108F50000F4801A916461F46FFF73DFA0446A8B17F
:108F60001C22002102F04DFC2D0B0123237101A9CD
:108F70000748C4F80080A760E5606661FFF755FA0E
:108F8000FFF7D2FF002002B0BDE8F0810420FAE72D
:108F9000E43200202DE9F74381468846104801A9B4
:108FA00017461E46FFF717FA0446B0B11C220021EF
:108FB00002F027FC00250A9BA36001A9C4E90378FD
:108FC00007482571C4F800906661FFF72EFAFFF795
:108FD000ABFF284603B0BDE8F0830420FAE700BFEA
:108FE000E4320020054B1B68082B01BF044B1868B6
:108FF000B0FA80F0400918BF00207047300100101F
:109000003401001008B54FF080430022C3F80C2152
:10901000C3F81021C3F838254FF0805203F54043C0
:10902000D2F80414C3F82015D2F80814C3F8241594
:10903000D2F80C14C3F82815D2F81014C3F82C1564
:10904000D2F81414C3F83015D2F81814C3F8341534
:10905000D2F81C14C3F84015D2F82014C3F84415F4
:10906000D2F82414C3F84815D2F82814C3F84C15C4
:10907000D2F82C14C3F85015D2F83014C3F8541594
:10908000D2F83414C3F86015D2F83814C3F8641554
:10909000D2F83C14C3F86815D2F84014C3F86C1524
:1090A000D2F84424C3F87025FFF79CFF10B1384B69
:1090B000384A1A60FFF796FF18B1374BFB22C3F806
:1090C0001825FFF78FFF48B13449354B0A681B68F4
:1090D00022F00F0203F00F0313430B60FFF782FF30
:1090E00018B1304B4FF400721A604FF08043D3F840
:1090F0000024D20744BF6FF00102C3F800242A4ABB
:10910000D2F8883043F47003C2F88830BFF34F8F31
:10911000BFF36F8F4FF01023D3F80022002A03DB38
:10912000D3F80432002B2FDA204B0122C3F8042598
:10913000D3F80024002AFBD04FF010221221C2F8ED
:109140000012D3F80024002AFBD04FF01023122283
:10915000C3F80422154B1A46D3F800140029FBD09B
:109160000021C3F80415D2F80034002BFBD0BFF364
:109170004F8F0D490E4BCA6802F4E0621343CB6077
:10918000BFF34F8F00BFFDE70A4B0B4A1A6008BDC3
:109190008C5600404881030000F00040E40E00407F
:1091A000580200104096024000ED00E000E001404F
:1091B0000400FA05042B00200090D00338B5074CBA
:1091C000051E04F1080318BF1C4623682BB11A685A
:1091D00022605B6828469847F7E738BD18330020BF
:1091E00020B9054B01225A70FFF7E8BF012802D1D0
:1091F000014A9070F8E770471033002020B9034B04
:1092000001225A70FFF7DABF704700BF1033002009
:1092100038B50B4C237883B90A486360A360236197
:10922000E36000F057F8054602F04CF808B900F08A
:109230005DF801232370284638BD8525FBE700BF74
:1092400010330020E191020037B50B4C00230DF1E3
:1092500007008DF80730FFF74FF8E368013BE36044
:10926000E56815B900F054F8A5709DF80700FFF700
:1092700067F803B030BD00BF10330020012813B5DC
:1092800008D003281CD018B9104B0122C3F8802045
:1092900002B010BD0E4C00230DF107008DF8073011
:1092A000FFF72AF823780BB9FFF7B2FFE3689DF8C0
:1092B00007000133E3600123A370FFF741F8E7E7FC
:1092C00000F014F8FFF7C0FFE2E700BF00E100E0A4
:1092D00010330020044A137923B9012110609180D2
:1092E000184670478520704724330020074B1A68C2
:1092F000D2075FBFC02283F8002301221A604FF01B
:1093000080430122C3F81825704700BF00E100E048
:10931000044B01221A604FF08042D2F81834DB036C
:10932000FBD470470C000040154B07B51A687AB1A2
:1093300000221A601B680093009B4FF080430122BB
:10934000C3F808230F4B587910B95A711B68984716
:109350000D4B1A6882B100221A601B680193019BB1
:109360004FF080430222C3F80823064B1B680120FC
:1093700003B05DF804EB184703B05DF804FB00BFD1
:10938000000100402433002004010040014B1B6811
:10939000184700BF2C33002000F1804000F5E0406A
:1093A000002382B0036003680193019B02B0704701
:1093B000F0B5504B504C1B6885B0002B3DD04FF49E
:1093C000827094F82E20FFF7E7FF2AB394F82F302D
:1093D00013BB4A4B1B68002B33D04FF48070FFF750
:1093E000DBFF638B94F82D108B424FD922895B1AD7
:1093F0009BB292B26383D31A626802EB4303404A82
:10940000C2F82C36C2F830164FF48270FFF7C4FF52
:109410003C4B01221A6014E0636802932389ADF883
:109420000C30E36800218DF8041023BB23742368FB
:1094300001A89847002384F82F3094F82E30002B91
:10944000C7D1314B1B685BB14FF48870FFF7A4FFA5
:109450000023237402238DF8043001A82368984761
:109460002A4B1B68EBB14FF48A70FFF795FF00237E
:10947000237405B0F0BD208B608363602081E160C0
:10948000002AD4D11E4B01221A60D0E7BCD1E36878
:10949000012284F82F2013B100226283AFE7638397
:1094A000B2E766694FF000470125002EE1D0B6FA19
:1094B00086F227FA02F34632920026EA030602F108
:1094C000804303F5E0431B68002BEED01046FFF706
:1094D00063FFA2F58C72D30882F00402C2F380020B
:1094E0008DF808308DF8045023688DF8092001A804
:1094F0009847DAE7047100403433002000710040DF
:109500000070004004700040107100401471004071
:109510002DE9F347002406460F46904600F5A07556
:109520004FF48039A2462B688BB1D6F8043309FA80
:1095300004F21A420BD0C5F800A02B680193A000DA
:10954000019B00F5A07398B2D7E900319847013428
:10955000A04505F10405E6D102B0BDE8F0870000A2
:10956000024903480422FFF7D3BF00BF6433002041
:1095700000900040024903480622FFF7C9BF00BF20
:109580007033002000A00140032811D8012A0AD11D
:1095900001290FD100F10E02D2B20D4B00EB4000B9
:1095A0001A54002070470129F7D0022904D049B18C
:1095B000072070470022F8E7054B00EB40001844F5
:1095C0004270EEE7024B00EB400018448270E8E77F
:1095D0007C33002008B5012202210020FFF7D4FFD0
:1095E00008B1072810D1072202210120FFF7CCFF84
:1095F00008B1072808D100210A220846FFF7C4FF56
:1096000010B1072808BF002008BD00000388102BF8
:1096100010B502D0112B1ED010BD1A4C2168B1B963
:1096200001220846FFF7B0FF08B1072824D107221E
:1096300002210120FFF7A8FF08B107281CD104224E
:1096400002210020FFF7A0FF08B1072814D12368EA
:1096500001332360E0E70B4A1368013B1360002BE2
:10966000DAD1FFF7B7FF0028D6D0074B1B68002BD5
:10967000D2D0BDE810401847034B1B68002BE6D042
:109680009847E4E78C3300208833002076DF70476A
:109690007ADF70477CDF70477FDF70478FDF70476E
:1096A000B1DF70471F2886BF054A00F01F004FF04A
:1096B000A042012303FA00F0C2F80805704700BF7A
:1096C000000300507047FEF71FBB00000388212BEA
:1096D00013B504463DD007D8112B28D0132B40D00A
:1096E000102B0CD002B010BD522B42D0562B01D003
:1096F0003B2BF7D1A0881321FFF7C8FF12E0214BC5
:1097000021482249C01AC008000440F00300FEF7B7
:109710007FF91F4BA1881F48198001F083FB1E4B66
:1097200002221A700028DDD0FEF7EEFADAE7154BB8
:1097300015481A49C01AC008000440F00300FEF79B
:1097400067F9134B4FF6FF721A80134B00221A7001
:10975000C8E7002301A98088ADF80430FFF79EFF19
:10976000E0E70B4800231A4685210088FFF794FFA5
:10977000D8E7074800231A4619460088FFF790FFEC
:10978000D0E700BF3CCA020074CA0200EFD1020059
:109790000E2B0020643800205C380020F9D1020034
:1097A00008B5064B0648012203211A7000F0C3FDDC
:1097B00018B1BDE80840FEF7A7BA08BD5C38002024
:1097C0001434002008B9FFF7EBBF704708B50378E1
:1097D0004BB9054B3B211888FFF758FF18B1BDE87E
:1097E0000840FEF791BA08BD0E2B00200D4B4A88A9
:1097F0001B889A4214D10A8840F677239A420FD1E7
:109800008B88094A09480A49033B9BB21380094ADD
:10981000801AC00800041A4640F00300FEF705B99C
:10982000704700BF0E2B00200C2B002074CA0200D2
:1098300006D202003CCA0200FEF766BA08B5084923
:10984000084801F0DBF908B1FEF75EFA0548F72198
:1098500001F0E8F918B1BDE80840FEF755BA08BDB7
:10986000ED97020048380020034B0322C3F8342749
:10987000C3F83C27704700BF000300504FF08053EF
:10988000586E1B6E03EB00207047000000B5ADB0B2
:10989000FFF768F908B1FEF737FA4FF0804301226D
:1098A000C3F87825C3F8802503F51C330022C3F8DC
:1098B0000025FFF7E3FF684C4FF40041206010469D
:1098C000FDF7F0FE08B1FEF71FFAFDF721FEFFF7E6
:1098D000CBFF2D20FFF7E6FE2F20FFF7E3FEFEF77C
:1098E0006DFC08B1FEF710FA00F0E2F800F028F97C
:1098F00001F06AFC08B1FEF707FA002301A9012074
:10990000019301F02FFD08B1FEF7FEF901A801F067
:10991000F9FD08B1FEF7F8F92368504A504951485B
:10992000514C01F01FFF514B4E4A5149E41AE408D3
:10993000240444F003042046FEF76EF8112349483E
:109940008DF8003001F0B2FF464982B26846FFF759
:10995000A1FE08B1FEF7D8F90021082201A801F004
:1099600050FF44494FF0C87301A8CDE90113FFF738
:109970008FFE08B1FEF7C8F9FFF760FF3E4B3F4886
:10998000019301A901F03CFA08B1FEF7BDF90021ED
:109990000422684601F035FF394B3A480093694686
:1099A00001F03AFB08B1FEF7AFF9AC22002101A8A3
:1099B00001F027FF02238DF804304FF4A063324AF0
:1099C000ADF806300123ADF8503015928DF8803097
:1099D0004FF4C86244F25063CDE923232B482C4B4B
:1099E0002A9301A900F030FC08B1FEF78DF9274851
:1099F000012100F026FC1C22002101A801F001FF3A
:109A000000234FF42032CDE90132ADF812304FF48B
:109A100070228DF814301F4B0392069303221E4BC5
:109A20008DF8102001A8079300F0CAFE08B1FEF7D8
:109A30006BF91A492046FDF7EBFFFFF7B1FEFDF782
:109A40008BFE0028FBD1FDF787FEFFF7A1F8FDF79D
:109A500083FE0028FBD1F6E79033002022D20200DB
:109A60002BD202009433002074CA02003CCA0200C8
:109A700031D2020010003C00C7960200643800207A
:109A8000C5960200102B0020082B00201434002063
:109A9000C5970200CD9702003998020042D2020019
:109AA000024A136801331360704700BF703800200A
:109AB00008B5054A05480121FEF7B0FB18B1BDE81D
:109AC0000840FEF721B908BDA19A02006CD202003D
:109AD000436810B45BB11548154B16495DF8044B4B
:109AE000C01AC008000440F00300FDF791BF0378DE
:109AF000012B04D0022B10D05DF8044B70470C4BA7
:109B00000A4C02690C49E41AE4088368240444F00E
:109B100003005DF8044BFDF788BF054B034C026959
:109B20000649E41AE40883682404F0E774CA0200D2
:109B30003CCA020070D20200B2D20200E7D2020098
:109B400013B5002212491348FFF790F808B1FEF749
:109B5000DBF8114B11480F4C1149C01AC008000422
:109B600040F003000190FDF753FF636801981A6805
:109B70000C49FDF751FF636801985A680A49FDF7DF
:109B80004BFF0A49019802B0BDE81040FDF740BF05
:109B9000A4D10200E82A00203CCA020074CA0200D4
:109BA0001ED302003ED3020055D302006ED3020042
:109BB0000369C1688B429DBF8268D21802F1FF32EF
:109BC00003F1FF3394BF501A581A70472DE9F84338
:109BD000D0E902940546A9EB04084068904520446A
:109BE0000F46144404D901F0E3FDEC60BDE8F883AE
:109BF0004246A4EB090401F0DBFD6868224607EB4E
:109C00000801F0E72DE9F843C5680646894617467E
:109C10004FF000083469B3687068A54228BFE418A3
:109C2000013C621B5C1BBC4228BF3C46944228BFDF
:109C3000144649462844224601F0BAFDB36825443B
:109C4000AB4208BF00253F1BA044A144F560E1D111
:109C50004046BDE8F883000010B5114C114AA261DE
:109C60000223C4E90433104BE361A2644FF4007390
:109C70000E4A0F492362E26400231022E01DA36212
:109C80006362E362A3656365E365226501F0ECFD51
:109C90000849204601F0E8FD2023A37110BD00BF54
:109CA000943800208ED302001C3900200C3900208B
:109CB00097D302009BD30200F8B5184C182300FB81
:109CC000033503FB00402544C46A012C0F461646A9
:109CD0000FD0022C1AD0F4B92846FFF769FF86424C
:109CE00005D8324639462846FFF770FF34462046ED
:109CF000F8BD2846FFF75CFF8642344628BF04467D
:109D0000224639462846FFF761FFF0E72846BDE8BE
:109D1000F840FFF777BF0024E9E700BF9438002040
:109D2000FFF79ABF6DDF704779DF70477DDF7047BF
:109D300064DF70472DE9F04F85B000250E9CBDF81B
:109D40003CB0B4F800A00191074690461E46A946D3
:109D50003A884A450DDC45B12388013BA3EB0A0351
:109D60009BB2FF2B3AD806F80A30002005B0BDE8B8
:109D7000F08F7A6852F82900039000220DF10B0150
:109D800003A8FFF7D5FF0028F0D19DF80B2042452E
:109D900021D12288002D14BF0020022002EB0801EF
:109DA000014459451ADC3DB9013292B2019B22802F
:109DB000B35422880132228022880DF10B013244F3
:109DC00003A8FFF7B5FF0028D0D121889DF80B200C
:109DD0000A442280012509F10109B9E70C20C5E7F1
:109DE0002DE9F341089FBDF824801546CDE90078A0
:109DF000022204461E46FFF79DFF50B9334610224B
:109E000029462046CDE9087802B0BDE8F041FFF7C9
:109E100091BF02B0BDE8F0812DE9F04F0023178813
:109E2000138090F82D3085B006460D46144653B386
:109E3000082F01D80C2027E102A8FFF773FF0028A4
:109E400040F0228123880822EA54238801339BB200
:109E50001B222380EA542088013080B22080062211
:109E60000DF10901284401F0A3FC23889DF8082086
:109E700006339BB212F0FE0218BF01222380EA547F
:109E8000238801332380B378FBB123880433BB429A
:109E9000D0D802A8FFF748FF002840F0F5802388BB
:109EA0000322EA54238801339BB219222380EA5407
:109EB0002388BDF8082001339BB2E9182380EA54B7
:109EC000120A4A70238802332380F2789AB12388D9
:109ED000D91CB942AED80221E954238801339BB280
:109EE00001212380E95423880B449BB22380EA5448
:109EF00023880B4423807268AAB12388D91CB942F5
:109F000098D8022192F90020E954238801339BB2AA
:109F10000A212380E954238801339BB22380EA5429
:109F20002388013323803389002B40F0A180338ABA
:109F30005BB1CDE900472B460722032106F1100053
:109F4000FFF74EFF002840F09F80338B5BB1CDE9D7
:109F500000472B461522142106F11800FFF740FF99
:109F6000002840F09180326A002A40F09080D6F8B4
:109F70002480B8F1000F30D0B8F804302188981C44
:109F80008A1C0244BA423FF655AFFE283FF652AF54
:109F900003336B54238801339BB2FF222380EA549E
:109FA000238801339BB22380B8F80020EA54E918D3
:109FB000120A4A702088023080B22080B8F804204B
:109FC0005AB1D8F8081000296BD0284401F0F0FBF2
:109FD0002388B8F804201344238096F82C30002BF3
:109FE00040F09A80307800284ED03388012B58D02A
:109FF000228802F1020CBC453FF61CAF012805D1B6
:10A000007378023313449F42FFF414AF023FBF1A28
:10A01000BFB202A905EB0C00ADF80870FFF786FE91
:10A0200090BB3178BDF80830022900F0BA80727810
:10A030009A4202D3BB4240F2B280012940F0B38081
:10A04000974293B2C0F0AF80ADF808300821BDF858
:10A050000830FE2B3FF6EEAE22880133AB54228847
:10A06000013292B22280A9542288134423800BE04B
:10A07000CDE900472B460622022106F10800FFF732
:10A08000AFFE00283FF453AF05B0BDE8F08FB4F841
:10A0900000C00CF10603BB423FF6CCAE1188052987
:10A0A00001D80720F0E76FF4486E01EB0E039BB276
:10A0B0004FF27D3E7345F4D95388052BF1D96FF4E7
:10A0C0004860181880B27045EBD94FF6FF70814296
:10A0D00003D0834201D09942E3D8052305F80C3020
:10A0E000238801339BB212212380E9542388013352
:10A0F0009BB223801188E954E818090A417023882B
:10A1000002339BB223805288EA54E918120A4A703B
:10A110002388023323802AE7B36A002BC1D04FF093
:10A1200000094FF00C0A4FF0160B96F82C305FFA2E
:10A1300089F293427FF656AFB16A0AFB02F201EB55
:10A140000208B8F80430981CFE283FF673AE208849
:10A1500003332B54238801339BB2238005F803B0CB
:10A16000238801339BB223808A5AEA54E918120AE1
:10A170004A702088023080B22080B8F804205AB19A
:10A18000D8F8081000298CD0284401F011FB23884E
:10A19000B8F804201344238009F10109C5E7092117
:10A1A00055E7BB42FBD9ADF808704FE770B5E8B191
:10A1B0004AB116880024B44203D305196D789D4234
:10A1C00008D0A14201D8002010E0055D01352C44E3
:10A1D000A4B2F0E7A142F6D9005D0138A31C80B219
:10A1E0009DB210FA83F38B42EDDC158070BD13B580
:10A1F00013460022ADF806200DF106020446FFF7D3
:10A20000D5FF10B1BDF80630E01802B010BD72DF06
:10A21000704773DF704738B5012204460D46B0F829
:10A220001414D0F81004FFF7E2FF00B1057004F138
:10A230003C0204F5826104F15400BDE83840FFF7A8
:10A24000E6BF80F830107047F8B504460F46002985
:10A250006DD000286BD091F87A301BB191F898300E
:10A26000002B66D14FF0000C84F802C007F178068D
:10A270000FCE251D0FC50FCE0FC596E8070085E848
:10A28000070084F830C0D7F8A4306363D7F8A8304B
:10A29000A3634FF6FF7504F58263C4F82034A4F875
:10A2A00024540722614604F2264001F0AAFA2378DA
:10A2B0000BB984F8545094F82430002B14BFEE23CB
:10A2C0001F2304F15501C4F81014A4F8143404F247
:10A2D00014423846FFF7A0FD40BB94F82430002B11
:10A2E00014BFEE231F2304F23121C4F81814A4F87C
:10A2F0001C3404F21C4207F13C00FFF78DFDA8B9A5
:10A30000A369A4F848304FF480730125A4F85030B5
:10A3100063692064014684F83C50636404F13C02A4
:10A3200004F15400FFF773FF00B92570F8BD0E204B
:10A33000FCE70720FAE7F8B5077804460D46002F3A
:10A3400000F0098100F22646817007220021304684
:10A3500001F057FAE38813B1A378012B04D0E37915
:10A360004BB1A378022B06D1636BA3B1012284F811
:10A370002D2408209847334604F22C4113F8012F6E
:10A3800012B99942FAD117466B1E032B57D8DFE852
:10A3900003F0050B0F1284F82D34ECE7A3791BB101
:10A3A00094F8243003B95FB9E3790BB1002F48D199
:10A3B000237A002B47D1637A002B0CBF002504259C
:10A3C000636BA570002B40D0033D012D3DD8627911
:10A3D000002A3AD094F82E24002A36D184F830246A
:10A3E000012284F82F240720984704F13C05182205
:10A3F0000021284601F005FAE26A0123511E994224
:10A4000084F83C3001D9042A00D1D3B294F8242036
:10A4100084F8513042B1A36A591E012902D9042B94
:10A4200018BF012384F85230A178002384F85030FB
:10A4300004291BD8DFE801F0770D223559000025EB
:10A44000BEE70225BCE70325BAE7002384F82F34D2
:10A45000CBE7C4E91063C4F820340223012284F856
:10A460003C30802384F83120A4F84830A378002BB6
:10A470005CD1636B002B6AD1002067E00223002AC5
:10A4800084F8313014BF0723032384F83C30236958
:10A49000A4F848300023C4F82034E36826646364D9
:10A4A000E4E763696364A369A4F8483012B1062342
:10A4B00084F83C306379B3B194F82E349BB994F8A6
:10A4C000303483B1022384F8503004212046FFF752
:10A4D000A2FE0028CAD1052384F8313004F5826336
:10A4E000C4F82034C2E70323F6E7E3696364236A10
:10A4F000A4F8483012B1062384F83C30637983B164
:10A5000094F82E346BB994F8303453B1022384F8A4
:10A51000503004212046FFF77EFE0028A6D10623F6
:10A52000DAE70423D8E784F831309FE7D4F8201421
:10A530002A4604F15400FFF76AFE38B994F8301047
:10A5400094F85400FFF765FE002892D0F8BD94F807
:10A550003100984790E70820F8E70388112B10B5E1
:10A560000C460AD0262B1FD0102B05D1C37B012B04
:10A5700002D18388A1F8243410BD0022838881F899
:10A580002E24B1F824249A42F6D10B79002BF3D172
:10A5900001212046FFF7CFFE0028EDD0A36B002B52
:10A5A000EAD0BDE810401847037A013B012BE3D8FD
:10A5B000897805230131B1FBF3F303EB8303C91A57
:10A5C000C9B2E6E775DF704776DF70477ADF70471C
:10A5D0007BDF7047034B1A8882420CBF184600206D
:10A5E000704700BF383B0020024B9B6903B11847FE
:10A5F000704700BF1C3B002073B585B22846FFF7AB
:10A60000E9FF044670B1164E027A337B9A420BD2B0
:10A6100000F10A012846FFF7D5FFE8B1112801D063
:10A62000FFF7E2FF02B070BD00230372337C43B139
:10A630003B212846FFF7C8FF30F0080301D0FFF7A1
:10A64000D3FF7369002BEDD000228DF80420ADF804
:10A65000065001A89847E5E7237A01332372E1E722
:10A660001C3B002037B50B46497A0F4A71B9D2E935
:10A6700001141D7A0246002D18BF21465868FDF7C7
:10A68000DFFD08B1FFF7B0FF03B030BD0021197244
:10A690005369002BF8D00122ADF806008DF8042094
:10A6A00001A89847F0E700BF1C3B00204B880288B8
:10A6B0009A4213D842889A4210D380888A8840F2FE
:10A6C000F313984294BF031AC31A934206D800F2B8
:10A6D000F310904234BF00200120704700207047E3
:10A6E0000388122B70B5014659D004D8102B1ED008
:10A6F000112B44D070BD502BFCD12F4BC288DB896D
:10A700009A42F7D1038A022BF4D186883046FFF7AC
:10A7100061FF05460028EDD001F1120000F079F943
:10A7200038BB6868FDF7D8FD0028E3D009E0C37B9B
:10A73000012BDFD14FF6FF70FFF74CFF054620B924
:10A740000420BDE87040FFF74FBF1C4A8E8806808A
:10A75000002303721368C0F80A305368C0F80E3043
:10A7600010310A30FFF7A2FF134B6872DB89002B10
:10A77000C0D129463046BDE87040FFF773BF8088DE
:10A78000FFF728FF04460028B4D04068FDF7A4FD79
:10A7900008B1FFF729FF4FF6FF732380AAE78688E9
:10A7A0003046FFF717FF05460028A3D008310A30CE
:10A7B000FFF77CFF6872DCE71C3B00204C3B00206D
:10A7C000F8B5064648B305460FCD154F3C460FC4B5
:10A7D00095E8070084E807003068124C3C60B0B18F
:10A7E000FFF7F4FEC0B932681368236053686360F2
:10A7F0000D480E4A4FF6FF7303800D4B40F8043F9F
:10A800000021FDF70BFD002818BF032004E02046BF
:10A81000FFF7DEFE0028EBD0F8BD0E20FCE700BFFE
:10A820001C3B00204C3B0020383B0020F9A50200D7
:10A83000543B00200AB1FDF743BEFDF74ABE73B595
:10A840000191019C06466CB100252C46294601A8C1
:10A85000FDF749FE18B106EB440301349D80013534
:10A86000142DF3D13046346002B070BD2DE9F047AD
:10A8700003888488103B8CB005460A2B1FD8DFE87C
:10A8800003F0063F1E1E1E1E1E1E1E604400314E9B
:10A89000B368DB43009371686846FDF75CFE00997E
:10A8A00001A8FFF7CCFF0DF108094FF00008019B4C
:10A8B000984507D3132C13D90420FDF725FA0CB0C3
:10A8C000BDE8F08739F802AB00270137514606EBA7
:10A8D0008700FDF7FEFD1E2FF7D108F10108E6E71E
:10A8E0001D482146FDF7ECFD1C482146FDF7E8FD1B
:10A8F000EB7B012BE3D01A482146FDF7E1FDDEE7B3
:10A9000015482146FDF7E5FDD9E7027A15483F2AAB
:10A910004FEA1215214694BF00220122FFF78AFF59
:10A92000022D94BF002201220F482146FFF782FF2B
:10A93000012D0E4894BF002201222146FFF77AFF25
:10A94000BDE7037A002BBAD1427A0648C2F3C002AF
:10A950002146F3E7743B00207C3B0020783B00203D
:10A96000803B00208C3B0020883B0020843B002063
:10A970001328014602D80248FDF7B5BD00207047F4
:10A98000783B002010B50446FFF7F2FF002814BF03
:10A990002046142010BD70B50546164608460AB973
:10A9A0000E2070BD00231360002DF9D02B68002B02
:10A9B000F6D0EB8813F003040ED1FFF7E3FFC0B22B
:10A9C00014280BD02B7983420AD9EB882A6800FB24
:10A9D000032030602046E4E70720E2E70520E0E7B7
:10A9E0000420DEE7AADF7047002301380B7004283B
:10A9F00006D8DFE800F00306080A0C0011230B70EC
:10AA000070472123FBE73123F9E71223F7E72223DD
:10AA1000F5E7007800F001007047F0B58B7891B051
:10AA2000012B0C4638BF01238DF80E3005460B88EC
:10AA3000ADF80C30002116466846032200F0E1FE16
:10AA4000607C6946FFF7D0FFA07C0DF10101FFF7A4
:10AA5000CBFFE27B237B217D43EAC203227C43EAD6
:10AA600002139DF80220002922F0190203F01903B5
:10AA700014BF02210121134361F342031C22002170
:10AA800009A88DF8023000F0BCFE637B13F0300F94
:10AA900015D002AF03220021384600F0B2FEE07C60
:10AAA0000DF10901FFF7A0FF11238DF808309DF883
:10AAB0000A300E97012262F342038DF80A30637B5D
:10AAC0008DF824301422A37B8DF82530002104A8B2
:10AAD00000F097FE03AB0493A388ADF81C30A36885
:10AAE000CDF814D01BB1E288ADF818200893A36903
:10AAF000002B31D001AF03220021384600F081FE47
:10AB0000A3691A88ADF82C205A88ADF82E205A680F
:10AB10000D97187B0A923946FFF766FFA3690DF17E
:10AB20000501587BFFF760FFA269917A137A43EA27
:10AB3000C103D17A927B43EA01139DF80610002AE3
:10AB400003F0190321F0190114BF022201220B4363
:10AB500062F342038DF80630E36903B10C93334688
:10AB600004AA09A92846FFF73DFF11B0F0BD90DF08
:10AB70007047A5DF7047B5DF704700007FB5002341
:10AB8000ADF80810ADF80A106A4602A9064603930C
:10AB90000093ADF80430FFF7EAFF054600B3124B0F
:10ABA000124CE41AE408FEF757F8240444F00104B8
:10ABB00003460F4932462046FCF737FFBDF8002018
:10ABC000BDF8023052EA030103D00A492046FCF7DF
:10ABD0002CFFBDF804201AB107492046FCF71CFFE2
:10ABE000284604B070BD00BF3CCA020094CA0200EF
:10ABF000A2D30200ECD302002BD4020080B14FF0AC
:10AC0000F7130360FB230371F723C380172303812A
:10AC100041F6FB320023016143818281184670476F
:10AC20000E20704730B1A1F11703E02B04D801804A
:10AC3000002070470E2070470720704713B5034669
:10AC400080880C46B8B91A88242A00F0968014D857
:10AC5000112A71D0232A00F09E80102A3BD0A37ABB
:10AC60004BB1E1880020FFF784FF002840F0998075
:10AC70004FF48073638102B010BD3A2A65D0552A23
:10AC8000EDD1DB88C988A072172B38BF17238B4200
:10AC900028BF0B462381FFF76EFF60B1FDF7DCFF95
:10ACA000484B4949024649481B1ADB081B0443F03C
:10ACB0000100FCF7B1FEE37A002BD0D12369002B11
:10ACC000CDD040F6772200922289ADF80420694663
:10ACD00020469847C3E7DB7B0A790A73012B13D020
:10ACE000022B14D0E18823898B4205D20020FFF784
:10ACF00040FF70B90123E372217B637B8B42AED2AC
:10AD00000020FFF73BFFAAE70B88E380EAE74B88C8
:10AD1000FBE7112802D10123A372EDE7FDF79CFFA9
:10AD2000284B2B49024629481B1ADB081B0443F019
:10AD30000100FCF771FEDFE7F723CB8017230B81BF
:10AD400041F6FB3348818B8189E75B89CA8893424E
:10AD500028BF1346172B0A6938BF17230B814AB146
:10AD6000C97A39B140F677210091ADF804306946CF
:10AD7000204690470023638171E71A7A0B694A7372
:10AD8000002B3FF46CAF4DF67A218DF80500009151
:10AD90008DF804209BE7197A237B994228BF194636
:10ADA000AFE711283FF467AFFDF756FF054B0849A1
:10ADB000024606481B1ADB081B0443F00100FCF79F
:10ADC0002BFE58E794CA0200B2D402003CCA02002B
:10ADD00081D40200B0DF704766DF704710B50021F4
:10ADE00004464088FFF7F8FF034608B9237210BDF8
:10ADF000112801D10123F9E76368BDE81040184725
:10AE000060B159B10378DE2B0AD00B684360DE23B2
:10AE100003704FF6FF734380002070470E20704789
:10AE20000820704728B10378DE2B04D14180002030
:10AE300070470E20704708207047F0B5054685B072
:10AE40000C46F1B1E8B10B78DE2B1AD182884B8821
:10AE50009A4204D10B7A13B10846FFF7BFFF2B8843
:10AE6000112B32D0512B0ED0012B0AD12B7A012B72
:10AE700007D1A9886288914203D123722046FFF747
:10AE8000ADFF05B0F0BDAE886388B342F9D1AF79AC
:10AE9000022FF6D1AD7B2B1F022BF2D800211022FE
:10AEA000684600F0AEFC052D14BF4FF4C0730023BC
:10AEB000694630468DF80070ADF80430FFF78AFF20
:10AEC0000028DED063689847DBE76388AA889A4247
:10AED00004BF4FF6FF736380D3E7A8DF7047ADDF91
:10AEE000704762DF704770B505468AB00C4600298E
:10AEF00062D0002860D00388502B37D0572B72D0F7
:10AF0000102B59D181886069002601AA0196FFF7AC
:10AF100042FD082231460DEB020000F072FC0223D4
:10AF20002189A888CDF80CD002AA0293FFF7D7FF99
:10AF3000002841D1A369002B3ED00398FFF769FD9B
:10AF4000002839D0019B0BB101221A701822002170
:10AF500004A800F056FC02238DF81030AB88ADF841
:10AF60001830019B05940793A36923E081886069E9
:10AF700002AAFFF710FD1822002104A800F041FCEE
:10AF8000AB882189ADF81830EB88029A0594994274
:10AF9000079218D12E8A022E15D16AB105F112003E
:10AFA000FFF737FD029B48B101221A708DF810603F
:10AFB000A3690BB104A898470AB070BD18700323A9
:10AFC0008DF81030F4E7A2899A42F5D1A369002BDD
:10AFD000F2D000228DF8102005F1120208922A8A80
:10AFE000ADF82420E6E78188606902AAFFF7D3FC68
:10AFF00001460028E0D1029B1B78002BDCD01822F0
:10B0000004A800F0FEFB01238DF81030AB88ADF8EA
:10B0100018300594029BA6E7F0B53A4B8FB002AD0D
:10B0200004460A4603F1100C2F46186859682E464C
:10B0300003C6083363453546F7D1002C5FD0002A9C
:10B040005DD01368A36121463846FFF74AFF002808
:10B0500053D12246012512F8023B8DF8063001A992
:10B060002846ADF80450FFF738FF002845D10146C7
:10B07000202206A800F0C5FB22460223ADF81830B6
:10B0800012F80C3B8DF81A30BDF824301E4E608843
:10B09000079623F44F6323F00F0343F440632B43DD
:10B0A00006A9ADF824308DF829508DF82A50FFF705
:10B0B000B4FC10BB0146202206A800F0A2FB2246E9
:10B0C0000323ADF8183012F8043B8DF81A30BDF8A0
:10B0D00024306088079623F4875323F01F0343F43A
:10B0E00080532B43ADF8243006A940F201138DF8AC
:10B0F0002950ADF82A30FFF790FC0FB0F0BD0E20BC
:10B10000FBE700BFF6D40200F400010010DF704737
:10B1100011DF704713B5044609496846FDF767FD1E
:10B12000019808B902B010BDD0E90021204690472F
:10B1300018B16846FDF765FDF2E71120F2E700BFA0
:10B1400014D5020013B5044607496846FDF74FFDC4
:10B15000019B0BB902B010BD2046D3E900219047F6
:10B160006846FDF74EFDF3E72CD50200064B9A68C2
:10B1700022B11A6822F480021A607047034B4FF420
:10B180008002C3F8802070473C32002000E100E0DC
:10B190000B4991F816335A09EC231341DB0706D506
:10B1A000084B9A683AB94FF480030B60704742F23B
:10B1B0000200FCF7A9BD1A6842F480021A607047C9
:10B1C00000E100E03C320020F7B5194F3C7864BB49
:10B1D000184E012520463570FFF79CFF112821D01D
:10B1E0002046FFF7AFFF144B8DF80340186801901D
:10B1F0000DF10300FDF780F8104901A8FFF786FF65
:10B200000446B0FA80F0400938709DF80300FDF75D
:10B2100097F83CB90A4B34701C70FFF7B9FF284609
:10B22000FFF790FF204603B0F0BD0824FAE700BF07
:10B23000F13B0020F03B00200ED50200257D0200EE
:10B24000F23B0020F7B5154F3B781BB3144E01209D
:10B250003070FFF75FFF11284FF000051CD002206F
:10B26000FFF770FF0DF107008DF80750FDF744F868
:10B27000FFF74EFF04469DF807003D70FDF760F8AC
:10B280002CB93470FFF772FF0320FFF75BFF2046F5
:10B2900003B0F0BD0824FAE72C46F8E7F13B0020A4
:10B2A000F03B0020054B1B7833B1054B1B780BB1ED
:10B2B000FFF7C8BFFFF788BF08207047F03B0020AA
:10B2C000F13B0020014B1878704700BFF13B002094
:10B2D00007B508496846FDF78AFC019B13B903B01E
:10B2E0005DF804FBD3E9002090476846FDF789FC30
:10B2F000F3E700BF20D50200FFF7EABF60DF704729
:10B3000069DF704761DF704730B5114DADF5017DE4
:10B310004FF4FA740DF1020103A8ADF80240FFF7F3
:10B32000F1FF70B9294601A8FDF761FC029B002BD3
:10B33000F0D003A8D3E90021904701A8FDF761FCF4
:10B34000F4E7052801D0FCF7DFFC0DF5017D30BDE9
:10B35000B4D70200024B1B780BB1FFF7D5BF704783
:10B36000F33B002030B5054685B00C46002900F0BF
:10B37000B5805B4B0B600C22002101A800F041FA64
:10B3800001238DF8063022688DF80450062301A9A8
:10B390002020ADF80830FFF7B3FF60B1FDF75CFC8B
:10B3A000504B5149024651481B1ADB081B0443F01D
:10B3B0000100FCF731FB0C22002101A800F021FA6A
:10B3C00001238DF805302268002301A94020ADF843
:10B3D0000630FFF795FF60B1FDF73EFC414B444955
:10B3E000024642481B1ADB081B0443F00100FCF72D
:10B3F00013FB0C22002101A800F003FAF7232268B6
:10B400008DF8045001A92320ADF80630FFF778FF2E
:10B4100060B1FDF721FC334B3649024633481B1A15
:10B42000DB081B0443F00100FCF7F6FA0C220021B4
:10B4300001A800F0E6F9012022688DF8040001A9B6
:10B44000FFF75EFF60B1FDF707FC264B2A49024675
:10B4500026481B1ADB081B0443F00100FCF7DCFA4A
:10B460000C22002101A800F0CCF94FF4B06322684F
:10B47000019301A9A120FFF743FF60B1FDF7ECFBA9
:10B48000184B1E49024619481B1ADB081B0443F0DF
:10B490000100FCF7C1FA0C22002101A800F0B1F96B
:10B4A0009DF8043022686FF3000301A9A0208DF8F5
:10B4B0000430FFF725FF034668B1FDF7CDFB094BCC
:10B4C0000F49024609481B1ADB081B0443F0010020
:10B4D000FCF7A2FA0023184605B030BD0E23FAE7A8
:10B4E000E82A0020ACCA020038D502003CCA02009B
:10B4F0007ED50200CAD5020011D602005DD6020038
:10B50000AED6020073B505460668FFF7F7FE2B6856
:10B51000B34204461DD91A481A4B1B491B1ADB08B3
:10B520001B0443F002000190FCF772FA2B681749E4
:10B5300001983246FCF779FA4FF080532A68D3F825
:10B540000C31134901989B0203F100539A1AFCF73E
:10B5500063FA2CB90F4B01221A70204602B070BD5D
:10B560002046FDF779FB074B0B49024604481B1A9E
:10B57000DB081B0443F00100FCF74EFAEDE700BFC7
:10B580003CCA0200ACCA020001D7020030D7020058
:10B5900061D70200F33B00208BD702004BDF7047DE
:10B5A0001FB50D4C01A8FFF7F9FF70B9214602A89D
:10B5B000FDF71DFB039B002BF4D00198D3E900217C
:10B5C000904702A8FDF71DFBF4E7052801D0FCF722
:10B5D0009BFB04B010BD00BFCCD702007F2805D86C
:10B5E000034B185C034B5B5C1840704700207047AE
:10B5F000E4D7020064D80200A0F16103192B98BFC0
:10B6000020387047A0F14103192B98BF20307047B4
:10B610007F2805D8034B185C034B5B5C18407047D0
:10B6200000207047E4D7020064D80200A0F1610353
:10B63000192B98BF20387047A0F14103192B98BFF0
:10B64000203070477F299ABF017001206FF02E00D3
:10B6500070475AB10A787F2A0AD800B102600021E7
:10B6600019605960501A18BF0120704700207047B8
:10B670006FF02E0070470000002816DB002817DD51
:10B680000022B7EE000A0C4B10F0010F1CBFD3EDE7
:10B69000007A20EE270A401004330028F4DC4AB177
:10B6A000F7EE007A87EE800A704740420122E8E711
:10B6B000B7EE000A704700BF3CDA020038B5044616
:10B6C0000846A26842B1236861685D1C8D4208BFCC
:10B6D00000208B4208D2D054E3682BB12168626805
:10B6E000914201D22146984723680133236038BD37
:10B6F00070B54C1E09D41646C5B229463046FFF730
:10B70000DDFF013CB4F1FF3FF7D170BD10F0100F29
:10B7100008D108B510F4007F14BF30202020FFF7B7
:10B72000E7FF08BD70470028B8BF404270470000DF
:10B7300008B5034B5B689B681B68984708BD00BF52
:10B74000342B002008B50921FFF7F2FF08BD0000E7
:10B7500000B5FBF73DFE024B18445DF804FB00BF4B
:10B76000080000000EB400B586B007AA52F8041B0A
:10B7700005920390002304936FF00043029301A805
:10B7800000F0C4F806B05DF804EB03B0704703782E
:10B7900053B159B10144034613F8012F12B18B4242
:10B7A000FAD10B46181A70470346FBE70346F9E740
:10B7B000844640EA010313F0030F18D18446202A7F
:10B7C0000BD32DE9F007B1E8F807A0E8F807A2F1DC
:10B7D0002002202AF7D2BDE8F007042A07D351F847
:10B7E000043B40F8043BA2F10402042AF7D2002AE9
:10B7F00005D011F8013B00F8013B013AF9D1604650
:10B8000070478446002A2DD010F0030F04D000F8B2
:10B81000011B013A26D0F7E7C9B241EA012141EA0A
:10B820000141202A12D3A2F120022DE9F0030B4698
:10B830000C460D460E460F4688468946A0E8FA0398
:10B84000203AFBD2BDE8F00320320BD0042A05D306
:10B8500040F8041B043A05D0042AF9D200F8011B71
:10B86000013AFBD160467047024610F0030F16D133
:10B8700011F0030F13D12DE9F0004FF001374FF015
:10B88000803351F8044BA4EB070525EA04051D405D
:10B8900002D142F8044BF4E7A1F10401F0BC11F825
:10B8A000013B02F8013B002BF9D1704700F1010187
:10B8B00010F0030F11D010F8012B002A23D010F044
:10B8C000030F0AD010F8012B002A1CD010F0030F30
:10B8D00003D010F8012B002A15D02DE970004FF08D
:10B8E00001324FF0803350F8044BA4EB020525EAF7
:10B8F00004051D4000D1F6E7A0F1040070BC10F86B
:10B90000012B002AFBD1A0EB010070472DE9F04F7D
:10B910002DED048B89B083460392002303600D460E
:10B9200015F8011B002900F0AE86DFEDA48A00F0B7
:10B930009CBE002607E05E2866D146F4805601E0F2
:10B9400046F0400615462A4612F8010B3028F2D878
:10B950001F2838D9A0F12003102B34D801A151F8A9
:10B9600023F000BF41B90200C7B90200C7B9020005
:10B97000A9B90200C7B90200C7B90200C7B90200DD
:10B98000AFB90200C7B90200C7B90200C7B90200C7
:10B99000B5B90200C7B90200BBB90200C7B90200BD
:10B9A000C7B90200C1B9020046F08006CAE746F4F2
:10B9B0000046C7E746F02006C4E746F01006C1E798
:10B9C00046F40076BEE72A281ED1039B191D039179
:10B9D0001F68002FBCBF7F4246F010061078AA1CDB
:10B9E00027EAE7752E2824D00027742845D07A2826
:10B9F00043D06C2800F0C2804C2800F0C580682835
:10BA000000F0D38091463BE0A0F13003DBB2092B7C
:10BA100088BF0027E4D8002707EB8707303800EB02
:10BA2000470712F8010BA0F13003DBB2092BF3D961
:10BA3000D6E710782A280AD1039B191D03911F68A5
:10BA400050780232002FD0DB46F48076CDE7013209
:10BA5000A0F13003DBB2092B88BF0027F4D8002700
:10BA600007EB8707303800EB470712F8010BA0F10E
:10BA70003003DBB2092BF3D9E4E7914619F8010B47
:10BA8000782800F28480DFE810F01006820082003F
:10BA90008200820082008200820082008200820096
:10BAA0008200820082008200820082008200820086
:10BAB0008200820082008200820082008200820076
:10BAC0008200820082008200820082008200820066
:10BAD00082008200A3008200820082008200820035
:10BAE0008200820082008200820082008200820046
:10BAF0008200820082008200820082008200820036
:10BB00008200820082008200820082008200820025
:10BB100082008200C401E101E6018200820082000D
:10BB20008200820082008200820082008200820005
:10BB3000820082008200820082001E018200820058
:10BB400082008200820082008200820082008200E5
:10BB5000A9005301C601E301E801820053018200FC
:10BB6000820082008200B90041010401820082004B
:10BB7000CE0082004C01820082002001914619F81B
:10BB8000010B46F001067BE746F0010691460C4B9F
:10BB90001C68002C00F0658503AB019300972B46D1
:10BBA00032465946A04700F05CBD1078682809D09D
:10BBB00002F1010946F0040662E700BF0000C84236
:10BBC000F43B002046F0080602F10209507857E7DE
:10BBD00025215846FFF772FD00F043BD039B1A1D57
:10BBE00003921C78013D5A4629463046FFF78EFDE8
:10BBF00021465846FFF762FDB0463AE016F0080FBE
:10BC000008D0DBF80020039B191D03911B681A70F4
:10BC100000F027BD039B1A1D03921B68DBF8002070
:10BC20001A6000F01EBD039B1A1D03921C688C4B0A
:10BC3000002C08BF1C4626F4007816F4807F23D021
:10BC400039462046FFF7A3FD0646AD1B5A46294656
:10BC50004046FFF75BFD06F1FF3A56B127463444F4
:10BC600017F8011B5846FFF729FDBC42F8D14FF0E9
:10BC7000FF3A18F0100F00F0F4845A4629462020AD
:10BC8000FFF736FD00F0EDBC2046FFF70FFE06463D
:10BC9000DBE7039B1A1D03921B6816F0800F0CBF95
:10BCA0000024232446F4807608271A46002B00F04F
:10BCB000B48404AB4FF0000806F40050DFF8A4C1D0
:10BCC000A64600F06ABC46F4005616F0800F1BD062
:10BCD00043F2780443F25803782818BF1C4616F440
:10BCE000807F01D026F4007616F4804F32D0039B7B
:10BCF0001A1D03921B6816F0040F1FD01BB2002BF5
:10BD000020DA5B422D242DE00024E8E716F0800FB6
:10BD10000CBF0024302416F4807FE5D026F4007692
:10BD2000E2E716F4807F07D026F400760024DBE7F4
:10BD300046F480460024D7E70024D5E716F0080F24
:10BD4000DDD0DBB216F0200F61D116F0400F18BF26
:10BD5000202407E0039B1A1D03921B6816F0040FB2
:10BD600050D09BB216F4807F00F0E68326F4007674
:10BD70005838202800F23B8401A252F820F000BF7E
:10BD8000ABBC0200EFC50200EFC50200EFC5020028
:10BD9000EFC50200EFC50200EFC50200EFC50200CB
:10BDA000EFC50200EFC50200EFC50200EFC50200BB
:10BDB00065C50200EFC50200EFC50200EFC5020035
:10BDC000EFC5020065C50200EFC50200EFC5020025
:10BDD000EFC50200EFC50200EFC502003DC502003D
:10BDE000ABBC0200EFC50200EFC50200EFC50200C8
:10BDF000EFC5020065C50200EFC50200EFC50200F5
:10BE0000ABBC020016F0080FACD0DBB2AAE72B24C3
:10BE1000A8E746F4005646F48066039B073323F0F8
:10BE2000070303F108020392D3E9000100F054FC78
:10BE300008EE100A16F4807F16D0B7B906F44067F2
:10BE4000B7F5406F14BF002701270EE046F40056F7
:10BE500046F40066E1E746F4005646F44066DCE747
:10BE600054DA020028DA02000627B0EE480A00F091
:10BE70005DFC002840F0BB80B0EE480A00F060FC9A
:10BE80008046002840F0CC80B0EE480A00F062FC0A
:10BE9000002840F0CE8018EE103A08EE103A07A8BD
:10BEA00000EE103A00F098FC079B03EB4303CA4AEC
:10BEB00082FB0312DB17C3EBA2030793B5EE408AA4
:10BEC000F1EE10FA40F0BF8006F44064B4F5806FE4
:10BED0000AD0B4F5406F40F06E81079BBB4203DA95
:10BEE00013F1040F80F2678107984042FFF7C4FB0B
:10BEF00028EE008A8DED028AB5EE408AF1EE10FA46
:10BF000036D0B0EE480A00F011FC002840F0B180B5
:10BF1000F2EE047AB4EEE78AF1EE10FA0FDB079B3B
:10BF20000133F2EE047A1A4688EE278A0133B4EE22
:10BF3000E78AF1EE10FAF6DA8DED028A0792DDED6E
:10BF4000027AB7EE007AF4EEC77AF1EE10FA0FD566
:10BF5000079B013BF2EE046A1A4667EEA67A013BA4
:10BF6000F4EEC77AF1EE10FAF6D4CDED027A07922C
:10BF700027B1B4F5406F08BF07F1FF377842FFF7EC
:10BF80007BFBF6EE007A60EE277A9DED027A77EE83
:10BF9000877AB2EE047AF4EEC77AF1EE10FA80F204
:10BFA0008180B0EE678A002F00F0918006F408636C
:10BFB000B3F5006F7ED026F4006302937B1DED1A6B
:10BFC000013D16F4805F00F0F380079A834B83FBFA
:10BFD0000213A3EBE27303EB4303D31A0233042BE4
:10BFE00000F2E480DFE803F099DA9699DA00B5EE22
:10BFF000C08AF1EE10FA0CD416F4005F784C794B3D
:10C0000008BF1C4616F0200F08BF013426F48076C6
:10C0100011E616F4005F744C744B08BF1C46F5E73C
:10C0200016F4005F724C734B08BF1C4626F48076F2
:10C0300001E646F06006F1EE487A17EE903A2CE7FA
:10C04000079B0133079307980130FFF715FBB4EE08
:10C05000C08AF1EE10FAF3DC02E0079B013B079384
:10C060000798FFF709FBB4EEC08AF1EE10FAF4D49A
:10C070002AE7B5EEC08AF1EE10FA0CD416F4005F90
:10C08000574C584B08BF1C4616F0200F08BF013410
:10C0900026F48076CFE516F4005F534C534B08BF6F
:10C0A0001C46F5E7079B01330793B2EE047A87EE4F
:10C0B000878A78E7092FA8BF09273846FFF7DCFAF7
:10C0C00060EE087AFCEEE77A17EE903A4BB926F468
:10C0D00000630293053D16F080073FF472AF4746B8
:10C0E0006EE7454AA2FB0312D20802EB8202B3EBD1
:10C0F000420F7FF460AF4049A1FB0323DB08013FFF
:10C10000E5D0A1FB0302D20802EB8202B3EB420F9F
:10C11000F2D050E74FF0010808E0F2EE047A27EE83
:10C12000888A013A0792013D4FF0020827EAE77733
:10C1300016F0600F18BF05F1FF350798FFF7F3FA07
:10C140006328C8BF05F1FF35F0EE487ABCEEC87A27
:10C1500017EE104AB8EE478A37EEC88A25EAE57A24
:10C16000029B13F4047F00F0D580029B13F0200F94
:10C1700000F0DE8013F0400F14BF2D212B21584614
:10C18000FFF79CFA029B13F0100F00F0DB801B4EB0
:10C1900008F10055013D06EBC505EAE028EE888A66
:10C1A000023A0792023D4FF00308BFE7D046BDE7D1
:10C1B0004FF00108BCE716F4806F3ED0079B0E2BB2
:10C1C0003ADC0133FC1A092CA8BF092416F0800FB1
:10C1D00016D0274631E000BF67666666565555554E
:10C1E0006CDA020074DA02005CDA020064DA02003F
:10C1F0007CDA020080DA0200CDCCCCCC88DA0200F6
:10C20000BB426BD0F6EE009AB2EE049A2046FFF7DE
:10C2100033FA28EE000A30EE290A00F0A5FAF0EE13
:10C22000490A00F047FBB5EE400AF1EE10FA57D18B
:10C23000013CEBD1274600E0474626F48063029399
:10C24000079B7842A3F108028242C8BFA3F109000C
:10C25000FFF712FA4FF0FF3000F0DCFA38EE008AF8
:10C26000B0EE489A07980130FFF706FAB4EEC08A9C
:10C27000F1EE10FA02DB079B0133079307980028C1
:10C2800040DB09282EDCFCEEC97A17EE904AB8EEA6
:10C29000678A39EE488A0023079320460021092C3B
:10C2A00035D9DFF82CC44FF0010808F10108FCE98A
:10C2B0000223994208BF9042F7D207EB0803079A7E
:10C2C0001344ED1A06F080033B4318BF05F1FF3518
:10C2D00016F0600F18BF05F1FF353FE72746ACE7C2
:10C2E0002746AAE7A0F109030793C0F10900FFF769
:10C2F000C3F929EE009AFCEEC97A17EE904A08EECF
:10C30000108ACAE7002407944FF00108D5E74FF0E0
:10C310000108D2E7002D7FF728AF20255646013EC1
:10C3200029465846FFF7CAF9002EF8D1B2461CE755
:10C33000029B13F0400F3FF425AF20215846FFF732
:10C34000BDF91FE7BAF1000F3FF421AF3025564683
:10C35000013E29465846FFF7B1F9002EF8D1B24602
:10C3600015E74FF0300C61465846FFF7A7F9B04586
:10C3700015D0D5E90023A846083D0021994208BF01
:10C380009442EED34FF0300C0CF1010C5FFA8CFCB0
:10C39000A41A0021994208BF9442F5D2E3E7029B18
:10C3A00013F4006449D1002F55D1029B13F0800F84
:10C3B00040F07E81029B13F4806F2FD013F4005F56
:10C3C00014BF452165215846FFF778F9079B002BDC
:10C3D000C0F294802B215846FFF770F90799632922
:10C3E00000F394800799B64C84FB0132C917C1EB66
:10C3F000A2013031C9B25846FFF760F9079B84FBB0
:10C400000324D917C1EBA40101EB8101A3EB410384
:10C4100003F13001C9B25846FFF750F9BAF1000FE5
:10C4200000F01F8120245546013D21465846FFF764
:10C4300045F9002DF8D1AA4613E1079B002BB2DD88
:10C440003025013B079329465846FFF737F9079BEC
:10C45000002BF6DCA7E72E215846FFF72FF93D46C3
:10C46000092FA8BF092525EAE5757F1B8CB1079820
:10C47000281AFFF701F920EE088AFCEEC87A17EEB9
:10C48000904A7DB305F10055013D8E4B03EBC50588
:10C4900019E02846FFF7F0F820EE088AFCEEC87A8B
:10C4A00017EE904AEDE70CF1010C5FFA8CFCA41A30
:10C4B0000021994208BF9442F5D261465846FFF7E1
:10C4C000FDF846450ED0D5E90023A846083D0021D9
:10C4D000994208BF944202D34FF0300CE3E74FF08B
:10C4E000300CEAE7002F3FF465AF3024013F2146CE
:10C4F0005846FFF7E3F8002FF8D15BE72D215846A7
:10C50000FFF7DCF8079B5B42079367E76E4C84FB01
:10C510000132C917C1EB62113031C9B25846FFF779
:10C52000CDF8079A84FB0231D317C3EB6113642162
:10C5300001FB1323079355E7012719E41A464FF02F
:10C540000008002B55D004A94FF0000803F00703A2
:10C55000303301F8013B08F10108D2081346002AE4
:10C56000F4D146E019464FF00008002B41D04FF0BF
:10C57000000806F4004E4FF02C0ADFF858C173464D
:10C58000A6461C4624E002F00F01504C615C03F803
:10C59000011B08F10108120906D00028F3D002F0AF
:10C5A0000F011CF80110F2E7744622E008AB03EB20
:10C5B0000800ACFB0132D20802EB8203A1EB43037B
:10C5C000303300F8103C08F1010809290DD9114653
:10C5D000002CEBD008F00303032BE7D108AB434456
:10C5E00003F810AC08F10108E0E7744601E04FF0F1
:10C5F0000008A7EB080727EAE777ED1BA5EB08057E
:10C60000FF2C0DD9023DC4F307215846FFF756F819
:10C61000E1B25846FFF752F804E04FF00008E8E7AF
:10C62000002C4BD15A4629463046FFF76FF85A4640
:10C6300039463020FFF75CF8B8F1010A0ED404AB9C
:10C6400054461C449846217827465846FFF736F84A
:10C65000444504F1FF34F6D14FF0FF3A16F0100FC5
:10C660000BD14D4615F8011B69B125293FF461A98D
:10C670005846FFF723F8A946F3E75A4629462020F3
:10C68000FFF736F8EDE7DBF808303BB1DBF80020C8
:10C69000DBF804108A423CBF00219954DBF800000B
:10C6A00009B0BDEC048BBDE8F08F4FF0FF30F7E729
:10C6B0002E215846FFF702F83D46D6E6013DA7E792
:10C6C0006766666688DA02001F85EB5118DA020099
:10C6D00090DA0200CDCCCCCC01F000428B1AA3F151
:10C6E0006051B1F5801F0ADBB1F17F6F09D242EAD8
:10C6F000C102C10071F1004142EB50707047104619
:10C70000704701285B4113F5001F04D842F0FE403A
:10C7100040F400007047C90041EA507040EA02004E
:10C7200040F4800040F08040704700BF10EE100AD7
:10C730004FEA4000B0F17F4F0CBF0120002070474E
:10C7400010EE100A41000020B1F17F4F18BF50EBEE
:10C750000000704710EE100A00F00040704700BF64
:10C76000B0EEC00A704700BF00B510EE100A00F02E
:10C7700003F800EE100A00BD4FF07F43B3EB400F0B
:10C7800022D9410008BF704703EA4002120E7F3AE7
:10C7900014DB172AA8BF70474FF6FF73C0F27F0360
:10C7A000D340184220EA030018BF10F0004F08BF22
:10C7B00070474FF40001D1404018704710F0004F0F
:10C7C0000CBF00200248704718BF024870470000A5
:10C7D000000080BF0000C07F00B5014610EE100AC7
:10C7E00000F003F800EE100A00BD4FF07F43B3EBFA
:10C7F000400F98BF704713EA400207D0120E7E3AEE
:10C800000A6020EA530040F07C5070470A6000F054
:10C810000040704700B5014610EE100A00F003F822
:10C8200000EE100A00BD4FF07F43B3EB400F98BFFE
:10C83000704713EA400204BF00F00040704711EB5C
:10C840001262DCBF00F000407047FF2A3CBF00EBE3
:10C85000C150704740004FEA33007047DFED137A54
:10C86000B4EE670AF1EE10FA12D010EE102AC2F3FD
:10C87000C7537F3B11D4162B12DC0D4921FA03F369
:10C8800022EA030207EE902A026030EE670A704740
:10C89000C0ED007AB0EE670A7047C0ED007A7047CD
:10C8A00080ED000AB0EE670A704700BF000000008C
:10C8B000FFFF7F0000B52DED028BF5EE400AF1EE93
:10C8C00010FA83B04BD0B0EE608AF0EE408AFFF7EA
:10C8D00037FF30B1B0EE680A03B0BDEC028B5DF8F3
:10C8E00004FBB0EE480AFFF72BFF002843D1F5EE1A
:10C8F000408AF1EE10FAEDD0B0EE680AFFF716FFAD
:10C9000000283FD1B0EE480AFFF710FF0028E1D120
:10C91000B0EE480AFFF724FFB0EE408A88EE880A9E
:10C9200001A8FFF79BFFDDED017AF5EEC08AB0EEBE
:10C93000680AF1EE10FAA8EE670AB1EE487A24DD33
:10C94000B4EEC08AF1EE10FA98BF30EE480AB5EEA8
:10C95000C00AF1EE10FABFD530EE080ABCE7FEF7C8
:10C96000F7FE114B9FED110A1B68036003B0BDEC8D
:10C97000028B5DF804FBB0EE480A03B0BDEC028BFD
:10C980005DF804FB9FED090AA6E7B4EEC70AF1EED5
:10C9900010FA98BF30EE080AB5EEC00AF1EE10FAB0
:10C9A0009ADD30EE480A97E738DA02000000C07FCF
:10C9B000618E020000000000FD91020000000000F6
:10C9C0006DA80200000000000D96020000000000AB
:10C9D0005BA50200143400203DAC02004838002062
:10C9E000E1A60200000000003BAE02006438002017
:10C9F000E7AE0200102B0020CD96020000000000E0
:08CA0000418D0200000000005E
:10CA0800098F0200000000007D9202000000000073
:10CA180055B3020000000000A1B5020000000000AC
:10CA28008C2B0020542C00205C2C0020942B002000
:04CA380018000000E2
:10CA3C00CAD1020000000000E5D102000000000095
:10CA4C00D0D1020000000000DFD102000000000085
:10CA5C00E9D1020000000000D4D102000000000067
:10CA6C00D9D102000000000025CB02000000030316
:10CA7C00FCCB020000000000EED40200000000001D
:10CA8C00C4D1020000000000E1D402000000030346
:10CA9C0078D102000000030306D502000000030356
:10CAAC00A8D7020000000303C0D702000000030354
:08CABC0036CC0200000000006E
:10CAC400F8CA02000000000004CB0200FC2A002087
