:020000040001F9
:10900000B83F002075140200F3A301009BA40100E7
:109010006FA801000FA901003FA901000000000096
:109020000000000000000000000000007BAA01001A
:10903000B7AA010000000000DBAA0100BFAB0100DD
:10904000370D020007AE0100BDF4010053AE010070
:10905000BFAF01000000000023F80100F3B60100DB
:1090600093C301002BDA0100BBF101007FF4010082
:10907000BBF4010027F50100FBF901002B110200F0
:10908000D3130200A9BC0100E31302003314020051
:1090900015BD01002B15020073D501003515020026
:1090A0003715020039150200000000000000000022
:1090B0003B1502003D15020000000000000000000A
:1090C00000000000000000000000000000000000A0
:1090D0000000000000000000000000000000000090
:1090E0000000000000000000000000000000000080
:1090F0000000000000000000000000000000000070
:10910000000000000000000000000000000000005F
:10911000000000000000000000000000000000004F
:10912000000000000000000000000000000000003F
:10913000000000000000000000000000000000002F
:10914000000000000000000000000000000000001F
:10915000000000000000000000000000000000000F
:1091600000000000000000000000000000000000FF
:1091700000000000000000000000000000000000EF
:1091800000000000000000000000000000000000DF
:1091900000000000000000000000000000000000CF
:1091A00000000000000000000000000000000000BF
:1091B00000000000000000000000000000000000AF
:1091C000000000000000000000000000000000009F
:1091D000000000000000000000000000000000008F
:1091E000000000000000000000000000000000007F
:1091F000000000000000000000000000000000006F
:109200002DE9F04F0FF2A41CA1B0DCE90089CDE9F3
:1092100000892A9DDFF8109C049100248DF84350AA
:109220000D944FF0FF38824616461F460FE0B346B6
:109230002C461BF8011B0498D0470028049000F02E
:10924000A2800D98401C641E0D90F2D176193078E2
:10925000252808D1002100220791089209910A923D
:109260000B910C920DE06A464146304601F013F82E
:10927000050001D10D98A1E0D9D50125E6E741F01F
:10928000010116F8010F2028F9D023280CD02B2833
:1092900004D02D2805D0302809D076E041F0020115
:1092A000EFE741F00401ECE741F00801E9E741F0A4
:1092B0001001E6E70F9209E00F98484505DA00EB48
:1092C000800402EB4402303A0F92761C3278A2F10D
:1092D00030000A28F0D330782E2818BFCDF8388017
:1092E00022D116F8010F2A2807D138683860761C79
:1092F00050F8042B38600E9216E02D280CBF761C17
:10930000002000220E920AE040B90E9A4A4505DA82
:1093100002EB820403EB4403303B0E93761C33785C
:10932000A3F130020A2AEFD3ADF8401021A0317822
:1093300000F0BCFF08B116F8010B8DF842009DF853
:109340004200682804D1307868280AD1622105E0FB
:109350006C2804BF30786C2803D171218DF842103D
:10936000761C12A806903A4616F8013B02A9504610
:1093700000F064F838B912AA02A9504600F0CAF900
:1093800000287FF564AF404618E02A2892D13A6859
:109390003A6052F8040B3A6000280F9003D540421F
:1093A0000F9041F00401761C95E7000000000000DA
:1093B00000000000686A6C747A4C000021B0BDE8BF
:1093C000F08F622820D0682811D06A2803D06C283A
:1093D00027D0712825D10868C01D20F0070008603B
:1093E000D0E9002308300860194610467047002A6B
:1093F0000A680A60106803D0121D0A6000B217E004
:10940000121D0A6080B217E0002A0A680A6010681C
:1094100003D0121D0A6040B20AE0121D0A60C0B2F9
:109420000AE0002A0A680A60106803D0121D0A6068
:10943000C1177047121D0A60002170477CB50D46A8
:1094400011461C462E69B4F1250200F051811C3AE8
:1094500000F08680121F022A40F282800E3A00F04D
:109460000B81521F5AD0093A7AD0921E16D0521E42
:1094700035D0521E022A73D9121F30D0521F00F06D
:109480009A80521E4AD0521E00F0E480D21E00F094
:109490000181921E42D0D21E40D02FE195F83A4071
:1094A0006C2C09D06869421C6A610A680A6052F82B
:1094B000043B0A6033542BE10A680A6052F8043B0B
:1094C0000A600093002201924FF0FF332B636A463B
:1094D000294600F09AF9002840F11A8105E195F833
:1094E0003A000122FFF76DFFC5E900010023994210
:1094F00004DA6869411C69612D220DE0288F81071B
:1095000004D56869411C69612B2205E0C00722D59A
:109510006869411C6961202232541CE095F83A00C8
:109520000022FFF74EFFC5E9000195F8380001075A
:1095300011D5D5E900230020834208BF82420AD01A
:1095400044F02000782806D1686930213154401C4D
:10955000421C6A613454214668693044E86087E0FF
:109560000868C01D20F007000860D0E9002308301B
:109570000860C5E90023D5E90001C80F04D0686977
:10958000411C69612D220DE0288F810704D568698F
:10959000411C69612B2205E0C00704D56869411CA4
:1095A00069612022325468693044E86021462846C7
:1095B00000F03AFAACE005F13A02507820B14FF0F1
:1095C000FF340FF6343074E01078622808D0682831
:1095D00024D06A2812D06C282ED071280ED02BE00F
:1095E0000A680A6052F8040B0A6020B94FF0FF3491
:1095F0000FF61C305DE0E96A017089E00A680A60D4
:1096000052F8040B0A6020B94FF0FF340FF6003017
:109610004FE0EA6AD317C0E9002379E00A680A60DC
:1096200052F8040B0A6020B94FF0FF340FF6E02027
:109630003FE0E96A01806BE00A680A6052F8040BB7
:109640000A6020B94FF0FF340FF6C42031E0E96A18
:1096500001605DE00A680A6052F8040B0A600021AC
:1096600020F0000221F0FF33C5E90023EE607821ED
:10967000284600F02DF94BE06C2285F83A200B6863
:109680000B6053F8042B0B6052BB4FF0FF340FF606
:10969000B4200EE095F83A206C2AF0D008680860F3
:1096A00050F8044B0860EC603CB94FF0FF340FF603
:1096B000782000F023FE201A76BD2E6B002E04D5F4
:1096C000204600F03BFE044608E0324600212046DA
:1096D00000F05EFE002814BF041B3446AC6117E0A6
:1096E000294600F092F8002812D54FF0FF3076BDE1
:1096F0006869411C69612522325409E06969481C86
:10970000686125227254210002D0431C6B613454DD
:10971000002076BD2DE9F0410E4605469046726B5D
:109720007069316AB46A121AB069521A716A121AEF
:10973000F069521A121A96F83800141B41070DD41A
:10974000002C0BDD2746B0682021A8470028B06018
:1097500057D0F06A401C7F1EF062F4D17369424614
:109760003146284600F0B0FC00284AD1376A002F65
:109770000ADDB0683021A8470028B06041D0F06A07
:10978000401C7F1EF062F4D1B369F268314628466E
:1097900000F09AFCA8BB776A002F09DDB068302181
:1097A000A847B06068B3F06A401C7F1EF062F5D134
:1097B000F068B169F36942183146284600F084FC2C
:1097C000F8B9B76A002F09DDB0683021A847B0604A
:1097D000B8B1F06A401C7F1EF062F5D196F83800EF
:1097E00041070BD5002C09DDB0682021A847B060E7
:1097F00038B1F06A401C641EF062F5D10020BDE86B
:10980000F0814FF0FF30BDE8F0812DE9F8470D46BB
:10981000A3B02F6B002F0646904648BF6FF000475D
:109820000FF63C1400F0E0FDD4E90023696B40180A
:10983000CDE90123812828BF4FF0FF3042D2002418
:10984000002F33DDD8F8001001AA684600F025FD8E
:109850008146B9F1000F38D4D8F8000010B9B9F139
:10986000010932D44F4521DB6869484481280AD375
:109870000021696303AA29463046FFF74BFF040025
:1098800014D40020686103ABD5F814A04A46694699
:1098900003EB0A0000F0AEFDCA44C5F814A058F866
:1098A000040B002818BFA7EB0907C9D14CB903AABC
:1098B00029463046FFF72EFF044614B900206861A0
:1098C0006863204624B0BDE8F0874FF0FF34F8E726
:1098D0002DE9FC4707468C463E69BCF16F0F08BF77
:1098E000082405D04CF02000782814BF0A24102446
:1098F0003C25D7E90023BCF1640F18BFBCF1690F08
:109900009046994606D100218B4203DAD8F100082F
:1099100069EB49094FF0000AD14508BFD0451FD176
:10992000386BE8B9082C4BD197F83800010747D5B8
:1099300030203B2586F83B0042E000280ED597F802
:10994000380000F01400102808D17B6B7969386A60
:109950005B1A1B1A9A1A002AC8BF3A62BDE8F3873D
:109960008DF800C0404649462246E31700F096FDB8
:109970003032D0B26D1E3A28019504DB9DF800000C
:10998000A0F151018A187255404649462246E31714
:1099900000F084FD89468046D14508BFD04503D0FC
:1099A000F86871198842DDD3082C09D197F838007E
:1099B000010705D5705D302802D06D1E302070552E
:1099C000C5F13C02BA617119F960386B8242B4DAB0
:1099D000821A3A624FF6EF70398F01403987BDE83D
:1099E000F3872DE9D04306460F4614464FF0000892
:1099F000DFF8389412E0E00707D542464B46304680
:109A0000394600F063FE06460F4640464946424648
:109A10004B4600F05BFE641080468946002CEAD17C
:109A200030463946BDE8D0832DE9F34F054641F075
:109A300020048DB0D5E90089612C02AE09D0286BD5
:109A4000002848BF062003D408BF672C01D101209D
:109A50002863D5E9002358004015401C0ED1190396
:109A60000CD00320A8619DF8381061391A2902D260
:109A70000FF2F46111E00FF2F4610EE059004915A4
:109A8000491C0FD118030DD10320A8619DF838108F
:109A900061391A2914D30FF2DC61E868032200F05F
:109AA000A9FCD3E1194621F00043B3F5801F10460D
:109AB0000DD20027BB4208BFBA42019703D111E083
:109AC0000FF2AC61E9E701AA00F0D2FE0AE0DFF88C
:109AD000607307EB1352DFF85C3301921940DFF833
:109AE00058331943C5E90001612C0ED1E8683021D3
:109AF0000170821CEA609DF8381061290CBF782142
:109B0000582141706869801C6861D5E900AB2BF071
:109B1000004300202AF00002834204BF8242002357
:109B200000F05B81612C40F0AA80286B002847BFC1
:109B300021210091401C0090009F7F1C4046494617
:109B40000022002300F0CCFED94601998DF80820B0
:109B500038BF89F00049091F002FD04601910DF14F
:109B6000090040F34981B349DFF8D0B20C910646B1
:109B7000404649460022002300F0CAFE80F03B81A7
:109B80004800400D00F11C0211D0002A0FDD40F208
:109B9000FF70824205DB09F0004040EA0B01002023
:109BA00013E00C98014041EA025140460DE029F0D3
:109BB0000043002028F00002834208BF82420FBF0A
:109BC00040461C22404600F0BBFE8046894600F01D
:109BD00055FFFF1F002F044609DD00F06DFF024610
:109BE0000B464046494600F079FF80468946F01D05
:109BF000072104E004F00F0200F8012D2411002CCD
:109C000001DD491EF6D5491E5CBF002200F8012D7A
:109C1000F9D5ECE00020194602AA0A4400E05B1ED8
:109C200012F80149491E8442F9D00F2804D10DF1E0
:109C30000900425C521C4254002904D50198001DC1
:109C400002AE5B1C0190591E12D49DF838007218A8
:109C5000A0F13A07147804F130085FFA88F43A2C3E
:109C6000A8BFB844491E02F80189F3D58DF8380021
:109C7000286B002840F1B080591E2963ACE04046B3
:109C800049460022002300F02BFE019938BF89F0DD
:109C9000004947F297504143694A91FBF2F2019221
:109CA000D2F1070204DD40464946FFF79AFE0AE07A
:109CB000524200206349FFF794FE02460B4640469D
:109CC000494600F07DFF8046662C286BDFF878B1AE
:109CD00006BF019F0A3706273F18142FC8BF142755
:109CE00030208DF8080089460DF1090000E030466B
:109CF000002F34DD06464046494601F085F801460E
:109D00000A4606F1080304200A26B2FBF6F606EB23
:109D1000860EA2EB4E02303203F8012C0A22B6FB6B
:109D2000F2F202EB820EA6EB4E063036401E03F82E
:109D3000026DE9D1083F002F03F10806D7DD084680
:109D400001F076F802460B464046494600F0C6FE52
:109D500000225B4600F0BAFC80468946CBE70DF155
:109D60000901401A0DF1090604E00199491E401E3F
:109D70000191761C31783029F7D0662C02D10199F7
:109D8000491C03E0652C0CBF012100212B6BCB1873
:109D90009842B8BF431E002B1ED4834204DAF05C05
:109DA0003528A8BF392000DA30201946721E02EB90
:109DB000010800E05B1E18F80199491E8145F9D0A1
:109DC000392802D1705C401C7054002904D50198D8
:109DD000401C16465B1C0190019800B200901BB21B
:109DE0009DF838103246284600F034F82EE0C61DA3
:109DF000002F3FF7BDAE30460DF10901401A009922
:109E000003468842C8BF0B46002B0DF109063FF5FB
:109E10002FAF8342BFF6FEAE0DF10900C15C0729EA
:109E20007FF7F8AE0F20F6E6CBCCCC0C0000244038
:109E300002FCFFFFFFFF0F800000E03F0000F07F0B
:109E4000A08601000000F03F84D797410FB0BDE825
:109E5000F08F00002DE9F84783B006468A46174682
:109E6000984600F01CFAB8F1000F406A356B90F884
:109E7000009002DC4FF00108BFA74AF02000BDF9B6
:109E80003040662808BF641C15D0672840F08480E5
:109E900014F1040FC0F28680AC4280F2838096F801
:109EA0003800641C010702D4A845B8BF454620B25B
:109EB0002D1A48BF00250FFA84FAF068B169BAF18B
:109EC000000F25DC4A1C30234354002D03DC96F898
:109ED0003800010703D5F06800F80290521C15EB1A
:109EE0000A0FB8BF6C4220B2441941424445B8BF82
:109EF000A046B26171620FFA88F5F561F068B36946
:109F00002A463946184400F075FA641BB462C4E06E
:109F100022B29045084417DA4246394600F06AFA00
:109F2000B0694044B061AAEB0801002D716203DC06
:109F300096F838100A0705D5F16801F80090F06925
:109F4000401CF061B562A8E0394600F053FAB069F0
:109F5000002D5044A8EB040803DC96F838100A07DB
:109F600003D5F16801F80090401CB0610FFA88F049
:109F70008542F368B069B8BFA8460FFA88F207EBCC
:109F80000A01184400F036FAB1690FFA88F001446A
:109F9000B161281A706280E0BAF1610F14D14FF0FC
:109FA000700A16E0A84504DA96F838100A0758BF78
:109FB00045466D1E48BF0025BAF1670F14BF4FF02C
:109FC000450A4FF0650A04E0BAF1410F08BF4FF0AF
:109FD000500AB169F368481CB061002D17F8012BD5
:109FE0005A5403DC96F838100A071BD5F168431C55
:109FF000B36101F80090002D14DDA8F101080FFAFB
:10A0000088F039468542F768B8BFA8460FFA88F24B
:10A01000F81800F0EFF9B0690FFA88F108446D1AEA
:10A02000B0617562F068B1690844002C80F800A046
:10A0300003D42B224270811C03E02D214170644225
:10A04000811C00206A460AE023460A2493FBF4F4AC
:10A0500004EB8405A3EB450302F8013B401C24B24A
:10A06000002CF1DC012806DC4AF02002652A04BF3E
:10A07000302201F8012B48B9302001F8010B07E02C
:10A08000401E1DF80030303301F8013B0028F7DC9A
:10A09000F268B0691044091AF16196F8380000F0CE
:10A0A000140010280DD17269B169706A8A18F169BB
:10A0B0008218B06A8A188218706B8242BCBF821AFA
:10A0C000326204B0BDE8F087F8B505460E46174683
:10A0D0001C46002074B117F8011BB068A847B06097
:10A0E00030B1F06A401CF0620020641EF3D1F2BD72
:10A0F0004FF0FF30F2BD00007072696E74665F73DE
:10A100003A20256E20646973616C6C6F776564001A
:10A110007072696E74663A2062616420256E2061F7
:10A120007267756D656E74007072696E74665F73C8
:10A130003A2062616420257320617267756D656ED7
:10A14000740000007072696E74665F733A20626119
:10A150006420256C7320617267756D656E740000F4
:10A1600000000000000000006E616E004E414E00D5
:10A17000696E6600494E46003000F0B40246106831
:10A1800095681318506803EB5004C0071DD54D4463
:10A190001BE013F8017B05F8017B491EF9D1A0B142
:10A1A000B60813F8011B06F00306032E08BF13F8C8
:10A1B000016B01EB06214942801C294405D011F8AE
:10A1C000016B05F8016B401EF9D1A3420ED013F8C4
:10A1D000016B16F0030104BF13F8011BC91C300901
:10A1E0000F28DAD113F8010B0F30D6E7F0BC02F1DB
:10A1F0000C007047613807E005E0A0F161011A2901
:10A2000001D20120704741381A288041C00F7047A1
:10A21000A0F121010F290AD3A0F13A02062A06D99A
:10A22000A0F15B01062902D37B380428EDE7012069
:10A2300070471C48704770B45368D418042B09DA6F
:10A2400041B1057804F8015B10F8016B16B15B1C95
:10A25000491EF3E7536070BC704738B514461D467D
:10A2600061B1FFF7E8FF61686A6B204690476FF0C5
:10A270000102811A02D0491E01D001E003E005E08D
:10A280000021616032BD6FF0010032BD4FF0FF3040
:10A2900032BDDA6B1047034BDFE7024BF9E70248A8
:10A2A00070470000AC280020742800200278C9B252
:10A2B0008A421AB11CBF10F8012FF9E718BF00201D
:10A2C000704730B4002513E050F8042BD30744BF87
:10A2D000A9F101039A18091F042942F8045BFAD274
:10A2E00013468C0744BF15809B1CC90748BF1D70CF
:10A2F00050F8041B0029E7D130BC704780B500B985
:10A3000006A005490B681BB122220021984701E0F5
:10A3100000F09BFD222002BDA8370020636F6E7302
:10A32000747261696E742068616E646C65723A2043
:10A33000626164206D6573736167650000F10103FC
:10A34000810704D010F8011B820781B1FAD102689D
:10A35000A2F10131914311F0803104BF50F8042F74
:10A36000F6E709BAB1FA81F100EBD100401CC01A3E
:10A370007047B1F5807F02D34FF0FF307047017016
:10A38000012070470078401E8041C043C00F7047D5
:10A39000C9B2830706D0521E22D310F8013B99425E
:10A3A000F7D11FE0083A13D302F1040241EA012178
:10A3B00041EA014150F8043B121F21BF4B40A3F179
:10A3C000013C2CEA030C1CF0803FF3D0C9B2001F03
:10A3D000083210F8013B521E28BF91EA030FF8D84B
:10A3E00018BF0120401E704780B5FFF722FF006CA8
:10A3F00002BDFEE762B38B0708D0521E11F8013B85
:10A4000000F8013B00F024808B07F6D1830740F071
:10A41000208000BF103A07D330B4B1E83810103AAA
:10A42000A0E83810F9D230BC530724BFB1E80810B7
:10A43000A0E8081044BF51F8043B40F8043BD207A1
:10A4400024BF31F8022B20F8022B44BF0B78037095
:10A450007047121F17D35B0009D151F8043B20F855
:10A46000023B1B0C121F20F8023BF6D20BE051F806
:10A47000043B00F8013B1B0A20F8023B1B0C121F97
:10A4800000F8013BF3D238BF121D521E24BF11F851
:10A49000013B00F8013BF8D87047FEE7BBBBE1B1D8
:10A4A000B2F5803F80F07E80022A1ED98C46B1FB37
:10A4B000F2F102FB11C31B0443EA1043B3FBF2FCAD
:10A4C00002FB1C3380B240EA0343B3FBF2F002FB11
:10A4D000103240EA0C4000237047022A05D9844616
:10A4E000B0FBF2F002FB10C270474AB105D100F098
:10A4F000010249085FEA30007047002200237047DC
:10A5000000F0A6BC0B000200002100207047904222
:10A5100071EB030CF6D3B3F5803F2FD2F0B5B3FA4D
:10A5200083F7B1FA81F4A7F10F0E3D1B5340CEF132
:10A53000200602FA0EF2F3415340B5F10F0746D858
:10A540000F3C2C444140C4F12006A040F141414061
:10A55000B1FBF3F603FB1611A2FB0645001BA94154
:10A5600002D2761E8018594180EA010221FA0EF3C8
:10A5700062FA0EF200215A403046F0BD30B4B1FB11
:10A58000F3FC03FB1C11A2FB0C45001BA94103D2E9
:10A59000ACF1010C8018594130BC02460B466046B4
:10A5A00000217047B2F1807F65D3F0B5B2FA82F72F
:10A5B000B1FA81F4C7F10F063D1B22FA06F307F149
:10A5C000110EF24120355A40B5F10F07B8D941407C
:10A5D000C4F12006A040F1414140B1FBF3FC03FB74
:10A5E0001C11A2FB0C45001BA94103D2BCF1010CBC
:10A5F000801859410F2F12D30F3FC90341EA504130
:10A60000B1FBF3F603FB1611A2FB0645D4EBC030F9
:10A61000A94102D2761E8018594146EACC3C07B3C4
:10A620004140C7F12006B840F1414140B1FBF3F68B
:10A6300003FB1611A2FB0645001BA94102D2761EA0
:10A640008018594180EA010221FA0EF3C7F1200473
:10A6500062FA0EF20CFA07F05A402CFA04F1304379
:10A66000F0BD80EA010221FA0EF3002162FA0EF237
:10A6700060465A40F0BD8C46B1FBF2F102FB11C3BB
:10A680001B0243EA1063B3FBF2FC02FB1C331B0208
:10A690004CEA002043EA1063B3FBF2FC02FB1C33DC
:10A6A0001B024CEA002043EA1063B3FBF2FC02FBFE
:10A6B0001C331B024CEA002043EA1063B3FBF2FC9C
:10A6C00002FB1C324CEA002000237047B0B581EA3F
:10A6D000030C0CF0004C40F2FF7515EA11541DBF3D
:10A6E00015EA1357AC42AF4239E0E41923EA455367
:10A6F00043F48013C90241F0004141EA505EC702B1
:10A700001100A7FB020200284FF00000EEFB012021
:10A710004FF00001E3FB072118BF42F0010240188F
:10A7200000214941E3FB0E01A4F580640F0302D22E
:10A7300052004041494154F101046CDD470872F177
:10A74000004250F1000051EB0451A1F580115CBFB3
:10A7500041EA0C01B0BD4CEA05510020B0BD05EA4C
:10A760001357AC4214BFAF4241E050EA410E1CBF48
:10A7700052EA430E02E061460020B0BD24423C4450
:10A780001BD15FEA070EF6D0090302BF0146002085
:10A79000AEF1140EB1FA81F7AEEB070401FA07FE31
:10A7A0000C37C7F1200100FA07F7C8404EEA000E47
:10A7B00023EA455343F48013A2E733F00043B3FA8E
:10A7C00083F704BFB2FA82FE77440B3FE41BB7F174
:10A7D000200E2FBF02FA0EF3BB40C7F1200E22FA63
:10A7E0000EFE38BF43EA0E03BA40641C82E750EA0B
:10A7F000410E14BF52EA430E6FF000014FF40017F0
:10A8000017EB430F8ABF194617EB410FB5E74CEA28
:10A8100005510020B0BDD4F10104B4F120070FDAD6
:10A82000C4F12007520828BF42F0010210FA07F5D0
:10A8300001FA07F7E1BF2A43E0403843E1400FE067
:10A84000352C98DCC7F1200452EA400220FA07F2C6
:10A8500018BF42F0010231FA07F0A1400A4300217B
:10A8600072F1004250F1000051EB0C01B0BDFEE767
:10A8700010B5144600F002F8226010BDC1F30A536F
:10A8800043B14A0012F5001F28D2A3F2FE32A1EB19
:10A890000251704750EA410C20D001F0004C31EADF
:10A8A0000C01B1FA81F204BFB0FA80F3D2180B3A6E
:10A8B000B2F120032CBF00FA03F1914041EA0C01F0
:10A8C0003EBFC2F1200C20FA0CF3194390405242D3
:10A8D00040F2FD33D21A01EB03517047002270475A
:10A8E0004FF4001C1CEB410F94BF1CEB430F09E01D
:10A8F00041EA030C50EA4C0C52EA0C0C03D2994288
:10A9000008BF9042704714BF8B4282427047FEE7F7
:10A910004FF4001C1CEB410F94BF1CEB430F09E0EC
:10A9200041EA030C50EA4C0C52EA0C0C03D28B4265
:10A9300008BF8242704714BF994290427047FEE7B9
:10A94000124254D440F2FF7C1CEA11530FD06345ED
:10A9500031D09B1863453CBF01EB0251704701F0B9
:10A96000004141EA0C510020AFF30080704750EAEB
:10A97000410320D001F0004C91EA0C011CD0B1FA47
:10A9800081F30B3B9A420DD9D21A994051EA0C013E
:10A99000C3F1200C20FA0CFC61449840531C40F297
:10A9A000FF7CD7E7914041EA0C01C2F1200C20FA6C
:10A9B0000CF3194390407047B0FA80F31533202B05
:10A9C000E0D3202AEED3203A203B9A4209D9D21A6A
:10A9D00000FA03F141EA0C010020531C40F2FF7C15
:10A9E000B8E700FA02F141EA0C0100207047524238
:10A9F00040F2FF7C1CEA11530DD06345DBD0B2EB73
:10AA0000030C3CBFA1EB025170470CF1010221EA9B
:10AA1000035141F4801150EA410CCCD001F0004CBC
:10AA2000352A27DC30B481EA0C01B2F1200309DABF
:10AA3000C2F12003044601FA03F5D0402843D14077
:10AA40009C400CE0C3F12002450020FA03F418BF3B
:10AA500044F0010421FA03F091400C43002174F109
:10AA6000004550F1000051EB0C01244230BC7FF452
:10AA70007BAF70476146002076E7FEE7C1F30A53DB
:10AA800040F2FE329B1A14DDD3F120034FEAE1724B
:10AA900008DDC90241EA505141F00040D840801819
:10AAA0005040704703F2E13010B1D24382F00040D1
:10AAB000704700207047FEE7C11768B14840401A50
:10AAC000B0FA80F29040D21CC907C2F5846241EA14
:10AAD000025202EBD02140057047FEE770B44FF000
:10AAE000004591EA030F40F1B5816B40841A71EB88
:10AAF000030603D2001BB141121973414FF4001C2D
:10AB00001CEB410F34BF7CEB430442E00C0DA4EB83
:10AB10001356352E4FDC45EAC323DB0A45EAC12133
:10AB2000C912B6F120050DDD63FA05F6EB4086EAA1
:10AB30000305124218BF45F00105C01851F100018C
:10AB40000CD213E062FA06F5F2405540F3415A4048
:10AB5000B340F3405A408018594107D349085FEA8F
:10AB600030005FEA350528BF45F0010501F5801189
:10AB7000420875F1004250F1000041EB04514E00D3
:10AB800016F5001F70BC38BF70470020090D09057D
:10AB900070471CEB410F10D252EA43060BD0BCEBBE
:10ABA000410F05D80C0DAB43661E342EB6DD02E016
:10ABB000AB438018594170BC704770BC7047FEE7CA
:10ABC000F0B540F2FF7581EA030C0CF0004C15EA79
:10ABD00011541DBF15EA1357AC42AF42E5E0BC412A
:10ABE000C1F31301C3F31303801A994143F4801393
:10ABF00004D2641E4000494180185941C90241EA0B
:10AC00005051B1FBF3F603FB1611A2FB0675D7EB0F
:10AC1000C020A94102D2761E80185941C90241EADA
:10AC20005051B1FBF3FE03FB1E11A2FB0E75D7EBD7
:10AC3000C020A94103D2AEF1010E8018594189020A
:10AC400041EA9051760546EA8E2EB1FBF3F603FBFE
:10AC50001611A2FB0675D7EB8020A94102D2761E01
:10AC600080185941C90241EA50514EEA060EB1FB23
:10AC7000F3F603FB1611A2FB0675D7EBC020A94122
:10AC800002D2761E80185941C90241EA5051B1FBE7
:10AC9000F3F703FB1711A2FB0735D3EBC020A94143
:10ACA00067F100070CBF004247F0010766F3D527A4
:10ACB0004FEA1E31B80814F5806412DDBD0775F146
:10ACC000004250EB0E5051EB045111F5801F5CBF58
:10ACD00041EA0C01F0BD4CF07F6141F0E041002001
:10ACE000F0BDBD076D0840EA0E5041F48011D4F16B
:10ACF0000104B4F120060ADAC4F120060200E040A3
:10AD000001FA06F3E1401843B24015430EE0342C3B
:10AD100013DCC6F1200445EA40056D0820FA06F26E
:10AD2000154321FA06F0A1400D43002175F10042C0
:10AD300050F1000051EB0C01F0BD00205FEA0C0166
:10AD4000F0BDCFB992185B41B3FA83F704BFB2FAF2
:10AD500082F6BF190B3FB7F120062FBF02FA06F3A8
:10AD6000BB40C7F1200622FA06F638BF3343BA408B
:10AD70001CB1E419641E33E77F4231F00041B1FA9F
:10AD800081F404BFB0FA80F6A4190B3CB4F120069C
:10AD90002FBF00FA06F1A140C4F1200620FA06F602
:10ADA00038BF3143A0403C1B1AE7AC421ABF05EA4A
:10ADB0001357AF4212E050EA41061CBF52EA430665
:10ADC000BFE750EA4107304661461CBF41EA0551E2
:10ADD000F0BD52EA430C08BFC143F0BD00204FF460
:10ADE000001616EB410F98BF16EB430F08BF16EB8A
:10ADF000410F24BFC14305E016EB430F0CBF614672
:10AE00004CEA0551F0BDFEE7400D491840EA8120AB
:10AE10000CD2490DA1F58061491C40F0004005DBD2
:10AE2000D1F11F0154BFC840C017704700207047C0
:10AE3000014648B1B0FA80F18840C91CC1F584616F
:10AE4000090501EBD02140057047012000F0B8B89A
:10AE50007047FEE7841A71EB030604D26E40001BB4
:10AE6000B141121973414FF4001C1CEB410F34BF68
:10AE70007CEB430683E00C0DA4EB1356362E00F357
:10AE80007C80012E45EAC32341DC43EA525312BFC2
:10AE9000D20292025B08240545EAC12141EA5051E1
:10AEA000D2EBC020994125D407D1B0FA80F610FA30
:10AEB00006F162D00020203608E0B1FA81F6B140F8
:10AEC000C6F1200220FA02F21143B0404FEAF474B6
:10AED000B4EB465434F001064FEA74040AD8D6F5B0
:10AEE0000016760D04F00044F04061FA06F250407E
:10AEF000F1404840C00A40EA415021F0004128BFDB
:10AF00005FEA500550F1000044EBD12135E0DB0A47
:10AF100045EAC121C90AB6F120050EDD42EA024226
:10AF2000120CC5F1200603FA06F6EB4042EA0605CC
:10AF30006D42984161F100010DE062FA06F5F240C0
:10AF4000554063FA06FC82EA0C02F3405A406D4217
:10AF5000904161EB030111F4801F05D1641E62056D
:10AF600002D06D004041494121F48011430875F140
:10AF7000004350F1000041EB045170BC70471CEBE2
:10AF8000410F15D223F0004352EA43060BD04FEA9B
:10AF90004C0CBCEB410F04D80C0D661E342EB7DDF3
:10AFA000EBE7801A994150EA410608BF0021E4E727
:10AFB00008BF1CEB430F28BF6FF00001DDE7FEE781
:10AFC0002021090326311820ABBEF9E780B5DFF850
:10AFD0007805FF21002281600260426000F2144087
:10AFE000426002600273DFF8640500F0CFFA20B916
:10AFF0000FF28C5000F074FB002002BD30B591B10F
:10B00000DFF84C25DFF84C150568DFF84C35511A90
:10B01000002200E0521CB2EBD10F06D233F82240DE
:10B02000AC42F7D10260002030BD052030BD01B533
:10B030006846FFF7E3FF28B9DFF82005009950F8CC
:10B04000310002BD002002BD00000000491EDFF8F3
:10B050000C25032902EBC0000BD8DFE801F0020445
:10B060000608022070470420704700797047407935
:10B07000704700207047024600201368C3F3800227
:10B080009AB103F00300012802D0022807D00BE098
:10B090000A68C3F38310801C82180A6004E0086801
:10B0A0009B0D9B1C1B180B6001207047F8B5DFF847
:10B0B000984484B004F5836000F064FB04F2144506
:10B0C000284600F05FFB6068A768009000260099A2
:10B0D00004F10C00394000EB81006946FFF7CBFF1B
:10B0E0000028F4D101AB009A04F10C013A4000F0C1
:10B0F000E5F9F8D90199BDF80A0001F00301012929
:10B100000AD002290FD1019906460098890DC91C61
:10B1100000EB9100009006E0064601980099C0F30C
:10B12000831041180091284600F02EFB08B10098CA
:10B130006060304605B0F0BD80B50021DFF8200426
:10B1400000F0D8FA80F3100002BD2DE9F84F044654
:10B15000884693461F460A9DDFF8EC93FFF7ECFF05
:10B1600009F10C0A7E1C00042E4040EA1440E40061
:10B170004AF8260004F0380444EA8B14C4F30904A6
:10B1800009F10C0044EA88242F4044F0010440F8FF
:10B190002740BDE8F18F2DE9FC41884600218DF85C
:10B1A00000101646DFF8A0730446684600F0F4FA73
:10B1B0003868C8F80000A51CBA6839687868521C5D
:10B1C000511A411807F21C480FE00121404600F0D7
:10B1D000C1FAFFF76BFF0146404600F0BBFAB868C2
:10B1E0003968401C411A78684118A942EDD32EB144
:10B1F000A40104F4707444F0050402E0A40544F0D2
:10B2000006043968B868014007EB8102D4603968E8
:10B210009DF800006D183D6000F0DBFA0120BDE8EC
:10B22000F6812DE9FE43DFF8206304460D46904683
:10B230009946B768012201A94846FFF7ACFFA8B1BB
:10B240000198801C002108E007EA000206EB820258
:10B2500058F82130D360401C491C4945F4D300976D
:10B260004A46019B29462046FFF76FFF96F82004C7
:10B2700018B100F017F80028FBD1BDE8F7830023D0
:10B280000022CEE780B50092012300F009F801BD4D
:10B29000E0B5009201936A460223FFF7C2FF07BDA3
:10B2A0006A46BEE72DE9F847A74E706831688842C4
:10B2B00085B024D006F582670020B860BFF34F8FB9
:10B2C0007068B468009006F10C000099214000EB12
:10B2D000810005E006F10C0004EA010200EB8200A7
:10B2E0006946FFF7C8FE002800F0CB80B868002848
:10B2F00040F0C780306800998142EBD37060002035
:10B30000BCE0029965F39F51029105F1080100F03C
:10B310003FF95FEA000A4ED000F081F900F0C8F86A
:10B3200000982040641C241AA40006F10C01AC42D1
:10B3300001EB800119D234B9284606F10C014FF017
:10B340000008002503E0204606F10C082D1BC4B2BE
:10B3500008232246504600F0B7F9B8F1000F09D093
:10B3600004F10803EAB2414601E008232A465046A8
:10B3700000F0AAF9009809F1030100EB9100009098
:10B3800039E0029901F0030101295AD10299029A88
:10B39000C1F383110529C8BF062122F4707242EA65
:10B3A000811202920299C1F38311891C890000F075
:10B3B000EFF85FEA000A44D000F031F900F078F8C5
:10B3C0004FF008094FF0000810E00098411C009170
:10B3D00006F10C05204005EB80014B460422504647
:10B3E00000F072F909F1040908F101080298C0F3AC
:10B3F00083108045E9D33C68B86870B1504600F0CE
:10B4000012F933E0E0684179012904D12268136818
:10B41000514620469847E0680468002CF2D1504617
:10B4200000F001F900208DF8040001A800F0B4F943
:10B43000B86808B9009870609DF8040000F0C9F978
:10B4400014E03C6805E021688A6820469047E0687F
:10B450000468002CF7D14348DFF8F82043A1801A94
:10B46000C008000440F00200FFF709FF706831686F
:10B4700088420CBF0120002080F0010006B0BDE82A
:10B48000F087002002AB009A06F10C01224000F088
:10B4900015F8F8D902992D4801F0030102297FF42B
:10B4A00070AF029DAD0DA946502DA8BF502528E7CD
:10B4B0000023082202A9504600F006B951F82210D4
:10B4C00043F82010401C0099491C01280091704746
:10B4D00030B5024600201C4BD3F8101400E0096878
:10B4E00089B1C9680C798442F9D1401C0A28F3DB80
:10B4F0004FF0FF3030BDC9680D682560D3F81034B7
:10B50000D9680A6030BD10F1010FFBD0D168087115
:10B51000D3F81014D4680029EDD1C3F810242160A9
:10B5200030BD10B5104804680121017408E0E168DD
:10B5300001224A712046226851688847E068046801
:10B54000002CF4D110BD0000EC29002040140200B2
:10B55000941102002C110200000000002C110200C6
:10B56000082E002044110200FC2D00204261636B74
:10B57000656E647320666C75736865640000000016
:10B580005C3300207F000000F836002000F03CB95A
:10B590002DE9F04105460F462E8A00F04CF9361F82
:10B5A000040021D0F71900200121FF1C20716171D6
:10B5B000A046B7FBF6F7E680FFB27F1EC8F8005042
:10B5C000002607E06179491C6171C8F80000056038
:10B5D0008046761CBE4209D2284600F02CF900288D
:10B5E000F0D1204600F005F8002000E02046BDE83C
:10B5F000F081F8B501460D464C79601E002200E04E
:10B60000521C2D688242FBD3002605E00F682846B5
:10B6100000F033F93946761CA642F7D3F1BD01217B
:10B62000001D00F097B81CB504460121201D00F054
:10B630009DF800909DF8000018B92046BDE816401E
:10B64000D7E713BD2DE9F0471446B0F806804279DC
:10B65000256846465643361F5F1903F1040CBE4267
:10B66000BCFBF8F234BFF31A2B4608FB12CC236064
:10B67000002A01E00068521EFCD1A8EB0C029A4699
:10B680009342089F4FF0000988BF92460E46054638
:10B690001C46BCB105EB0C00001D06EB090339008C
:10B6A00052460EBF194601461846FEF7A3FE2D6806
:10B6B000A4EB0A04D14444454FF0000CA246E8D95B
:10B6C000C246E6E7BDE8F0871CB50192002402E01F
:10B6D0001CB501920124009401AAFFF7B3FF13BD2A
:10B6E00080680021816001614161C1604160016049
:10B6F0007047FEE710B5024652E8000F0C4642E8DC
:10B70000004393F0000FF7D110BD000010B50246C2
:10B7100052E8004F44EA010042E8000393F0000FB2
:10B72000F6D110BD10B5024652E8000F00EA010440
:10B7300042E8004393F0000FF6D110BD10B5024669
:10B7400052E8004F04EA010042E8000393F0000FC2
:10B75000F6D110BD10B5024652E8004F04EB0100CF
:10B7600042E8000393F0000FF6D110BD10B5024679
:10B7700052E8004FA4EB010042E8000393F0000FF1
:10B78000F6D110BD0121C1E70021CBE7EFF3108016
:10B7900072B6704762B6704738B50446FFF7F6FFD9
:10B7A000154A916871B9012393601449144B1D68BF
:10B7B0000D4015601960596851604FF0FF325A60B2
:10B7C000002100E00121217010B9BDE83140E1E71E
:10B7D00031BD10B5084CA16869B160B9FFF7D6FF5B
:10B7E000084922680A6063684B600021A16010B9B3
:10B7F000BDE81040CEE710BD5C370020FC06FFBD61
:10B8000080E100E000E100E010B508B90E2010BDB5
:10B810000368426881681A60891A03E013685C1C37
:10B82000146019700B46591EDBB20268002BF5D16B
:10B830000020107110BD38B5044600258DF8005069
:10B840006846FFF7A9FF21686268086882420ED245
:10B85000421E0A601578208AE36845431D44A368A8
:10B8600020689A1A03799A4238BF1A460A719DF8DD
:10B870000000FFF7AEFF284632BD38B50C46002168
:10B8800005468DF800106846FFF786FF28680168B6
:10B890004A1C0260E8682A8A241AB4FBF2F20A7091
:10B8A0009DF80000FFF795FF31BD0000000000008B
:10B8B000012200F01F01DFF8143504E0012200F03E
:10B8C0001F01DFF80C358A40400943F820207047FB
:10B8D000012200F01F01DFF8FC34F4E74901020007
:10B8E00007D5DFF8F42400F00F00104400F8041C22
:10B8F0007047DFF8E8341954704728B10FF220512F
:10B90000800141F001010847704710B5DFF8D014FD
:10B91000DFF8D0444FF4003008604FF48031DFF896
:10B92000C804016401602F2001212160FFF7E5FFB9
:10B93000012161600020DFF8B444A06000F0B8F895
:10B940000020A07010BD1420B8E72DE9F84FDFF8F3
:10B950009C74DFF89C548046786800904FF0000992
:10B9600000E07E60B8F1000F7DD04646D6F81C801E
:10B9700031E0A346E469002C73D08442F9D1A34599
:10B9800002BFC8697860002808D1DFF86814012078
:10B9900008600022F870BA6000F08AF82168E06957
:10B9A000CBF81C0010B102688918016078688245E4
:10B9B00057D04FF0010954E0307C002853D18868FB
:10B9C0007060CA68B2600869F0604969B161F8786E
:10B9D00008B100217160B8687168DFF81C340A1A78
:10B9E00022F07F429A4203D2B0688218326008E0A7
:10B9F000401AB16820F07F40884234BF081A002006
:10BA00003060002171600020B06001213174F0616C
:10BA100079680029A5D008683268904203D3801A5B
:10BA20000860F1619DE70846036893423AD20146F7
:10BA3000C069D21A0028F7D136E0B9F1000F02BF71
:10BA400078680099884214BF01200020BDE8F28F79
:10BA5000786800281FBF00210174C0697860F7D1A1
:10BA600001E000213174287869788842E5D00246E7
:10BA7000144618202B1D44431919521CAB78D0B220
:10BA8000984208BF00222A700A784868012A0646B0
:10BA900092D00CD3032ADBD009D279688B468A4630
:10BAA0005C4668E79B1A03603260F061CE6159E73B
:10BAB0002F2022E72DE9F843DFF8304360680028A3
:10BAC00039D00568DFF834633768D4F80880A7EB0D
:10BAD000080020F07F4000F10309A07890B9DFF85A
:10BAE00020034FF48031016401601120FFF7F0FE64
:10BAF0001120FFF7DDFEC34901200860FFF7D8FFE2
:10BB00000120A0704D4538BF4D46454425F07F4586
:10BB1000F563ED1B3068C71B27F07F4725F07F4595
:10BB2000FF1CBD420AD23068F063FFF7C1FFBDE8D9
:10BB3000F2431120C2E6BDE8F143E6E6BDE8F18339
:10BB40002DE9F041A94C94F800C06378A1686068C1
:10BB5000002200269C450F46804612D00CF1010CB5
:10BB60005FFA8CF3022B08BF944604F10C035FFAD2
:10BB70008CFE53F82E30591821F07F41A16001212D
:10BB800001E00023002184F800C0F9B114E05B1A41
:10BB90008E190021CCF800108646DCF81C00DCF879
:10BBA0000C1049B1F519CCF81C2025F07F45CCF8D4
:10BBB0000450CCF80810724638B18446DCF8001006
:10BBC0008B42E4D2CB1ACCF80030012660601046DC
:10BBD000FFF7BBFE00280EBF002E4046FFF76AFFAE
:10BBE0000020E070BDE8F08110B581494A788C787A
:10BBF000521CD3B2A34208BF00220C78D3B2A34296
:10BC000001D1002010BD027018204A7842438818E4
:10BC1000001D10BD2DE9FC41804600240D4616464E
:10BC20001F4600F03CF80DF10100FFF7DDFF08B9F9
:10BC300004240BE001210170C0F804806F4A1168F0
:10BC40008160C5600661476100F024F89DF800003E
:10BC5000FFF7BFFD0CB9FFF776FE2046BDE8F68181
:10BC60007CB5054600240E4600F019F80DF10100E0
:10BC7000FFF7BAFF08B9042403E00670456000F03E
:10BC800009F89DF80000FFF7A4FD0CB9FFF75BFE73
:10BC9000204676BD9DF801005549487070478DF8E3
:10BCA00000406846FFF778BDF8B557484F4D002172
:10BCB000016441648164C164016041606C6844B3A3
:10BCC0004E480068AF68C71B002627F07F472068F2
:10BCD00087420CD33F1A86192146E469087C20B1BB
:10BCE000002288690A7449698847002CEFD1687876
:10BCF0002978814201BF401C6870C0B2022804BF8D
:10BD000000206870687805EB8001CE60BDE8F140E6
:10BD100019E6F1BD14E738B5FFF7F7FD3448334CA9
:10BD200000210B23018083706160217061701420F9
:10BD3000FFF7CEFD06211420FFF7D0FD1420FFF7FA
:10BD4000B7FD2E4D0020686006211120FFF7C6FDCB
:10BD50002868A060002032BD10B5254CA37843B1FF
:10BD6000130018BF002801D1072010BD0368187CFC
:10BD700008B1082010BD187459745A6110BD10B56F
:10BD80001B4C1346A278002A18BF002805D00529AD
:10BD900001D2072010BD42690AB9082010BD427CBB
:10BDA000BDE81040012A0CBF0A46002232E7104AC3
:10BDB0009178002918BF002801D0416909B90820ED
:10BDC00070470021017402214AE7000000E100E011
:10BDD00000E200E080E200E018ED00E000E400E0B6
:10BDE00080E100E0041001400813014010370020FA
:10BDF0009830002008100140FFFF7F00041501402B
:10BE00000413014000100140001101400000000037
:10BE10000000000000000000000000000000000022
:10BE20000338FDD87047000000F0A4BAF8B5054605
:10BE3000287850BB00260FF27C4718E02969885DFE
:10BE400000F06FFB040011D0112CF7D0DFF82404B0
:10BE5000DFF82434C01AC00800042246394640F0F6
:10BE60000100FFF70FFA204600F084FA761CA88A3A
:10BE70008642E3D32A69104410F8011C0D2904D12D
:10BE80000A2000F04EFB1128FAD0F1BD007840B92D
:10BE9000DFF8E82310883B2176DF002818BF00F088
:10BEA00069BA704700F066BA80B5002000F0B9FCAE
:10BEB00008B100F05FFA00F078FD08B100F05AFA1E
:10BEC00033DF00B10BE001BD80B530B1032805D1EF
:10BED000022000F0A6FC08B101E0A5E001BDBDE82C
:10BEE000024000F047BA38B50446DFF88803DFF8AF
:10BEF0008823DFF888532388821AD20812042888FE
:10BF0000102B42F003020CD0112B1CD0132B2CD081
:10BF1000212B21D03B2B32D0522B2BD0562B2ED085
:10BF200031BD0FF2BC311046FFF7A9F9072000F030
:10BF300078FC08B100F01EFAA188298005F12000E4
:10BF400000F0B4FD1EE00FF2A4311046FFF797F9A0
:10BF50004FF6FF70288031BD0FF2FC310A88ADF832
:10BF600000206946A0888FDF0CE000230022852195
:10BF70007FDF07E0002300220021B1DF02E0A0887C
:10BF8000132176DF08B100F0F5F931BD38B5BB48B3
:10BF90004B8802889A4202BF0A8840F67724A24260
:10BFA00012D18D88B44CEB1E01B043809BB2B148D6
:10BFB0000FF24831001BBDE83040C00800041A46AB
:10BFC00040F00300FFF764B931BD10B5AC4CAD498A
:10BFD000204600F0DFFD08B100F0CCF9F721204643
:10BFE00000F0E7FD18B1BDE8104000F0C3B910BD86
:10BFF00080B5A2490A88042804D0072806D00A2858
:10C0000011D111E01321104676DF07E04FF6FF70E3
:10C01000824208D101F12C0001F04FF8082818BF26
:10C02000002800D05BE701BDBDE801403CE738B522
:10C03000017819B102292DD02CD331BD924C8F4DEE
:10C040002078221D104400F054FA2078401CC1B220
:10C0500062182070D2780A2A18BF0D2A03D06A8885
:10C06000C0B2904219D3022911DB20782B88ADF899
:10C0700000006A46211D281D01F053F9082806D04A
:10C080001328F2D005281CBF002800F073F9002007
:10C09000207031BD406800F06DF931BD30B5ABB0F6
:10C0A0000DF11000ADA1754C1822FEF7B3F94FF455
:10C0B000807104F5F47201910292039104F1E80594
:10C0C00000950723714A694604A800F0C9F908B130
:10C0D00000F050F94FF400410020FEF777FF08B15F
:10C0E00000F048F901F05AF9FFF715FE08B100F029
:10C0F00041F96749032000F09FFB08B100F03AF9CD
:10C100006946002000F0A1FC08B100F033F901F00D
:10C1100055F908B100F02EF901F0D6F908B100F098
:10C1200029F9002000906946012001F037FA08B192
:10C1300000F020F9684601F0C5FA08B100F01AF9DC
:10C1400011208DF800000B2257A168467CDF08B152
:10C1500000F010F901A90020C1E900003C21ADF870
:10C160000610ADF8080010224FF4C871ADF8042095
:10C17000ADF80A1001A87ADF08B100F0FBF8FFF76C
:10C1800024FF4448019001A904F1200000F07AFC4A
:10C1900008B100F0EFF8404800906946201D01F01A
:10C1A00057F808B100F0E6F8AC21684601F03AFC17
:10C1B00002218DF80010002205218DF803108DF862
:10C1C000022004F1E40114911FA840210122C16062
:10C1D000ADF84C208DF87C2044F250622F498162EA
:10C1E0000261694604F12C0000F0DEFD08B100F0A8
:10C1F000C1F8012104F12C0000F0D3FD1C21684698
:10C2000001F010FC002100914FF420324FF4702116
:10C2100001920291032200218DF80C20ADF80E103E
:10C220008DF8101068461E491E4A0591069201F0CD
:10C2300061FC08B100F09EF837A001F01FFD0D4829
:10C24000DFF8342039A1801AC008000440F0030050
:10C25000FFF715F8032104F12C0000F015FE08B1DA
:10C2600000F088F8FFF71EF80028FBD101F0B3F8C2
:10C27000F8E70000441102002C11020048250020BC
:10C280004C3700208DBF0100A43100202FC00100D9
:10C29000F1BF010029BE01002DBE0100C9BE010091
:10C2A0008DBE0100A5BE01004E6F726469635F55CB
:10C2B000415254004661696C65642072656365692A
:10C2C00076696E67204E5553206D6573736167659F
:10C2D0002E204572726F7220307825782E20000053
:10C2E000436F6E6E65637465640000004469736338
:10C2F0006F6E6E6563746564000000004461746174
:10C30000206C656E2069732073657420746F203013
:10C3100078255828256429000D0A55415254207368
:10C320007461727465642E0D0A00000044656275C4
:10C3300067206C6F6767696E6720666F7220554172
:10C340005254206F76657220525454207374617277
:10C350007465642E0000000000000000080000006A
:10C3600006000000050000000700000000000000BB
:10C3700000E0D7011FB5694600220023002481E8B0
:10C380001C0002906A46002144F2010001F08AFC80
:10C390001FBDFEE738B50578754C635D23B1BDE878
:10C3A0003840001D01F097BDBDE838400C3001F069
:10C3B000E1BF38B505786E4C635D23B1BDE8384008
:10C3C000001D01F0D3BDBDE838400C3002F04BB881
:10C3D0001CB50178674C00292CD0022922D03DD20F
:10C3E0004268117804F1180002F0A2F9A26A20B1A3
:10C3F00001238DF80030019006E0206A616A081A76
:10C4000004D000208DF8000068469047206AA18B78
:10C41000626A101A814202D300F07EF813BD012037
:10C42000207013BD8DF800100122C068019000F04B
:10C4300074F810E004F12C0104F1300002F085F9E9
:10C4400030B9012204F12C01201DFFF7A3FF13BD19
:10C4500003208DF800006846A16A884713BD0000DC
:10C46000F8B5444E05460C0088B01F46B26208BFBE
:10C4700007203CD06268216892B206F1180002F0F1
:10C4800044F9A0BBE268A16892B206F1300002F064
:10C490003CF960BB4FEA0D0038A12022FDF7BAFF3E
:10C4A00068690690297C01B101218DF814108DF87E
:10C4B0001C70687C00B10E208DF815002E4AE868CB
:10C4C0000290A8680390301D296801916968009165
:10C4D000694602F05BF950B93070296811F1010F1B
:10C4E00005D0012206F12D01301DFFF762FF09B0D2
:10C4F000F0BD70B51F4C2678014604F1180002F01B
:10C5000024F9054636B10020207000F005F808B186
:10C51000FFF730FF284670BD012204F12D01201DD8
:10C5200047E738B50146134D05F1300002F000F938
:10C5300004001BD12A790E49885C20B105F108005E
:10C5400001F00AFD03E005F1100001F05CFF68B99D
:10C5500005F12C0105F1300002F0F7F830B90122A5
:10C5600005F12C01281DFFF715FF0446204632BDBA
:10C570006837002000250020D1C30100FFFFFFFF26
:10C58000FFFFFFFFFFFFFFFFFFFFFFFF00000000B7
:10C59000000000000000D60106010000042838BF9A
:10C5A00002F068B9002070472DE9F84380468946BB
:10C5B00002F074F9002404282FD2DFF8306300EB76
:10C5C000400175183718B9F1000F14D0B9F1020FF6
:10C5D0001AD01AD22C78687850B106F10F024FF4B5
:10C5E000004106F15C00FFF7CAFB08B986F80F802E
:10C5F000A878387409E006F15C00FFF7D8FBAC7846
:10C60000387CA04209D100E06C7820001CBFB169E1
:10C61000002902D0BDE8F4430847BDE8F183007863
:10C620000221C1E710B5B149887B48B100242046FA
:10C6300002F0FCF8641C042C06D2022CFAD0F6E7B7
:10C64000BDE8104002F0F6B810BD00002DE9FC4135
:10C65000A64E0446707B002710B17773FFF7E2FF08
:10C660008DF80040214617290191A14DDFF8848201
:10C67000A14C00F2BF80DFE801F00C1515282F3A1D
:10C680004F5559625962B86F6F6F6F6F9EA2A8AF16
:10C69000B8B8FFF7C7FF06F11C00FFF788FB074695
:10C6A0000020A6E000F0ACF840B100F0ACF89DF836
:10C6B0000000022814BF4046904821E002F0B2F882
:10C6C0009DF8000002281AD00FE000F099F8A0B100
:10C6D00000F099F88A4813E000F092F818B100F0E1
:10C6E00092F840460CE002F09DF8284608E000F081
:10C6F00087F810B100F087F801E000F07EF82046DE
:10C7000000214FF47A7200239DF800503573FDF735
:10C71000C5FE0146002219E0002002F09DF8062027
:10C72000307308E000F069F8072062E001217173BE
:10C73000012002F091F8002240F6CD4106E00120F0
:10C74000707302F089F800224FF4804106F11C005A
:10C75000FFF715FB07464DE006F13C00FFF727FB0E
:10C7600007460198D0F111001FD0F7B9012817D959
:10C7700080B2C8214843C117C90341EA5041C003F0
:10C7800010F5FA7041F100014FF47A720023FDF7C1
:10C7900085FE0146002206F13C00FFF7F0FA07464D
:10C7A000022002F03FF8012003E0022002F03EF8F0
:10C7B0000020B0731EE0FFF735FF122019E0FFF7ED
:10C7C00031FF00F01AF8132013E0FFF72BFF0120D0
:10C7D00002F028F814200CE0FFF724FF00F00DF819
:10C7E000012002F01FF8152003E002F02CF89DF85C
:10C7F000000030733846BDE8F681002002F012B820
:10C80000002002F00BB8002002F010B83748017D7C
:10C81000CA0744BF007BFFF719BF7047022002F030
:10C820001BB880B5314A137D0021DA0702D5FFF726
:10C830000DFF0146084602BD70B505462B48002491
:10C8400045618161A8071ED50026012201213046DD
:10C8500000F02FF8761C042E044601D2002CF4D0F0
:10C860008CB940F2666204213CA002F0F1F8044663
:10C870004CB902F022F904462CB9224A36A0002114
:10C88000FFF76AFA0446E80711D5012002F01AF80A
:10C890006CB91D4A2EA00021FFF75EFA044634B998
:10C8A000DFF868202BA00121FFF756FA0446204646
:10C8B00070BD30B503460020042B15D20B4C03EBA2
:10C8C0004305012A2C4405D1012908BF03F10E02BA
:10C8D00004D0002231B1022902D005D2227030BD2D
:10C8E000627030BDA27030BD072030BDDC33002047
:10C8F000F401C800F401D007F4016400F4018403DA
:10C90000F40190011FC601000DC801001DC80100FF
:10C9100010B5042817D2002914BF0324002401F005
:10C92000CDFF4FF0A04101EB8000D0F8002722F4AA
:10C930004032C0F80027D0F8001741EA0441C0F89F
:10C940000017002010BD062010BD0121E0E7000007
:10C95000F833002018340020383400200D00030084
:10C96000A9C501000E000300A9C501000F000300C6
:10C97000A9C5010010000300A9C5010080B501226E
:10C9800000F05AF8002818BF07280DD100F058F819
:10C99000002818BF072807D10A22002100F04DF80F
:10C9A000002814BF0728002002BD80B50020FFF733
:10C9B000CCFF002818BF062806D10120FFF7C5FFCD
:10C9C000002814BF0628002002BD10B52C4C0146DB
:10C9D00009886068102902D011291FD010BDC8B97C
:10C9E00001220021FFF765FF002818BF07280CD19E
:10C9F00000F026F8002818BF072806D1042200F00E
:10CA00001BF8002818BF072804D000281EBF216883
:10CA1000002988476068401C606010BD401E60604F
:10CA200009D1FFF7ABFF00281CBF2168002902D005
:10CA3000BDE81040084710BD02210020FFF739BFB4
:10CA4000072202210120FFF734BF70B50C4E0C46BF
:10CA50000025306064B10120FFF7A0FD08B102207D
:10CA600003E0FFF79BFD10B10B20207000E0257064
:10CA7000706810B9FFF782FF0546284670BD0000B8
:10CA800074370020002818BF002901D10E207047FC
:10CA90000278DE2A01D10820704709684160DE2251
:10CAA00002704FF6FF7343800020704708B90E20D4
:10CAB00070470278DE2A01D00820704741800020AC
:10CAC00070470246107A50B15088002166DF10B1DD
:10CAD000112802D101201072704751680847704731
:10CAE0007FB505460C0018BF002D4AD02078DE28FF
:10CAF00047D1A8886188884204BF2046FFF7E1FF3C
:10CB00002888012804D0112834D051280DD07FBDA9
:10CB1000297A012902BFA8886188884231D1012081
:10CB200020722046FFF7CDFF7FBDA888618888422C
:10CB300004BFA879022824D1A87B04281CBF06289A
:10CB400005281ED16846102100F06CFF02214FF429
:10CB5000C0768DF80010ADF80460A87B052804BFEE
:10CB60000021ADF80410A8886946B0DF48B16168BB
:10CB700088477FBDA8886188884204BF4FF6FF7050
:10CB800060807FBDF721018017220023428003715E
:10CB90004371704780B508B90E2002BDC160FB2308
:10CBA000F721018041800371801DFFF7EBFF00201A
:10CBB00002BD08B90E207047A1F11702E12A01D386
:10CBC000072070470180002070470000FEB5828872
:10CBD000002A74D10C463A49DFF8E85044A64D1BB0
:10CBE0000188ED08A71D2D04102945F0010506D088
:10CBF00011291CD03A291ED0552934D04FE0C07BD2
:10CC0000012804BF2188398039887B888B4246D22D
:10CC10000020A5DF10B90120787140E0112808BF7D
:10CC200001201ED001F064FF00F04EF837E03846D6
:10CC3000FFF7A8FF33E040893988884228BF0846BB
:10CC4000788078881728B8BF17207880E068002897
:10CC50001CBF7879002802D03EA200F03AF80020EC
:10CC6000787138711BE0C08839881728B8BF172041
:10CC7000884228BF0846788000203871B5DF38B177
:10CC800001F036FF4FEA000226A12846FEF7FAFA25
:10CC9000787920B9E06810B130A200F01AF8A07AD3
:10CCA00068B139880020A5DF18B90121A072E172AE
:10CCB000F7BD112803D001F01BFF00F005F8F7BD08
:10CCC000341102002C110200024631462846FEF7BC
:10CCD000D9BA0023D2E90001CDE90001ADF8023054
:10CCE00020467988ADF804106946E26810470000D4
:10CCF00073645F626C655F67617474635F657863BA
:10CD000068616E67655F6D74755F72657175657377
:10CD10007428292072657475726E65642025732EDF
:10CD20000000000073645F626C655F676174747318
:10CD30005F65786368616E67655F6D74755F726566
:10CD4000706C7928292072657475726E656420256F
:10CD5000732E0000770A000000000000770A000030
:10CD600000000000417939B100F1B201087818B92A
:10CD7000887810B1012070470020704770B50446D4
:10CD800004F194060D46B1883068012202F0DAF908
:10CD900000B1057004F13C02314604F1540072DF29
:10CDA00070BD80F8301070472DE9F04104465FEA0D
:10CDB000010814BF002C0E2063D008F17A0001781E
:10CDC000012904BF807F012837D008F19C077868CB
:10CDD00004281CBF396804292FD00020A07008F156
:10CDE0007801201D2C22FDF715FB04F130060020F0
:10CDF000307004F15005B96871604FF6FF71F86842
:10CE0000B06004F1980704F194003982F8600721BA
:10CE100004F1AA0002F0A4F9207808B9FF212971D1
:10CE200004F1550068641F2139803A4604F1550128
:10CE3000404602F0B7F810B123E0072021E01F219F
:10CE400004F174003981786004F1A002796808F176
:10CE50003C0002F0A7F8A0B90120687004F13C0280
:10CE6000A16931833073002131610020287004F101
:10CE7000540061697161002172DF10B901202070D6
:10CE80000020BDE8F08100002DE9F04107460D4685
:10CE9000387808B90820CBE007F1AA08BD7007214F
:10CEA000404602F05DF9B87907F1240407F1B106B4
:10CEB00010B1B878012806D0F87968B1B87801289F
:10CEC00018BF022808D1206928B10121317008203B
:10CED0002269904700E030700021781890F8AB008C
:10CEE000002840F0A780491C0629F6D36D1E032DAB
:10CEF00018D8DFE805F002090F13BA7922B12178BA
:10CF000011B938B101200EE0F97900291CBF0028C1
:10CF1000022008D1387A08B1032004E0787A08B1F9
:10CF2000042000E00020B870206980B1B8780328A0
:10CF300018BF04280BD1787948B1707838B900212E
:10CF4000F1700120B07007202169884701E00020BE
:10CF5000B070182107F13C0000F064FD012020763C
:10CF600007F15006A06801281CBF0228012070703C
:10CF7000207830B1A06801281ABF0228012060681B
:10CF8000B07000213170B87804283FD8DFE800F095
:10CF90003D030F1C2F00012161730020706520628A
:10CFA00080210220C4F81C802076A1842EE002207B
:10CFB00060730321217600213869A0847165C4F86B
:10CFC0001C80F868206221E0786920620120B9693C
:10CFD00000F032F828B100F033F8B8B905206073DA
:10CFE00001E00321617307F1940070650EE0F869B8
:10CFF00020620120396A00F01FF820B100F020F80B
:10D0000020B90620EBE70421ECE76173B87850B152
:10D01000716D07F13C0207F1540072DF40B9217BCA
:10D02000307973DF20B9216909B1607B884700201E
:10D03000BDE8F081012059E72076A184384691E6C9
:10D04000022030700421384698E610B502880C465C
:10D05000102A04F1A80104D0112A08D0262A11D0E0
:10D0600010BDC37B012B26D18088088010BD002213
:10D070008A7280880988884204BF2279002A1AD1DE
:10D0800001210DE0007A012818BF022813D1A078F1
:10D09000401C052190FBF1F101EB8101401AC1B266
:10D0A0002046FFF7F1FE00281CBFA16B002902D02B
:10D0B000BDE81040084710BD704710B5044604F1A4
:10D0C00050010122087974DF04F1B20000230270DC
:10D0D00083700B7006212046FFF750FE48B9A178F7
:10D0E0002046FFF7D1FE00281EBFA16B002988470C
:10D0F000002010BD38B58AB004460D4600200090CF
:10D100006A46A988606902F02EF802A80021C0E9E9
:10D110000011022201A90391ADF808200021ADF809
:10D120000A1002AA218AA888ADDFC8B9A069B8B1DF
:10D13000039802F049F898B1009808B101210170F4
:10D14000182104A800F06EFC02218DF8101005943F
:10D15000A888ADF818000098079004A8A16988472E
:10D160000BB030BD30B505460C4687B0A188686964
:10D170006A4601F0F8FF00F033F80295A088ADF898
:10D180000C00009804902989E088884204BF228A14
:10D19000022A13D1009808B304F1120002F014F827
:10D1A00020B1009901200870022202E00099087065
:10D1B00003228DF80420A96981B10DE0A989884274
:10D1C0000CD1A96951B1002204F112038DF8042099
:10D1D0000593208AADF8180001A8884707B030BD34
:10D1E000182101A800F01EBC30B504460D4687B0DA
:10D1F000A98860696A4601F0B6FF80B9009908788D
:10D2000068B1FFF7EDFF01218DF804100294A888A2
:10D21000ADF80C000098049001A8A169884707B0F8
:10D2200030BD0A0018BF002810D00188102904D092
:10D23000502905D0572906D070470146104659E7B6
:10D24000014610468EE701461046CDE770470000C4
:10D2500030B58DB004460D460DF124004BA11022CF
:10D26000FDF7D8F8002C14BF002D0E2057D02868E9
:10D27000A061214609A862DF002850D121788DF8ED
:10D2800002100122ADF800206946A21C0120A8DF8F
:10D29000002844D12021FFF7A4FF0220ADF80400AC
:10D2A000F42221789DF811008DF8061040F00C0052
:10D2B00001218DF81100ADF80820ADF80A108DF8A5
:10D2C00010108DF815108DF8161004F10C026088FE
:10D2D00001A901F097FF10BB2021FFF782FF032077
:10D2E000ADF80400F42221788DF80610ADF808207E
:10D2F0000121ADF80A1001229DF811108DF81020BF
:10D3000041F010018DF811108DF815208DF81620C0
:10D310008DF81720221D608801A901F073FF0DB060
:10D3200030BDF0B5040085B00D4616461F4608BF57
:10D330000E2028D060696A46394601F014FF10BB00
:10D340004FF6FF718F421ABF0098002805201AD0AF
:10D35000007808B9082016E03088F528A8BF072013
:10D3600011DA01A80021002200238C4680E80E106B
:10D37000A188ADF80410049501218DF806100396DC
:10D3800001A93846AEDF05B0F0BD00009ECADC241E
:10D390000EE5A9E093F3A3B50000406E80B502F05E
:10D3A00007F804210348FEF793F803490120487168
:10D3B00001BD0000841402003028002080B50B4815
:10D3C000002141700161BFF35F8F001D08A102F0D1
:10D3D00044F8002002BD80B500F0AAF808B141DF92
:10D3E00001BD20BF40BF20BF01BD00003837002075
:10D3F00058130200701302000400000020280146A8
:10D4000004DA4D48C84000F001007047402808DAAF
:10D410000122A1F1200012FA00F018BF0120C0B2D1
:10D4200070470120704700001FB5044651A16846AF
:10D4300002F013F802E0684602F013F8029A3AB1DB
:10D4400051681268204690470028F4D1112000E06E
:10D45000002004B010BD00001FB5044648A1684676
:10D4600001F0FBFF06E051681268204690476846CD
:10D4700001F0F7FF029A002AF5D11FBD80B51620F2
:10D48000FFF7BCFF28B942F20100BDE80240FEF7F9
:10D4900071BF2A4800784009082803D2EC21C14016
:10D4A000C80702D442F20200EFE72549886820B19C
:10D4B0000A6842F480020A6001BD2249FFE74FF486
:10D4C0008000086001BD00003EB51F4D287808B1FE
:10D4D00008203EBD0120A8700020FFF7A5FF1128FD
:10D4E0001FD00020FFF7B8FF2BA10A68019200238C
:10D4F0008DF800306846FEF74FF9144901A810DF97
:10D500000446401E8041C00F00F00DF80CB12046CB
:10D510003EBD0020A8706870FFF7B0FF0120FFF744
:10D520009BFF00203EBD28709DF80000FEF751B91A
:10D530000548007870470000FC06FFBD16E400E0D7
:10D540005C37002000E100E0B0370020A5DC0100DE
:10D55000E0B500BF0DA1684601F07FFF05E0486817
:10D5600009688847684601F07CFF02990029F6D1D6
:10D5700007BDEDE7C8120200D81202000800000043
:10D58000D8120200E812020008000000E8120200AF
:10D59000F812020008000000010000077FB50646EF
:10D5A0000C0008BF0E2071D07648774D206000F047
:10D5B00076F801228DF8022006218DF80060ADF882
:10D5C000041069462268202069DF70494D1BED0870
:10D5D0002D0445F0010530B101F08AFA4FEA00024E
:10D5E0006DA100F06BF800F061F88DF8011069464C
:10D5F0002268402069DF30B101F07AFA4FEA000278
:10D6000077A100F05BF800F04AF8F722ADF80220AD
:10D610008DF800602320226869DF30B101F068FADC
:10D620004FEA000281A100F049F800F03FF88DF8C0
:10D63000001069462268012069DF30B101F058FA14
:10D640004FEA00028BA100F039F800F021F84FF406
:10D65000B061009169462268A12069DF28B101F01C
:10D6600047FA024696A100F029F800F011F88DF86B
:10D67000001069462268A02069DF30B101F038FA55
:10D680004FEA0002A3A100F019F8002004B070BD19
:10D69000684600210022002380E80E00704769469A
:10D6A00000200022002381E80D0070476846002119
:10D6B0000022002380E80E00012170472846FDF774
:10D6C000E1BD00002DE9F0410646304937682E4D96
:10D6D00060DF04464D1BED0830682D04874217D2E9
:10D6E00045F00208A0A14046FDF7C9FDD6F800307C
:10D6F000A9A13A464046FDF7CBFD2548B3A10268F3
:10D700003068920202F10052121A4046FDF7BAFD4B
:10D710001CB920490120087009E0204601F0E8F911
:10D720004FEA0002B4A145F00100FDF7ABFD204631
:10D73000BDE8F081174900B50878ADF5017D88B9DD
:10D7400003E0052818BFFEF715FE0DF5017D00BDAD
:10D750005168126804A8904701A801F082FE039A5C
:10D76000002AF5D14FF4FA70ADF80000694604A81C
:10D7700061DF0028E5D100BFA7A101A801F06DFE7F
:10D78000EDE70000002500202C1102005C110200D2
:10D790000C010010B437002073645F626C655F6336
:10D7A00066675F73657428292072657475726E658B
:10D7B00064202573207768656E20617474656D70D0
:10D7C00074696E6720746F2073657420424C455FE6
:10D7D000434F4E4E5F4346475F4741502E00000087
:10D7E00073645F626C655F6366675F736574282945
:10D7F0002072657475726E65642025732077686584
:10D800006E20617474656D7074696E6720746F202A
:10D8100073657420424C455F4741505F4346475F04
:10D82000524F4C455F434F554E542E0073645F6218
:10D830006C655F6366675F73657428292072657421
:10D8400075726E6564202573207768656E2061743B
:10D8500074656D7074696E6720746F2073657420D1
:10D86000424C455F434F4E4E5F4346475F474154EE
:10D87000542E000073645F626C655F6366675F735C
:10D88000657428292072657475726E65642025732D
:10D89000207768656E20617474656D7074696E6759
:10D8A00020746F2073657420424C455F434F4D4D8B
:10D8B0004F4E5F4346475F56535F555549442E00D0
:10D8C00073645F626C655F6366675F736574282964
:10D8D0002072657475726E656420257320776865A3
:10D8E0006E20617474656D7074696E6720746F204A
:10D8F00073657420424C455F47415454535F43461F
:10D90000475F415454525F5441425F53495A452E38
:10D910000000000073645F626C655F6366675F733D
:10D92000657428292072657475726E65642025738C
:10D93000207768656E20617474656D7074696E67B8
:10D9400020746F2073657420424C455F47415454E6
:10D95000535F4346475F534552564943455F4348EB
:10D96000414E4745442E0000496E737566666963F3
:10D9700069656E742052414D20616C6C6F636174F7
:10D98000656420666F722074686520536F66744406
:10D9900065766963652E00004368616E6765207473
:10D9A00068652052414D207374617274206C6F63FE
:10D9B0006174696F6E2066726F6D203078257820F3
:10D9C000746F20307825782E000000004D61786952
:10D9D0006D756D2052414D2073697A6520666F72B6
:10D9E000206170706C69636174696F6E2069732067
:10D9F000307825782E00000073645F626C655F6587
:10DA00006E61626C6528292072657475726E65643A
:10DA10002025732E000000000413020024130200CE
:10DA200008000000002201F02FBDFEE790490A899E
:10DA3000824202D101F10800704700207047F0B522
:10DA400086881746BC19B24228BF3746F51BC288E4
:10DA50001F4607EB020C934228BF1746D61B4A8885
:10DA600003889A4224BF4088904209D38888A842FC
:10DA700028BF844204D3C888B04228BF844501D25D
:10DA80000020F0BD0120F0BD7A498969002918BF46
:10DA90000847704738B5044680B2FFF7C7FF020059
:10DAA00027D0744D107A297B88420DD202F10A01E9
:10DAB000A0B275DF20B111281BD0FFF7E5FF31BD03
:10DAC000107A401C107231BD00211172287C38B1CF
:10DAD0003B21A0B276DF00281CBF0828FFF7D4FF47
:10DAE000696931B100228DF80020ADF80240684626
:10DAF000884731BD70B5040001D10E2070BD5D4E68
:10DB0000304621461C22FCF785FC594D35602068C3
:10DB1000A8B17ADFB8B9216828460822FCF76AFC68
:10DB20004FF6FF7005F11C012881E96005F10C003A
:10DB3000514A0021FEF710F928B1032070BD284694
:10DB40007BDF0028ECD070BD80B502460B4649490A
:10DB5000587A58B9187A002858680CBF49688968FB
:10DB6000FEF70DF968B1FFF78FFF01BD00201872B5
:10DB7000496931B101238DF80030ADF802206846C3
:10DB8000884701BD2DE9F84306463A4F30881028F2
:10DB900040F2F3184FF6FF7506D0112829D012284D
:10DBA00050D0502832D061E0F07BB6F804900128C4
:10DBB0005CD12846FFF73AFF040008BF04203ED09E
:10DBC000A4F8009000202072082204F10A002849DD
:10DBD000FCF710FC2B46424606F1100104F10A0046
:10DBE000FFF72DFF6072F88900283FD12146484693
:10DBF00039E0B088FFF71AFF040037D06068FEF7FD
:10DC0000D6F808B1FFF740FF25802FE0F088F989AA
:10DC1000884204BF308A022828D1B5882846FFF7F9
:10DC200005FF040022D006F1120001F0CDFA10B178
:10DC30002146284617E06068FEF7B9F8B0B1BDE8A4
:10DC4000F24321E7B7883846FFF7F0FE04000DD015
:10DC50002B46424606F1080104F10A00FFF7EFFEE9
:10DC6000607221463846BDE8F4436DE7BDE8F183B4
:10DC700050360020DC36002095DA01000EB4C0B525
:10DC8000024603A800210190009101AB0121044844
:10DC900078440C30FBF7B4FA06BC5DF810FB00BF0B
:10DCA0007D37000010B572B6FDF73BFCFDF7FAFAC0
:10DCB0000028FBD11048114C1149041BE40824042E
:10DCC00044F00100FDF7DBFA0E480168CA0700D5F1
:10DCD00000BE0D4944F00200FDF7D1FABFF34F8FAB
:10DCE0000A490B480A6802F4E06202430A60BFF383
:10DCF0004F8F00BFFDE700BF441102002C1102004E
:10DD0000E4130200F0ED00E0F01302000CED00E07F
:10DD10000400FA0581B0002242504058009000995A
:10DD200001B0704740581DE100F20C5001E000F5D1
:10DD3000A16001608260704730B5039D049C41EA98
:10DD4000420141EA830141EA0521DFF81C2441EA4E
:10DD5000044142F8201030BDE0B500F00BF801217D
:10DD600005E0E0B50B460021002201910092FFF78B
:10DD7000E3FF07BD002101910091002301227047BC
:10DD8000F8B50D4604462868DFF8E063012710F176
:10DD9000010F05D007FA00F030602868FFF7DCFFBC
:10DDA000686810F1010F1CBF0021FFF7DAFF20683F
:10DDB000A96900F2245211606B7D297D0B439364A5
:10DDC0006A682968FFF7B0FF287D012815D1A86887
:10DDD00010F1010F1CBF0021FFF7C3FFE86810F12D
:10DDE000010F04D087403760E868FFF7B5FFAA68E5
:10DDF000E9682068BDE8F84099E7F1BD38B5044608
:10DE00000D4620684FF48871FFF784FF20684FF4B7
:10DE10009071FFF77FFF20684FF49271FFF77AFF50
:10DE200020684FF4A271FFF775FF2068DFF84013F8
:10DE3000C0F80413000B690142B2002A07D5DFF8CD
:10DE4000342300F00F00104400F8041C02E0DFF857
:10DE50002833995401222168DFF82033090B01F09F
:10DE60001F0049B28240490943F8212031BDF8B56D
:10DE700004460D46217916462423DFF8042313FBBC
:10DE800001F3D71897F8200008B10820F2BD0FF26F
:10DE9000F82050F82110206801F013FB08B1112080
:10DEA000F2BD29462046FFF76BFF7E60296978683E
:10DEB000396018B1297F2046FFF7A0FF21680820AC
:10DEC000C1F800050022BA61FA617A61012087F881
:10DED00020000020F2BDF8B5054617462A790C4609
:10DEE0002420A74942438E1804F06041B1F1005F3D
:10DEF0002ED1284600F030F860BB7761B4604FF453
:10DF000090712868FFF706FF28684FF4AC71FFF79F
:10DF100001FF70692968B36801F244520027136059
:10DF2000506001228A60706880B928684FF490714F
:10DF3000FFF7F8FE044628684FF4AC71FFF7F2FED5
:10DF40000443F2D000B10F27002070613846F2BDC3
:10DF50001020F2BD1120F2BD0279894924204243EC
:10DF60008818406900B10120C0B270472DE9F84F10
:10DF700005460E4628794FF0240806F06044DFF885
:10DF8000009218FB00F0B4F1005F09EB000314D11C
:10DF9000586800244FF4047A20B12F6807F54177C0
:10DFA000C7F804A093469A696AB1DA693AB110B128
:10DFB0002868C0F804A3112050E010204EE001248E
:10DFC0001961584603E0C3F818B0D9600020D86141
:10DFD0004FF488712868FFF79DFE28684FF4A271FE
:10DFE000FFF798FE296801F2345000270660C0F858
:10DFF00004B014B90120086005E0D1F8002242F015
:10E000002002C1F8002209F104022B7918FB03F366
:10E01000D05800BB2E4630684FF48871FFF782FE5F
:10E02000044630684FF4A271FFF77CFE0546306865
:10E030004FF49271FFF776FE2C430443EBD0327914
:10E0400009F1180118FB02F841F8087000B1032724
:10E050001DB10F2701E0C1F804A33846BDE8F28FD7
:10E060001FB50346012402918DF8004001926846D5
:10E0700019685A6890471FBD7FB50C464FF49271DE
:10E080000646FFF74FFE06F23C55B8B14FF49271C9
:10E0900000F063F802208DF80000D6F88014C6F86E
:10E0A00080140391296802910021E0680190A16128
:10E0B000E161684621686268904721E04FF4887109
:10E0C0003046FFF72FFED8B14FF4887100F045F8C5
:10E0D0002968A069814213D1E268E06960B1D6F88D
:10E0E000000220F02000C6F80002E0692369A06168
:10E0F000E3600020E06100E0A0612046FFF7B0FF90
:10E100004FF4A2713046FFF70DFE68B14FF4A271D3
:10E1100000F023F8A06938B10021A161E161204637
:10E120002968E268FFF79CFF4FF490713046FFF7D3
:10E13000F9FD88B14FF4907100F00FF8606958B1A3
:10E140002969029100228DF80020A0680190626187
:10E1500068462168626890477FBD3046DAE5084925
:10E16000084889E70000000000070050080500503B
:10E170001003020018ED00E000E400E000E100E020
:10E18000B8360020002000405FE1010081B000228D
:10E19000425040580090009901B07047405839E112
:10E1A000D0F80403084018BF0120C0B2704700F245
:10E1B0000C5082600160704700F5A16001608260D0
:10E1C000704730B5039D049C41EA420141EA830156
:10E1D00041EA0521DFF8D42441EA044142F8201045
:10E1E00030BDE0B500F00BF8012105E0E0B50B46CD
:10E1F0000021002201910092FFF7E3FF07BD0021FB
:10E2000001910091002301227047F8B50D460446A4
:10E210002868DFF89C64012710F1010F05D007FA88
:10E2200000F030602868FFF7DCFF686810F1010F2C
:10E230001CBF0021FFF7DAFF2068A96900F2245211
:10E2400011606B7D297D0B4393646A682968FFF731
:10E25000AEFF287D012815D1A86810F1010F1CBF61
:10E260000021FFF7C3FFE86810F1010F04D08740D9
:10E270003760E868FFF7B5FFAA68E9682068BDE87D
:10E28000F84099E7F1BD38B504460D4620684FF4D3
:10E290008E71FFF77BFF20684FF4A271FFF776FFC6
:10E2A0002068DFF81014C0F80413000B690142B2B3
:10E2B000002A07D5DFF8002400F00F00104400F812
:10E2C000041C02E0DFF8F433995401222168DFF8DE
:10E2D000F033090B01F01F0049B28240490943F8AD
:10E2E000212031BD2DE9F04104460D4690462179AB
:10E2F000DFF8D0032C2212FB01F2871807F1290660
:10E30000707808B1082023E00FF2C03050F82110D7
:10E31000206801F0D6F808B1112019E029462046FE
:10E32000FFF773FFC7F8048029697868396018B16E
:10E33000297F2046FFF7A7FF21680420C1F80005C8
:10E340000022BA61FA6132707A6101207070002097
:10E35000BDE8F08138B50D4604464FF48E71FFF7E5
:10E3600015FFA868296A405C2A6A521C2A62C4F810
:10E370001C0531BDF8B5054617462A790E462C20F6
:10E38000DFF8401342438C18284600F03CF808B1EF
:10E390001120F2BD6761A6602062002184F8281078
:10E3A0004FF48E712868FFF7F1FE28680121816023
:10E3B00000262146FFF7CEFF606868B92F6811E09C
:10E3C00028684FF48E71FFF7E9FE0028F8D029681D
:10E3D0000120C860002060613046F2BD2146384609
:10E3E000FFF7B8FF206A61698842E9D24FF48E7165
:10E3F0003846FFF7D3FE0028F0D194F82800002813
:10E40000F4D00F26E6E70279DFF8B8122C20424359
:10E410008818406900B10120C0B2704710B500F003
:10E4200090F820684FF48471FFF7B0FE2168012056
:10E43000086010BD38B50D460446A86900284FF4A1
:10E440008471204604D1FFF7A1FED4F8180531BD30
:10E45000FFF79CFE686AD4F81815EA681154686AD8
:10E46000401C686231BD2DE9F04107462C203C7903
:10E47000944B44431E19002370684FF4017418B183
:10E480003D6805F541704460B06960B1F06930B134
:10E49000706810B13968C1F8044311204FE0316150
:10E4A0000123F26103E0B261F1607062F36196F8FA
:10E4B0002900034304BF3846FFF7B0FF70683A688D
:10E4C000002839D14FF4A2711046FFF75FFE38687B
:10E4D0004FF49271FFF762FE054638684FF484717D
:10E4E000FFF75CFE044638684FF4A271FFF756FE52
:10E4F000804648EA04042C43E9D058EA050007D1D5
:10E5000038683146FFF796FF706AB1698842DED3FA
:10E510000020B0610DB1032011E0B8F1000F18BF69
:10E520000F200CD196F829003968002807BF012078
:10E53000486001220A6001E0C2F804430020BDE8FF
:10E54000F08104464FF4927120681FE61FB5034620
:10E55000012402918DF800400192684619685A68BA
:10E5600090471FBDF8B5024600238DF80030029198
:10E57000906801905361684611685268904705B0F1
:10E5800000BDF8B584B005460C464FF40071FFF7A6
:10E5900007FE04F128064FF4017718B34FF4927187
:10E5A00000F07DF8F0B14FF492712846FFF7EEFDD0
:10E5B000C5F80873707808B90121696002208DF8E8
:10E5C00000000021D5F88004C5F880040390A069FC
:10E5D0000290E0680190A161E1616846216862688B
:10E5E000904729E004212846FFF7DAFD20B34FF4D5
:10E5F000847100F054F8F8B121462846FFF71AFF5D
:10E60000A069616A884217D1E06940B1E268616A35
:10E61000A06100232069E060E361636209E0707833
:10E6200008B901216960C5F808730020E268A0619B
:10E63000616A2046FFF78AFF4FF48E7100F02FF8D1
:10E64000A0B1206A6169884206D2307820B921469B
:10E650002846FFF77FFE09E04FF48E712846FFF74A
:10E6600095FD616911B12046FFF77CFF4FF4A2715F
:10E6700000F015F888B14FF4A2712846FFF786FD27
:10E68000707808B101212960A06930B10021A16131
:10E690002046E268616AFFF759FF05B0F0BD2846E1
:10E6A0007CE5084908486CE70000000000070050BE
:10E6B000080500508000020018ED00E000E400E0D2
:10E6C00000E100E08C36002000200040A3E60100BD
:10E6D00010B50368C468828814401955C168491C84
:10E6E000C16010BD10B5036884688088611801405E
:10E6F0005B5C137010BD10B50A4604460021FFF79D
:10E70000F1FFA068401CA06010BD10B509B90E2033
:10E7100010BD130002D0541E144201D0092010BDB8
:10E720000160511E818000228260C260002010BD05
:10E7300010B58268C36884889A1A944203D3FFF79D
:10E74000C7FF002010BD042010BD80B58268C368DB
:10E750009A1A03D0FFF7CFFF002002BD052002BDAB
:10E76000F8B500E0F8B502788DF800204368019311
:10E7700082688DF80820C068194A039002EB810274
:10E78000684691685268904705B000BDF8B50446E8
:10E7900088B02678124F07EB8600154645600A6957
:10E7A00082602022487FB8556846FBF733FE049606
:10E7B0002678B85D40B1002D14BF0A4A0022694690
:10E7C000201DFFF754FB08E0002D14BF064A00226D
:10E7D000694604F10C00FFF785FD09B0F0BD0000AB
:10E7E0006837002061E7010065E7010030B5039D4F
:10E7F000049C41EA420141EA830141EA0521234A9E
:10E8000041EA044142F8201030BD012202FA00F032
:10E810001F4A09B950607047106070471D4900BF1A
:10E820003BA22AE03AA2105C0021EEE738A2105C7D
:10E830000121EAE710B500242046FFF7F7FF641C2A
:10E84000042CF9D310BD10B500242046FFF7EAFFD1
:10E85000641C042CF9D310BD2DA1085C0D490A6875
:10E86000012303FA00F020EA02034B6010408860A5
:10E8700070470000084900BF26A20968105CC1402B
:10E8800001F00101481E8041C00F70470007005091
:10E8900008050050040500501005005010B5014651
:10E8A0004FF0FF305FF000021AA39C5C8C4203D053
:10E8B000521C042AF9D310BD104610BD15A1085CE6
:10E8C00070470000FEB50446E00710D55FF0000574
:10E8D0000FA60027019700970023705D01220121F8
:10E8E000FFF784FF6D1C042DF4D3FFF7A3FFA007EF
:10E8F0000DD5002407A500200190002100910323DD
:10E90000285D0022FFF772FF641C042CF3D3F7BDCF
:10E91000111213140D0E0F102DE9FC4E00266F4935
:10E920000A78F0B290424CD20F46F1B2B86900EBCF
:10E93000C1040120257800212A4600F0E3FDCDE93D
:10E940000001D7E904AB00EA0A0201EA0B03002048
:10E95000834208BF824232D0DDE900012AEA00008A
:10E960002BEA0101C7E90401284600F053FF824663
:10E97000D7E902012578CDE900012A4601200021CE
:10E9800000F0C0FDDDE9002302EA000703EA010907
:10E99000504600212A4600F0B5FD894508BF874250
:10E9A0000DD167786268012F14BF0020012080EA32
:10E9B0000A00411E8941C90F0AB128469047761CBA
:10E9C000ADE7BDE8F38E2DE9F04E8246012000212F
:10E9D000524600F097FD0646DFF800B10F460BF1F6
:10E9E0002000FDF7E4F980BBDBE90401F443FD43BB
:10E9F00001EA0709002200EA0603914508BF934295
:10EA00001FD1504600F006FFDBE90223002819BFA2
:10EA100042EA060043EA070102EA040003EA0501AC
:10EA2000CBE902010022DBE9040130433943CBE9A1
:10EA30000401DBF81C100BF12000BDE8F04EFDF7DF
:10EA40009EB920402940CBE90401BDE8F08E0000CA
:10EA5000F8B51646052E04460D4601D20720F2BD34
:10EA600000F03AFE10B900F007FE28BB00221B4858
:10EA7000C661C0E90222C0E9042284610570184E13
:10EA80001AA72846451EC0B280B138680090E8B287
:10EA900004EBC0018A788DF80120324614F830006A
:10EAA000694600F020FE0028EBD0F2BDDFF83420EC
:10EAB0000DA00021FDF750F9F2BD38B50024074D37
:10EAC00006E0AA6912F83400012100F062FE641C1D
:10EAD00028788442F5D3002032BD0000D0350020D4
